{
  "_format": "hh-sol-artifact-1",
  "contractName": "BundleNFTUnified",
  "sourceName": "contracts/BundleNFTUnified_Updated.sol",
  "abi": [
    {
      "inputs": [
        {
          "internalType": "address",
          "name": "_registry",
          "type": "address"
        },
        {
          "internalType": "address",
          "name": "_accountImplementation",
          "type": "address"
        }
      ],
      "stateMutability": "nonpayable",
      "type": "constructor"
    },
    {
      "inputs": [
        {
          "internalType": "address",
          "name": "sender",
          "type": "address"
        },
        {
          "internalType": "uint256",
          "name": "tokenId",
          "type": "uint256"
        },
        {
          "internalType": "address",
          "name": "owner",
          "type": "address"
        }
      ],
      "name": "ERC721IncorrectOwner",
      "type": "error"
    },
    {
      "inputs": [
        {
          "internalType": "address",
          "name": "operator",
          "type": "address"
        },
        {
          "internalType": "uint256",
          "name": "tokenId",
          "type": "uint256"
        }
      ],
      "name": "ERC721InsufficientApproval",
      "type": "error"
    },
    {
      "inputs": [
        {
          "internalType": "address",
          "name": "approver",
          "type": "address"
        }
      ],
      "name": "ERC721InvalidApprover",
      "type": "error"
    },
    {
      "inputs": [
        {
          "internalType": "address",
          "name": "operator",
          "type": "address"
        }
      ],
      "name": "ERC721InvalidOperator",
      "type": "error"
    },
    {
      "inputs": [
        {
          "internalType": "address",
          "name": "owner",
          "type": "address"
        }
      ],
      "name": "ERC721InvalidOwner",
      "type": "error"
    },
    {
      "inputs": [
        {
          "internalType": "address",
          "name": "receiver",
          "type": "address"
        }
      ],
      "name": "ERC721InvalidReceiver",
      "type": "error"
    },
    {
      "inputs": [
        {
          "internalType": "address",
          "name": "sender",
          "type": "address"
        }
      ],
      "name": "ERC721InvalidSender",
      "type": "error"
    },
    {
      "inputs": [
        {
          "internalType": "uint256",
          "name": "tokenId",
          "type": "uint256"
        }
      ],
      "name": "ERC721NonexistentToken",
      "type": "error"
    },
    {
      "inputs": [
        {
          "internalType": "address",
          "name": "owner",
          "type": "address"
        }
      ],
      "name": "OwnableInvalidOwner",
      "type": "error"
    },
    {
      "inputs": [
        {
          "internalType": "address",
          "name": "account",
          "type": "address"
        }
      ],
      "name": "OwnableUnauthorizedAccount",
      "type": "error"
    },
    {
      "inputs": [],
      "name": "ReentrancyGuardReentrantCall",
      "type": "error"
    },
    {
      "anonymous": false,
      "inputs": [
        {
          "indexed": true,
          "internalType": "address",
          "name": "owner",
          "type": "address"
        },
        {
          "indexed": true,
          "internalType": "address",
          "name": "approved",
          "type": "address"
        },
        {
          "indexed": true,
          "internalType": "uint256",
          "name": "tokenId",
          "type": "uint256"
        }
      ],
      "name": "Approval",
      "type": "event"
    },
    {
      "anonymous": false,
      "inputs": [
        {
          "indexed": true,
          "internalType": "address",
          "name": "owner",
          "type": "address"
        },
        {
          "indexed": true,
          "internalType": "address",
          "name": "operator",
          "type": "address"
        },
        {
          "indexed": false,
          "internalType": "bool",
          "name": "approved",
          "type": "bool"
        }
      ],
      "name": "ApprovalForAll",
      "type": "event"
    },
    {
      "anonymous": false,
      "inputs": [
        {
          "indexed": false,
          "internalType": "uint256",
          "name": "_fromTokenId",
          "type": "uint256"
        },
        {
          "indexed": false,
          "internalType": "uint256",
          "name": "_toTokenId",
          "type": "uint256"
        }
      ],
      "name": "BatchMetadataUpdate",
      "type": "event"
    },
    {
      "anonymous": false,
      "inputs": [
        {
          "indexed": true,
          "internalType": "uint256",
          "name": "bundleId",
          "type": "uint256"
        },
        {
          "indexed": true,
          "internalType": "address",
          "name": "creator",
          "type": "address"
        },
        {
          "indexed": false,
          "internalType": "address",
          "name": "accountAddress",
          "type": "address"
        },
        {
          "indexed": false,
          "internalType": "address[]",
          "name": "nftContracts",
          "type": "address[]"
        },
        {
          "indexed": false,
          "internalType": "uint256[]",
          "name": "tokenIds",
          "type": "uint256[]"
        }
      ],
      "name": "BundleCreated",
      "type": "event"
    },
    {
      "anonymous": false,
      "inputs": [
        {
          "indexed": true,
          "internalType": "uint256",
          "name": "bundleId",
          "type": "uint256"
        },
        {
          "indexed": true,
          "internalType": "address",
          "name": "owner",
          "type": "address"
        },
        {
          "indexed": false,
          "internalType": "address[]",
          "name": "nftContracts",
          "type": "address[]"
        },
        {
          "indexed": false,
          "internalType": "uint256[]",
          "name": "tokenIds",
          "type": "uint256[]"
        }
      ],
      "name": "BundleUnwrapped",
      "type": "event"
    },
    {
      "anonymous": false,
      "inputs": [
        {
          "indexed": false,
          "internalType": "uint256",
          "name": "_tokenId",
          "type": "uint256"
        }
      ],
      "name": "MetadataUpdate",
      "type": "event"
    },
    {
      "anonymous": false,
      "inputs": [
        {
          "indexed": true,
          "internalType": "uint256",
          "name": "bundleId",
          "type": "uint256"
        },
        {
          "indexed": true,
          "internalType": "address",
          "name": "nftContract",
          "type": "address"
        },
        {
          "indexed": true,
          "internalType": "uint256",
          "name": "tokenId",
          "type": "uint256"
        }
      ],
      "name": "NFTDeposited",
      "type": "event"
    },
    {
      "anonymous": false,
      "inputs": [
        {
          "indexed": true,
          "internalType": "address",
          "name": "previousOwner",
          "type": "address"
        },
        {
          "indexed": true,
          "internalType": "address",
          "name": "newOwner",
          "type": "address"
        }
      ],
      "name": "OwnershipTransferred",
      "type": "event"
    },
    {
      "anonymous": false,
      "inputs": [
        {
          "indexed": true,
          "internalType": "address",
          "name": "from",
          "type": "address"
        },
        {
          "indexed": true,
          "internalType": "address",
          "name": "to",
          "type": "address"
        },
        {
          "indexed": true,
          "internalType": "uint256",
          "name": "tokenId",
          "type": "uint256"
        }
      ],
      "name": "Transfer",
      "type": "event"
    },
    {
      "inputs": [],
      "name": "ACCOUNT_SALT",
      "outputs": [
        {
          "internalType": "bytes32",
          "name": "",
          "type": "bytes32"
        }
      ],
      "stateMutability": "view",
      "type": "function"
    },
    {
      "inputs": [],
      "name": "accountImplementation",
      "outputs": [
        {
          "internalType": "address",
          "name": "",
          "type": "address"
        }
      ],
      "stateMutability": "view",
      "type": "function"
    },
    {
      "inputs": [
        {
          "internalType": "address",
          "name": "to",
          "type": "address"
        },
        {
          "internalType": "uint256",
          "name": "tokenId",
          "type": "uint256"
        }
      ],
      "name": "approve",
      "outputs": [],
      "stateMutability": "nonpayable",
      "type": "function"
    },
    {
      "inputs": [
        {
          "internalType": "address",
          "name": "owner",
          "type": "address"
        }
      ],
      "name": "balanceOf",
      "outputs": [
        {
          "internalType": "uint256",
          "name": "",
          "type": "uint256"
        }
      ],
      "stateMutability": "view",
      "type": "function"
    },
    {
      "inputs": [
        {
          "internalType": "uint256",
          "name": "bundleId",
          "type": "uint256"
        },
        {
          "internalType": "address[]",
          "name": "nftContracts",
          "type": "address[]"
        },
        {
          "internalType": "uint256[]",
          "name": "tokenIds",
          "type": "uint256[]"
        }
      ],
      "name": "batchUnwrapBundle",
      "outputs": [],
      "stateMutability": "nonpayable",
      "type": "function"
    },
    {
      "inputs": [
        {
          "internalType": "uint256",
          "name": "bundleId",
          "type": "uint256"
        }
      ],
      "name": "bundleAccountExists",
      "outputs": [
        {
          "internalType": "bool",
          "name": "",
          "type": "bool"
        }
      ],
      "stateMutability": "view",
      "type": "function"
    },
    {
      "inputs": [
        {
          "internalType": "uint256",
          "name": "tokenId",
          "type": "uint256"
        }
      ],
      "name": "bundleExists",
      "outputs": [
        {
          "internalType": "bool",
          "name": "",
          "type": "bool"
        }
      ],
      "stateMutability": "view",
      "type": "function"
    },
    {
      "inputs": [
        {
          "internalType": "uint256",
          "name": "",
          "type": "uint256"
        }
      ],
      "name": "bundles",
      "outputs": [
        {
          "internalType": "string",
          "name": "name",
          "type": "string"
        },
        {
          "internalType": "uint256",
          "name": "itemCount",
          "type": "uint256"
        },
        {
          "internalType": "uint256",
          "name": "createdAt",
          "type": "uint256"
        },
        {
          "internalType": "address",
          "name": "creator",
          "type": "address"
        },
        {
          "internalType": "bool",
          "name": "exists",
          "type": "bool"
        }
      ],
      "stateMutability": "view",
      "type": "function"
    },
    {
      "inputs": [
        {
          "internalType": "address[]",
          "name": "nftContracts",
          "type": "address[]"
        },
        {
          "internalType": "uint256[]",
          "name": "tokenIds",
          "type": "uint256[]"
        },
        {
          "internalType": "string",
          "name": "bundleName",
          "type": "string"
        },
        {
          "internalType": "string",
          "name": "bundleTokenURI",
          "type": "string"
        }
      ],
      "name": "createBundle",
      "outputs": [
        {
          "internalType": "uint256",
          "name": "bundleId",
          "type": "uint256"
        },
        {
          "internalType": "address",
          "name": "accountAddress",
          "type": "address"
        }
      ],
      "stateMutability": "nonpayable",
      "type": "function"
    },
    {
      "inputs": [
        {
          "internalType": "uint256",
          "name": "bundleId",
          "type": "uint256"
        },
        {
          "internalType": "address[]",
          "name": "nftContracts",
          "type": "address[]"
        },
        {
          "internalType": "uint256[]",
          "name": "tokenIds",
          "type": "uint256[]"
        }
      ],
      "name": "demoUnwrapBundle",
      "outputs": [],
      "stateMutability": "nonpayable",
      "type": "function"
    },
    {
      "inputs": [
        {
          "internalType": "uint256",
          "name": "bundleId",
          "type": "uint256"
        },
        {
          "internalType": "address[]",
          "name": "nftContracts",
          "type": "address[]"
        },
        {
          "internalType": "uint256[]",
          "name": "tokenIds",
          "type": "uint256[]"
        }
      ],
      "name": "emergencyUnwrapBundle",
      "outputs": [],
      "stateMutability": "nonpayable",
      "type": "function"
    },
    {
      "inputs": [
        {
          "internalType": "uint256",
          "name": "tokenId",
          "type": "uint256"
        }
      ],
      "name": "getApproved",
      "outputs": [
        {
          "internalType": "address",
          "name": "",
          "type": "address"
        }
      ],
      "stateMutability": "view",
      "type": "function"
    },
    {
      "inputs": [
        {
          "internalType": "uint256",
          "name": "bundleId",
          "type": "uint256"
        }
      ],
      "name": "getBundleAccount",
      "outputs": [
        {
          "internalType": "address",
          "name": "",
          "type": "address"
        }
      ],
      "stateMutability": "view",
      "type": "function"
    },
    {
      "inputs": [
        {
          "internalType": "uint256",
          "name": "tokenId",
          "type": "uint256"
        }
      ],
      "name": "getBundleMetadata",
      "outputs": [
        {
          "components": [
            {
              "internalType": "string",
              "name": "name",
              "type": "string"
            },
            {
              "internalType": "uint256",
              "name": "itemCount",
              "type": "uint256"
            },
            {
              "internalType": "uint256",
              "name": "createdAt",
              "type": "uint256"
            },
            {
              "internalType": "address",
              "name": "creator",
              "type": "address"
            },
            {
              "internalType": "bool",
              "name": "exists",
              "type": "bool"
            }
          ],
          "internalType": "struct BundleNFTUnified.BundleMetadata",
          "name": "",
          "type": "tuple"
        }
      ],
      "stateMutability": "view",
      "type": "function"
    },
    {
      "inputs": [
        {
          "internalType": "address",
          "name": "owner",
          "type": "address"
        },
        {
          "internalType": "address",
          "name": "operator",
          "type": "address"
        }
      ],
      "name": "isApprovedForAll",
      "outputs": [
        {
          "internalType": "bool",
          "name": "",
          "type": "bool"
        }
      ],
      "stateMutability": "view",
      "type": "function"
    },
    {
      "inputs": [],
      "name": "name",
      "outputs": [
        {
          "internalType": "string",
          "name": "",
          "type": "string"
        }
      ],
      "stateMutability": "view",
      "type": "function"
    },
    {
      "inputs": [
        {
          "internalType": "address",
          "name": "",
          "type": "address"
        },
        {
          "internalType": "address",
          "name": "",
          "type": "address"
        },
        {
          "internalType": "uint256",
          "name": "",
          "type": "uint256"
        },
        {
          "internalType": "bytes",
          "name": "",
          "type": "bytes"
        }
      ],
      "name": "onERC721Received",
      "outputs": [
        {
          "internalType": "bytes4",
          "name": "",
          "type": "bytes4"
        }
      ],
      "stateMutability": "pure",
      "type": "function"
    },
    {
      "inputs": [],
      "name": "owner",
      "outputs": [
        {
          "internalType": "address",
          "name": "",
          "type": "address"
        }
      ],
      "stateMutability": "view",
      "type": "function"
    },
    {
      "inputs": [
        {
          "internalType": "uint256",
          "name": "tokenId",
          "type": "uint256"
        }
      ],
      "name": "ownerOf",
      "outputs": [
        {
          "internalType": "address",
          "name": "",
          "type": "address"
        }
      ],
      "stateMutability": "view",
      "type": "function"
    },
    {
      "inputs": [],
      "name": "registry",
      "outputs": [
        {
          "internalType": "contract IERC6551Registry",
          "name": "",
          "type": "address"
        }
      ],
      "stateMutability": "view",
      "type": "function"
    },
    {
      "inputs": [],
      "name": "renounceOwnership",
      "outputs": [],
      "stateMutability": "nonpayable",
      "type": "function"
    },
    {
      "inputs": [
        {
          "internalType": "address",
          "name": "from",
          "type": "address"
        },
        {
          "internalType": "address",
          "name": "to",
          "type": "address"
        },
        {
          "internalType": "uint256",
          "name": "tokenId",
          "type": "uint256"
        }
      ],
      "name": "safeTransferFrom",
      "outputs": [],
      "stateMutability": "nonpayable",
      "type": "function"
    },
    {
      "inputs": [
        {
          "internalType": "address",
          "name": "from",
          "type": "address"
        },
        {
          "internalType": "address",
          "name": "to",
          "type": "address"
        },
        {
          "internalType": "uint256",
          "name": "tokenId",
          "type": "uint256"
        },
        {
          "internalType": "bytes",
          "name": "data",
          "type": "bytes"
        }
      ],
      "name": "safeTransferFrom",
      "outputs": [],
      "stateMutability": "nonpayable",
      "type": "function"
    },
    {
      "inputs": [
        {
          "internalType": "address",
          "name": "operator",
          "type": "address"
        },
        {
          "internalType": "bool",
          "name": "approved",
          "type": "bool"
        }
      ],
      "name": "setApprovalForAll",
      "outputs": [],
      "stateMutability": "nonpayable",
      "type": "function"
    },
    {
      "inputs": [
        {
          "internalType": "bytes4",
          "name": "interfaceId",
          "type": "bytes4"
        }
      ],
      "name": "supportsInterface",
      "outputs": [
        {
          "internalType": "bool",
          "name": "",
          "type": "bool"
        }
      ],
      "stateMutability": "view",
      "type": "function"
    },
    {
      "inputs": [],
      "name": "symbol",
      "outputs": [
        {
          "internalType": "string",
          "name": "",
          "type": "string"
        }
      ],
      "stateMutability": "view",
      "type": "function"
    },
    {
      "inputs": [
        {
          "internalType": "uint256",
          "name": "tokenId",
          "type": "uint256"
        }
      ],
      "name": "tokenURI",
      "outputs": [
        {
          "internalType": "string",
          "name": "",
          "type": "string"
        }
      ],
      "stateMutability": "view",
      "type": "function"
    },
    {
      "inputs": [],
      "name": "totalBundles",
      "outputs": [
        {
          "internalType": "uint256",
          "name": "",
          "type": "uint256"
        }
      ],
      "stateMutability": "view",
      "type": "function"
    },
    {
      "inputs": [
        {
          "internalType": "address",
          "name": "from",
          "type": "address"
        },
        {
          "internalType": "address",
          "name": "to",
          "type": "address"
        },
        {
          "internalType": "uint256",
          "name": "tokenId",
          "type": "uint256"
        }
      ],
      "name": "transferFrom",
      "outputs": [],
      "stateMutability": "nonpayable",
      "type": "function"
    },
    {
      "inputs": [
        {
          "internalType": "address",
          "name": "newOwner",
          "type": "address"
        }
      ],
      "name": "transferOwnership",
      "outputs": [],
      "stateMutability": "nonpayable",
      "type": "function"
    },
    {
      "inputs": [
        {
          "internalType": "uint256",
          "name": "bundleId",
          "type": "uint256"
        },
        {
          "internalType": "address[]",
          "name": "nftContracts",
          "type": "address[]"
        },
        {
          "internalType": "uint256[]",
          "name": "tokenIds",
          "type": "uint256[]"
        }
      ],
      "name": "unwrapBundle",
      "outputs": [],
      "stateMutability": "nonpayable",
      "type": "function"
    },
    {
      "inputs": [
        {
          "internalType": "uint256",
          "name": "bundleId",
          "type": "uint256"
        },
        {
          "internalType": "address[]",
          "name": "nftContracts",
          "type": "address[]"
        },
        {
          "internalType": "uint256[]",
          "name": "tokenIds",
          "type": "uint256[]"
        },
        {
          "internalType": "address",
          "name": "recipient",
          "type": "address"
        }
      ],
      "name": "withdrawFromBundle",
      "outputs": [],
      "stateMutability": "nonpayable",
      "type": "function"
    }
  ],
  "bytecode": "0x60c0346200045c5762002f2f90601f90601f19906001600160401b0390388590038481018416820190838211838310176200037e57808391604098899485528339810103126200045c57620000548162000480565b9162000064602080930162000480565b936200006f62000460565b95601587527f466f7274756e61205371756172652042756e646c65000000000000000000000084880152620000a362000460565b60038152622329a160e91b8582015287518481116200037e575f546001998a82811c9216801562000451575b888310146200035f578185849311620003fe575b5087908583116001146200039e575f9262000392575b50505f19600383901b1c191690891b175f555b80519384116200037e578754928884811c9416801562000373575b868510146200035f57838386951162000308575b5085928411600114620002a757505f926200029b575b50505f19600383901b1c191690851b1784555b3315620002845760078054336001600160a01b0319821681179092558651936001600160a01b0392839283167f8be0079c531659141344cd1fd0a4f28419497f9722a3daafe3b4186f6b6457e05f80a3169283156200024f57508316156200020c575060805260a05260095551612a999081620004968239608051818181610dd2015281816111960152612659015260a05181818161114901528181611b79015261260e0152f35b60649085519062461bcd60e51b82526004820152601660248201527f496e76616c696420696d706c656d656e746174696f6e000000000000000000006044820152fd5b62461bcd60e51b815260048101839052601060248201526f496e76616c696420726567697374727960801b6044820152606490fd5b8451631e4fbdf760e01b81525f6004820152602490fd5b015190505f8062000151565b88949291921691845f52855f20925f5b87828210620002f15750508411620002d8575b505050811b01845562000164565b01515f1960f88460031b161c191690555f8080620002ca565b8385015186558b97909501949384019301620002b7565b9091929350885f52855f208480870160051c82019288881062000355575b9187968c92969594930160051c01915b828110620003465750506200013b565b5f81558796508b910162000336565b9250819262000326565b634e487b7160e01b5f52602260045260245ffd5b93607f169362000127565b634e487b7160e01b5f52604160045260245ffd5b015190505f80620000f9565b90868c9416915f8052895f20925f5b8b828210620003e75750508411620003ce575b505050811b015f556200010c565b01515f1960f88460031b161c191690555f8080620003c0565b8385015186558f97909501949384019301620003ad565b9091505f8052875f208580850160051c8201928a861062000447575b918d91869594930160051c01915b82811062000438575050620000e3565b5f81558594508d910162000428565b925081926200041a565b91607f1691620000cf565b5f80fd5b60408051919082016001600160401b038111838210176200037e57604052565b51906001600160a01b03821682036200045c5756fe6080806040526004361015610012575f80fd5b5f3560e01c90816301ffc9a714611ed85750806306fdde0314611e31578063081812fc14611df557806308a0e54514611c89578063095ea7b314611ba857806311464fbe14611b64578063150b7a0214611b0e57806321b9d98d146118ea57806323b872dd146118d357806332a5e3d51461189e57806342842e0e146118715780634ff894311461185357806356352ecb1461182a5780636352211e146117fa57806363d2db5f146117dd578063701d428a14610eb257806370a0823114610e5c578063715018a614610e015780637b10399914610dbd57806382c06a9114610c3d5780638da5cb5b14610c1557806395d89b4114610b375780639e78409714610942578063a22cb465146108a1578063a4b47490146107ad578063b88d4fde14610740578063c87b56dd146106e6578063cf19384b14610668578063d27163121461064e578063e985e9c5146105fc578063f1e49882146102075763f2fde38b1461017c575f80fd5b3461020357602036600319011261020357610195612022565b61019d6128cd565b6001600160a01b039081169081156101eb57600754826001600160601b0360a01b821617600755167f8be0079c531659141344cd1fd0a4f28419497f9722a3daafe3b4186f6b6457e05f80a3005b604051631e4fbdf760e01b81525f6004820152602490fd5b5f80fd5b346102035761021536611fd3565b600260099594939554146105ea576002600955835f52600a60205261024660ff600360405f20015460a01c16612245565b61024f8461273f565b91610264336001600160a01b03851614612289565b61026f82871461242b565b610278856125f7565b61028187612714565b9061028f60405192836120f9565b87825261029b88612714565b601f19013660208401376102ae88612714565b916102bc60405193846120f9565b8883526102c889612714565b601f19013660208501376102db89612714565b6102e860405191826120f9565b8981526102f48a612714565b5f5b601f19820181106105d75750505f5b8a8082106105265750506040519384926323f0ed1560e11b8452606484016060600486015281518091526020608486019201905f5b81811061050457505050600319848203016024850152602080835192838152019201905f5b8181106104eb57505050600319838203016044840152815180825260208201916020808360051b8301019401925f915b8383106104ba57505050505091815f818195039260018060a01b03165af180156104af5761040a575b509484926103e75f80516020612a44833981519152936104039860405194859460018060a01b03169885612389565b0390a3805f52600a6020526103fe60405f206123c9565b612779565b6001600955005b3d805f833e61041981836120f9565b8101906020818303126102035780516001600160401b0391828211610203570182601f8201121561020357805160208061045283612714565b61045f60405191826120f9565b838152019160051b830101928484116102035760208301915b8483106104895750505050506103b8565b8251828111610203576020916104a4888480948901016126ad565b815201920191610478565b6040513d5f823e3d90fd5b9193955091936020806104d9600193601f198682030187528951611f7e565b9701930193019092879594929361038f565b825184528795506020938401939092019160010161035f565b82516001600160a01b031684528896506020938401939092019160010161033a565b9061054061053b826001948d999697996122c8565b6122ec565b61054a828861272b565b90838060a01b031690525f61055f828561272b565b526105a96105b7610571838b8b6122c8565b604051632142170760e11b60208201526001600160a01b03808a1660248301528d166044820152903560648201529182906084820190565b03601f1981018352826120f9565b6105c1828661272b565b526105cc818561272b565b500193919093610305565b60606020828501810191909152016102f6565b604051633ee5aeb560e01b8152600490fd5b3461020357604036600319011261020357610615612022565b61061d612038565b9060018060a01b038091165f52600560205260405f2091165f52602052602060ff60405f2054166040519015158152f35b34610203575f3660031901126102035760206040515f8152f35b34610203576020366003190112610203576004355f52600a6020526106bb60405f20610693816121a3565b9060ff600182015491600360028201549101549060405195869560a0875260a0870190611f7e565b602086019490945260408501526001600160a01b038116606085015260a01c16151560808301520390f35b34610203576020366003190112610203576004356107038161273f565b505f52600660205261073c61071a60405f206121a3565b5f604051610727816120de565b52604051918291602083526020830190611f7e565b0390f35b3461020357608036600319011261020357610759612022565b610761612038565b90604435606435926001600160401b0384116102035736602385011215610203576107996107ab943690602481600401359101612135565b926107a583838361246f565b336128f9565b005b34610203576020806003193601126102035760a0906004355f60806040516107d4816120c3565b6060815282858201528260408201528260608201520152805f52600a825261080760ff600360405f200154851c16612245565b5f52600a815260405f206040519161081e836120c3565b610827826121a3565b8352600182015491818401928352600360028201549160408601928352015491600180871b03916108816060870192848616845260ff60808901968a1c1615158652604051988998828a52519189015260c0880190611f7e565b945160408701525160608601525116608084015251151560a08301520390f35b34610203576040366003190112610203576108ba612022565b60243590811515809203610203576001600160a01b031690811561092957335f52600560205260405f20825f5260205260405f2060ff1981541660ff83161790556040519081527f17307eab39ab6107e8899845ad3d59bd9653f200f220920489ca2b5937696c3160203392a3005b604051630b61174360e31b815260048101839052602490fd5b346102035760803660031901126102035760246004356001600160401b03823581811161020357610977903690600401611fa3565b939060449260443590811161020357610994903690600401611fa3565b909390916001600160a01b03919060649081358481168103610203576002600954146105ea576002600955885f52602090600a6020526109e060ff600360405f20015460a01c16612245565b6109f56109ec8b61273f565b87163314612289565b610a00878c1461242b565b610a098a6125f7565b90868216978c5f5b818110610a5057508c5f52600a602052600160405f20018054918203918211610a3c57556001600955005b634e487b7160e01b5f52601160045260245ffd5b5f8c8c8f838d8f92858f8f8f8f8f8f9e899f948f92610ad095610abd61053b96610acb93610a8588610af99f9c60609d6122c8565b35916040519d8e95632142170760e11b90870152850160409194939294606082019560018060a01b0380921683521660208201520152565b03601f1981018a52896120f9565b6122c8565b946040519c8d9a8b998a98639e5d4c4960e01b8a52166004890152870152850152830190611f7e565b03925af19182156104af57600192610b15575b50018d90610a11565b610b30903d805f833e610b2881836120f9565b8101906126ef565b508f610b0c565b34610203575f366003190112610203576040515f60018260015492610b5b8461216b565b92838352602094856001821691825f14610bf5575050600114610b9a575b50610b86925003836120f9565b61073c604051928284938452830190611f7e565b84915060015f527fb10e2d527612073b26eecdfd717e6a320cf44b4afac2b0732d9fcbe2b7fa0cf6905f915b858310610bdd575050610b86935082010185610b79565b80548389018501528794508693909201918101610bc6565b60ff191685820152610b8695151560051b8501019250879150610b799050565b34610203575f366003190112610203576007546040516001600160a01b039091168152602090f35b3461020357610c4b36611fd3565b60026009959492939554146105ea576002600955835f52602092600a602052610c8060ff600360405f20015460a01c16612245565b610c898561273f565b6001600160a01b038181169590610ca1338814612289565b610cac858a1461242b565b610cb5886125f7565b90808216915f5b8b8110610ceb57506104038a8a815f80516020612a448339815191528f8d6103e78e8e60405194859485612389565b8084848e8c84610cfd8c978f8f6122c8565b604051632142170760e11b8d8201526001600160a01b038a8116602480840191909152991660448201529035606480830191909152815292610d406084856120f9565b610d49926122c8565b610d52906122ec565b906040519586938493639e5d4c4960e01b855216600484015282015f9052604482016060905260648201610d8591611f7e565b03815a5f948591f19182156104af57600192610da3575b5001610cbc565b610db6903d805f833e610b2881836120f9565b508d610d9c565b34610203575f366003190112610203576040517f00000000000000000000000000000000000000000000000000000000000000006001600160a01b03168152602090f35b34610203575f36600319011261020357610e196128cd565b600780546001600160a01b031981169091555f906001600160a01b03167f8be0079c531659141344cd1fd0a4f28419497f9722a3daafe3b4186f6b6457e08280a3005b34610203576020366003190112610203576001600160a01b03610e7d612022565b168015610e9a575f526003602052602060405f2054604051908152f35b6040516322718ad960e21b81525f6004820152602490fd5b34610203576080366003190112610203576004356001600160401b03811161020357610ee2903690600401611fa3565b906024356001600160401b03811161020357610f02903690600401611fa3565b916044356001600160401b03811161020357610f2290369060040161204e565b6064949194356001600160401b03811161020357610f4490369060040161204e565b6002600997929754146105ea576002600955871561179857610f6784891461242b565b6032881161175a57821561171e576008549660018801600855604051610f8c816120de565b5f815230156112c3576001600160a01b03610fa78a30612814565b1661170657303b6115e9575b50610fbf913691612135565b865f52600660205260405f20908051906001600160401b03821161152f57610fe7835461216b565b601f81116115b9575b50602090601f831160011461154e579180611026926110679695945f92611543575b50508160011b915f199060031b1c19161790565b90555b7ff8e1a15aba9398e019f0b49df1a4fde98ee17ae345cb5f6b5e2c27f5033e8ce76020604051898152a160405192611060846120c3565b3691612135565b815285602082015242604082015233606082015260016080820152845f52600a60205260405f2081518051906001600160401b03821161152f576110ab835461216b565b601f81116114f4575b50602090601f831160011461148c5791806110e792600395945f926114815750508160011b915f199060031b1c19161790565b81555b6020838101516001830155604080850151600284015560608501519390920180546080909501516001600160a81b03199095166001600160a01b039485161794151560a01b60ff60a01b169490941790935551638a54c52f60e01b81527f000000000000000000000000000000000000000000000000000000000000000090911660048201525f6024820152466044820152306064820152608481018690529190828060a4810103815f7f00000000000000000000000000000000000000000000000000000000000000006001600160a01b03165af19182156104af575f92611460575b50908492915f5b8781106112db57509061123a7ff16aafee70b4d9381e40d72a7c7b5610059947985f22051d5a77283db6ebe474939261122a60405194859460018060a01b03169a8b865260606020870152606086019161231f565b9083820360408501523397612365565b0390a333156112c35761124d8133612814565b916001600160a01b0383168061127657604051637e27328960e01b815260048101849052602490fd5b30036112915760409250600160095582519182526020820152f35b506040516364283d7b60e01b815230600482015260248101919091526001600160a01b03919091166044820152606490fd5b604051633250574960e11b81525f6004820152602490fd5b92935090916001600160a01b036112f661053b838a886122c8565b16906113038184886122c8565b6040516331a9108f60e11b815290356004820152602081602481865afa9081156104af575f91611431575b50336001600160a01b03909116036113fc5761134b8184886122c8565b3591803b1561020357604051632142170760e11b81523360048201526001600160a01b038616602482015260448101939093525f908390606490829084905af19182156104af576001926113ed575b506113a961053b828a886122c8565b6113b48285896122c8565b3590838060a01b0316887f781e1d43e33afdcbec217b692c5247a3d57fced3f967e711cb5d56b2b37dc6c35f80a40190859392916111d5565b6113f6906120b0565b8861139a565b60405162461bcd60e51b815260206004820152600d60248201526c2737ba1027232a1037bbb732b960991b6044820152606490fd5b611453915060203d602011611459575b61144b81836120f9565b810190612300565b8961132e565b503d611441565b61147a91925060203d6020116114595761144b81836120f9565b90866111ce565b015190508b80611012565b90835f5260205f20915f5b601f19851681106114dc575091839160019360039695601f198116106114c5575b505050811b0181556110ea565b01515f1983871b60f8161c191690558a80806114b8565b91926020600181928685015181550194019201611497565b61151f90845f5260205f20601f850160051c81019160208610611525575b601f0160051c01906123b3565b896110b4565b9091508190611512565b634e487b7160e01b5f52604160045260245ffd5b015190508c80611012565b90835f5260205f20915f5b601f19851681106115a15750918391600193611067979695601f19811610611589575b505050811b019055611029565b01515f1960f88460031b161c191690558b808061157c565b91926020600181928685015181550194019201611559565b6115e390845f5260205f20601f850160051c8101916020861061152557601f0160051c01906123b3565b8a610ff0565b60206116239160405180938192630a85bd0160e11b83523360048401525f60248401528d6044840152608060648401526084830190611f7e565b03815f305af15f91816116c1575b5061168a573d15611683573d6116468161211a565b9061165460405192836120f9565b81523d5f602083013e5b8051908161167e57604051633250574960e11b8152306004820152602490fd5b602001fd5b606061165e565b6001600160e01b03191663757a42ff60e11b016116a957610fbf610fb3565b604051633250574960e11b8152306004820152602490fd5b9091506020813d6020116116fe575b816116dd602093836120f9565b8101031261020357516001600160e01b03198116810361020357908b611631565b3d91506116d0565b6040516339e3563760e11b81525f6004820152602490fd5b60405162461bcd60e51b8152602060048201526014602482015273109d5b991b19481b985b59481c995c5d5a5c995960621b6044820152606490fd5b60405162461bcd60e51b8152602060048201526016602482015275546f6f206d616e79204e46547320286d61782035302960501b6044820152606490fd5b60405162461bcd60e51b815260206004820152601a60248201527f4d7573742062756e646c65206174206c656173742031204e46540000000000006044820152606490fd5b34610203575f366003190112610203576020600854604051908152f35b3461020357602036600319011261020357602061181860043561273f565b6040516001600160a01b039091168152f35b346102035760203660031901126102035760206118486004356125f7565b3b1515604051908152f35b346102035760203660031901126102035760206118186004356125f7565b34610203576107ab6118823661207b565b9060405192611890846120de565b5f84526107a583838361246f565b34610203576020366003190112610203576004355f52600a602052602060ff600360405f20015460a01c166040519015158152f35b34610203576107ab6118e43661207b565b9161246f565b34610203576118f836611fd3565b600260099594939554146105ea576002600955835f52600a60205261192960ff600360405f20015460a01c16612245565b6119328461273f565b91611947336001600160a01b03851614612289565b61195282871461242b565b61195b856125f7565b5f5b8781106119945750509484926103e75f80516020612a44833981519152936104039860405194859460018060a01b03169885612389565b6001600160a01b036119aa61053b838b8a6122c8565b166119b68286866122c8565b6040516331a9108f60e11b815290356004820152602081602481855afa9081156104af575f91611aef575b506001600160a01b03848116911603611ab9576119ff8286866122c8565b3590803b1561020357604051632142170760e11b81526001600160a01b0385811660048301528816602482015260448101929092525f908290606490829084905af19081611aaa575b50611aa25760405162461bcd60e51b815260206004820152602760248201527f4e46542065787472616374696f6e206661696c6564202d20636f6e74616374206044820152661cdd5c1c1bdc9d60ca1b6064820152608490fd5b60010161195d565b611ab3906120b0565b89611a48565b60405162461bcd60e51b815260206004820152600e60248201526d4e4654206e6f7420696e2054424160901b6044820152606490fd5b611b08915060203d6020116114595761144b81836120f9565b8a6119e1565b3461020357608036600319011261020357611b27612022565b50611b30612038565b506064356001600160401b03811161020357611b5090369060040161204e565b5050604051630a85bd0160e11b8152602090f35b34610203575f366003190112610203576040517f00000000000000000000000000000000000000000000000000000000000000006001600160a01b03168152602090f35b3461020357604036600319011261020357611bc1612022565b602435611bcd8161273f565b33151580611c76575b80611c4d575b611c35576001600160a01b039283169282918491167f8c5be1e5ebec7d5bd14f71427d1e84f3dd0314c0f7b2291e5b200ac8c7c3b9255f80a45f90815260046020526040902080546001600160a01b0319169091179055005b60405163a9fbf51f60e01b8152336004820152602490fd5b5060018060a01b0381165f52600560205260405f20335f5260205260ff60405f20541615611bdc565b506001600160a01b038116331415611bd6565b3461020357611c9736611fd3565b92916002600954146105ea576002600955845f52602093600a8552611cc860ff600360405f20015460a01c16612245565b611cd18661273f565b6001600160a01b0390611ce79082163314612289565b611cf0876125f7565b81165f5b838110611d395761040389600a8a8a835f80516020612a448339815191528c8c611d268d604051938493339885612389565b0390a3825f52526103fe60405f206123c9565b82611d4861053b83888b6122c8565b16611d548286896122c8565b3589604051809381936331a9108f60e11b8352600483015260249485915afa9081156104af57849186915f91611dd8575b501603611d955750600101611cf4565b8860176064926040519262461bcd60e51b845260048401528201527f4e465420766572696669636174696f6e206661696c65640000000000000000006044820152fd5b611def91508c8d3d106114595761144b81836120f9565b8d611d85565b3461020357602036600319011261020357600435611e128161273f565b505f526004602052602060018060a01b0360405f205416604051908152f35b34610203575f366003190112610203576040515f80549082611e528361216b565b91828252602093600190856001821691825f14610bf5575050600114611e7f5750610b86925003836120f9565b5f808052859250907f290decd9548b62a8d60345a988386fc84ba6bc95484008f6362f93160ef3e5635b858310611ec0575050610b86935082010185610b79565b80548389018501528794508693909201918101611ea9565b34610203576020366003190112610203576004359063ffffffff60e01b821680920361020357602091632483248360e11b8114908115611f1a575b5015158152f35b6380ac58cd60e01b811491508115611f4c575b8115611f3b575b5083611f13565b6301ffc9a760e01b14905083611f34565b635b5e139f60e01b81149150611f2d565b5f5b838110611f6e5750505f910152565b8181015183820152602001611f5f565b90602091611f9781518092818552858086019101611f5d565b601f01601f1916010190565b9181601f84011215610203578235916001600160401b038311610203576020808501948460051b01011161020357565b90606060031983011261020357600435916001600160401b0391602435838111610203578261200491600401611fa3565b939093926044359182116102035761201e91600401611fa3565b9091565b600435906001600160a01b038216820361020357565b602435906001600160a01b038216820361020357565b9181601f84011215610203578235916001600160401b038311610203576020838186019501011161020357565b6060906003190112610203576001600160a01b0390600435828116810361020357916024359081168103610203579060443590565b6001600160401b03811161152f57604052565b60a081019081106001600160401b0382111761152f57604052565b602081019081106001600160401b0382111761152f57604052565b90601f801991011681019081106001600160401b0382111761152f57604052565b6001600160401b03811161152f57601f01601f191660200190565b9291926121418261211a565b9161214f60405193846120f9565b829481845281830111610203578281602093845f960137010152565b90600182811c92168015612199575b602083101461218557565b634e487b7160e01b5f52602260045260245ffd5b91607f169161217a565b9060405191825f82546121b58161216b565b908184526020946001916001811690815f1461222357506001146121e5575b5050506121e3925003836120f9565b565b5f90815285812095935091905b81831061220b5750506121e393508201015f80806121d4565b855488840185015294850194879450918301916121f2565b925050506121e394925060ff191682840152151560051b8201015f80806121d4565b1561224c57565b60405162461bcd60e51b8152602060048201526015602482015274109d5b991b1948191bd95cc81b9bdd08195e1a5cdd605a1b6044820152606490fd5b1561229057565b60405162461bcd60e51b815260206004820152601060248201526f2737ba10313ab73236329037bbb732b960811b6044820152606490fd5b91908110156122d85760051b0190565b634e487b7160e01b5f52603260045260245ffd5b356001600160a01b03811681036102035790565b9081602091031261020357516001600160a01b03811681036102035790565b9190808252602080920192915f5b82811061233b575050505090565b9091929384359060018060a01b03821680920361020357908152820193820192919060010161232d565b81835290916001600160fb1b0383116102035760209260051b809284830137010190565b92906123a2906123b0959360408652604086019161231f565b926020818503910152612365565b90565b8181106123be575050565b5f81556001016123b3565b60035f916123d7815461216b565b806123ee575b508260018201558260028201550155565b601f811160011461240457508281555b5f6123dd565b8390828252612422601f60208420920160051c8201600183016123b3565b818355556123fe565b1561243257565b60405162461bcd60e51b8152602060048201526015602482015274082e4e4c2f240d8cadccee8d040dad2e6dac2e8c6d605b1b6044820152606490fd5b906001600160a01b0390811680156112c357835f52602091600283528460409282845f2054169433151580612565575b5060029086612534575b825f5260038152855f2060018154019055835f5252835f20816001600160601b0360a01b825416179055847fddf252ad1be2c89b69c2b068fc378daa952ba7f163c4a11628f55a4df523b3ef5f80a4831682036125065750505050565b516364283d7b60e01b81526001600160a01b0392831660048201526024810193909352166044820152606490fd5b5f84815260046020526040812080546001600160a01b03191690558781526003825286902080545f190190556124a9565b91925090806125b6575b1561257d579086915f61249f565b83878661259a576024915190637e27328960e01b82526004820152fd5b604491519063177e802f60e01b82523360048301526024820152fd5b5033851480156125db575b8061256f5750865f52600481523383855f2054161461256f565b50845f5260058152835f20335f52815260ff845f2054166125c1565b60405163246a002160e01b81526001600160a01b037f00000000000000000000000000000000000000000000000000000000000000001660048201525f602482015246604482015230606482015260848101919091526020818060a4810103817f00000000000000000000000000000000000000000000000000000000000000006001600160a01b03165afa9081156104af575f91612694575090565b6123b0915060203d6020116114595761144b81836120f9565b81601f820112156102035780516126c38161211a565b926126d160405194856120f9565b81845260208284010111610203576123b09160208085019101611f5d565b906020828203126102035781516001600160401b038111610203576123b092016126ad565b6001600160401b03811161152f5760051b60200190565b80518210156122d85760209160051b010190565b5f818152600260205260409020546001600160a01b0316908115612761575090565b60249060405190637e27328960e01b82526004820152fd5b5f818152600260205260408120546001600160a01b0316801591839183156127e1575b82825260026020526040822080546001600160a01b03191690557fddf252ad1be2c89b69c2b068fc378daa952ba7f163c4a11628f55a4df523b3ef8280a46127615750565b5f83815260046020526040902080546001600160a01b03191690558082526003602052604082208219815401905561279c565b5f828152600260205260409020546001600160a01b0390811692918361289a575b1680612882575b815f52600260205260405f20816001600160601b0360a01b825416179055827fddf252ad1be2c89b69c2b068fc378daa952ba7f163c4a11628f55a4df523b3ef5f80a490565b805f52600360205260405f206001815401905561283c565b5f83815260046020526040902080546001600160a01b0319169055835f52600360205260405f205f198154019055612835565b6007546001600160a01b031633036128e157565b60405163118cdaa760e01b8152336004820152602490fd5b9293909193843b61290c575b5050505050565b604051630a85bd0160e11b8082526001600160a01b03958616600483015293851660248201526044810191909152608060648201526020959490931693929085908290819061295f906084830190611f7e565b03815f885af15f9181612a03575b506129cc575050503d5f146129c4573d916129878361211a565b9261299560405194856120f9565b83523d5f8285013e5b825192836129bf57604051633250574960e11b815260048101849052602490fd5b019050fd5b60609161299e565b9193506001600160e01b0319909116036129eb57505f80808080612905565b60249060405190633250574960e11b82526004820152fd5b9091508581813d8311612a3c575b612a1b81836120f9565b8101031261020357516001600160e01b03198116810361020357905f61296d565b503d612a1156fe69c0defef766b7fbea321d27b255c16379ea894a821a9f53da260ad79eca9f64a2646970667358221220df5cc333937e91527e00f4823635ab375a5801a3185c6b19ed119620519c427364736f6c63430008180033",
  "linkReferences": {},
  "deployedLinkReferences": {}
}