{
  "_format": "hh-sol-artifact-1",
  "contractName": "GroupTreasuryManager",
  "sourceName": "contracts/GroupTreasuryManager.sol",
  "abi": [
    {
      "inputs": [
        {
          "internalType": "address",
          "name": "_groupNFTContract",
          "type": "address"
        }
      ],
      "stateMutability": "nonpayable",
      "type": "constructor"
    },
    {
      "inputs": [],
      "name": "ReentrancyGuardReentrantCall",
      "type": "error"
    },
    {
      "anonymous": false,
      "inputs": [
        {
          "indexed": true,
          "internalType": "uint256",
          "name": "groupId",
          "type": "uint256"
        },
        {
          "indexed": true,
          "internalType": "address",
          "name": "member",
          "type": "address"
        },
        {
          "indexed": false,
          "internalType": "uint256",
          "name": "amount",
          "type": "uint256"
        }
      ],
      "name": "DepositMade",
      "type": "event"
    },
    {
      "anonymous": false,
      "inputs": [
        {
          "indexed": true,
          "internalType": "uint256",
          "name": "groupId",
          "type": "uint256"
        },
        {
          "indexed": true,
          "internalType": "address",
          "name": "member",
          "type": "address"
        },
        {
          "indexed": false,
          "internalType": "string",
          "name": "name",
          "type": "string"
        }
      ],
      "name": "MemberAdded",
      "type": "event"
    },
    {
      "anonymous": false,
      "inputs": [
        {
          "indexed": true,
          "internalType": "uint256",
          "name": "groupId",
          "type": "uint256"
        },
        {
          "indexed": true,
          "internalType": "address",
          "name": "member",
          "type": "address"
        }
      ],
      "name": "MemberRemoved",
      "type": "event"
    },
    {
      "anonymous": false,
      "inputs": [
        {
          "indexed": true,
          "internalType": "uint256",
          "name": "proposalId",
          "type": "uint256"
        }
      ],
      "name": "ProposalCancelled",
      "type": "event"
    },
    {
      "anonymous": false,
      "inputs": [
        {
          "indexed": true,
          "internalType": "uint256",
          "name": "proposalId",
          "type": "uint256"
        },
        {
          "indexed": true,
          "internalType": "uint256",
          "name": "groupId",
          "type": "uint256"
        },
        {
          "indexed": true,
          "internalType": "address",
          "name": "proposer",
          "type": "address"
        },
        {
          "indexed": false,
          "internalType": "enum GroupTreasuryManager.ProposalType",
          "name": "proposalType",
          "type": "uint8"
        }
      ],
      "name": "ProposalCreated",
      "type": "event"
    },
    {
      "anonymous": false,
      "inputs": [
        {
          "indexed": true,
          "internalType": "uint256",
          "name": "proposalId",
          "type": "uint256"
        }
      ],
      "name": "ProposalExecuted",
      "type": "event"
    },
    {
      "anonymous": false,
      "inputs": [
        {
          "indexed": true,
          "internalType": "uint256",
          "name": "proposalId",
          "type": "uint256"
        },
        {
          "indexed": true,
          "internalType": "address",
          "name": "voter",
          "type": "address"
        },
        {
          "indexed": false,
          "internalType": "bool",
          "name": "support",
          "type": "bool"
        }
      ],
      "name": "VoteCast",
      "type": "event"
    },
    {
      "inputs": [],
      "name": "PROPOSAL_DURATION",
      "outputs": [
        {
          "internalType": "uint256",
          "name": "",
          "type": "uint256"
        }
      ],
      "stateMutability": "view",
      "type": "function"
    },
    {
      "inputs": [],
      "name": "VOTE_THRESHOLD_PERCENT",
      "outputs": [
        {
          "internalType": "uint256",
          "name": "",
          "type": "uint256"
        }
      ],
      "stateMutability": "view",
      "type": "function"
    },
    {
      "inputs": [
        {
          "internalType": "uint256",
          "name": "groupId",
          "type": "uint256"
        },
        {
          "internalType": "enum GroupTreasuryManager.ProposalType",
          "name": "proposalType",
          "type": "uint8"
        },
        {
          "internalType": "bytes",
          "name": "data",
          "type": "bytes"
        }
      ],
      "name": "createProposal",
      "outputs": [
        {
          "internalType": "uint256",
          "name": "",
          "type": "uint256"
        }
      ],
      "stateMutability": "nonpayable",
      "type": "function"
    },
    {
      "inputs": [
        {
          "internalType": "uint256",
          "name": "proposalId",
          "type": "uint256"
        }
      ],
      "name": "executeProposal",
      "outputs": [],
      "stateMutability": "nonpayable",
      "type": "function"
    },
    {
      "inputs": [
        {
          "internalType": "uint256",
          "name": "groupId",
          "type": "uint256"
        }
      ],
      "name": "getGroupMembers",
      "outputs": [
        {
          "internalType": "address[]",
          "name": "",
          "type": "address[]"
        }
      ],
      "stateMutability": "view",
      "type": "function"
    },
    {
      "inputs": [
        {
          "internalType": "uint256",
          "name": "groupId",
          "type": "uint256"
        }
      ],
      "name": "getGroupProposals",
      "outputs": [
        {
          "internalType": "uint256[]",
          "name": "",
          "type": "uint256[]"
        }
      ],
      "stateMutability": "view",
      "type": "function"
    },
    {
      "inputs": [
        {
          "internalType": "uint256",
          "name": "groupId",
          "type": "uint256"
        },
        {
          "internalType": "address",
          "name": "wallet",
          "type": "address"
        }
      ],
      "name": "getMember",
      "outputs": [
        {
          "components": [
            {
              "internalType": "address",
              "name": "wallet",
              "type": "address"
            },
            {
              "internalType": "string",
              "name": "name",
              "type": "string"
            },
            {
              "internalType": "uint256",
              "name": "joinedAt",
              "type": "uint256"
            },
            {
              "internalType": "uint256",
              "name": "depositAmount",
              "type": "uint256"
            },
            {
              "internalType": "bool",
              "name": "hasDeposited",
              "type": "bool"
            },
            {
              "internalType": "bool",
              "name": "isActive",
              "type": "bool"
            }
          ],
          "internalType": "struct GroupTreasuryManager.Member",
          "name": "",
          "type": "tuple"
        }
      ],
      "stateMutability": "view",
      "type": "function"
    },
    {
      "inputs": [
        {
          "internalType": "uint256",
          "name": "groupId",
          "type": "uint256"
        }
      ],
      "name": "getMemberCount",
      "outputs": [
        {
          "internalType": "uint256",
          "name": "",
          "type": "uint256"
        }
      ],
      "stateMutability": "view",
      "type": "function"
    },
    {
      "inputs": [
        {
          "internalType": "uint256",
          "name": "proposalId",
          "type": "uint256"
        }
      ],
      "name": "getProposal",
      "outputs": [
        {
          "internalType": "uint256",
          "name": "id",
          "type": "uint256"
        },
        {
          "internalType": "uint256",
          "name": "groupId",
          "type": "uint256"
        },
        {
          "internalType": "address",
          "name": "proposer",
          "type": "address"
        },
        {
          "internalType": "enum GroupTreasuryManager.ProposalType",
          "name": "proposalType",
          "type": "uint8"
        },
        {
          "internalType": "bytes",
          "name": "data",
          "type": "bytes"
        },
        {
          "internalType": "uint256",
          "name": "votesFor",
          "type": "uint256"
        },
        {
          "internalType": "uint256",
          "name": "votesAgainst",
          "type": "uint256"
        },
        {
          "internalType": "uint256",
          "name": "createdAt",
          "type": "uint256"
        },
        {
          "internalType": "uint256",
          "name": "deadline",
          "type": "uint256"
        },
        {
          "internalType": "bool",
          "name": "executed",
          "type": "bool"
        },
        {
          "internalType": "bool",
          "name": "cancelled",
          "type": "bool"
        }
      ],
      "stateMutability": "view",
      "type": "function"
    },
    {
      "inputs": [
        {
          "internalType": "uint256",
          "name": "",
          "type": "uint256"
        },
        {
          "internalType": "uint256",
          "name": "",
          "type": "uint256"
        }
      ],
      "name": "groupMemberList",
      "outputs": [
        {
          "internalType": "address",
          "name": "",
          "type": "address"
        }
      ],
      "stateMutability": "view",
      "type": "function"
    },
    {
      "inputs": [
        {
          "internalType": "uint256",
          "name": "",
          "type": "uint256"
        },
        {
          "internalType": "address",
          "name": "",
          "type": "address"
        }
      ],
      "name": "groupMembers",
      "outputs": [
        {
          "internalType": "address",
          "name": "wallet",
          "type": "address"
        },
        {
          "internalType": "string",
          "name": "name",
          "type": "string"
        },
        {
          "internalType": "uint256",
          "name": "joinedAt",
          "type": "uint256"
        },
        {
          "internalType": "uint256",
          "name": "depositAmount",
          "type": "uint256"
        },
        {
          "internalType": "bool",
          "name": "hasDeposited",
          "type": "bool"
        },
        {
          "internalType": "bool",
          "name": "isActive",
          "type": "bool"
        }
      ],
      "stateMutability": "view",
      "type": "function"
    },
    {
      "inputs": [],
      "name": "groupNFTContract",
      "outputs": [
        {
          "internalType": "address",
          "name": "",
          "type": "address"
        }
      ],
      "stateMutability": "view",
      "type": "function"
    },
    {
      "inputs": [
        {
          "internalType": "uint256",
          "name": "",
          "type": "uint256"
        },
        {
          "internalType": "uint256",
          "name": "",
          "type": "uint256"
        }
      ],
      "name": "groupProposals",
      "outputs": [
        {
          "internalType": "uint256",
          "name": "",
          "type": "uint256"
        }
      ],
      "stateMutability": "view",
      "type": "function"
    },
    {
      "inputs": [
        {
          "internalType": "uint256",
          "name": "proposalId",
          "type": "uint256"
        },
        {
          "internalType": "address",
          "name": "voter",
          "type": "address"
        }
      ],
      "name": "hasVoted",
      "outputs": [
        {
          "internalType": "bool",
          "name": "",
          "type": "bool"
        }
      ],
      "stateMutability": "view",
      "type": "function"
    },
    {
      "inputs": [
        {
          "internalType": "uint256",
          "name": "groupId",
          "type": "uint256"
        },
        {
          "internalType": "address",
          "name": "creator",
          "type": "address"
        },
        {
          "internalType": "string",
          "name": "creatorName",
          "type": "string"
        }
      ],
      "name": "initializeGroup",
      "outputs": [],
      "stateMutability": "nonpayable",
      "type": "function"
    },
    {
      "inputs": [
        {
          "internalType": "uint256",
          "name": "groupId",
          "type": "uint256"
        }
      ],
      "name": "makeDeposit",
      "outputs": [],
      "stateMutability": "payable",
      "type": "function"
    },
    {
      "inputs": [
        {
          "internalType": "address",
          "name": "",
          "type": "address"
        },
        {
          "internalType": "address",
          "name": "",
          "type": "address"
        },
        {
          "internalType": "uint256",
          "name": "",
          "type": "uint256"
        },
        {
          "internalType": "bytes",
          "name": "",
          "type": "bytes"
        }
      ],
      "name": "onERC721Received",
      "outputs": [
        {
          "internalType": "bytes4",
          "name": "",
          "type": "bytes4"
        }
      ],
      "stateMutability": "pure",
      "type": "function"
    },
    {
      "inputs": [
        {
          "internalType": "uint256",
          "name": "",
          "type": "uint256"
        }
      ],
      "name": "proposals",
      "outputs": [
        {
          "internalType": "uint256",
          "name": "id",
          "type": "uint256"
        },
        {
          "internalType": "uint256",
          "name": "groupId",
          "type": "uint256"
        },
        {
          "internalType": "address",
          "name": "proposer",
          "type": "address"
        },
        {
          "internalType": "enum GroupTreasuryManager.ProposalType",
          "name": "proposalType",
          "type": "uint8"
        },
        {
          "internalType": "bytes",
          "name": "data",
          "type": "bytes"
        },
        {
          "internalType": "uint256",
          "name": "votesFor",
          "type": "uint256"
        },
        {
          "internalType": "uint256",
          "name": "votesAgainst",
          "type": "uint256"
        },
        {
          "internalType": "uint256",
          "name": "createdAt",
          "type": "uint256"
        },
        {
          "internalType": "uint256",
          "name": "deadline",
          "type": "uint256"
        },
        {
          "internalType": "bool",
          "name": "executed",
          "type": "bool"
        },
        {
          "internalType": "bool",
          "name": "cancelled",
          "type": "bool"
        }
      ],
      "stateMutability": "view",
      "type": "function"
    },
    {
      "inputs": [
        {
          "internalType": "uint256",
          "name": "proposalId",
          "type": "uint256"
        },
        {
          "internalType": "bool",
          "name": "support",
          "type": "bool"
        }
      ],
      "name": "vote",
      "outputs": [],
      "stateMutability": "nonpayable",
      "type": "function"
    },
    {
      "stateMutability": "payable",
      "type": "receive"
    }
  ],
  "bytecode": "0x60803461007457601f6119b138819003918201601f19168301916001600160401b038311848410176100785780849260209460405283398101031261007457516001600160a01b038116908190036100745760015f5560018060a01b03196001541617600155604051611924908161008d8239f35b5f80fd5b634e487b7160e01b5f52604160045260245ffdfe6080604052600436101561001a575b3615610018575f80fd5b005b5f3560e01c8063013cf08b1461147a578063059a500c146113325780630ada7d0b146110b35780630d61b51914610b28578063150b7a0214610ab55780631a9041db1461084e57806336cc81301461079c57806343859632146107505780635164107e146107135780635ce9284f146106235780637c3381dd146105855780637f097010146105685780638b4968cf1461045b57806397c857b8146103bb578063b812409c14610393578063b9aa66be14610378578063c7f758a8146102f5578063c9d27afe1461013b5763e2417e120361000e5734610137576100fd36611737565b905f52600460205260405f2080548210156101375760209161011e9161174d565b905460405160039290921b1c6001600160a01b03168152f35b5f80fd5b346101375760403660031901126101375760243580151560043581830361013757805f5260206005815260405f2060078101544210156102ba57600881015460ff81166102755760ff6101929160081c1615611762565b60018101545f526003825260405f20335f5282526101bc60ff600460405f20015460081c166117a3565b6009810194335f5285835260ff60405f205416610240577fe71fcdac32df1877c1700e7bda2a03157e20993363a28fc35ac495cefc76e4d4939495335f52835260405f20600160ff198254161790555f1461022c5760040161021e81546117e6565b90555b6040519384523393a3005b60050161023981546117e6565b9055610221565b60405162461bcd60e51b815260048101849052600d60248201526c105b1c9958591e481d9bdd1959609a1b6044820152606490fd5b60405162461bcd60e51b815260048101849052601960248201527f50726f706f73616c20616c7265616479206578656375746564000000000000006044820152606490fd5b60405162461bcd60e51b8152600481018390526013602482015272159bdd1a5b99c81c195c9a5bd908195b991959606a1b6044820152606490fd5b34610137576020366003190112610137576004355f52600560205260405f2080546103746001830154926002810154936004820154600583015460068401549060078501549261034c600360088801549701611570565b604051998a9960ff808a60081c1699169760ff8360a01c169260018060a01b0316918c611665565b0390f35b34610137575f366003190112610137576020604051605a8152f35b34610137575f366003190112610137576001546040516001600160a01b039091168152602090f35b3461013757602080600319360112610137576004355f526006815260405f20604051908183825491828152019081925f52845f20905f5b868282106104475786866104088288038361154e565b60405192839281840190828552518091526040840192915f5b82811061043057505050500390f35b835185528695509381019392810192600101610421565b8354855290930192600192830192016103f2565b34610137576040366003190112610137576104746116cf565b60405161048081611532565b5f81525f60a060209260608482015282604082015282606082015282608082015201526004355f526003815260405f2060018060a01b038093165f52815260405f20604051916104cf83611532565b8382541683526104e160018301611570565b9080840191825260028301549260408501938452610547600460038301549260608801938452015493608087019360ff86161515855260ff60a089019660081c1615158652604051988998828a525116908801525160c0604088015260e0870190611640565b9351606086015251608085015251151560a084015251151560c08301520390f35b34610137575f36600319011261013757602060405162093a808152f35b346101375760403660031901126101375761059e6116cf565b6004355f52600360205260405f2060018060a01b038092165f5260205260405f20908154166105cf60018301611570565b9160ff60028201549160046003820154910154906105ff604051968796875260c0602088015260c0870190611640565b93604086015260608501528181161515608085015260081c16151560a08301520390f35b3461013757602080600319360112610137576004355f815f526004835260405f20926040518085838297549384815201905f52835f20925f5b858282106106f4575050506106739250038561154e565b5f5b84518110156106ea57835f526003825260405f2085518210156106d65760018060a01b03838360051b88010151165f52825260ff600460405f20015460081c166106c2575b600101610675565b916106ce6001916117e6565b9290506106ba565b634e487b7160e01b5f52603260045260245ffd5b5090604051908152f35b85546001600160a01b031684526001958601958a95509301920161065c565b346101375761072136611737565b905f52600660205260405f208054821015610137576020916107429161174d565b90546040519160031b1c8152f35b34610137576040366003190112610137576107696116cf565b6004355f526005602052600960405f20019060018060a01b03165f52602052602060ff60405f2054166040519015158152f35b3461013757602080600319360112610137576004355f526004815260405f20604051908183825491828152019081925f52845f20905f5b868282106108315786866107e98288038361154e565b60405192839281840190828552518091526040840192915f5b82811061081157505050500390f35b83516001600160a01b031685528695509381019392810192600101610802565b83546001600160a01b0316855290930192600192830192016107d3565b346101375760603660031901126101375760043560243560088110156101375767ffffffffffffffff906044358281116101375736602382011215610137576108a1903690602481600401359101611701565b92805f526020936003855260405f20335f5285526108cb60ff600460405f20015460081c166117a3565b600254936108d8856117e6565b60029081555f8681526005885260409020868155600180820186905591810180546001600160a81b0319163360ff60a01b19161760a088901b60ff60a01b161790558351909360038501939092908211610a1b576109408261093a86546114fa565b866117f4565b8890601f8311600114610a4e5750819061096f935f92610a43575b50508160011b915f199060031b1c19161790565b90555b5f60048201555f600582015542600682015562093a80420190814211610a2f5760089160078201550161ffff198154169055805f526006845260405f208054600160401b811015610a1b576109cc9160018201815561174d565b81549060031b9085821b915f19901b19161790556109ed6040518093611612565b827fa9b7501054ec8150de9dd4c4819fea4051fa3f26ac91d7d08bfb403ea9a9c216853394a4604051908152f35b634e487b7160e01b5f52604160045260245ffd5b634e487b7160e01b5f52601160045260245ffd5b01519050898061095b565b9192601f198416855f528a5f20935f905b8c838310610a9d57505050908460019594939210610a85575b505050811b019055610972565b01515f1960f88460031b161c19169055888080610a78565b84860151875595810195948501949190910190610a5f565b34610137576080366003190112610137576004356001600160a01b0381160361013757610ae06116cf565b5060643567ffffffffffffffff8082116101375736602383011215610137578160040135908111610137573691016024011161013757604051630a85bd0160e11b8152602090f35b346101375760203660031901126101375760025f54146110a15760025f556004355f52600560205260405f206008810190815460ff811661106957610b7360ff8260081c1615611762565b6001820192835491825f52600460205260405f205460048501549060058601548201808311610a2f5781600788015442109182159261105f575b50501561102457606482029180830460641490151715610a2f57801561101057605a910410610fd85760ff1916600117905560028201549060a082901c60ff166008811015610fc45760058103610f4b575050506003610c0d9101611570565b80518101916040826020850194031261013757610c2c60208301611843565b90604083015167ffffffffffffffff93848211610137570184603f82011215610137576020810151610c5d816116e5565b95610c6b604051978861154e565b8187526040828401011161013757610c8a91604060208801910161161f565b545f8181526003602090815260408083206001600160a01b03868116855292529091205491939116610f0e5760405190610cc382611532565b6001600160a01b038381168084526020808501888152426040808801919091525f6060880181905260808801819052600160a089015289815260038452818120948152939092529120845181546001600160a01b031916931692909217825551805191928211610a1b57610d4782610d3e60018601546114fa565b600186016117f4565b602090601f8311600114610e995792610d7f8360a094600494610dcf98975f92610e8e5750508160011b915f199060031b1c19161790565b60018201555b60408401516002820155606084015160038201550191610db760808201511515849060ff801983541691151516179055565b0151815461ff00191690151560081b61ff0016179055565b815f52600460205260405f2090815490600160401b821015610a1b57610e1f827f479e555f6c2b410f9bea0faf0392342851e2103c9c7a9b61f8f087b47331d0eb946001610e5d9501815561174d565b81549060031b9060018060a01b038416821b9160018060a01b03901b19161790556040519182916020835260018060a01b0316956020830190611640565b0390a35b6004357f712ae1383f79ac853f8d882153778e0260ef8f03b504e2866e0593e04d2b291f5f80a260015f55005b015190508b8061095b565b90600184015f5260205f20915f5b601f1985168110610ef6575083600493610dcf97969360019360a097601f19811610610ede575b505050811b016001820155610d85565b01515f1960f88460031b161c191690558a8080610ece565b91926020600181928685015181550194019201610ea7565b60405162461bcd60e51b81526020600482015260156024820152744d656d62657220616c72656164792065786973747360581b6044820152606490fd5b60068103610f96575050506003610f629101611570565b9060208280518101031261013757610f91916001600160a01b0390610f8990602001611843565b169054611857565b610e61565b9193509150600714610faa575b5050610e61565b610fbd916001600160a01b031690611857565b8080610fa3565b634e487b7160e01b5f52602160045260245ffd5b60405162461bcd60e51b815260206004820152601060248201526f4e6f7420656e6f75676820766f74657360801b6044820152606490fd5b634e487b7160e01b5f52601260045260245ffd5b60405162461bcd60e51b8152602060048201526013602482015272566f74696e67206e6f7420636f6d706c65746560681b6044820152606490fd5b1490508189610bad565b60405162461bcd60e51b815260206004820152601060248201526f105b1c9958591e48195e1958dd5d195960821b6044820152606490fd5b604051633ee5aeb560e01b8152600490fd5b34610137576060366003190112610137576004356110cf6116cf565b9067ffffffffffffffff604435818111610137573660238201121561013757611102903690602481600401359101611701565b5f8381526003602090815260408083206001600160a01b039788168085529252909120549094919291166112ed57825f52600360205260405f20845f5260205260018060a01b0360405f205416610f0e576040519061116082611532565b84825260208201908382524260408401525f606084015260016080840152600160a0840152845f52600360205260405f20865f5260205260405f209160018060a01b038451166bffffffffffffffffffffffff60a01b845416178355518051918211610a1b576111d782610d3e60018601546114fa565b602090601f83116001146112915792610d7f8360a09460049461120f98975f92610e8e5750508160011b915f199060031b1c19161790565b815f52600460205260405f2090815490600160401b821015610a1b5761125f827f479e555f6c2b410f9bea0faf0392342851e2103c9c7a9b61f8f087b47331d0eb94600161128c9501815561174d565b81549060031b9087821b9160018060a01b03901b1916179055604051918291602083526020830190611640565b0390a3005b90600184015f5260205f20915f5b601f19851681106112d557508360049361120f97969360019360a097601f19811610610ede57505050811b016001820155610d85565b9192602060018192868501518155019401920161129f565b60405162461bcd60e51b815260206004820152601960248201527f47726f757020616c726561647920696e697469616c697a6564000000000000006044820152606490fd5b602080600319360112610137576004355f8181526003835260408082203383528452902080546001600160a01b03161561144657600481019081549060ff821661140d5734156113ba579060019160033491015560ff19161790557f377ef0adce1eae318afaad309c3b0f6c378fa1a294064deccda8d15ad28858eb604051923484523393a3005b60405162461bcd60e51b815260048101869052602560248201527f4465706f73697420616d6f756e74206d75737420626520677265617465722074604482015264068616e20360dc1b6064820152608490fd5b60405162461bcd60e51b8152600481018690526011602482015270105b1c9958591e4819195c1bdcda5d1959607a1b6044820152606490fd5b60405162461bcd60e51b815260048101849052600c60248201526b2737ba10309036b2b6b132b960a11b6044820152606490fd5b34610137576020366003190112610137576004355f52600560205260405f2080546103746001830154926002810154936114b660038301611570565b91600481015460058201546006830154916008600785015494015495604051998a9960ff808a60081c1699169760ff8360a01c169260018060a01b0316918c611665565b90600182811c92168015611528575b602083101461151457565b634e487b7160e01b5f52602260045260245ffd5b91607f1691611509565b60c0810190811067ffffffffffffffff821117610a1b57604052565b90601f8019910116810190811067ffffffffffffffff821117610a1b57604052565b9060405191825f8254611582816114fa565b908184526020946001916001811690815f146115f057506001146115b2575b5050506115b09250038361154e565b565b5f90815285812095935091905b8183106115d85750506115b093508201015f80806115a1565b855488840185015294850194879450918301916115bf565b925050506115b094925060ff191682840152151560051b8201015f80806115a1565b906008821015610fc45752565b5f5b8381106116305750505f910152565b8181015183820152602001611621565b906020916116598151809281855285808601910161161f565b601f01601f1916010190565b99969361169c906116aa946101409b989e9d9a979460208e610160968152015260018060a01b031660408d015260608c0190611612565b8060808b0152890190611640565b9860a088015260c087015260e086015261010085015215156101208401521515910152565b602435906001600160a01b038216820361013757565b67ffffffffffffffff8111610a1b57601f01601f191660200190565b92919261170d826116e5565b9161171b604051938461154e565b829481845281830111610137578281602093845f960137010152565b6040906003190112610137576004359060243590565b80548210156106d6575f5260205f2001905f90565b1561176957565b60405162461bcd60e51b8152602060048201526012602482015271141c9bdc1bdcd85b0818d85b98d95b1b195960721b6044820152606490fd5b156117aa57565b60405162461bcd60e51b81526020600482015260146024820152732737ba1030b71030b1ba34bb329036b2b6b132b960611b6044820152606490fd5b5f198114610a2f5760010190565b601f821161180157505050565b5f5260205f20906020601f840160051c83019310611839575b601f0160051c01905b81811061182e575050565b5f8155600101611823565b909150819061181a565b51906001600160a01b038216820361013757565b805f52600360205260405f209160018060a01b031691825f52602052600460405f2001805460ff8160081c16156118b55761ff00191690557f1c4c9d2e56d0635d11bc47c997c6909a0d7061f55cbb8f4b27386db37553191c5f80a3565b60405162461bcd60e51b81526020600482015260116024820152704d656d626572206e6f742061637469766560781b6044820152606490fdfea2646970667358221220c90bc797ca7a4a5f3cb91e4124befa3485c1d6f3378cea91cb59d969a21e47cc64736f6c63430008180033",
  "linkReferences": {},
  "deployedLinkReferences": {}
}