{"contracts/RentalManagerDelegated.sol":{"RentalManagerDelegated":{"abi":[{"inputs":[{"internalType":"address","name":"_rentalWrapper","type":"address"},{"internalType":"address","name":"_feeRecipient","type":"address"}],"stateMutability":"nonpayable","type":"constructor"},{"inputs":[{"internalType":"address","name":"owner","type":"address"}],"name":"OwnableInvalidOwner","type":"error"},{"inputs":[{"internalType":"address","name":"account","type":"address"}],"name":"OwnableUnauthorizedAccount","type":"error"},{"anonymous":false,"inputs":[{"indexed":false,"internalType":"address","name":"newRecipient","type":"address"}],"name":"FeeRecipientUpdated","type":"event"},{"anonymous":false,"inputs":[{"indexed":true,"internalType":"uint256","name":"wrapperId","type":"uint256"},{"indexed":true,"internalType":"address","name":"renter","type":"address"},{"indexed":false,"internalType":"uint256","name":"rentalDays","type":"uint256"},{"indexed":false,"internalType":"uint256","name":"totalCost","type":"uint256"},{"indexed":false,"internalType":"uint64","name":"expiresAt","type":"uint64"}],"name":"NFTRented","type":"event"},{"anonymous":false,"inputs":[{"indexed":true,"internalType":"uint256","name":"wrapperId","type":"uint256"},{"indexed":true,"internalType":"address","name":"owner","type":"address"}],"name":"NFTUnwrapped","type":"event"},{"anonymous":false,"inputs":[{"indexed":true,"internalType":"uint256","name":"wrapperId","type":"uint256"},{"indexed":true,"internalType":"address","name":"owner","type":"address"},{"indexed":false,"internalType":"address","name":"originalContract","type":"address"},{"indexed":false,"internalType":"uint256","name":"originalTokenId","type":"uint256"}],"name":"NFTWrappedForRental","type":"event"},{"anonymous":false,"inputs":[{"indexed":true,"internalType":"address","name":"previousOwner","type":"address"},{"indexed":true,"internalType":"address","name":"newOwner","type":"address"}],"name":"OwnershipTransferred","type":"event"},{"anonymous":false,"inputs":[{"indexed":false,"internalType":"uint256","name":"newFeeBps","type":"uint256"}],"name":"PlatformFeeUpdated","type":"event"},{"anonymous":false,"inputs":[{"indexed":true,"internalType":"uint256","name":"wrapperId","type":"uint256"},{"indexed":true,"internalType":"address","name":"owner","type":"address"}],"name":"RentalListingCancelled","type":"event"},{"anonymous":false,"inputs":[{"indexed":true,"internalType":"uint256","name":"wrapperId","type":"uint256"},{"indexed":true,"internalType":"address","name":"owner","type":"address"},{"indexed":false,"internalType":"uint256","name":"pricePerDay","type":"uint256"},{"indexed":false,"internalType":"uint256","name":"minDays","type":"uint256"},{"indexed":false,"internalType":"uint256","name":"maxDays","type":"uint256"}],"name":"RentalListingCreated","type":"event"},{"anonymous":false,"inputs":[{"indexed":true,"internalType":"uint256","name":"wrapperId","type":"uint256"},{"indexed":false,"internalType":"uint256","name":"newPricePerDay","type":"uint256"},{"indexed":false,"internalType":"uint256","name":"newMinDays","type":"uint256"},{"indexed":false,"internalType":"uint256","name":"newMaxDays","type":"uint256"}],"name":"RentalListingUpdated","type":"event"},{"inputs":[{"internalType":"uint256","name":"","type":"uint256"}],"name":"allListingIds","outputs":[{"internalType":"uint256","name":"","type":"uint256"}],"stateMutability":"view","type":"function"},{"inputs":[{"internalType":"uint256","name":"wrapperId","type":"uint256"}],"name":"cancelRentalListing","outputs":[],"stateMutability":"nonpayable","type":"function"},{"inputs":[{"internalType":"uint256","name":"wrapperId","type":"uint256"},{"internalType":"uint256","name":"pricePerDay","type":"uint256"},{"internalType":"uint256","name":"minRentalDays","type":"uint256"},{"internalType":"uint256","name":"maxRentalDays","type":"uint256"}],"name":"createRentalListing","outputs":[],"stateMutability":"nonpayable","type":"function"},{"inputs":[],"name":"feeRecipient","outputs":[{"internalType":"address","name":"","type":"address"}],"stateMutability":"view","type":"function"},{"inputs":[],"name":"getActiveListings","outputs":[{"components":[{"internalType":"uint256","name":"wrapperId","type":"uint256"},{"internalType":"address","name":"owner","type":"address"},{"internalType":"uint256","name":"pricePerDay","type":"uint256"},{"internalType":"uint256","name":"minRentalDays","type":"uint256"},{"internalType":"uint256","name":"maxRentalDays","type":"uint256"},{"internalType":"bool","name":"isActive","type":"bool"},{"internalType":"uint256","name":"createdAt","type":"uint256"}],"internalType":"struct RentalManagerDelegated.RentalListing[]","name":"activeListings","type":"tuple[]"}],"stateMutability":"view","type":"function"},{"inputs":[{"internalType":"uint256","name":"wrapperId","type":"uint256"}],"name":"getRentalInfo","outputs":[{"components":[{"internalType":"uint256","name":"wrapperId","type":"uint256"},{"internalType":"address","name":"owner","type":"address"},{"internalType":"uint256","name":"pricePerDay","type":"uint256"},{"internalType":"uint256","name":"minRentalDays","type":"uint256"},{"internalType":"uint256","name":"maxRentalDays","type":"uint256"},{"internalType":"bool","name":"isActive","type":"bool"},{"internalType":"uint256","name":"createdAt","type":"uint256"}],"internalType":"struct RentalManagerDelegated.RentalListing","name":"listing","type":"tuple"},{"internalType":"address","name":"currentRenter","type":"address"},{"internalType":"uint64","name":"expiresAt","type":"uint64"}],"stateMutability":"view","type":"function"},{"inputs":[{"internalType":"uint256","name":"","type":"uint256"}],"name":"listings","outputs":[{"internalType":"uint256","name":"wrapperId","type":"uint256"},{"internalType":"address","name":"owner","type":"address"},{"internalType":"uint256","name":"pricePerDay","type":"uint256"},{"internalType":"uint256","name":"minRentalDays","type":"uint256"},{"internalType":"uint256","name":"maxRentalDays","type":"uint256"},{"internalType":"bool","name":"isActive","type":"bool"},{"internalType":"uint256","name":"createdAt","type":"uint256"}],"stateMutability":"view","type":"function"},{"inputs":[],"name":"owner","outputs":[{"internalType":"address","name":"","type":"address"}],"stateMutability":"view","type":"function"},{"inputs":[],"name":"platformFeeBps","outputs":[{"internalType":"uint256","name":"","type":"uint256"}],"stateMutability":"view","type":"function"},{"inputs":[],"name":"renounceOwnership","outputs":[],"stateMutability":"nonpayable","type":"function"},{"inputs":[{"internalType":"uint256","name":"wrapperId","type":"uint256"},{"internalType":"uint256","name":"rentalDays","type":"uint256"}],"name":"rentNFT","outputs":[],"stateMutability":"payable","type":"function"},{"inputs":[],"name":"rentalWrapper","outputs":[{"internalType":"contract RentalWrapperDelegated","name":"","type":"address"}],"stateMutability":"view","type":"function"},{"inputs":[{"internalType":"address","name":"newOwner","type":"address"}],"name":"transferOwnership","outputs":[],"stateMutability":"nonpayable","type":"function"},{"inputs":[{"internalType":"uint256","name":"wrapperId","type":"uint256"}],"name":"unwrapNFT","outputs":[],"stateMutability":"nonpayable","type":"function"},{"inputs":[{"internalType":"address","name":"newRecipient","type":"address"}],"name":"updateFeeRecipient","outputs":[],"stateMutability":"nonpayable","type":"function"},{"inputs":[{"internalType":"uint256","name":"newFeeBps","type":"uint256"}],"name":"updatePlatformFee","outputs":[],"stateMutability":"nonpayable","type":"function"},{"inputs":[{"internalType":"uint256","name":"wrapperId","type":"uint256"},{"internalType":"uint256","name":"newPricePerDay","type":"uint256"},{"internalType":"uint256","name":"newMinDays","type":"uint256"},{"internalType":"uint256","name":"newMaxDays","type":"uint256"}],"name":"updateRentalListing","outputs":[],"stateMutability":"nonpayable","type":"function"},{"inputs":[{"internalType":"address","name":"originalContract","type":"address"},{"internalType":"uint256","name":"originalTokenId","type":"uint256"}],"name":"wrapNFT","outputs":[{"internalType":"uint256","name":"wrapperId","type":"uint256"}],"stateMutability":"nonpayable","type":"function"}],"evm":{"bytecode":{"linkReferences":{},"object":"60a03461011457601f6200197038819003918201601f19168301916001600160401b0383118484101761011857808492604094855283398101031261011457610053602061004c8361012c565b920161012c565b9033156100fc575f549160018060a01b03908160018060a01b03199333858716175f5560405195823391167f8be0079c531659141344cd1fd0a4f28419497f9722a3daafe3b4186f6b6457e05f80a360fa600155166080521690600254161760025561182f908162000141823960805181818161033001528181610531015281816106390152818161097e01528181610d9201528181610ecb01528181611070015261132a0152f35b604051631e4fbdf760e01b81525f6004820152602490fd5b5f80fd5b634e487b7160e01b5f52604160045260245ffd5b51906001600160a01b03821682036101145756fe60806040818152600480361015610014575f80fd5b5f9260e05f3560e01c91826322dcd13e1461144f5750816327dc3fbd1461128f5781634690484014611267578163715018a6146112105781637499cd2f1461100a5781637d3fa7b714610f4657816387c35bc014610bde575080638a9a4cfb146109495780638da5cb5b1461092157806393b2d6a0146105ea578063aa0b598814610560578063b81e230c1461051c578063b8ff383d146104e157838163d5cf5f6f1461030d57508063de74e57b1461029a578063f160d369146101f1578063f2fde38b146101645763f65a56da146100eb575f80fd5b346101605760203660031901126101605760059035918284526003602052832061012260018060a01b0360018301541633146115e1565b01805461013160ff8216611621565b60ff1916905533907f23d338a67b21c5dc2b70d113e1c247454ecede863df07905d82542d09a8584fb8380a380f35b8280fd5b50346101605760203660031901126101605761017e6114b4565b906101876117ce565b6001600160a01b039182169283156101db5750505f54826bffffffffffffffffffffffff60a01b8216175f55167f8be0079c531659141344cd1fd0a4f28419497f9722a3daafe3b4186f6b6457e05f80a380f35b51631e4fbdf760e01b8152908101849052602490fd5b5090346101605760203660031901126101605761020c6114b4565b6102146117ce565b6001600160a01b03169182156102645750600280546001600160a01b03191683179055519081527f7a7b5a0a132f9e0581eb8527f66eae9ee89c2a3e79d4ac7e41a1f1f4d48a7fc290602090a180f35b6020606492519162461bcd60e51b83528201526011602482015270125b9d985b1a59081c9958da5c1a595b9d607a1b6044820152fd5b5034610160576020366003190112610160578160e0938235815260036020522080549260018060a01b0360018301541692600283015460038401549184015492600660ff600587015416950154958151978852602088015286015260608501526080840152151560a083015260c0820152f35b8281853461044257602090816003193601126101605783359360018060a01b03807f0000000000000000000000000000000000000000000000000000000000000000169383516331a9108f60e11b815287848201528181602481895afa80156104a15787906104ab575b61038591508316331461172f565b8351636178f8a560e11b81528381018890528181602481895afa9081156104a1578791610460575b506003926103bc91161561176f565b86865252600582852001805460ff8116610453575b5050823b1561044f578460248592838551968794859363d5cf5f6f60e01b85528401525af1908115610446575061042e575b505033907fc4c9bf77c0411d906a84f605dd07cc13109daca98a8e0c81871f00f0ad0631838380a380f35b61043790611561565b610442578183610403565b5080fd5b513d84823e3d90fd5b8380fd5b60ff1916905586806103d1565b90508181813d831161049a575b6104778183611575565b810103126104965760039261048e6103bc926115cd565b9150926103ad565b8680fd5b503d61046d565b85513d89823e3d90fd5b508181813d83116104da575b6104c18183611575565b81010312610496576104d5610385916115cd565b610377565b503d6104b7565b5091346105195760203660031901126105195782359254831015610519575061050b6020926114e8565b91905490519160031b1c8152f35b80fd5b505034610442578160031936011261044257517f00000000000000000000000000000000000000000000000000000000000000006001600160a01b03168152602090f35b5090346101605760203660031901126101605781359161057e6117ce565b6103e883116105b95750816020917f45610d581145924dd7090a5017e5f2b1d6f42213bb2e95707ff86846bbfcb1ca9360015551908152a180f35b6020606492519162461bcd60e51b8352820152600c60248201526b08ccaca40e8dede40d0d2ced60a31b6044820152fd5b509080600319360112610160578135906024908135938386526020600381528287209161061d60ff600585015416611621565b8351636178f8a560e11b81528181018790526001600160a01b037f000000000000000000000000000000000000000000000000000000000000000081169691848184818b5afa80156109175782908c906108db575b61067e9250161561176f565b6003850154891015806108ce575b1561088d5761069f8960028701546117ae565b906127106106af600154846117ae565b04916106bb83826117c1565b968734106108545762015180808d02908d8204148d151715610842579067ffffffffffffffff6106ef8f96959493426117c1565b169a803b1561083e578a516370182b2f60e11b81528089018e90523388820152604481018d90529086908290606490829084905af18015610834579184918793610817575b50829383926001849301541682821561080e575bf115610804578280928192600254168282156107fb575bf1156107f1578334116107a3575b505082519586528501528301527f0500b841cf5b98eff984c5e3baba9e3699eb7e8e67ff07fcf1e2a46e5203723460603393a380f35b833403913483116107e05750508780808093818734146107d7575b3390f1156107cd575f8061076d565b82513d88823e3d90fd5b506108fc6107be565b634e487b7160e01b8a526011905288fd5b84513d8a823e3d90fd5b506108fc61075f565b87513d84823e3d90fd5b506108fc610748565b61082391939250611561565b610830578285915f610734565b8480fd5b8b513d88823e3d90fd5b8580fd5b634e487b7160e01b8e5260118752858efd5b885162461bcd60e51b815280870188905260148187015273125b9cdd59999a58da595b9d081c185e5b595b9d60621b6044820152606490fd5b5060179060649386519362461bcd60e51b85528401528201527f496e76616c69642072656e74616c206475726174696f6e0000000000000000006044820152fd5b508285015489111561068c565b50508481813d8311610910575b6108f28183611575565b8101031261090c578161090761067e926115cd565b610672565b8a80fd5b503d6108e8565b87513d8d823e3d90fd5b505034610442578160031936011261044257905490516001600160a01b039091168152602090f35b509190346104425761095a366114ca565b84516331a9108f60e11b8152878101859052929490926001600160a01b03906020907f00000000000000000000000000000000000000000000000000000000000000008316908281602481855afa8015610bd4578a90610b9a575b6109c391508416331461172f565b818760248c87519485938492636178f8a560e11b84528301525afa908115610b9057879184918b91610b4a575b5060069391610a0091161561176f565b610a0b891515611662565b85151580610b40575b610a1d906116a2565b89855194610a2a86611531565b838652828601338152878701908c825260608801928a84528960808a01958d8752600360a08c019860018a5260c08d019a428c528352522098518955600189019151166bffffffffffffffffffffffff60a01b825416179055516002870155516003860155518b850155600584019051151560ff8019835416911617905551910155865468010000000000000000811015610b2d577f5d9ffa96ad78cd06885a79bf8973197743dbe52e3a8e8bc6bff5ce03b260d317939291610af6828a6001610b27950190556114e8565b81549060031b9088821b915f19901b1916179055519283923397846040919493926060820195825260208201520152565b0390a380f35b634e487b7160e01b875260418852602487fd5b5086861115610a14565b925050508181813d8311610b89575b610b638183611575565b81010312610b8557600691610a0084610b7c8a946115cd565b915091936109f0565b8880fd5b503d610b59565b84513d8b823e3d90fd5b508281813d8311610bcd575b610bb08183611575565b81010312610bc957610bc46109c3916115cd565b6109b5565b8980fd5b503d610ba6565b85513d8c823e3d90fd5b8484843461016057826003193601126101605792918091818554905b818110610e405750610c23610c0e85611703565b94610c1b84519687611575565b808652611703565b60209690601f1901845b818110610e1f57505083845b838110610c9057505050508051948594818087019381885286518095528701950193905b838210610c6a5786860387f35b918496508286610c806001949698849851611469565b0196019201869594929391610c5d565b8885610ca1839b9897999a9b6114e8565b9054600391821b1c80895281845260ff916005918383868d2001541680610d68575b610cdc575b505050505050600101979695939497610c39565b92600692600197989592610d5a97958d52808652838d2093805196610d0088611531565b855488528a8060a01b038b8701541690880152600285015490870152830154606086015289830154608086015282015416151560a0840152015460c0820152610d49828c61171b565b52610d54818b61171b565b506116e1565b91905085878b808080610cc8565b508c51636178f8a560e11b8152898101829052939550919350916001600160a01b03908b816024817f000000000000000000000000000000000000000000000000000000000000000086165afa908115610e1557918d9593918d9795938d91610dd4575b501615610cc3565b929496505091939581813d8311610e0e575b610df08183611575565b8101031261090c57918b959391610e088e96946115cd565b5f610dcc565b503d610de6565b8d513d8d823e3d90fd5b97809594969798610e2e611597565b82828b01015201979695939497610c2d565b610e4f819794939596976114e8565b9054600391821b1c845260209080825260ff60058887200154169182610e99575b5050610e85575b600101959493919295610bfa565b94610e916001916116e1565b959050610e77565b6001600160a01b03925090610ead846114e8565b9054911b1c875190636178f8a560e11b8252878201528181602481867f0000000000000000000000000000000000000000000000000000000000000000165afa918215610f3c578692610f06575b505016158880610e70565b90809250813d8311610f35575b610f1d8183611575565b8101031261083057610f2e906115cd565b8980610efb565b503d610f13565b88513d88823e3d90fd5b505034610160577f23e36ecf1a4b365492f7dd38a0f7a4278a3c3474cd41ced9b1c410e09e10759c90610ffa610f7b366114ca565b83979195819395948a526003602052828a20610fa460018060a01b0360018301541633146115e1565b610fb460ff600583015416611621565b610fbf871515611662565b87151580611000575b610fd1906116a2565b866002820155876003820155015551938493846040919493926060820195825260208201520152565b0390a280f35b5082881115610fc8565b5050903461120c578060031936011261120c576110256114b4565b6024356001600160a01b0382811690813b1561120c5784516323b872dd60e01b81523387820152306024820152604481018490525f8160648183875af18015611202576111ef575b507f00000000000000000000000000000000000000000000000000000000000000001694813b1561049657845163095ea7b360e01b81526001600160a01b03871682820190815260208101859052889190829082908190604001038183885af18015610804579087949392916111d6575b509060649184519889948593630688fa1f60e31b85528401528660248401523360448401525af19384156111cc578594611163575b5082516001600160a01b0390921682526020828101919091529350339083907fb453eefebc226fc2192f1723c6da5303ee239b0b4ead4d7519c1af9fbb36cb099080604081015b0390a351908152f35b91935091938482813d83116111c5575b61117d8183611575565b81010312610519575091602093917fb453eefebc226fc2192f1723c6da5303ee239b0b4ead4d7519c1af9fbb36cb09846111bd8761115a975192016115cd565b509450611113565b503d611173565b83513d87823e3d90fd5b6111e291929450611561565b610496578491875f6110de565b6111fa919750611561565b5f955f61106d565b86513d5f823e3d90fd5b5f80fd5b3461120c575f36600319011261120c576112286117ce565b5f80546001600160a01b0319811682556001600160a01b03167f8be0079c531659141344cd1fd0a4f28419497f9722a3daafe3b4186f6b6457e08280a3005b833461120c575f36600319011261120c5760025490516001600160a01b039091168152602090f35b50503461120c576020918260031936011261120c578135916112af611597565b50825f5260038452815f20918051936112c785611531565b8354855260018401546001600160a01b039081168787015260028501548387015260038501546060870152838501546080870152600585015460ff16151560a087015260069094015460c08601528151636178f8a560e11b8152808401829052927f0000000000000000000000000000000000000000000000000000000000000000851691908785602481865afa94851561144557908892915f9661140b575b50602490855194859384926311f9118960e31b84528301525afa958615611401575f966113ba575b6101208667ffffffffffffffff8988886113ab89518096611469565b1660e084015216610100820152f35b908092939650813d83116113fa575b6113d38183611575565b8101031261120c57519167ffffffffffffffff8316830361120c57919390816113ab61138f565b503d6113c9565b82513d5f823e3d90fd5b8381949297503d831161143e575b6114238183611575565b8101031261120c57602461143789936115cd565b9590611367565b503d611419565b84513d5f823e3d90fd5b3461120c575f36600319011261120c576020906001548152f35b60c080918051845260018060a01b03602082015116602085015260408101516040850152606081015160608501526080810151608085015260a0810151151560a08501520151910152565b600435906001600160a01b038216820361120c57565b608090600319011261120c5760043590602435906044359060643590565b60045481101561151d5760045f527f8a35acfbc15ff81a39ae7d344fd709f28e8600b4aa8c65c6b64bfe7fe36bd19b01905f90565b634e487b7160e01b5f52603260045260245ffd5b60e0810190811067ffffffffffffffff82111761154d57604052565b634e487b7160e01b5f52604160045260245ffd5b67ffffffffffffffff811161154d57604052565b90601f8019910116810190811067ffffffffffffffff82111761154d57604052565b604051906115a482611531565b5f60c0838281528260208201528260408201528260608201528260808201528260a08201520152565b51906001600160a01b038216820361120c57565b156115e857565b60405162461bcd60e51b81526020600482015260116024820152702737ba103634b9ba34b7339037bbb732b960791b6044820152606490fd5b1561162857565b60405162461bcd60e51b81526020600482015260126024820152714c697374696e67206e6f742061637469766560701b6044820152606490fd5b1561166957565b60405162461bcd60e51b815260206004820152601160248201527005072696365206d757374206265203e203607c1b6044820152606490fd5b156116a957565b60405162461bcd60e51b815260206004820152601060248201526f24b73b30b634b210323ab930ba34b7b760811b6044820152606490fd5b5f1981146116ef5760010190565b634e487b7160e01b5f52601160045260245ffd5b67ffffffffffffffff811161154d5760051b60200190565b805182101561151d5760209160051b010190565b1561173657565b60405162461bcd60e51b81526020600482015260116024820152702737ba103bb930b83832b91037bbb732b960791b6044820152606490fd5b1561177657565b60405162461bcd60e51b815260206004820152601060248201526f10dd5c9c995b9d1b1e481c995b9d195960821b6044820152606490fd5b818102929181159184041417156116ef57565b919082018092116116ef57565b5f546001600160a01b031633036117e157565b60405163118cdaa760e01b8152336004820152602490fdfea2646970667358221220ec63afcce19cf0bf5c4126e83602c8ff2a0cdc40742383105c7e4ed1a3549c8964736f6c63430008180033","opcodes":"PUSH1 0xA0 CALLVALUE PUSH2 0x114 JUMPI PUSH1 0x1F PUSH3 0x1970 CODESIZE DUP2 SWAP1 SUB SWAP2 DUP3 ADD PUSH1 0x1F NOT AND DUP4 ADD SWAP2 PUSH1 0x1 PUSH1 0x1 PUSH1 0x40 SHL SUB DUP4 GT DUP5 DUP5 LT OR PUSH2 0x118 JUMPI DUP1 DUP5 SWAP3 PUSH1 0x40 SWAP5 DUP6 MSTORE DUP4 CODECOPY DUP2 ADD SUB SLT PUSH2 0x114 JUMPI PUSH2 0x53 PUSH1 0x20 PUSH2 0x4C DUP4 PUSH2 0x12C JUMP JUMPDEST SWAP3 ADD PUSH2 0x12C JUMP JUMPDEST SWAP1 CALLER ISZERO PUSH2 0xFC JUMPI PUSH0 SLOAD SWAP2 PUSH1 0x1 DUP1 PUSH1 0xA0 SHL SUB SWAP1 DUP2 PUSH1 0x1 DUP1 PUSH1 0xA0 SHL SUB NOT SWAP4 CALLER DUP6 DUP8 AND OR PUSH0 SSTORE PUSH1 0x40 MLOAD SWAP6 DUP3 CALLER SWAP2 AND PUSH32 0x8BE0079C531659141344CD1FD0A4F28419497F9722A3DAAFE3B4186F6B6457E0 PUSH0 DUP1 LOG3 PUSH1 0xFA PUSH1 0x1 SSTORE AND PUSH1 0x80 MSTORE AND SWAP1 PUSH1 0x2 SLOAD AND OR PUSH1 0x2 SSTORE PUSH2 0x182F SWAP1 DUP2 PUSH3 0x141 DUP3 CODECOPY PUSH1 0x80 MLOAD DUP2 DUP2 DUP2 PUSH2 0x330 ADD MSTORE DUP2 DUP2 PUSH2 0x531 ADD MSTORE DUP2 DUP2 PUSH2 0x639 ADD MSTORE DUP2 DUP2 PUSH2 0x97E ADD MSTORE DUP2 DUP2 PUSH2 0xD92 ADD MSTORE DUP2 DUP2 PUSH2 0xECB ADD MSTORE DUP2 DUP2 PUSH2 0x1070 ADD MSTORE PUSH2 0x132A ADD MSTORE RETURN JUMPDEST PUSH1 0x40 MLOAD PUSH4 0x1E4FBDF7 PUSH1 0xE0 SHL DUP2 MSTORE PUSH0 PUSH1 0x4 DUP3 ADD MSTORE PUSH1 0x24 SWAP1 REVERT JUMPDEST PUSH0 DUP1 REVERT JUMPDEST PUSH4 0x4E487B71 PUSH1 0xE0 SHL PUSH0 MSTORE PUSH1 0x41 PUSH1 0x4 MSTORE PUSH1 0x24 PUSH0 REVERT JUMPDEST MLOAD SWAP1 PUSH1 0x1 PUSH1 0x1 PUSH1 0xA0 SHL SUB DUP3 AND DUP3 SUB PUSH2 0x114 JUMPI JUMP INVALID PUSH1 0x80 PUSH1 0x40 DUP2 DUP2 MSTORE PUSH1 0x4 DUP1 CALLDATASIZE LT ISZERO PUSH2 0x14 JUMPI PUSH0 DUP1 REVERT JUMPDEST PUSH0 SWAP3 PUSH1 0xE0 PUSH0 CALLDATALOAD PUSH1 0xE0 SHR SWAP2 DUP3 PUSH4 0x22DCD13E EQ PUSH2 0x144F JUMPI POP DUP2 PUSH4 0x27DC3FBD EQ PUSH2 0x128F JUMPI DUP2 PUSH4 0x46904840 EQ PUSH2 0x1267 JUMPI DUP2 PUSH4 0x715018A6 EQ PUSH2 0x1210 JUMPI DUP2 PUSH4 0x7499CD2F EQ PUSH2 0x100A JUMPI DUP2 PUSH4 0x7D3FA7B7 EQ PUSH2 0xF46 JUMPI DUP2 PUSH4 0x87C35BC0 EQ PUSH2 0xBDE JUMPI POP DUP1 PUSH4 0x8A9A4CFB EQ PUSH2 0x949 JUMPI DUP1 PUSH4 0x8DA5CB5B EQ PUSH2 0x921 JUMPI DUP1 PUSH4 0x93B2D6A0 EQ PUSH2 0x5EA JUMPI DUP1 PUSH4 0xAA0B5988 EQ PUSH2 0x560 JUMPI DUP1 PUSH4 0xB81E230C EQ PUSH2 0x51C JUMPI DUP1 PUSH4 0xB8FF383D EQ PUSH2 0x4E1 JUMPI DUP4 DUP2 PUSH4 0xD5CF5F6F EQ PUSH2 0x30D JUMPI POP DUP1 PUSH4 0xDE74E57B EQ PUSH2 0x29A JUMPI DUP1 PUSH4 0xF160D369 EQ PUSH2 0x1F1 JUMPI DUP1 PUSH4 0xF2FDE38B EQ PUSH2 0x164 JUMPI PUSH4 0xF65A56DA EQ PUSH2 0xEB JUMPI PUSH0 DUP1 REVERT JUMPDEST CALLVALUE PUSH2 0x160 JUMPI PUSH1 0x20 CALLDATASIZE PUSH1 0x3 NOT ADD SLT PUSH2 0x160 JUMPI PUSH1 0x5 SWAP1 CALLDATALOAD SWAP2 DUP3 DUP5 MSTORE PUSH1 0x3 PUSH1 0x20 MSTORE DUP4 KECCAK256 PUSH2 0x122 PUSH1 0x1 DUP1 PUSH1 0xA0 SHL SUB PUSH1 0x1 DUP4 ADD SLOAD AND CALLER EQ PUSH2 0x15E1 JUMP JUMPDEST ADD DUP1 SLOAD PUSH2 0x131 PUSH1 0xFF DUP3 AND PUSH2 0x1621 JUMP JUMPDEST PUSH1 0xFF NOT AND SWAP1 SSTORE CALLER SWAP1 PUSH32 0x23D338A67B21C5DC2B70D113E1C247454ECEDE863DF07905D82542D09A8584FB DUP4 DUP1 LOG3 DUP1 RETURN JUMPDEST DUP3 DUP1 REVERT JUMPDEST POP CALLVALUE PUSH2 0x160 JUMPI PUSH1 0x20 CALLDATASIZE PUSH1 0x3 NOT ADD SLT PUSH2 0x160 JUMPI PUSH2 0x17E PUSH2 0x14B4 JUMP JUMPDEST SWAP1 PUSH2 0x187 PUSH2 0x17CE JUMP JUMPDEST PUSH1 0x1 PUSH1 0x1 PUSH1 0xA0 SHL SUB SWAP2 DUP3 AND SWAP3 DUP4 ISZERO PUSH2 0x1DB JUMPI POP POP PUSH0 SLOAD DUP3 PUSH12 0xFFFFFFFFFFFFFFFFFFFFFFFF PUSH1 0xA0 SHL DUP3 AND OR PUSH0 SSTORE AND PUSH32 0x8BE0079C531659141344CD1FD0A4F28419497F9722A3DAAFE3B4186F6B6457E0 PUSH0 DUP1 LOG3 DUP1 RETURN JUMPDEST MLOAD PUSH4 0x1E4FBDF7 PUSH1 0xE0 SHL DUP2 MSTORE SWAP1 DUP2 ADD DUP5 SWAP1 MSTORE PUSH1 0x24 SWAP1 REVERT JUMPDEST POP SWAP1 CALLVALUE PUSH2 0x160 JUMPI PUSH1 0x20 CALLDATASIZE PUSH1 0x3 NOT ADD SLT PUSH2 0x160 JUMPI PUSH2 0x20C PUSH2 0x14B4 JUMP JUMPDEST PUSH2 0x214 PUSH2 0x17CE JUMP JUMPDEST PUSH1 0x1 PUSH1 0x1 PUSH1 0xA0 SHL SUB AND SWAP2 DUP3 ISZERO PUSH2 0x264 JUMPI POP PUSH1 0x2 DUP1 SLOAD PUSH1 0x1 PUSH1 0x1 PUSH1 0xA0 SHL SUB NOT AND DUP4 OR SWAP1 SSTORE MLOAD SWAP1 DUP2 MSTORE PUSH32 0x7A7B5A0A132F9E0581EB8527F66EAE9EE89C2A3E79D4AC7E41A1F1F4D48A7FC2 SWAP1 PUSH1 0x20 SWAP1 LOG1 DUP1 RETURN JUMPDEST PUSH1 0x20 PUSH1 0x64 SWAP3 MLOAD SWAP2 PUSH3 0x461BCD PUSH1 0xE5 SHL DUP4 MSTORE DUP3 ADD MSTORE PUSH1 0x11 PUSH1 0x24 DUP3 ADD MSTORE PUSH17 0x125B9D985B1A59081C9958DA5C1A595B9D PUSH1 0x7A SHL PUSH1 0x44 DUP3 ADD MSTORE REVERT JUMPDEST POP CALLVALUE PUSH2 0x160 JUMPI PUSH1 0x20 CALLDATASIZE PUSH1 0x3 NOT ADD SLT PUSH2 0x160 JUMPI DUP2 PUSH1 0xE0 SWAP4 DUP3 CALLDATALOAD DUP2 MSTORE PUSH1 0x3 PUSH1 0x20 MSTORE KECCAK256 DUP1 SLOAD SWAP3 PUSH1 0x1 DUP1 PUSH1 0xA0 SHL SUB PUSH1 0x1 DUP4 ADD SLOAD AND SWAP3 PUSH1 0x2 DUP4 ADD SLOAD PUSH1 0x3 DUP5 ADD SLOAD SWAP2 DUP5 ADD SLOAD SWAP3 PUSH1 0x6 PUSH1 0xFF PUSH1 0x5 DUP8 ADD SLOAD AND SWAP6 ADD SLOAD SWAP6 DUP2 MLOAD SWAP8 DUP9 MSTORE PUSH1 0x20 DUP9 ADD MSTORE DUP7 ADD MSTORE PUSH1 0x60 DUP6 ADD MSTORE PUSH1 0x80 DUP5 ADD MSTORE ISZERO ISZERO PUSH1 0xA0 DUP4 ADD MSTORE PUSH1 0xC0 DUP3 ADD MSTORE RETURN JUMPDEST DUP3 DUP2 DUP6 CALLVALUE PUSH2 0x442 JUMPI PUSH1 0x20 SWAP1 DUP2 PUSH1 0x3 NOT CALLDATASIZE ADD SLT PUSH2 0x160 JUMPI DUP4 CALLDATALOAD SWAP4 PUSH1 0x1 DUP1 PUSH1 0xA0 SHL SUB DUP1 PUSH32 0x0 AND SWAP4 DUP4 MLOAD PUSH4 0x31A9108F PUSH1 0xE1 SHL DUP2 MSTORE DUP8 DUP5 DUP3 ADD MSTORE DUP2 DUP2 PUSH1 0x24 DUP2 DUP10 GAS STATICCALL DUP1 ISZERO PUSH2 0x4A1 JUMPI DUP8 SWAP1 PUSH2 0x4AB JUMPI JUMPDEST PUSH2 0x385 SWAP2 POP DUP4 AND CALLER EQ PUSH2 0x172F JUMP JUMPDEST DUP4 MLOAD PUSH4 0x6178F8A5 PUSH1 0xE1 SHL DUP2 MSTORE DUP4 DUP2 ADD DUP9 SWAP1 MSTORE DUP2 DUP2 PUSH1 0x24 DUP2 DUP10 GAS STATICCALL SWAP1 DUP2 ISZERO PUSH2 0x4A1 JUMPI DUP8 SWAP2 PUSH2 0x460 JUMPI JUMPDEST POP PUSH1 0x3 SWAP3 PUSH2 0x3BC SWAP2 AND ISZERO PUSH2 0x176F JUMP JUMPDEST DUP7 DUP7 MSTORE MSTORE PUSH1 0x5 DUP3 DUP6 KECCAK256 ADD DUP1 SLOAD PUSH1 0xFF DUP2 AND PUSH2 0x453 JUMPI JUMPDEST POP POP DUP3 EXTCODESIZE ISZERO PUSH2 0x44F JUMPI DUP5 PUSH1 0x24 DUP6 SWAP3 DUP4 DUP6 MLOAD SWAP7 DUP8 SWAP5 DUP6 SWAP4 PUSH4 0xD5CF5F6F PUSH1 0xE0 SHL DUP6 MSTORE DUP5 ADD MSTORE GAS CALL SWAP1 DUP2 ISZERO PUSH2 0x446 JUMPI POP PUSH2 0x42E JUMPI JUMPDEST POP POP CALLER SWAP1 PUSH32 0xC4C9BF77C0411D906A84F605DD07CC13109DACA98A8E0C81871F00F0AD063183 DUP4 DUP1 LOG3 DUP1 RETURN JUMPDEST PUSH2 0x437 SWAP1 PUSH2 0x1561 JUMP JUMPDEST PUSH2 0x442 JUMPI DUP2 DUP4 PUSH2 0x403 JUMP JUMPDEST POP DUP1 REVERT JUMPDEST MLOAD RETURNDATASIZE DUP5 DUP3 RETURNDATACOPY RETURNDATASIZE SWAP1 REVERT JUMPDEST DUP4 DUP1 REVERT JUMPDEST PUSH1 0xFF NOT AND SWAP1 SSTORE DUP7 DUP1 PUSH2 0x3D1 JUMP JUMPDEST SWAP1 POP DUP2 DUP2 DUP2 RETURNDATASIZE DUP4 GT PUSH2 0x49A JUMPI JUMPDEST PUSH2 0x477 DUP2 DUP4 PUSH2 0x1575 JUMP JUMPDEST DUP2 ADD SUB SLT PUSH2 0x496 JUMPI PUSH1 0x3 SWAP3 PUSH2 0x48E PUSH2 0x3BC SWAP3 PUSH2 0x15CD JUMP JUMPDEST SWAP2 POP SWAP3 PUSH2 0x3AD JUMP JUMPDEST DUP7 DUP1 REVERT JUMPDEST POP RETURNDATASIZE PUSH2 0x46D JUMP JUMPDEST DUP6 MLOAD RETURNDATASIZE DUP10 DUP3 RETURNDATACOPY RETURNDATASIZE SWAP1 REVERT JUMPDEST POP DUP2 DUP2 DUP2 RETURNDATASIZE DUP4 GT PUSH2 0x4DA JUMPI JUMPDEST PUSH2 0x4C1 DUP2 DUP4 PUSH2 0x1575 JUMP JUMPDEST DUP2 ADD SUB SLT PUSH2 0x496 JUMPI PUSH2 0x4D5 PUSH2 0x385 SWAP2 PUSH2 0x15CD JUMP JUMPDEST PUSH2 0x377 JUMP JUMPDEST POP RETURNDATASIZE PUSH2 0x4B7 JUMP JUMPDEST POP SWAP2 CALLVALUE PUSH2 0x519 JUMPI PUSH1 0x20 CALLDATASIZE PUSH1 0x3 NOT ADD SLT PUSH2 0x519 JUMPI DUP3 CALLDATALOAD SWAP3 SLOAD DUP4 LT ISZERO PUSH2 0x519 JUMPI POP PUSH2 0x50B PUSH1 0x20 SWAP3 PUSH2 0x14E8 JUMP JUMPDEST SWAP2 SWAP1 SLOAD SWAP1 MLOAD SWAP2 PUSH1 0x3 SHL SHR DUP2 MSTORE RETURN JUMPDEST DUP1 REVERT JUMPDEST POP POP CALLVALUE PUSH2 0x442 JUMPI DUP2 PUSH1 0x3 NOT CALLDATASIZE ADD SLT PUSH2 0x442 JUMPI MLOAD PUSH32 0x0 PUSH1 0x1 PUSH1 0x1 PUSH1 0xA0 SHL SUB AND DUP2 MSTORE PUSH1 0x20 SWAP1 RETURN JUMPDEST POP SWAP1 CALLVALUE PUSH2 0x160 JUMPI PUSH1 0x20 CALLDATASIZE PUSH1 0x3 NOT ADD SLT PUSH2 0x160 JUMPI DUP2 CALLDATALOAD SWAP2 PUSH2 0x57E PUSH2 0x17CE JUMP JUMPDEST PUSH2 0x3E8 DUP4 GT PUSH2 0x5B9 JUMPI POP DUP2 PUSH1 0x20 SWAP2 PUSH32 0x45610D581145924DD7090A5017E5F2B1D6F42213BB2E95707FF86846BBFCB1CA SWAP4 PUSH1 0x1 SSTORE MLOAD SWAP1 DUP2 MSTORE LOG1 DUP1 RETURN JUMPDEST PUSH1 0x20 PUSH1 0x64 SWAP3 MLOAD SWAP2 PUSH3 0x461BCD PUSH1 0xE5 SHL DUP4 MSTORE DUP3 ADD MSTORE PUSH1 0xC PUSH1 0x24 DUP3 ADD MSTORE PUSH12 0x8CCACA40E8DEDE40D0D2CED PUSH1 0xA3 SHL PUSH1 0x44 DUP3 ADD MSTORE REVERT JUMPDEST POP SWAP1 DUP1 PUSH1 0x3 NOT CALLDATASIZE ADD SLT PUSH2 0x160 JUMPI DUP2 CALLDATALOAD SWAP1 PUSH1 0x24 SWAP1 DUP2 CALLDATALOAD SWAP4 DUP4 DUP7 MSTORE PUSH1 0x20 PUSH1 0x3 DUP2 MSTORE DUP3 DUP8 KECCAK256 SWAP2 PUSH2 0x61D PUSH1 0xFF PUSH1 0x5 DUP6 ADD SLOAD AND PUSH2 0x1621 JUMP JUMPDEST DUP4 MLOAD PUSH4 0x6178F8A5 PUSH1 0xE1 SHL DUP2 MSTORE DUP2 DUP2 ADD DUP8 SWAP1 MSTORE PUSH1 0x1 PUSH1 0x1 PUSH1 0xA0 SHL SUB PUSH32 0x0 DUP2 AND SWAP7 SWAP2 DUP5 DUP2 DUP5 DUP2 DUP12 GAS STATICCALL DUP1 ISZERO PUSH2 0x917 JUMPI DUP3 SWAP1 DUP13 SWAP1 PUSH2 0x8DB JUMPI JUMPDEST PUSH2 0x67E SWAP3 POP AND ISZERO PUSH2 0x176F JUMP JUMPDEST PUSH1 0x3 DUP6 ADD SLOAD DUP10 LT ISZERO DUP1 PUSH2 0x8CE JUMPI JUMPDEST ISZERO PUSH2 0x88D JUMPI PUSH2 0x69F DUP10 PUSH1 0x2 DUP8 ADD SLOAD PUSH2 0x17AE JUMP JUMPDEST SWAP1 PUSH2 0x2710 PUSH2 0x6AF PUSH1 0x1 SLOAD DUP5 PUSH2 0x17AE JUMP JUMPDEST DIV SWAP2 PUSH2 0x6BB DUP4 DUP3 PUSH2 0x17C1 JUMP JUMPDEST SWAP7 DUP8 CALLVALUE LT PUSH2 0x854 JUMPI PUSH3 0x15180 DUP1 DUP14 MUL SWAP1 DUP14 DUP3 DIV EQ DUP14 ISZERO OR ISZERO PUSH2 0x842 JUMPI SWAP1 PUSH8 0xFFFFFFFFFFFFFFFF PUSH2 0x6EF DUP16 SWAP7 SWAP6 SWAP5 SWAP4 TIMESTAMP PUSH2 0x17C1 JUMP JUMPDEST AND SWAP11 DUP1 EXTCODESIZE ISZERO PUSH2 0x83E JUMPI DUP11 MLOAD PUSH4 0x70182B2F PUSH1 0xE1 SHL DUP2 MSTORE DUP1 DUP10 ADD DUP15 SWAP1 MSTORE CALLER DUP9 DUP3 ADD MSTORE PUSH1 0x44 DUP2 ADD DUP14 SWAP1 MSTORE SWAP1 DUP7 SWAP1 DUP3 SWAP1 PUSH1 0x64 SWAP1 DUP3 SWAP1 DUP5 SWAP1 GAS CALL DUP1 ISZERO PUSH2 0x834 JUMPI SWAP2 DUP5 SWAP2 DUP8 SWAP4 PUSH2 0x817 JUMPI JUMPDEST POP DUP3 SWAP4 DUP4 SWAP3 PUSH1 0x1 DUP5 SWAP4 ADD SLOAD AND DUP3 DUP3 ISZERO PUSH2 0x80E JUMPI JUMPDEST CALL ISZERO PUSH2 0x804 JUMPI DUP3 DUP1 SWAP3 DUP2 SWAP3 PUSH1 0x2 SLOAD AND DUP3 DUP3 ISZERO PUSH2 0x7FB JUMPI JUMPDEST CALL ISZERO PUSH2 0x7F1 JUMPI DUP4 CALLVALUE GT PUSH2 0x7A3 JUMPI JUMPDEST POP POP DUP3 MLOAD SWAP6 DUP7 MSTORE DUP6 ADD MSTORE DUP4 ADD MSTORE PUSH32 0x500B841CF5B98EFF984C5E3BABA9E3699EB7E8E67FF07FCF1E2A46E52037234 PUSH1 0x60 CALLER SWAP4 LOG3 DUP1 RETURN JUMPDEST DUP4 CALLVALUE SUB SWAP2 CALLVALUE DUP4 GT PUSH2 0x7E0 JUMPI POP POP DUP8 DUP1 DUP1 DUP1 SWAP4 DUP2 DUP8 CALLVALUE EQ PUSH2 0x7D7 JUMPI JUMPDEST CALLER SWAP1 CALL ISZERO PUSH2 0x7CD JUMPI PUSH0 DUP1 PUSH2 0x76D JUMP JUMPDEST DUP3 MLOAD RETURNDATASIZE DUP9 DUP3 RETURNDATACOPY RETURNDATASIZE SWAP1 REVERT JUMPDEST POP PUSH2 0x8FC PUSH2 0x7BE JUMP JUMPDEST PUSH4 0x4E487B71 PUSH1 0xE0 SHL DUP11 MSTORE PUSH1 0x11 SWAP1 MSTORE DUP9 REVERT JUMPDEST DUP5 MLOAD RETURNDATASIZE DUP11 DUP3 RETURNDATACOPY RETURNDATASIZE SWAP1 REVERT JUMPDEST POP PUSH2 0x8FC PUSH2 0x75F JUMP JUMPDEST DUP8 MLOAD RETURNDATASIZE DUP5 DUP3 RETURNDATACOPY RETURNDATASIZE SWAP1 REVERT JUMPDEST POP PUSH2 0x8FC PUSH2 0x748 JUMP JUMPDEST PUSH2 0x823 SWAP2 SWAP4 SWAP3 POP PUSH2 0x1561 JUMP JUMPDEST PUSH2 0x830 JUMPI DUP3 DUP6 SWAP2 PUSH0 PUSH2 0x734 JUMP JUMPDEST DUP5 DUP1 REVERT JUMPDEST DUP12 MLOAD RETURNDATASIZE DUP9 DUP3 RETURNDATACOPY RETURNDATASIZE SWAP1 REVERT JUMPDEST DUP6 DUP1 REVERT JUMPDEST PUSH4 0x4E487B71 PUSH1 0xE0 SHL DUP15 MSTORE PUSH1 0x11 DUP8 MSTORE DUP6 DUP15 REVERT JUMPDEST DUP9 MLOAD PUSH3 0x461BCD PUSH1 0xE5 SHL DUP2 MSTORE DUP1 DUP8 ADD DUP9 SWAP1 MSTORE PUSH1 0x14 DUP2 DUP8 ADD MSTORE PUSH20 0x125B9CDD59999A58DA595B9D081C185E5B595B9D PUSH1 0x62 SHL PUSH1 0x44 DUP3 ADD MSTORE PUSH1 0x64 SWAP1 REVERT JUMPDEST POP PUSH1 0x17 SWAP1 PUSH1 0x64 SWAP4 DUP7 MLOAD SWAP4 PUSH3 0x461BCD PUSH1 0xE5 SHL DUP6 MSTORE DUP5 ADD MSTORE DUP3 ADD MSTORE PUSH32 0x496E76616C69642072656E74616C206475726174696F6E000000000000000000 PUSH1 0x44 DUP3 ADD MSTORE REVERT JUMPDEST POP DUP3 DUP6 ADD SLOAD DUP10 GT ISZERO PUSH2 0x68C JUMP JUMPDEST POP POP DUP5 DUP2 DUP2 RETURNDATASIZE DUP4 GT PUSH2 0x910 JUMPI JUMPDEST PUSH2 0x8F2 DUP2 DUP4 PUSH2 0x1575 JUMP JUMPDEST DUP2 ADD SUB SLT PUSH2 0x90C JUMPI DUP2 PUSH2 0x907 PUSH2 0x67E SWAP3 PUSH2 0x15CD JUMP JUMPDEST PUSH2 0x672 JUMP JUMPDEST DUP11 DUP1 REVERT JUMPDEST POP RETURNDATASIZE PUSH2 0x8E8 JUMP JUMPDEST DUP8 MLOAD RETURNDATASIZE DUP14 DUP3 RETURNDATACOPY RETURNDATASIZE SWAP1 REVERT JUMPDEST POP POP CALLVALUE PUSH2 0x442 JUMPI DUP2 PUSH1 0x3 NOT CALLDATASIZE ADD SLT PUSH2 0x442 JUMPI SWAP1 SLOAD SWAP1 MLOAD PUSH1 0x1 PUSH1 0x1 PUSH1 0xA0 SHL SUB SWAP1 SWAP2 AND DUP2 MSTORE PUSH1 0x20 SWAP1 RETURN JUMPDEST POP SWAP2 SWAP1 CALLVALUE PUSH2 0x442 JUMPI PUSH2 0x95A CALLDATASIZE PUSH2 0x14CA JUMP JUMPDEST DUP5 MLOAD PUSH4 0x31A9108F PUSH1 0xE1 SHL DUP2 MSTORE DUP8 DUP2 ADD DUP6 SWAP1 MSTORE SWAP3 SWAP5 SWAP1 SWAP3 PUSH1 0x1 PUSH1 0x1 PUSH1 0xA0 SHL SUB SWAP1 PUSH1 0x20 SWAP1 PUSH32 0x0 DUP4 AND SWAP1 DUP3 DUP2 PUSH1 0x24 DUP2 DUP6 GAS STATICCALL DUP1 ISZERO PUSH2 0xBD4 JUMPI DUP11 SWAP1 PUSH2 0xB9A JUMPI JUMPDEST PUSH2 0x9C3 SWAP2 POP DUP5 AND CALLER EQ PUSH2 0x172F JUMP JUMPDEST DUP2 DUP8 PUSH1 0x24 DUP13 DUP8 MLOAD SWAP5 DUP6 SWAP4 DUP5 SWAP3 PUSH4 0x6178F8A5 PUSH1 0xE1 SHL DUP5 MSTORE DUP4 ADD MSTORE GAS STATICCALL SWAP1 DUP2 ISZERO PUSH2 0xB90 JUMPI DUP8 SWAP2 DUP5 SWAP2 DUP12 SWAP2 PUSH2 0xB4A JUMPI JUMPDEST POP PUSH1 0x6 SWAP4 SWAP2 PUSH2 0xA00 SWAP2 AND ISZERO PUSH2 0x176F JUMP JUMPDEST PUSH2 0xA0B DUP10 ISZERO ISZERO PUSH2 0x1662 JUMP JUMPDEST DUP6 ISZERO ISZERO DUP1 PUSH2 0xB40 JUMPI JUMPDEST PUSH2 0xA1D SWAP1 PUSH2 0x16A2 JUMP JUMPDEST DUP10 DUP6 MLOAD SWAP5 PUSH2 0xA2A DUP7 PUSH2 0x1531 JUMP JUMPDEST DUP4 DUP7 MSTORE DUP3 DUP7 ADD CALLER DUP2 MSTORE DUP8 DUP8 ADD SWAP1 DUP13 DUP3 MSTORE PUSH1 0x60 DUP9 ADD SWAP3 DUP11 DUP5 MSTORE DUP10 PUSH1 0x80 DUP11 ADD SWAP6 DUP14 DUP8 MSTORE PUSH1 0x3 PUSH1 0xA0 DUP13 ADD SWAP9 PUSH1 0x1 DUP11 MSTORE PUSH1 0xC0 DUP14 ADD SWAP11 TIMESTAMP DUP13 MSTORE DUP4 MSTORE MSTORE KECCAK256 SWAP9 MLOAD DUP10 SSTORE PUSH1 0x1 DUP10 ADD SWAP2 MLOAD AND PUSH12 0xFFFFFFFFFFFFFFFFFFFFFFFF PUSH1 0xA0 SHL DUP3 SLOAD AND OR SWAP1 SSTORE MLOAD PUSH1 0x2 DUP8 ADD SSTORE MLOAD PUSH1 0x3 DUP7 ADD SSTORE MLOAD DUP12 DUP6 ADD SSTORE PUSH1 0x5 DUP5 ADD SWAP1 MLOAD ISZERO ISZERO PUSH1 0xFF DUP1 NOT DUP4 SLOAD AND SWAP2 AND OR SWAP1 SSTORE MLOAD SWAP2 ADD SSTORE DUP7 SLOAD PUSH9 0x10000000000000000 DUP2 LT ISZERO PUSH2 0xB2D JUMPI PUSH32 0x5D9FFA96AD78CD06885A79BF8973197743DBE52E3A8E8BC6BFF5CE03B260D317 SWAP4 SWAP3 SWAP2 PUSH2 0xAF6 DUP3 DUP11 PUSH1 0x1 PUSH2 0xB27 SWAP6 ADD SWAP1 SSTORE PUSH2 0x14E8 JUMP JUMPDEST DUP2 SLOAD SWAP1 PUSH1 0x3 SHL SWAP1 DUP9 DUP3 SHL SWAP2 PUSH0 NOT SWAP1 SHL NOT AND OR SWAP1 SSTORE MLOAD SWAP3 DUP4 SWAP3 CALLER SWAP8 DUP5 PUSH1 0x40 SWAP2 SWAP5 SWAP4 SWAP3 PUSH1 0x60 DUP3 ADD SWAP6 DUP3 MSTORE PUSH1 0x20 DUP3 ADD MSTORE ADD MSTORE JUMP JUMPDEST SUB SWAP1 LOG3 DUP1 RETURN JUMPDEST PUSH4 0x4E487B71 PUSH1 0xE0 SHL DUP8 MSTORE PUSH1 0x41 DUP9 MSTORE PUSH1 0x24 DUP8 REVERT JUMPDEST POP DUP7 DUP7 GT ISZERO PUSH2 0xA14 JUMP JUMPDEST SWAP3 POP POP POP DUP2 DUP2 DUP2 RETURNDATASIZE DUP4 GT PUSH2 0xB89 JUMPI JUMPDEST PUSH2 0xB63 DUP2 DUP4 PUSH2 0x1575 JUMP JUMPDEST DUP2 ADD SUB SLT PUSH2 0xB85 JUMPI PUSH1 0x6 SWAP2 PUSH2 0xA00 DUP5 PUSH2 0xB7C DUP11 SWAP5 PUSH2 0x15CD JUMP JUMPDEST SWAP2 POP SWAP2 SWAP4 PUSH2 0x9F0 JUMP JUMPDEST DUP9 DUP1 REVERT JUMPDEST POP RETURNDATASIZE PUSH2 0xB59 JUMP JUMPDEST DUP5 MLOAD RETURNDATASIZE DUP12 DUP3 RETURNDATACOPY RETURNDATASIZE SWAP1 REVERT JUMPDEST POP DUP3 DUP2 DUP2 RETURNDATASIZE DUP4 GT PUSH2 0xBCD JUMPI JUMPDEST PUSH2 0xBB0 DUP2 DUP4 PUSH2 0x1575 JUMP JUMPDEST DUP2 ADD SUB SLT PUSH2 0xBC9 JUMPI PUSH2 0xBC4 PUSH2 0x9C3 SWAP2 PUSH2 0x15CD JUMP JUMPDEST PUSH2 0x9B5 JUMP JUMPDEST DUP10 DUP1 REVERT JUMPDEST POP RETURNDATASIZE PUSH2 0xBA6 JUMP JUMPDEST DUP6 MLOAD RETURNDATASIZE DUP13 DUP3 RETURNDATACOPY RETURNDATASIZE SWAP1 REVERT JUMPDEST DUP5 DUP5 DUP5 CALLVALUE PUSH2 0x160 JUMPI DUP3 PUSH1 0x3 NOT CALLDATASIZE ADD SLT PUSH2 0x160 JUMPI SWAP3 SWAP2 DUP1 SWAP2 DUP2 DUP6 SLOAD SWAP1 JUMPDEST DUP2 DUP2 LT PUSH2 0xE40 JUMPI POP PUSH2 0xC23 PUSH2 0xC0E DUP6 PUSH2 0x1703 JUMP JUMPDEST SWAP5 PUSH2 0xC1B DUP5 MLOAD SWAP7 DUP8 PUSH2 0x1575 JUMP JUMPDEST DUP1 DUP7 MSTORE PUSH2 0x1703 JUMP JUMPDEST PUSH1 0x20 SWAP7 SWAP1 PUSH1 0x1F NOT ADD DUP5 JUMPDEST DUP2 DUP2 LT PUSH2 0xE1F JUMPI POP POP DUP4 DUP5 JUMPDEST DUP4 DUP2 LT PUSH2 0xC90 JUMPI POP POP POP POP DUP1 MLOAD SWAP5 DUP6 SWAP5 DUP2 DUP1 DUP8 ADD SWAP4 DUP2 DUP9 MSTORE DUP7 MLOAD DUP1 SWAP6 MSTORE DUP8 ADD SWAP6 ADD SWAP4 SWAP1 JUMPDEST DUP4 DUP3 LT PUSH2 0xC6A JUMPI DUP7 DUP7 SUB DUP8 RETURN JUMPDEST SWAP2 DUP5 SWAP7 POP DUP3 DUP7 PUSH2 0xC80 PUSH1 0x1 SWAP5 SWAP7 SWAP9 DUP5 SWAP9 MLOAD PUSH2 0x1469 JUMP JUMPDEST ADD SWAP7 ADD SWAP3 ADD DUP7 SWAP6 SWAP5 SWAP3 SWAP4 SWAP2 PUSH2 0xC5D JUMP JUMPDEST DUP9 DUP6 PUSH2 0xCA1 DUP4 SWAP12 SWAP9 SWAP8 SWAP10 SWAP11 SWAP12 PUSH2 0x14E8 JUMP JUMPDEST SWAP1 SLOAD PUSH1 0x3 SWAP2 DUP3 SHL SHR DUP1 DUP10 MSTORE DUP2 DUP5 MSTORE PUSH1 0xFF SWAP2 PUSH1 0x5 SWAP2 DUP4 DUP4 DUP7 DUP14 KECCAK256 ADD SLOAD AND DUP1 PUSH2 0xD68 JUMPI JUMPDEST PUSH2 0xCDC JUMPI JUMPDEST POP POP POP POP POP POP PUSH1 0x1 ADD SWAP8 SWAP7 SWAP6 SWAP4 SWAP5 SWAP8 PUSH2 0xC39 JUMP JUMPDEST SWAP3 PUSH1 0x6 SWAP3 PUSH1 0x1 SWAP8 SWAP9 SWAP6 SWAP3 PUSH2 0xD5A SWAP8 SWAP6 DUP14 MSTORE DUP1 DUP7 MSTORE DUP4 DUP14 KECCAK256 SWAP4 DUP1 MLOAD SWAP7 PUSH2 0xD00 DUP9 PUSH2 0x1531 JUMP JUMPDEST DUP6 SLOAD DUP9 MSTORE DUP11 DUP1 PUSH1 0xA0 SHL SUB DUP12 DUP8 ADD SLOAD AND SWAP1 DUP9 ADD MSTORE PUSH1 0x2 DUP6 ADD SLOAD SWAP1 DUP8 ADD MSTORE DUP4 ADD SLOAD PUSH1 0x60 DUP7 ADD MSTORE DUP10 DUP4 ADD SLOAD PUSH1 0x80 DUP7 ADD MSTORE DUP3 ADD SLOAD AND ISZERO ISZERO PUSH1 0xA0 DUP5 ADD MSTORE ADD SLOAD PUSH1 0xC0 DUP3 ADD MSTORE PUSH2 0xD49 DUP3 DUP13 PUSH2 0x171B JUMP JUMPDEST MSTORE PUSH2 0xD54 DUP2 DUP12 PUSH2 0x171B JUMP JUMPDEST POP PUSH2 0x16E1 JUMP JUMPDEST SWAP2 SWAP1 POP DUP6 DUP8 DUP12 DUP1 DUP1 DUP1 PUSH2 0xCC8 JUMP JUMPDEST POP DUP13 MLOAD PUSH4 0x6178F8A5 PUSH1 0xE1 SHL DUP2 MSTORE DUP10 DUP2 ADD DUP3 SWAP1 MSTORE SWAP4 SWAP6 POP SWAP2 SWAP4 POP SWAP2 PUSH1 0x1 PUSH1 0x1 PUSH1 0xA0 SHL SUB SWAP1 DUP12 DUP2 PUSH1 0x24 DUP2 PUSH32 0x0 DUP7 AND GAS STATICCALL SWAP1 DUP2 ISZERO PUSH2 0xE15 JUMPI SWAP2 DUP14 SWAP6 SWAP4 SWAP2 DUP14 SWAP8 SWAP6 SWAP4 DUP14 SWAP2 PUSH2 0xDD4 JUMPI JUMPDEST POP AND ISZERO PUSH2 0xCC3 JUMP JUMPDEST SWAP3 SWAP5 SWAP7 POP POP SWAP2 SWAP4 SWAP6 DUP2 DUP2 RETURNDATASIZE DUP4 GT PUSH2 0xE0E JUMPI JUMPDEST PUSH2 0xDF0 DUP2 DUP4 PUSH2 0x1575 JUMP JUMPDEST DUP2 ADD SUB SLT PUSH2 0x90C JUMPI SWAP2 DUP12 SWAP6 SWAP4 SWAP2 PUSH2 0xE08 DUP15 SWAP7 SWAP5 PUSH2 0x15CD JUMP JUMPDEST PUSH0 PUSH2 0xDCC JUMP JUMPDEST POP RETURNDATASIZE PUSH2 0xDE6 JUMP JUMPDEST DUP14 MLOAD RETURNDATASIZE DUP14 DUP3 RETURNDATACOPY RETURNDATASIZE SWAP1 REVERT JUMPDEST SWAP8 DUP1 SWAP6 SWAP5 SWAP7 SWAP8 SWAP9 PUSH2 0xE2E PUSH2 0x1597 JUMP JUMPDEST DUP3 DUP3 DUP12 ADD ADD MSTORE ADD SWAP8 SWAP7 SWAP6 SWAP4 SWAP5 SWAP8 PUSH2 0xC2D JUMP JUMPDEST PUSH2 0xE4F DUP2 SWAP8 SWAP5 SWAP4 SWAP6 SWAP7 SWAP8 PUSH2 0x14E8 JUMP JUMPDEST SWAP1 SLOAD PUSH1 0x3 SWAP2 DUP3 SHL SHR DUP5 MSTORE PUSH1 0x20 SWAP1 DUP1 DUP3 MSTORE PUSH1 0xFF PUSH1 0x5 DUP9 DUP8 KECCAK256 ADD SLOAD AND SWAP2 DUP3 PUSH2 0xE99 JUMPI JUMPDEST POP POP PUSH2 0xE85 JUMPI JUMPDEST PUSH1 0x1 ADD SWAP6 SWAP5 SWAP4 SWAP2 SWAP3 SWAP6 PUSH2 0xBFA JUMP JUMPDEST SWAP5 PUSH2 0xE91 PUSH1 0x1 SWAP2 PUSH2 0x16E1 JUMP JUMPDEST SWAP6 SWAP1 POP PUSH2 0xE77 JUMP JUMPDEST PUSH1 0x1 PUSH1 0x1 PUSH1 0xA0 SHL SUB SWAP3 POP SWAP1 PUSH2 0xEAD DUP5 PUSH2 0x14E8 JUMP JUMPDEST SWAP1 SLOAD SWAP2 SHL SHR DUP8 MLOAD SWAP1 PUSH4 0x6178F8A5 PUSH1 0xE1 SHL DUP3 MSTORE DUP8 DUP3 ADD MSTORE DUP2 DUP2 PUSH1 0x24 DUP2 DUP7 PUSH32 0x0 AND GAS STATICCALL SWAP2 DUP3 ISZERO PUSH2 0xF3C JUMPI DUP7 SWAP3 PUSH2 0xF06 JUMPI JUMPDEST POP POP AND ISZERO DUP9 DUP1 PUSH2 0xE70 JUMP JUMPDEST SWAP1 DUP1 SWAP3 POP DUP2 RETURNDATASIZE DUP4 GT PUSH2 0xF35 JUMPI JUMPDEST PUSH2 0xF1D DUP2 DUP4 PUSH2 0x1575 JUMP JUMPDEST DUP2 ADD SUB SLT PUSH2 0x830 JUMPI PUSH2 0xF2E SWAP1 PUSH2 0x15CD JUMP JUMPDEST DUP10 DUP1 PUSH2 0xEFB JUMP JUMPDEST POP RETURNDATASIZE PUSH2 0xF13 JUMP JUMPDEST DUP9 MLOAD RETURNDATASIZE DUP9 DUP3 RETURNDATACOPY RETURNDATASIZE SWAP1 REVERT JUMPDEST POP POP CALLVALUE PUSH2 0x160 JUMPI PUSH32 0x23E36ECF1A4B365492F7DD38A0F7A4278A3C3474CD41CED9B1C410E09E10759C SWAP1 PUSH2 0xFFA PUSH2 0xF7B CALLDATASIZE PUSH2 0x14CA JUMP JUMPDEST DUP4 SWAP8 SWAP2 SWAP6 DUP2 SWAP4 SWAP6 SWAP5 DUP11 MSTORE PUSH1 0x3 PUSH1 0x20 MSTORE DUP3 DUP11 KECCAK256 PUSH2 0xFA4 PUSH1 0x1 DUP1 PUSH1 0xA0 SHL SUB PUSH1 0x1 DUP4 ADD SLOAD AND CALLER EQ PUSH2 0x15E1 JUMP JUMPDEST PUSH2 0xFB4 PUSH1 0xFF PUSH1 0x5 DUP4 ADD SLOAD AND PUSH2 0x1621 JUMP JUMPDEST PUSH2 0xFBF DUP8 ISZERO ISZERO PUSH2 0x1662 JUMP JUMPDEST DUP8 ISZERO ISZERO DUP1 PUSH2 0x1000 JUMPI JUMPDEST PUSH2 0xFD1 SWAP1 PUSH2 0x16A2 JUMP JUMPDEST DUP7 PUSH1 0x2 DUP3 ADD SSTORE DUP8 PUSH1 0x3 DUP3 ADD SSTORE ADD SSTORE MLOAD SWAP4 DUP5 SWAP4 DUP5 PUSH1 0x40 SWAP2 SWAP5 SWAP4 SWAP3 PUSH1 0x60 DUP3 ADD SWAP6 DUP3 MSTORE PUSH1 0x20 DUP3 ADD MSTORE ADD MSTORE JUMP JUMPDEST SUB SWAP1 LOG2 DUP1 RETURN JUMPDEST POP DUP3 DUP9 GT ISZERO PUSH2 0xFC8 JUMP JUMPDEST POP POP SWAP1 CALLVALUE PUSH2 0x120C JUMPI DUP1 PUSH1 0x3 NOT CALLDATASIZE ADD SLT PUSH2 0x120C JUMPI PUSH2 0x1025 PUSH2 0x14B4 JUMP JUMPDEST PUSH1 0x24 CALLDATALOAD PUSH1 0x1 PUSH1 0x1 PUSH1 0xA0 SHL SUB DUP3 DUP2 AND SWAP1 DUP2 EXTCODESIZE ISZERO PUSH2 0x120C JUMPI DUP5 MLOAD PUSH4 0x23B872DD PUSH1 0xE0 SHL DUP2 MSTORE CALLER DUP8 DUP3 ADD MSTORE ADDRESS PUSH1 0x24 DUP3 ADD MSTORE PUSH1 0x44 DUP2 ADD DUP5 SWAP1 MSTORE PUSH0 DUP2 PUSH1 0x64 DUP2 DUP4 DUP8 GAS CALL DUP1 ISZERO PUSH2 0x1202 JUMPI PUSH2 0x11EF JUMPI JUMPDEST POP PUSH32 0x0 AND SWAP5 DUP2 EXTCODESIZE ISZERO PUSH2 0x496 JUMPI DUP5 MLOAD PUSH4 0x95EA7B3 PUSH1 0xE0 SHL DUP2 MSTORE PUSH1 0x1 PUSH1 0x1 PUSH1 0xA0 SHL SUB DUP8 AND DUP3 DUP3 ADD SWAP1 DUP2 MSTORE PUSH1 0x20 DUP2 ADD DUP6 SWAP1 MSTORE DUP9 SWAP2 SWAP1 DUP3 SWAP1 DUP3 SWAP1 DUP2 SWAP1 PUSH1 0x40 ADD SUB DUP2 DUP4 DUP9 GAS CALL DUP1 ISZERO PUSH2 0x804 JUMPI SWAP1 DUP8 SWAP5 SWAP4 SWAP3 SWAP2 PUSH2 0x11D6 JUMPI JUMPDEST POP SWAP1 PUSH1 0x64 SWAP2 DUP5 MLOAD SWAP9 DUP10 SWAP5 DUP6 SWAP4 PUSH4 0x688FA1F PUSH1 0xE3 SHL DUP6 MSTORE DUP5 ADD MSTORE DUP7 PUSH1 0x24 DUP5 ADD MSTORE CALLER PUSH1 0x44 DUP5 ADD MSTORE GAS CALL SWAP4 DUP5 ISZERO PUSH2 0x11CC JUMPI DUP6 SWAP5 PUSH2 0x1163 JUMPI JUMPDEST POP DUP3 MLOAD PUSH1 0x1 PUSH1 0x1 PUSH1 0xA0 SHL SUB SWAP1 SWAP3 AND DUP3 MSTORE PUSH1 0x20 DUP3 DUP2 ADD SWAP2 SWAP1 SWAP2 MSTORE SWAP4 POP CALLER SWAP1 DUP4 SWAP1 PUSH32 0xB453EEFEBC226FC2192F1723C6DA5303EE239B0B4EAD4D7519C1AF9FBB36CB09 SWAP1 DUP1 PUSH1 0x40 DUP2 ADD JUMPDEST SUB SWAP1 LOG3 MLOAD SWAP1 DUP2 MSTORE RETURN JUMPDEST SWAP2 SWAP4 POP SWAP2 SWAP4 DUP5 DUP3 DUP2 RETURNDATASIZE DUP4 GT PUSH2 0x11C5 JUMPI JUMPDEST PUSH2 0x117D DUP2 DUP4 PUSH2 0x1575 JUMP JUMPDEST DUP2 ADD SUB SLT PUSH2 0x519 JUMPI POP SWAP2 PUSH1 0x20 SWAP4 SWAP2 PUSH32 0xB453EEFEBC226FC2192F1723C6DA5303EE239B0B4EAD4D7519C1AF9FBB36CB09 DUP5 PUSH2 0x11BD DUP8 PUSH2 0x115A SWAP8 MLOAD SWAP3 ADD PUSH2 0x15CD JUMP JUMPDEST POP SWAP5 POP PUSH2 0x1113 JUMP JUMPDEST POP RETURNDATASIZE PUSH2 0x1173 JUMP JUMPDEST DUP4 MLOAD RETURNDATASIZE DUP8 DUP3 RETURNDATACOPY RETURNDATASIZE SWAP1 REVERT JUMPDEST PUSH2 0x11E2 SWAP2 SWAP3 SWAP5 POP PUSH2 0x1561 JUMP JUMPDEST PUSH2 0x496 JUMPI DUP5 SWAP2 DUP8 PUSH0 PUSH2 0x10DE JUMP JUMPDEST PUSH2 0x11FA SWAP2 SWAP8 POP PUSH2 0x1561 JUMP JUMPDEST PUSH0 SWAP6 PUSH0 PUSH2 0x106D JUMP JUMPDEST DUP7 MLOAD RETURNDATASIZE PUSH0 DUP3 RETURNDATACOPY RETURNDATASIZE SWAP1 REVERT JUMPDEST PUSH0 DUP1 REVERT JUMPDEST CALLVALUE PUSH2 0x120C JUMPI PUSH0 CALLDATASIZE PUSH1 0x3 NOT ADD SLT PUSH2 0x120C JUMPI PUSH2 0x1228 PUSH2 0x17CE JUMP JUMPDEST PUSH0 DUP1 SLOAD PUSH1 0x1 PUSH1 0x1 PUSH1 0xA0 SHL SUB NOT DUP2 AND DUP3 SSTORE PUSH1 0x1 PUSH1 0x1 PUSH1 0xA0 SHL SUB AND PUSH32 0x8BE0079C531659141344CD1FD0A4F28419497F9722A3DAAFE3B4186F6B6457E0 DUP3 DUP1 LOG3 STOP JUMPDEST DUP4 CALLVALUE PUSH2 0x120C JUMPI PUSH0 CALLDATASIZE PUSH1 0x3 NOT ADD SLT PUSH2 0x120C JUMPI PUSH1 0x2 SLOAD SWAP1 MLOAD PUSH1 0x1 PUSH1 0x1 PUSH1 0xA0 SHL SUB SWAP1 SWAP2 AND DUP2 MSTORE PUSH1 0x20 SWAP1 RETURN JUMPDEST POP POP CALLVALUE PUSH2 0x120C JUMPI PUSH1 0x20 SWAP2 DUP3 PUSH1 0x3 NOT CALLDATASIZE ADD SLT PUSH2 0x120C JUMPI DUP2 CALLDATALOAD SWAP2 PUSH2 0x12AF PUSH2 0x1597 JUMP JUMPDEST POP DUP3 PUSH0 MSTORE PUSH1 0x3 DUP5 MSTORE DUP2 PUSH0 KECCAK256 SWAP2 DUP1 MLOAD SWAP4 PUSH2 0x12C7 DUP6 PUSH2 0x1531 JUMP JUMPDEST DUP4 SLOAD DUP6 MSTORE PUSH1 0x1 DUP5 ADD SLOAD PUSH1 0x1 PUSH1 0x1 PUSH1 0xA0 SHL SUB SWAP1 DUP2 AND DUP8 DUP8 ADD MSTORE PUSH1 0x2 DUP6 ADD SLOAD DUP4 DUP8 ADD MSTORE PUSH1 0x3 DUP6 ADD SLOAD PUSH1 0x60 DUP8 ADD MSTORE DUP4 DUP6 ADD SLOAD PUSH1 0x80 DUP8 ADD MSTORE PUSH1 0x5 DUP6 ADD SLOAD PUSH1 0xFF AND ISZERO ISZERO PUSH1 0xA0 DUP8 ADD MSTORE PUSH1 0x6 SWAP1 SWAP5 ADD SLOAD PUSH1 0xC0 DUP7 ADD MSTORE DUP2 MLOAD PUSH4 0x6178F8A5 PUSH1 0xE1 SHL DUP2 MSTORE DUP1 DUP5 ADD DUP3 SWAP1 MSTORE SWAP3 PUSH32 0x0 DUP6 AND SWAP2 SWAP1 DUP8 DUP6 PUSH1 0x24 DUP2 DUP7 GAS STATICCALL SWAP5 DUP6 ISZERO PUSH2 0x1445 JUMPI SWAP1 DUP9 SWAP3 SWAP2 PUSH0 SWAP7 PUSH2 0x140B JUMPI JUMPDEST POP PUSH1 0x24 SWAP1 DUP6 MLOAD SWAP5 DUP6 SWAP4 DUP5 SWAP3 PUSH4 0x11F91189 PUSH1 0xE3 SHL DUP5 MSTORE DUP4 ADD MSTORE GAS STATICCALL SWAP6 DUP7 ISZERO PUSH2 0x1401 JUMPI PUSH0 SWAP7 PUSH2 0x13BA JUMPI JUMPDEST PUSH2 0x120 DUP7 PUSH8 0xFFFFFFFFFFFFFFFF DUP10 DUP9 DUP9 PUSH2 0x13AB DUP10 MLOAD DUP1 SWAP7 PUSH2 0x1469 JUMP JUMPDEST AND PUSH1 0xE0 DUP5 ADD MSTORE AND PUSH2 0x100 DUP3 ADD MSTORE RETURN JUMPDEST SWAP1 DUP1 SWAP3 SWAP4 SWAP7 POP DUP2 RETURNDATASIZE DUP4 GT PUSH2 0x13FA JUMPI JUMPDEST PUSH2 0x13D3 DUP2 DUP4 PUSH2 0x1575 JUMP JUMPDEST DUP2 ADD SUB SLT PUSH2 0x120C JUMPI MLOAD SWAP2 PUSH8 0xFFFFFFFFFFFFFFFF DUP4 AND DUP4 SUB PUSH2 0x120C JUMPI SWAP2 SWAP4 SWAP1 DUP2 PUSH2 0x13AB PUSH2 0x138F JUMP JUMPDEST POP RETURNDATASIZE PUSH2 0x13C9 JUMP JUMPDEST DUP3 MLOAD RETURNDATASIZE PUSH0 DUP3 RETURNDATACOPY RETURNDATASIZE SWAP1 REVERT JUMPDEST DUP4 DUP2 SWAP5 SWAP3 SWAP8 POP RETURNDATASIZE DUP4 GT PUSH2 0x143E JUMPI JUMPDEST PUSH2 0x1423 DUP2 DUP4 PUSH2 0x1575 JUMP JUMPDEST DUP2 ADD SUB SLT PUSH2 0x120C JUMPI PUSH1 0x24 PUSH2 0x1437 DUP10 SWAP4 PUSH2 0x15CD JUMP JUMPDEST SWAP6 SWAP1 PUSH2 0x1367 JUMP JUMPDEST POP RETURNDATASIZE PUSH2 0x1419 JUMP JUMPDEST DUP5 MLOAD RETURNDATASIZE PUSH0 DUP3 RETURNDATACOPY RETURNDATASIZE SWAP1 REVERT JUMPDEST CALLVALUE PUSH2 0x120C JUMPI PUSH0 CALLDATASIZE PUSH1 0x3 NOT ADD SLT PUSH2 0x120C JUMPI PUSH1 0x20 SWAP1 PUSH1 0x1 SLOAD DUP2 MSTORE RETURN JUMPDEST PUSH1 0xC0 DUP1 SWAP2 DUP1 MLOAD DUP5 MSTORE PUSH1 0x1 DUP1 PUSH1 0xA0 SHL SUB PUSH1 0x20 DUP3 ADD MLOAD AND PUSH1 0x20 DUP6 ADD MSTORE PUSH1 0x40 DUP2 ADD MLOAD PUSH1 0x40 DUP6 ADD MSTORE PUSH1 0x60 DUP2 ADD MLOAD PUSH1 0x60 DUP6 ADD MSTORE PUSH1 0x80 DUP2 ADD MLOAD PUSH1 0x80 DUP6 ADD MSTORE PUSH1 0xA0 DUP2 ADD MLOAD ISZERO ISZERO PUSH1 0xA0 DUP6 ADD MSTORE ADD MLOAD SWAP2 ADD MSTORE JUMP JUMPDEST PUSH1 0x4 CALLDATALOAD SWAP1 PUSH1 0x1 PUSH1 0x1 PUSH1 0xA0 SHL SUB DUP3 AND DUP3 SUB PUSH2 0x120C JUMPI JUMP JUMPDEST PUSH1 0x80 SWAP1 PUSH1 0x3 NOT ADD SLT PUSH2 0x120C JUMPI PUSH1 0x4 CALLDATALOAD SWAP1 PUSH1 0x24 CALLDATALOAD SWAP1 PUSH1 0x44 CALLDATALOAD SWAP1 PUSH1 0x64 CALLDATALOAD SWAP1 JUMP JUMPDEST PUSH1 0x4 SLOAD DUP2 LT ISZERO PUSH2 0x151D JUMPI PUSH1 0x4 PUSH0 MSTORE PUSH32 0x8A35ACFBC15FF81A39AE7D344FD709F28E8600B4AA8C65C6B64BFE7FE36BD19B ADD SWAP1 PUSH0 SWAP1 JUMP JUMPDEST PUSH4 0x4E487B71 PUSH1 0xE0 SHL PUSH0 MSTORE PUSH1 0x32 PUSH1 0x4 MSTORE PUSH1 0x24 PUSH0 REVERT JUMPDEST PUSH1 0xE0 DUP2 ADD SWAP1 DUP2 LT PUSH8 0xFFFFFFFFFFFFFFFF DUP3 GT OR PUSH2 0x154D JUMPI PUSH1 0x40 MSTORE JUMP JUMPDEST PUSH4 0x4E487B71 PUSH1 0xE0 SHL PUSH0 MSTORE PUSH1 0x41 PUSH1 0x4 MSTORE PUSH1 0x24 PUSH0 REVERT JUMPDEST PUSH8 0xFFFFFFFFFFFFFFFF DUP2 GT PUSH2 0x154D JUMPI PUSH1 0x40 MSTORE JUMP JUMPDEST SWAP1 PUSH1 0x1F DUP1 NOT SWAP2 ADD AND DUP2 ADD SWAP1 DUP2 LT PUSH8 0xFFFFFFFFFFFFFFFF DUP3 GT OR PUSH2 0x154D JUMPI PUSH1 0x40 MSTORE JUMP JUMPDEST PUSH1 0x40 MLOAD SWAP1 PUSH2 0x15A4 DUP3 PUSH2 0x1531 JUMP JUMPDEST PUSH0 PUSH1 0xC0 DUP4 DUP3 DUP2 MSTORE DUP3 PUSH1 0x20 DUP3 ADD MSTORE DUP3 PUSH1 0x40 DUP3 ADD MSTORE DUP3 PUSH1 0x60 DUP3 ADD MSTORE DUP3 PUSH1 0x80 DUP3 ADD MSTORE DUP3 PUSH1 0xA0 DUP3 ADD MSTORE ADD MSTORE JUMP JUMPDEST MLOAD SWAP1 PUSH1 0x1 PUSH1 0x1 PUSH1 0xA0 SHL SUB DUP3 AND DUP3 SUB PUSH2 0x120C JUMPI JUMP JUMPDEST ISZERO PUSH2 0x15E8 JUMPI JUMP JUMPDEST PUSH1 0x40 MLOAD PUSH3 0x461BCD PUSH1 0xE5 SHL DUP2 MSTORE PUSH1 0x20 PUSH1 0x4 DUP3 ADD MSTORE PUSH1 0x11 PUSH1 0x24 DUP3 ADD MSTORE PUSH17 0x2737BA103634B9BA34B7339037BBB732B9 PUSH1 0x79 SHL PUSH1 0x44 DUP3 ADD MSTORE PUSH1 0x64 SWAP1 REVERT JUMPDEST ISZERO PUSH2 0x1628 JUMPI JUMP JUMPDEST PUSH1 0x40 MLOAD PUSH3 0x461BCD PUSH1 0xE5 SHL DUP2 MSTORE PUSH1 0x20 PUSH1 0x4 DUP3 ADD MSTORE PUSH1 0x12 PUSH1 0x24 DUP3 ADD MSTORE PUSH18 0x4C697374696E67206E6F7420616374697665 PUSH1 0x70 SHL PUSH1 0x44 DUP3 ADD MSTORE PUSH1 0x64 SWAP1 REVERT JUMPDEST ISZERO PUSH2 0x1669 JUMPI JUMP JUMPDEST PUSH1 0x40 MLOAD PUSH3 0x461BCD PUSH1 0xE5 SHL DUP2 MSTORE PUSH1 0x20 PUSH1 0x4 DUP3 ADD MSTORE PUSH1 0x11 PUSH1 0x24 DUP3 ADD MSTORE PUSH17 0x5072696365206D757374206265203E203 PUSH1 0x7C SHL PUSH1 0x44 DUP3 ADD MSTORE PUSH1 0x64 SWAP1 REVERT JUMPDEST ISZERO PUSH2 0x16A9 JUMPI JUMP JUMPDEST PUSH1 0x40 MLOAD PUSH3 0x461BCD PUSH1 0xE5 SHL DUP2 MSTORE PUSH1 0x20 PUSH1 0x4 DUP3 ADD MSTORE PUSH1 0x10 PUSH1 0x24 DUP3 ADD MSTORE PUSH16 0x24B73B30B634B210323AB930BA34B7B7 PUSH1 0x81 SHL PUSH1 0x44 DUP3 ADD MSTORE PUSH1 0x64 SWAP1 REVERT JUMPDEST PUSH0 NOT DUP2 EQ PUSH2 0x16EF JUMPI PUSH1 0x1 ADD SWAP1 JUMP JUMPDEST PUSH4 0x4E487B71 PUSH1 0xE0 SHL PUSH0 MSTORE PUSH1 0x11 PUSH1 0x4 MSTORE PUSH1 0x24 PUSH0 REVERT JUMPDEST PUSH8 0xFFFFFFFFFFFFFFFF DUP2 GT PUSH2 0x154D JUMPI PUSH1 0x5 SHL PUSH1 0x20 ADD SWAP1 JUMP JUMPDEST DUP1 MLOAD DUP3 LT ISZERO PUSH2 0x151D JUMPI PUSH1 0x20 SWAP2 PUSH1 0x5 SHL ADD ADD SWAP1 JUMP JUMPDEST ISZERO PUSH2 0x1736 JUMPI JUMP JUMPDEST PUSH1 0x40 MLOAD PUSH3 0x461BCD PUSH1 0xE5 SHL DUP2 MSTORE PUSH1 0x20 PUSH1 0x4 DUP3 ADD MSTORE PUSH1 0x11 PUSH1 0x24 DUP3 ADD MSTORE PUSH17 0x2737BA103BB930B83832B91037BBB732B9 PUSH1 0x79 SHL PUSH1 0x44 DUP3 ADD MSTORE PUSH1 0x64 SWAP1 REVERT JUMPDEST ISZERO PUSH2 0x1776 JUMPI JUMP JUMPDEST PUSH1 0x40 MLOAD PUSH3 0x461BCD PUSH1 0xE5 SHL DUP2 MSTORE PUSH1 0x20 PUSH1 0x4 DUP3 ADD MSTORE PUSH1 0x10 PUSH1 0x24 DUP3 ADD MSTORE PUSH16 0x10DD5C9C995B9D1B1E481C995B9D1959 PUSH1 0x82 SHL PUSH1 0x44 DUP3 ADD MSTORE PUSH1 0x64 SWAP1 REVERT JUMPDEST DUP2 DUP2 MUL SWAP3 SWAP2 DUP2 ISZERO SWAP2 DUP5 DIV EQ OR ISZERO PUSH2 0x16EF JUMPI JUMP JUMPDEST SWAP2 SWAP1 DUP3 ADD DUP1 SWAP3 GT PUSH2 0x16EF JUMPI JUMP JUMPDEST PUSH0 SLOAD PUSH1 0x1 PUSH1 0x1 PUSH1 0xA0 SHL SUB AND CALLER SUB PUSH2 0x17E1 JUMPI JUMP JUMPDEST PUSH1 0x40 MLOAD PUSH4 0x118CDAA7 PUSH1 0xE0 SHL DUP2 MSTORE CALLER PUSH1 0x4 DUP3 ADD MSTORE PUSH1 0x24 SWAP1 REVERT INVALID LOG2 PUSH5 0x6970667358 0x22 SLT KECCAK256 0xEC PUSH4 0xAFCCE19C CREATE 0xBF TLOAD COINBASE 0x26 0xE8 CALLDATASIZE MUL 0xC8 SELFDESTRUCT 0x2A 0xC 0xDC BLOCKHASH PUSH21 0x2383105C7E4ED1A3549C8964736F6C634300081800 CALLER "},"methodIdentifiers":{"allListingIds(uint256)":"b8ff383d","cancelRentalListing(uint256)":"f65a56da","createRentalListing(uint256,uint256,uint256,uint256)":"8a9a4cfb","feeRecipient()":"46904840","getActiveListings()":"87c35bc0","getRentalInfo(uint256)":"27dc3fbd","listings(uint256)":"de74e57b","owner()":"8da5cb5b","platformFeeBps()":"22dcd13e","renounceOwnership()":"715018a6","rentNFT(uint256,uint256)":"93b2d6a0","rentalWrapper()":"b81e230c","transferOwnership(address)":"f2fde38b","unwrapNFT(uint256)":"d5cf5f6f","updateFeeRecipient(address)":"f160d369","updatePlatformFee(uint256)":"aa0b5988","updateRentalListing(uint256,uint256,uint256,uint256)":"7d3fa7b7","wrapNFT(address,uint256)":"7499cd2f"}}}}}