{"contracts/FortunaSquareRentalAccount.sol":{"FortunaSquareRentalAccount":{"abi":[{"inputs":[],"name":"DELEGATE_REGISTRY","outputs":[{"internalType":"address","name":"","type":"address"}],"stateMutability":"view","type":"function"},{"inputs":[],"name":"context","outputs":[{"internalType":"uint256","name":"chainId","type":"uint256"},{"internalType":"address","name":"tokenContract","type":"address"},{"internalType":"uint256","name":"tokenId","type":"uint256"}],"stateMutability":"view","type":"function"},{"inputs":[{"internalType":"address","name":"delegate","type":"address"},{"internalType":"address","name":"nftContract","type":"address"},{"internalType":"uint256","name":"tokenId","type":"uint256"},{"internalType":"bool","name":"enable","type":"bool"}],"name":"delegateNFT","outputs":[],"stateMutability":"nonpayable","type":"function"},{"inputs":[{"internalType":"address","name":"to","type":"address"},{"internalType":"uint256","name":"value","type":"uint256"},{"internalType":"bytes","name":"data","type":"bytes"}],"name":"executeCall","outputs":[{"internalType":"bytes","name":"result","type":"bytes"}],"stateMutability":"payable","type":"function"},{"inputs":[{"internalType":"bytes32","name":"hash","type":"bytes32"},{"internalType":"bytes","name":"signature","type":"bytes"}],"name":"isValidSignature","outputs":[{"internalType":"bytes4","name":"magicValue","type":"bytes4"}],"stateMutability":"view","type":"function"},{"inputs":[{"internalType":"address","name":"","type":"address"},{"internalType":"address","name":"","type":"address"},{"internalType":"uint256","name":"","type":"uint256"},{"internalType":"bytes","name":"","type":"bytes"}],"name":"onERC721Received","outputs":[{"internalType":"bytes4","name":"","type":"bytes4"}],"stateMutability":"pure","type":"function"},{"inputs":[],"name":"owner","outputs":[{"internalType":"address","name":"","type":"address"}],"stateMutability":"view","type":"function"},{"inputs":[{"internalType":"bytes4","name":"interfaceId","type":"bytes4"}],"name":"supportsInterface","outputs":[{"internalType":"bool","name":"","type":"bool"}],"stateMutability":"view","type":"function"},{"stateMutability":"payable","type":"receive"}],"evm":{"bytecode":{"linkReferences":{},"object":"6080806040523461001657610849908161001b8239f35b5f80fdfe6080604052600436101561001a575b3615610018575f80fd5b005b5f3560e01c806301ffc9a714610099578063150b7a02146100945780631626ba7e1461008f5780633af65ff91461008a5780638286eee2146100855780638da5cb5b146100805780639e5d4c491461007b5763d0496d6a0361000e5761047d565b6103f1565b610387565b610360565b610291565b6101fa565b610148565b346101055760203660031901126101055760043563ffffffff60e01b8116809103610105576301ffc9a760e01b81149081156100f4575b81156100e3575b50151560805260206080f35b630a85bd0160e11b149050816100d7565b630b135d3f60e11b811491506100d0565b5f80fd5b6001600160a01b0381160361010557565b9181601f840112156101055782359167ffffffffffffffff8311610105576020838186019501011161010557565b3461010557608036600319011261010557610164600435610109565b61016f602435610109565b60643567ffffffffffffffff81116101055761018f90369060040161011a565b5050604051630a85bd0160e11b8152602090f35b634e487b7160e01b5f52604160045260245ffd5b90601f8019910116810190811067ffffffffffffffff8211176101d957604052565b6101a3565b67ffffffffffffffff81116101d957601f01601f191660200190565b346101055760403660031901126101055760243567ffffffffffffffff8111610105573660238201121561010557806004013590610237826101de565b61024460405191826101b7565b8281523660248484010111610105575f60208461028d956024610272960183860137830101526004356104b4565b6040516001600160e01b031990911681529081906020820190565b0390f35b34610105576080366003190112610105576004356102ae81610109565b602435906102bb82610109565b60643590811515809203610105576102da6102d53361071a565b6104da565b6040519263b18e2bbb60e01b845260018060a01b03809216600485015216602483015260443560448301525f6064830152608482015260208160a4815f6c447e69651d841bd8d104bed4935af1801561035b5761033357005b6100189060203d602011610354575b61034c81836101b7565b810190610516565b503d610342565b610525565b34610105575f3660031901126101055760206040516c447e69651d841bd8d104bed4938152f35b34610105575f3660031901126101055760206103a1610530565b6040516001600160a01b039091168152f35b91908251928382525f5b8481106103dd575050825f602080949584010152601f8019910116010190565b6020818301810151848301820152016103bd565b60603660031901126101055760043561040981610109565b60443567ffffffffffffffff8111610105575f9161042c8392369060040161011a565b906104396102d53361071a565b81604051928392833781018481520391602435905af16104576105ad565b90156104755761028d906040519182916020835260208301906103b3565b602081519101fd5b34610105575f3660031901126101055760606104976105dc565b604080519384526001600160a01b03909216602084015290820152f35b906104c6916104c1610530565b610658565b156104d657630b135d3f60e11b90565b5f90565b156104e157565b60405162461bcd60e51b815260206004820152600d60248201526c139bdd105d5d1a1bdc9a5e9959609a1b6044820152606490fd5b90816020910312610105575190565b6040513d5f823e3d90fd5b602061053a6105dc565b6040516331a9108f60e11b81526004810191909152929150829060249082906001600160a01b03165afa90811561035b575f91610575575090565b90506020813d6020116105a5575b81610590602093836101b7565b8101031261010557516105a281610109565b90565b3d9150610583565b3d156105d7573d906105be826101de565b916105cc60405193846101b7565b82523d5f602084013e565b606090565b604051906080820182811067ffffffffffffffff8211176101d95760405260608252602082016060604d82303c606083805181010312610105575190606060408401519361062985610109565b015191926001600160a01b03169190565b6004111561064457565b634e487b7160e01b5f52602160045260245ffd5b9091813b6106935761066a9192610757565b506106748161063a565b15918261068057505090565b6001600160a01b03918216911614919050565b5f9182916040516106d6816106c86020820194630b135d3f60e11b998a875260248401526040604484015260648301906103b3565b03601f1981018352826101b7565b51915afa906106e36105ad565b8261070c575b826106f357505090565b61070891925060208082518301019101610516565b1490565b9150602082511015916106e9565b6107226105dc565b506001600160a01b039283169291508116821461075057610741610530565b161461074b575f90565b600190565b5050600190565b8151919060418303610787576107809250602082015190606060408401519301515f1a90610791565b9192909190565b50505f9160029190565b91907f7fffffffffffffffffffffffffffffff5d576e7357a4501ddfe92f46681b20a08411610808579160209360809260ff5f9560405194855216868401526040830152606082015282805260015afa1561035b575f516001600160a01b038116156107fe57905f905f90565b505f906001905f90565b5050505f916003919056fea26469706673582212202cf5b0a849e1550f24359b749c0cc06f880e063c79e5354ea3522edffa5faab464736f6c63430008180033","opcodes":"PUSH1 0x80 DUP1 PUSH1 0x40 MSTORE CALLVALUE PUSH2 0x16 JUMPI PUSH2 0x849 SWAP1 DUP2 PUSH2 0x1B DUP3 CODECOPY RETURN JUMPDEST PUSH0 DUP1 REVERT INVALID PUSH1 0x80 PUSH1 0x40 MSTORE PUSH1 0x4 CALLDATASIZE LT ISZERO PUSH2 0x1A JUMPI JUMPDEST CALLDATASIZE ISZERO PUSH2 0x18 JUMPI PUSH0 DUP1 REVERT JUMPDEST STOP JUMPDEST PUSH0 CALLDATALOAD PUSH1 0xE0 SHR DUP1 PUSH4 0x1FFC9A7 EQ PUSH2 0x99 JUMPI DUP1 PUSH4 0x150B7A02 EQ PUSH2 0x94 JUMPI DUP1 PUSH4 0x1626BA7E EQ PUSH2 0x8F JUMPI DUP1 PUSH4 0x3AF65FF9 EQ PUSH2 0x8A JUMPI DUP1 PUSH4 0x8286EEE2 EQ PUSH2 0x85 JUMPI DUP1 PUSH4 0x8DA5CB5B EQ PUSH2 0x80 JUMPI DUP1 PUSH4 0x9E5D4C49 EQ PUSH2 0x7B JUMPI PUSH4 0xD0496D6A SUB PUSH2 0xE JUMPI PUSH2 0x47D JUMP JUMPDEST PUSH2 0x3F1 JUMP JUMPDEST PUSH2 0x387 JUMP JUMPDEST PUSH2 0x360 JUMP JUMPDEST PUSH2 0x291 JUMP JUMPDEST PUSH2 0x1FA JUMP JUMPDEST PUSH2 0x148 JUMP JUMPDEST CALLVALUE PUSH2 0x105 JUMPI PUSH1 0x20 CALLDATASIZE PUSH1 0x3 NOT ADD SLT PUSH2 0x105 JUMPI PUSH1 0x4 CALLDATALOAD PUSH4 0xFFFFFFFF PUSH1 0xE0 SHL DUP2 AND DUP1 SWAP2 SUB PUSH2 0x105 JUMPI PUSH4 0x1FFC9A7 PUSH1 0xE0 SHL DUP2 EQ SWAP1 DUP2 ISZERO PUSH2 0xF4 JUMPI JUMPDEST DUP2 ISZERO PUSH2 0xE3 JUMPI JUMPDEST POP ISZERO ISZERO PUSH1 0x80 MSTORE PUSH1 0x20 PUSH1 0x80 RETURN JUMPDEST PUSH4 0xA85BD01 PUSH1 0xE1 SHL EQ SWAP1 POP DUP2 PUSH2 0xD7 JUMP JUMPDEST PUSH4 0xB135D3F PUSH1 0xE1 SHL DUP2 EQ SWAP2 POP PUSH2 0xD0 JUMP JUMPDEST PUSH0 DUP1 REVERT JUMPDEST PUSH1 0x1 PUSH1 0x1 PUSH1 0xA0 SHL SUB DUP2 AND SUB PUSH2 0x105 JUMPI JUMP JUMPDEST SWAP2 DUP2 PUSH1 0x1F DUP5 ADD SLT ISZERO PUSH2 0x105 JUMPI DUP3 CALLDATALOAD SWAP2 PUSH8 0xFFFFFFFFFFFFFFFF DUP4 GT PUSH2 0x105 JUMPI PUSH1 0x20 DUP4 DUP2 DUP7 ADD SWAP6 ADD ADD GT PUSH2 0x105 JUMPI JUMP JUMPDEST CALLVALUE PUSH2 0x105 JUMPI PUSH1 0x80 CALLDATASIZE PUSH1 0x3 NOT ADD SLT PUSH2 0x105 JUMPI PUSH2 0x164 PUSH1 0x4 CALLDATALOAD PUSH2 0x109 JUMP JUMPDEST PUSH2 0x16F PUSH1 0x24 CALLDATALOAD PUSH2 0x109 JUMP JUMPDEST PUSH1 0x64 CALLDATALOAD PUSH8 0xFFFFFFFFFFFFFFFF DUP2 GT PUSH2 0x105 JUMPI PUSH2 0x18F SWAP1 CALLDATASIZE SWAP1 PUSH1 0x4 ADD PUSH2 0x11A JUMP JUMPDEST POP POP PUSH1 0x40 MLOAD PUSH4 0xA85BD01 PUSH1 0xE1 SHL DUP2 MSTORE PUSH1 0x20 SWAP1 RETURN JUMPDEST PUSH4 0x4E487B71 PUSH1 0xE0 SHL PUSH0 MSTORE PUSH1 0x41 PUSH1 0x4 MSTORE PUSH1 0x24 PUSH0 REVERT JUMPDEST SWAP1 PUSH1 0x1F DUP1 NOT SWAP2 ADD AND DUP2 ADD SWAP1 DUP2 LT PUSH8 0xFFFFFFFFFFFFFFFF DUP3 GT OR PUSH2 0x1D9 JUMPI PUSH1 0x40 MSTORE JUMP JUMPDEST PUSH2 0x1A3 JUMP JUMPDEST PUSH8 0xFFFFFFFFFFFFFFFF DUP2 GT PUSH2 0x1D9 JUMPI PUSH1 0x1F ADD PUSH1 0x1F NOT AND PUSH1 0x20 ADD SWAP1 JUMP JUMPDEST CALLVALUE PUSH2 0x105 JUMPI PUSH1 0x40 CALLDATASIZE PUSH1 0x3 NOT ADD SLT PUSH2 0x105 JUMPI PUSH1 0x24 CALLDATALOAD PUSH8 0xFFFFFFFFFFFFFFFF DUP2 GT PUSH2 0x105 JUMPI CALLDATASIZE PUSH1 0x23 DUP3 ADD SLT ISZERO PUSH2 0x105 JUMPI DUP1 PUSH1 0x4 ADD CALLDATALOAD SWAP1 PUSH2 0x237 DUP3 PUSH2 0x1DE JUMP JUMPDEST PUSH2 0x244 PUSH1 0x40 MLOAD SWAP2 DUP3 PUSH2 0x1B7 JUMP JUMPDEST DUP3 DUP2 MSTORE CALLDATASIZE PUSH1 0x24 DUP5 DUP5 ADD ADD GT PUSH2 0x105 JUMPI PUSH0 PUSH1 0x20 DUP5 PUSH2 0x28D SWAP6 PUSH1 0x24 PUSH2 0x272 SWAP7 ADD DUP4 DUP7 ADD CALLDATACOPY DUP4 ADD ADD MSTORE PUSH1 0x4 CALLDATALOAD PUSH2 0x4B4 JUMP JUMPDEST PUSH1 0x40 MLOAD PUSH1 0x1 PUSH1 0x1 PUSH1 0xE0 SHL SUB NOT SWAP1 SWAP2 AND DUP2 MSTORE SWAP1 DUP2 SWAP1 PUSH1 0x20 DUP3 ADD SWAP1 JUMP JUMPDEST SUB SWAP1 RETURN JUMPDEST CALLVALUE PUSH2 0x105 JUMPI PUSH1 0x80 CALLDATASIZE PUSH1 0x3 NOT ADD SLT PUSH2 0x105 JUMPI PUSH1 0x4 CALLDATALOAD PUSH2 0x2AE DUP2 PUSH2 0x109 JUMP JUMPDEST PUSH1 0x24 CALLDATALOAD SWAP1 PUSH2 0x2BB DUP3 PUSH2 0x109 JUMP JUMPDEST PUSH1 0x64 CALLDATALOAD SWAP1 DUP2 ISZERO ISZERO DUP1 SWAP3 SUB PUSH2 0x105 JUMPI PUSH2 0x2DA PUSH2 0x2D5 CALLER PUSH2 0x71A JUMP JUMPDEST PUSH2 0x4DA JUMP JUMPDEST PUSH1 0x40 MLOAD SWAP3 PUSH4 0xB18E2BBB PUSH1 0xE0 SHL DUP5 MSTORE PUSH1 0x1 DUP1 PUSH1 0xA0 SHL SUB DUP1 SWAP3 AND PUSH1 0x4 DUP6 ADD MSTORE AND PUSH1 0x24 DUP4 ADD MSTORE PUSH1 0x44 CALLDATALOAD PUSH1 0x44 DUP4 ADD MSTORE PUSH0 PUSH1 0x64 DUP4 ADD MSTORE PUSH1 0x84 DUP3 ADD MSTORE PUSH1 0x20 DUP2 PUSH1 0xA4 DUP2 PUSH0 PUSH13 0x447E69651D841BD8D104BED493 GAS CALL DUP1 ISZERO PUSH2 0x35B JUMPI PUSH2 0x333 JUMPI STOP JUMPDEST PUSH2 0x18 SWAP1 PUSH1 0x20 RETURNDATASIZE PUSH1 0x20 GT PUSH2 0x354 JUMPI JUMPDEST PUSH2 0x34C DUP2 DUP4 PUSH2 0x1B7 JUMP JUMPDEST DUP2 ADD SWAP1 PUSH2 0x516 JUMP JUMPDEST POP RETURNDATASIZE PUSH2 0x342 JUMP JUMPDEST PUSH2 0x525 JUMP JUMPDEST CALLVALUE PUSH2 0x105 JUMPI PUSH0 CALLDATASIZE PUSH1 0x3 NOT ADD SLT PUSH2 0x105 JUMPI PUSH1 0x20 PUSH1 0x40 MLOAD PUSH13 0x447E69651D841BD8D104BED493 DUP2 MSTORE RETURN JUMPDEST CALLVALUE PUSH2 0x105 JUMPI PUSH0 CALLDATASIZE PUSH1 0x3 NOT ADD SLT PUSH2 0x105 JUMPI PUSH1 0x20 PUSH2 0x3A1 PUSH2 0x530 JUMP JUMPDEST PUSH1 0x40 MLOAD PUSH1 0x1 PUSH1 0x1 PUSH1 0xA0 SHL SUB SWAP1 SWAP2 AND DUP2 MSTORE RETURN JUMPDEST SWAP2 SWAP1 DUP3 MLOAD SWAP3 DUP4 DUP3 MSTORE PUSH0 JUMPDEST DUP5 DUP2 LT PUSH2 0x3DD JUMPI POP POP DUP3 PUSH0 PUSH1 0x20 DUP1 SWAP5 SWAP6 DUP5 ADD ADD MSTORE PUSH1 0x1F DUP1 NOT SWAP2 ADD AND ADD ADD SWAP1 JUMP JUMPDEST PUSH1 0x20 DUP2 DUP4 ADD DUP2 ADD MLOAD DUP5 DUP4 ADD DUP3 ADD MSTORE ADD PUSH2 0x3BD JUMP JUMPDEST PUSH1 0x60 CALLDATASIZE PUSH1 0x3 NOT ADD SLT PUSH2 0x105 JUMPI PUSH1 0x4 CALLDATALOAD PUSH2 0x409 DUP2 PUSH2 0x109 JUMP JUMPDEST PUSH1 0x44 CALLDATALOAD PUSH8 0xFFFFFFFFFFFFFFFF DUP2 GT PUSH2 0x105 JUMPI PUSH0 SWAP2 PUSH2 0x42C DUP4 SWAP3 CALLDATASIZE SWAP1 PUSH1 0x4 ADD PUSH2 0x11A JUMP JUMPDEST SWAP1 PUSH2 0x439 PUSH2 0x2D5 CALLER PUSH2 0x71A JUMP JUMPDEST DUP2 PUSH1 0x40 MLOAD SWAP3 DUP4 SWAP3 DUP4 CALLDATACOPY DUP2 ADD DUP5 DUP2 MSTORE SUB SWAP2 PUSH1 0x24 CALLDATALOAD SWAP1 GAS CALL PUSH2 0x457 PUSH2 0x5AD JUMP JUMPDEST SWAP1 ISZERO PUSH2 0x475 JUMPI PUSH2 0x28D SWAP1 PUSH1 0x40 MLOAD SWAP2 DUP3 SWAP2 PUSH1 0x20 DUP4 MSTORE PUSH1 0x20 DUP4 ADD SWAP1 PUSH2 0x3B3 JUMP JUMPDEST PUSH1 0x20 DUP2 MLOAD SWAP2 ADD REVERT JUMPDEST CALLVALUE PUSH2 0x105 JUMPI PUSH0 CALLDATASIZE PUSH1 0x3 NOT ADD SLT PUSH2 0x105 JUMPI PUSH1 0x60 PUSH2 0x497 PUSH2 0x5DC JUMP JUMPDEST PUSH1 0x40 DUP1 MLOAD SWAP4 DUP5 MSTORE PUSH1 0x1 PUSH1 0x1 PUSH1 0xA0 SHL SUB SWAP1 SWAP3 AND PUSH1 0x20 DUP5 ADD MSTORE SWAP1 DUP3 ADD MSTORE RETURN JUMPDEST SWAP1 PUSH2 0x4C6 SWAP2 PUSH2 0x4C1 PUSH2 0x530 JUMP JUMPDEST PUSH2 0x658 JUMP JUMPDEST ISZERO PUSH2 0x4D6 JUMPI PUSH4 0xB135D3F PUSH1 0xE1 SHL SWAP1 JUMP JUMPDEST PUSH0 SWAP1 JUMP JUMPDEST ISZERO PUSH2 0x4E1 JUMPI JUMP JUMPDEST PUSH1 0x40 MLOAD PUSH3 0x461BCD PUSH1 0xE5 SHL DUP2 MSTORE PUSH1 0x20 PUSH1 0x4 DUP3 ADD MSTORE PUSH1 0xD PUSH1 0x24 DUP3 ADD MSTORE PUSH13 0x139BDD105D5D1A1BDC9A5E9959 PUSH1 0x9A SHL PUSH1 0x44 DUP3 ADD MSTORE PUSH1 0x64 SWAP1 REVERT JUMPDEST SWAP1 DUP2 PUSH1 0x20 SWAP2 SUB SLT PUSH2 0x105 JUMPI MLOAD SWAP1 JUMP JUMPDEST PUSH1 0x40 MLOAD RETURNDATASIZE PUSH0 DUP3 RETURNDATACOPY RETURNDATASIZE SWAP1 REVERT JUMPDEST PUSH1 0x20 PUSH2 0x53A PUSH2 0x5DC JUMP JUMPDEST PUSH1 0x40 MLOAD PUSH4 0x31A9108F PUSH1 0xE1 SHL DUP2 MSTORE PUSH1 0x4 DUP2 ADD SWAP2 SWAP1 SWAP2 MSTORE SWAP3 SWAP2 POP DUP3 SWAP1 PUSH1 0x24 SWAP1 DUP3 SWAP1 PUSH1 0x1 PUSH1 0x1 PUSH1 0xA0 SHL SUB AND GAS STATICCALL SWAP1 DUP2 ISZERO PUSH2 0x35B JUMPI PUSH0 SWAP2 PUSH2 0x575 JUMPI POP SWAP1 JUMP JUMPDEST SWAP1 POP PUSH1 0x20 DUP2 RETURNDATASIZE PUSH1 0x20 GT PUSH2 0x5A5 JUMPI JUMPDEST DUP2 PUSH2 0x590 PUSH1 0x20 SWAP4 DUP4 PUSH2 0x1B7 JUMP JUMPDEST DUP2 ADD SUB SLT PUSH2 0x105 JUMPI MLOAD PUSH2 0x5A2 DUP2 PUSH2 0x109 JUMP JUMPDEST SWAP1 JUMP JUMPDEST RETURNDATASIZE SWAP2 POP PUSH2 0x583 JUMP JUMPDEST RETURNDATASIZE ISZERO PUSH2 0x5D7 JUMPI RETURNDATASIZE SWAP1 PUSH2 0x5BE DUP3 PUSH2 0x1DE JUMP JUMPDEST SWAP2 PUSH2 0x5CC PUSH1 0x40 MLOAD SWAP4 DUP5 PUSH2 0x1B7 JUMP JUMPDEST DUP3 MSTORE RETURNDATASIZE PUSH0 PUSH1 0x20 DUP5 ADD RETURNDATACOPY JUMP JUMPDEST PUSH1 0x60 SWAP1 JUMP JUMPDEST PUSH1 0x40 MLOAD SWAP1 PUSH1 0x80 DUP3 ADD DUP3 DUP2 LT PUSH8 0xFFFFFFFFFFFFFFFF DUP3 GT OR PUSH2 0x1D9 JUMPI PUSH1 0x40 MSTORE PUSH1 0x60 DUP3 MSTORE PUSH1 0x20 DUP3 ADD PUSH1 0x60 PUSH1 0x4D DUP3 ADDRESS EXTCODECOPY PUSH1 0x60 DUP4 DUP1 MLOAD DUP2 ADD SUB SLT PUSH2 0x105 JUMPI MLOAD SWAP1 PUSH1 0x60 PUSH1 0x40 DUP5 ADD MLOAD SWAP4 PUSH2 0x629 DUP6 PUSH2 0x109 JUMP JUMPDEST ADD MLOAD SWAP2 SWAP3 PUSH1 0x1 PUSH1 0x1 PUSH1 0xA0 SHL SUB AND SWAP2 SWAP1 JUMP JUMPDEST PUSH1 0x4 GT ISZERO PUSH2 0x644 JUMPI JUMP JUMPDEST PUSH4 0x4E487B71 PUSH1 0xE0 SHL PUSH0 MSTORE PUSH1 0x21 PUSH1 0x4 MSTORE PUSH1 0x24 PUSH0 REVERT JUMPDEST SWAP1 SWAP2 DUP2 EXTCODESIZE PUSH2 0x693 JUMPI PUSH2 0x66A SWAP2 SWAP3 PUSH2 0x757 JUMP JUMPDEST POP PUSH2 0x674 DUP2 PUSH2 0x63A JUMP JUMPDEST ISZERO SWAP2 DUP3 PUSH2 0x680 JUMPI POP POP SWAP1 JUMP JUMPDEST PUSH1 0x1 PUSH1 0x1 PUSH1 0xA0 SHL SUB SWAP2 DUP3 AND SWAP2 AND EQ SWAP2 SWAP1 POP JUMP JUMPDEST PUSH0 SWAP2 DUP3 SWAP2 PUSH1 0x40 MLOAD PUSH2 0x6D6 DUP2 PUSH2 0x6C8 PUSH1 0x20 DUP3 ADD SWAP5 PUSH4 0xB135D3F PUSH1 0xE1 SHL SWAP10 DUP11 DUP8 MSTORE PUSH1 0x24 DUP5 ADD MSTORE PUSH1 0x40 PUSH1 0x44 DUP5 ADD MSTORE PUSH1 0x64 DUP4 ADD SWAP1 PUSH2 0x3B3 JUMP JUMPDEST SUB PUSH1 0x1F NOT DUP2 ADD DUP4 MSTORE DUP3 PUSH2 0x1B7 JUMP JUMPDEST MLOAD SWAP2 GAS STATICCALL SWAP1 PUSH2 0x6E3 PUSH2 0x5AD JUMP JUMPDEST DUP3 PUSH2 0x70C JUMPI JUMPDEST DUP3 PUSH2 0x6F3 JUMPI POP POP SWAP1 JUMP JUMPDEST PUSH2 0x708 SWAP2 SWAP3 POP PUSH1 0x20 DUP1 DUP3 MLOAD DUP4 ADD ADD SWAP2 ADD PUSH2 0x516 JUMP JUMPDEST EQ SWAP1 JUMP JUMPDEST SWAP2 POP PUSH1 0x20 DUP3 MLOAD LT ISZERO SWAP2 PUSH2 0x6E9 JUMP JUMPDEST PUSH2 0x722 PUSH2 0x5DC JUMP JUMPDEST POP PUSH1 0x1 PUSH1 0x1 PUSH1 0xA0 SHL SUB SWAP3 DUP4 AND SWAP3 SWAP2 POP DUP2 AND DUP3 EQ PUSH2 0x750 JUMPI PUSH2 0x741 PUSH2 0x530 JUMP JUMPDEST AND EQ PUSH2 0x74B JUMPI PUSH0 SWAP1 JUMP JUMPDEST PUSH1 0x1 SWAP1 JUMP JUMPDEST POP POP PUSH1 0x1 SWAP1 JUMP JUMPDEST DUP2 MLOAD SWAP2 SWAP1 PUSH1 0x41 DUP4 SUB PUSH2 0x787 JUMPI PUSH2 0x780 SWAP3 POP PUSH1 0x20 DUP3 ADD MLOAD SWAP1 PUSH1 0x60 PUSH1 0x40 DUP5 ADD MLOAD SWAP4 ADD MLOAD PUSH0 BYTE SWAP1 PUSH2 0x791 JUMP JUMPDEST SWAP2 SWAP3 SWAP1 SWAP2 SWAP1 JUMP JUMPDEST POP POP PUSH0 SWAP2 PUSH1 0x2 SWAP2 SWAP1 JUMP JUMPDEST SWAP2 SWAP1 PUSH32 0x7FFFFFFFFFFFFFFFFFFFFFFFFFFFFFFF5D576E7357A4501DDFE92F46681B20A0 DUP5 GT PUSH2 0x808 JUMPI SWAP2 PUSH1 0x20 SWAP4 PUSH1 0x80 SWAP3 PUSH1 0xFF PUSH0 SWAP6 PUSH1 0x40 MLOAD SWAP5 DUP6 MSTORE AND DUP7 DUP5 ADD MSTORE PUSH1 0x40 DUP4 ADD MSTORE PUSH1 0x60 DUP3 ADD MSTORE DUP3 DUP1 MSTORE PUSH1 0x1 GAS STATICCALL ISZERO PUSH2 0x35B JUMPI PUSH0 MLOAD PUSH1 0x1 PUSH1 0x1 PUSH1 0xA0 SHL SUB DUP2 AND ISZERO PUSH2 0x7FE JUMPI SWAP1 PUSH0 SWAP1 PUSH0 SWAP1 JUMP JUMPDEST POP PUSH0 SWAP1 PUSH1 0x1 SWAP1 PUSH0 SWAP1 JUMP JUMPDEST POP POP POP PUSH0 SWAP2 PUSH1 0x3 SWAP2 SWAP1 JUMP INVALID LOG2 PUSH5 0x6970667358 0x22 SLT KECCAK256 0x2C CREATE2 0xB0 0xA8 BLOBHASH 0xE1 SSTORE 0xF 0x24 CALLDATALOAD SWAP12 PUSH21 0x9C0CC06F880E063C79E5354EA3522EDFFA5FAAB464 PUSH20 0x6F6C634300081800330000000000000000000000 "},"methodIdentifiers":{"DELEGATE_REGISTRY()":"8286eee2","context()":"d0496d6a","delegateNFT(address,address,uint256,bool)":"3af65ff9","executeCall(address,uint256,bytes)":"9e5d4c49","isValidSignature(bytes32,bytes)":"1626ba7e","onERC721Received(address,address,uint256,bytes)":"150b7a02","owner()":"8da5cb5b","supportsInterface(bytes4)":"01ffc9a7"}}}}}