{"contracts/RentalWrapperDelegated.sol":{"RentalWrapperDelegated":{"abi":[{"inputs":[{"internalType":"address","name":"_accountImplementation","type":"address"},{"internalType":"address","name":"_rentalManager","type":"address"}],"stateMutability":"nonpayable","type":"constructor"},{"inputs":[{"internalType":"address","name":"sender","type":"address"},{"internalType":"uint256","name":"tokenId","type":"uint256"},{"internalType":"address","name":"owner","type":"address"}],"name":"ERC721IncorrectOwner","type":"error"},{"inputs":[{"internalType":"address","name":"operator","type":"address"},{"internalType":"uint256","name":"tokenId","type":"uint256"}],"name":"ERC721InsufficientApproval","type":"error"},{"inputs":[{"internalType":"address","name":"approver","type":"address"}],"name":"ERC721InvalidApprover","type":"error"},{"inputs":[{"internalType":"address","name":"operator","type":"address"}],"name":"ERC721InvalidOperator","type":"error"},{"inputs":[{"internalType":"address","name":"owner","type":"address"}],"name":"ERC721InvalidOwner","type":"error"},{"inputs":[{"internalType":"address","name":"receiver","type":"address"}],"name":"ERC721InvalidReceiver","type":"error"},{"inputs":[{"internalType":"address","name":"sender","type":"address"}],"name":"ERC721InvalidSender","type":"error"},{"inputs":[{"internalType":"uint256","name":"tokenId","type":"uint256"}],"name":"ERC721NonexistentToken","type":"error"},{"inputs":[{"internalType":"address","name":"owner","type":"address"}],"name":"OwnableInvalidOwner","type":"error"},{"inputs":[{"internalType":"address","name":"account","type":"address"}],"name":"OwnableUnauthorizedAccount","type":"error"},{"anonymous":false,"inputs":[{"indexed":true,"internalType":"address","name":"owner","type":"address"},{"indexed":true,"internalType":"address","name":"approved","type":"address"},{"indexed":true,"internalType":"uint256","name":"tokenId","type":"uint256"}],"name":"Approval","type":"event"},{"anonymous":false,"inputs":[{"indexed":true,"internalType":"address","name":"owner","type":"address"},{"indexed":true,"internalType":"address","name":"operator","type":"address"},{"indexed":false,"internalType":"bool","name":"approved","type":"bool"}],"name":"ApprovalForAll","type":"event"},{"anonymous":false,"inputs":[{"indexed":true,"internalType":"uint256","name":"wrapperId","type":"uint256"},{"indexed":true,"internalType":"address","name":"originalContract","type":"address"},{"indexed":true,"internalType":"uint256","name":"originalTokenId","type":"uint256"},{"indexed":false,"internalType":"address","name":"owner","type":"address"}],"name":"NFTUnwrapped","type":"event"},{"anonymous":false,"inputs":[{"indexed":true,"internalType":"uint256","name":"wrapperId","type":"uint256"},{"indexed":true,"internalType":"address","name":"originalContract","type":"address"},{"indexed":true,"internalType":"uint256","name":"originalTokenId","type":"uint256"},{"indexed":false,"internalType":"address","name":"owner","type":"address"},{"indexed":false,"internalType":"address","name":"tba","type":"address"}],"name":"NFTWrapped","type":"event"},{"anonymous":false,"inputs":[{"indexed":true,"internalType":"address","name":"previousOwner","type":"address"},{"indexed":true,"internalType":"address","name":"newOwner","type":"address"}],"name":"OwnershipTransferred","type":"event"},{"anonymous":false,"inputs":[{"indexed":true,"internalType":"uint256","name":"wrapperId","type":"uint256"},{"indexed":true,"internalType":"address","name":"previousRenter","type":"address"}],"name":"RentalEnded","type":"event"},{"anonymous":false,"inputs":[{"indexed":true,"internalType":"uint256","name":"wrapperId","type":"uint256"},{"indexed":true,"internalType":"address","name":"renter","type":"address"},{"indexed":false,"internalType":"uint64","name":"expires","type":"uint64"}],"name":"RentalStarted","type":"event"},{"anonymous":false,"inputs":[{"indexed":true,"internalType":"address","name":"from","type":"address"},{"indexed":true,"internalType":"address","name":"to","type":"address"},{"indexed":true,"internalType":"uint256","name":"tokenId","type":"uint256"}],"name":"Transfer","type":"event"},{"anonymous":false,"inputs":[{"indexed":true,"internalType":"uint256","name":"tokenId","type":"uint256"},{"indexed":true,"internalType":"address","name":"user","type":"address"},{"indexed":false,"internalType":"uint64","name":"expires","type":"uint64"}],"name":"UpdateUser","type":"event"},{"inputs":[],"name":"ERC6551_REGISTRY","outputs":[{"internalType":"address","name":"","type":"address"}],"stateMutability":"view","type":"function"},{"inputs":[],"name":"accountImplementation","outputs":[{"internalType":"address","name":"","type":"address"}],"stateMutability":"view","type":"function"},{"inputs":[{"internalType":"address","name":"to","type":"address"},{"internalType":"uint256","name":"tokenId","type":"uint256"}],"name":"approve","outputs":[],"stateMutability":"nonpayable","type":"function"},{"inputs":[{"internalType":"address","name":"owner","type":"address"}],"name":"balanceOf","outputs":[{"internalType":"uint256","name":"","type":"uint256"}],"stateMutability":"view","type":"function"},{"inputs":[{"internalType":"uint256","name":"tokenId","type":"uint256"}],"name":"getApproved","outputs":[{"internalType":"address","name":"","type":"address"}],"stateMutability":"view","type":"function"},{"inputs":[{"internalType":"uint256","name":"tokenId","type":"uint256"}],"name":"getOriginalNFT","outputs":[{"internalType":"address","name":"originalContract","type":"address"},{"internalType":"uint256","name":"originalTokenId","type":"uint256"}],"stateMutability":"view","type":"function"},{"inputs":[{"internalType":"uint256","name":"tokenId","type":"uint256"}],"name":"getTBA","outputs":[{"internalType":"address","name":"","type":"address"}],"stateMutability":"view","type":"function"},{"inputs":[{"internalType":"address","name":"owner","type":"address"},{"internalType":"address","name":"operator","type":"address"}],"name":"isApprovedForAll","outputs":[{"internalType":"bool","name":"","type":"bool"}],"stateMutability":"view","type":"function"},{"inputs":[],"name":"name","outputs":[{"internalType":"string","name":"","type":"string"}],"stateMutability":"view","type":"function"},{"inputs":[],"name":"owner","outputs":[{"internalType":"address","name":"","type":"address"}],"stateMutability":"view","type":"function"},{"inputs":[{"internalType":"uint256","name":"tokenId","type":"uint256"}],"name":"ownerOf","outputs":[{"internalType":"address","name":"","type":"address"}],"stateMutability":"view","type":"function"},{"inputs":[],"name":"renounceOwnership","outputs":[],"stateMutability":"nonpayable","type":"function"},{"inputs":[],"name":"rentalManager","outputs":[{"internalType":"address","name":"","type":"address"}],"stateMutability":"view","type":"function"},{"inputs":[{"internalType":"address","name":"from","type":"address"},{"internalType":"address","name":"to","type":"address"},{"internalType":"uint256","name":"tokenId","type":"uint256"}],"name":"safeTransferFrom","outputs":[],"stateMutability":"nonpayable","type":"function"},{"inputs":[{"internalType":"address","name":"from","type":"address"},{"internalType":"address","name":"to","type":"address"},{"internalType":"uint256","name":"tokenId","type":"uint256"},{"internalType":"bytes","name":"data","type":"bytes"}],"name":"safeTransferFrom","outputs":[],"stateMutability":"nonpayable","type":"function"},{"inputs":[{"internalType":"address","name":"operator","type":"address"},{"internalType":"bool","name":"approved","type":"bool"}],"name":"setApprovalForAll","outputs":[],"stateMutability":"nonpayable","type":"function"},{"inputs":[{"internalType":"address","name":"_rentalManager","type":"address"}],"name":"setRentalManager","outputs":[],"stateMutability":"nonpayable","type":"function"},{"inputs":[{"internalType":"uint256","name":"tokenId","type":"uint256"},{"internalType":"address","name":"user","type":"address"},{"internalType":"uint64","name":"expires","type":"uint64"}],"name":"setUser","outputs":[],"stateMutability":"nonpayable","type":"function"},{"inputs":[{"internalType":"bytes4","name":"interfaceId","type":"bytes4"}],"name":"supportsInterface","outputs":[{"internalType":"bool","name":"","type":"bool"}],"stateMutability":"view","type":"function"},{"inputs":[],"name":"symbol","outputs":[{"internalType":"string","name":"","type":"string"}],"stateMutability":"view","type":"function"},{"inputs":[{"internalType":"uint256","name":"tokenId","type":"uint256"}],"name":"tokenURI","outputs":[{"internalType":"string","name":"","type":"string"}],"stateMutability":"view","type":"function"},{"inputs":[{"internalType":"address","name":"from","type":"address"},{"internalType":"address","name":"to","type":"address"},{"internalType":"uint256","name":"tokenId","type":"uint256"}],"name":"transferFrom","outputs":[],"stateMutability":"nonpayable","type":"function"},{"inputs":[{"internalType":"address","name":"newOwner","type":"address"}],"name":"transferOwnership","outputs":[],"stateMutability":"nonpayable","type":"function"},{"inputs":[{"internalType":"uint256","name":"wrapperId","type":"uint256"}],"name":"unwrapNFT","outputs":[],"stateMutability":"nonpayable","type":"function"},{"inputs":[{"internalType":"uint256","name":"tokenId","type":"uint256"}],"name":"userExpires","outputs":[{"internalType":"uint64","name":"","type":"uint64"}],"stateMutability":"view","type":"function"},{"inputs":[{"internalType":"uint256","name":"tokenId","type":"uint256"}],"name":"userOf","outputs":[{"internalType":"address","name":"","type":"address"}],"stateMutability":"view","type":"function"},{"inputs":[{"internalType":"address","name":"originalContract","type":"address"},{"internalType":"uint256","name":"originalTokenId","type":"uint256"},{"internalType":"address","name":"owner","type":"address"}],"name":"wrapNFT","outputs":[{"internalType":"uint256","name":"wrapperId","type":"uint256"},{"internalType":"address","name":"tba","type":"address"}],"stateMutability":"nonpayable","type":"function"},{"inputs":[{"internalType":"uint256","name":"","type":"uint256"}],"name":"wrappedNFTs","outputs":[{"internalType":"address","name":"originalContract","type":"address"},{"internalType":"uint256","name":"originalTokenId","type":"uint256"},{"internalType":"address","name":"tbaAddress","type":"address"}],"stateMutability":"view","type":"function"}],"evm":{"bytecode":{"linkReferences":{},"object":"60a034620003b857601f1990601f906001600160401b039062001d7b3881900384810186168301919084831184841017620002da578084926040948552833981010312620003b8576200005281620003dc565b91620000626020809301620003dc565b936200006d620003bc565b92601d84527f466f7274756e61205371756172652052656e74616c205772617070657200000081850152620000a1620003bc565b9660088852671194d4915395105360c21b828901528451848111620002da575f546001968782811c92168015620003ad575b85831014620002bb5781868493116200035a575b508490868311600114620002fa575f92620002ee575b50505f19600383901b1c191690861b175f555b8751938411620002da5784548581811c91168015620002cf575b83821014620002bb5783811162000273575b50819284116001146200020f57505081929394955f9262000203575b50505f19600383901b1c191690821b1790555b3315620001eb5760068054336001600160a01b031980831682179093556040519492936001600160a01b03939290919084167f8be0079c531659141344cd1fd0a4f28419497f9722a3daafe3b4186f6b6457e05f80a3608052169060075416176007556119899081620003f28239608051818181610db201526111ba0152f35b604051631e4fbdf760e01b81525f6004820152602490fd5b015190505f8062000158565b5f858152828120918516989193925b8982106200025b57505083859697981062000242575b505050811b0190556200016b565b01515f1960f88460031b161c191690555f808062000234565b8087859682949686015181550195019301906200021e565b855f52825f208480870160051c820192858810620002b1575b0160051c019086905b828110620002a55750506200013c565b5f815501869062000295565b925081926200028c565b634e487b7160e01b5f52602260045260245ffd5b90607f16906200012a565b634e487b7160e01b5f52604160045260245ffd5b015190505f80620000fd565b9084899416915f8052865f20925f5b888282106200034357505084116200032a575b505050811b015f5562000110565b01515f1960f88460031b161c191690555f80806200031c565b8385015186558c9790950194938401930162000309565b9091505f8052845f208680850160051c820192878610620003a3575b918a91869594930160051c01915b82811062000394575050620000e7565b5f81558594508a910162000384565b9250819262000376565b91607f1691620000d3565b5f80fd5b60408051919082016001600160401b03811183821017620002da57604052565b51906001600160a01b0382168203620003b85756fe60806040818152600480361015610014575f80fd5b5f925f3560e01c90816301ffc9a7146113c55750806306fdde03146112fe578063081812fc146112c5578063095ea7b3146111e957806311464fbe146111a657806315d9756e14611173578063173ffed41461110357806323b872dd146110ec5780633447d0f814610caa57806342842e0e14610c7c578063577b540b14610c395780636352211e14610c1a57806370a0823114610bc5578063715018a614610b6a5780638da5cb5b14610b425780638fc88c4814610b0d57806395d89b41146109fd578063a22cb46514610961578063b88d4fde146108ce578063c278cff6146108a6578063c2f1f14a14610876578063c87b56dd14610827578063d5cf5f6f14610573578063e030565e146102b0578063e1b251e61461025e578063e985e9c514610210578063edc16084146101e15763f2fde38b14610154575f80fd5b346101dd5760203660031901126101dd5761016d61148f565b9061017661180d565b6001600160a01b039182169283156101c7575050600654826001600160601b0360a01b821617600655167f8be0079c531659141344cd1fd0a4f28419497f9722a3daafe3b4186f6b6457e08380a380f35b51631e4fbdf760e01b8152908101849052602490fd5b8280fd5b50503461020c578160031936011261020c57602090516f6551c19487814612e58fe068137757588152f35b5080fd5b50503461020c578060031936011261020c5760ff8160209361023061148f565b6102386114a5565b6001600160a01b0391821683526005875283832091168252855220549151911615158152f35b50346101dd5760203660031901126101dd5735825260096020908152918190208054600182015460029092015492516001600160a01b03918216815293840191909152166040820152606090f35b0390f35b509190346105335760603660031901126105335782356102ce6114a5565b9160443567ffffffffffffffff91828216809203610533576007546001600160a01b0393906103009085163314611731565b4283111561053757845f5260209360098552825f2096835197610322896114f0565b8054831689526001810154878a019081526002909101548316858a0190815291831698838a1561047c578091929351169151169151813b156104785760848c8c80948d948a519788968795633af65ff960e01b875286015260248501526044840152600160648401525af1801561046e57908991610456575b505086867f9abcba6ac5fb3bfba6499d4948ada5bf16095e5954bc56ac59cf2b28cf4a6bde878651888152a35b82519182840190811183821017610443577f4e06b4e7000e659094299b3533b47b6aa8ad048e95e872d23d1f4ee55af89cfe9697989950835287825284820190848252878a52600a8652838a2092511682549167ffffffffffffffff60a01b905160a01b169163ffffffff60e01b161717905551908152a380f35b634e487b7160e01b895260418a52602489fd5b61045f90611520565b61046a57875f61039b565b8780fd5b84513d8b823e3d90fd5b8a80fd5b50885f52600a88528380875f205416938461049c575b50505050506103c8565b81905116915116915190803b156105335760848d5f869381958b519788968795633af65ff960e01b8752860152602485015260448401528160648401525af1801561052957610516575b50867ff9bbd47d9659083aa5b016ffd346aca413549aace523513f610200aeed1e1dd48a80a35f80808381610492565b610521919950611520565b5f975f6104e6565b85513d5f823e3d90fd5b5f80fd5b815162461bcd60e51b81526020818a0152601660248201527545787069726573206d7573742062652066757475726560501b6044820152606490fd5b5090346105335760208060031936011261053357823590610593826117a4565b6001600160a01b039033908216036107f857806105af84611772565b166107c25760029394835f5260098352855f20906106635f8851936105d3856114f0565b8054861685526001810154878601818152999091015486168a86018181528b516323b872dd60e01b818b01526001600160a01b03909216602483015233604483015260648083019390935291815290869061062f608484611550565b511686865116838c51809681958294639e5d4c4960e01b84528a84015283602484015260606044840152606483019061146a565b03925af180156107b857610745575b50845f526002845282875f205416855f8215928315610714575b828252600288528a822080546001600160a01b03191690557fddf252ad1be2c89b69c2b068fc378daa952ba7f163c4a11628f55a4df523b3ef8280a46106fd5750907f3304fe3d332ecf1a646bbfbb2c28afa7c10f9a7026fbf90b2e5b57cba1da823e9291511693519451338152a4005b8651637e27328960e01b8152908101859052602490fd5b5f83815260046020526040902080546001600160a01b0319169055808252600388528a82208219815401905561068c565b3d805f833e6107548183611550565b81019085818303126105335780519067ffffffffffffffff8211610533570181601f820112156105335780519061078a82611572565b926107978b519485611550565b8284528783830101116105335786806107b294019101611449565b87610672565b88513d5f823e3d90fd5b835162461bcd60e51b8152808601839052601060248201526f10dd5c9c995b9d1b1e481c995b9d195960821b6044820152606490fd5b835162461bcd60e51b815280860183905260096024820152682737ba1037bbb732b960b91b6044820152606490fd5b509034610533576020366003190112610533576108476102ac92356117a4565b505f815161085481611534565b5280519061086182611534565b5f82525191829160208352602083019061146a565b5090346105335760203660031901126105335761089560209235611772565b90516001600160a01b039091168152f35b8234610533575f3660031901126105335760075490516001600160a01b039091168152602090f35b509034610533576080366003190112610533576108e961148f565b6108f16114a5565b604435916064359467ffffffffffffffff861161053357366023870112156105335785013561092b61092282611572565b95519586611550565b8085523660248288010111610533576020815f92602461095f9901838901378601015261095983838361158e565b33611839565b005b50903461053357806003193601126105335761097b61148f565b9060243591821515809303610533576001600160a01b03169283156109e85750335f526005602052805f20835f52602052805f2060ff1981541660ff8416179055519081527f17307eab39ab6107e8899845ad3d59bd9653f200f220920489ca2b5937696c3160203392a3005b836024925191630b61174360e31b8352820152fd5b509034610533575f366003190112610533578051905f90600191600154928360011c9060018516948515610b03575b6020958684108114610af057838852879493929187908215610ace575050600114610a73575b50506102ac9291610a64910385611550565b5192828493845283019061146a565b9085925060015f527fb10e2d527612073b26eecdfd717e6a320cf44b4afac2b0732d9fcbe2b7fa0cf6915f925b828410610ab65750505082010181610a64610a52565b8054848a018601528895508794909301928101610aa0565b60ff19168682015292151560051b85019092019250839150610a649050610a52565b602289634e487b7160e01b5f525260245ffd5b91607f1691610a2c565b50903461053357602036600319011261053357602091355f52600a825267ffffffffffffffff815f205460a01c169051908152f35b8234610533575f3660031901126105335760065490516001600160a01b039091168152602090f35b34610533575f36600319011261053357610b8261180d565b600680546001600160a01b031981169091555f906001600160a01b03167f8be0079c531659141344cd1fd0a4f28419497f9722a3daafe3b4186f6b6457e08280a3005b509034610533576020366003190112610533576001600160a01b03610be861148f565b168015610c0457602092505f5260038252805f20549051908152f35b81516322718ad960e21b81525f81850152602490fd5b50903461053357602036600319011261053357610895602092356117a4565b3461053357602036600319011261053357610c5261148f565b610c5a61180d565b600780546001600160a01b0319166001600160a01b0392909216919091179055005b82346105335761095f90610c8f366114bb565b91925192610c9c84611534565b5f845261095983838361158e565b50903461053357606036600319011261053357610cc561148f565b602492604435916001600160a01b038084169286359284860361053357610cf183600754163314611731565b600854955f19908188146110da5760018801600855885191610d1283611534565b5f835287156110c55791899a9188999a9894938b5f528b866020809c6002825260028c825f205416928315159687611094575b50845f5260038152825f2060018154019055855f52525f206001600160601b0360a01b9e8f8254161790557fddf252ad1be2c89b69c2b068fc378daa952ba7f163c4a11628f55a4df523b3ef5f80a461107f573b610f83575b50895187810190638a54c52f60e01b8252867f000000000000000000000000000000000000000000000000000000000000000016838201525f60448201524660648201523060848201528a60a482015260a4815260e0810181811067ffffffffffffffff821117610f71578c52515f91829190826f6551c19487814612e58fe068137757585af190610e2e6117de565b9115610f3a5750868180518101031261053357860151968488168098036105335784600289938b838e998a5193610e64856114f0565b16998a84528c8401928c84528185019889525f5260098d525f20925116858354161782555160018201550192511690825416179055823b156105335787516323b872dd60e01b8152339281019283526001600160a01b0387166020840152604083018590529188905f9084908190606001038183885af1918215610f305788937f2d47ff8b88e6a756283870ba883deebf2d947fa593ed9e5c500b151434f8a92d93610f21575b5081519081528787820152a48351928352820152f35b610f2a90611520565b8a610f0b565b50513d5f823e3d90fd5b8460136064928a8e519362461bcd60e51b8552840152820152721510904818dc99585d1a5bdb8819985a5b1959606a1b6044820152fd5b83604188634e487b7160e01b5f52525ffd5b93839894888b8d9a99965f869f869f9b9897610fcc83925197889687958694630a85bd0160e11b9c8d87523390870152850152604484015260806064840152608483019061146a565b03925af15f918161103f575b5061100c5750505050505050610fec6117de565b8051919082611009575050505191633250574960e11b8352820152fd5b01fd5b63ffffffff60e09c9394979b969a9598999c1b160361102b578a610d9e565b8951633250574960e11b8152808501849052fd5b9091508881813d8311611078575b6110578183611550565b8101031261053357516001600160e01b03198116810361053357908d610fd8565b503d61104d565b8b516339e3563760e11b81525f818801528390fd5b5f87815260046020526040902080546001600160a01b0319169055845f5260038252835f209081540190555f610d45565b8951633250574960e11b81525f818701528b90fd5b89601185634e487b7160e01b5f52525ffd5b346105335761095f6110fd366114bb565b9161158e565b503461053357602036600319011261053357355f526009602052805f20906102ac815191611130836114f0565b83546001600160a01b0390811680855260018601546020808701829052600290970154909216948301949094529051928352928201929092529081906040820190565b50903461053357602036600319011261053357602091355f526009825260018060a01b036002825f200154169051908152f35b8234610533575f36600319011261053357517f00000000000000000000000000000000000000000000000000000000000000006001600160a01b03168152602090f35b50903461053357806003193601126105335761120361148f565b91602435611210816117a4565b331515806112b2575b8061128b575b611275576001600160a01b039485169482918691167f8c5be1e5ebec7d5bd14f71427d1e84f3dd0314c0f7b2291e5b200ac8c7c3b9255f80a45f526020525f20906001600160601b0360a01b8254161790555f80f35b835163a9fbf51f60e01b81523381850152602490fd5b5060018060a01b0381165f526005602052835f20335f5260205260ff845f2054161561121f565b506001600160a01b038116331415611219565b5090346105335760203660031901126105335781602092356112e6816117a4565b505f52825260018060a01b03815f2054169051908152f35b509034610533575f366003190112610533578051905f905f549160018360011c90600185169485156113bb575b6020958684108114610af057838852879493929187908215610ace5750506001146113625750506102ac9291610a64910385611550565b5f80805286935091907f290decd9548b62a8d60345a988386fc84ba6bc95484008f6362f93160ef3e5635b8284106113a35750505082010181610a64610a52565b8054848a01860152889550879490930192810161138d565b91607f169161132b565b823461053357602036600319011261053357359063ffffffff60e01b821680920361053357602091632b424ad760e21b8114908115611406575b5015158152f35b6380ac58cd60e01b811491508115611438575b8115611427575b50836113ff565b6301ffc9a760e01b14905083611420565b635b5e139f60e01b81149150611419565b5f5b83811061145a5750505f910152565b818101518382015260200161144b565b9060209161148381518092818552858086019101611449565b601f01601f1916010190565b600435906001600160a01b038216820361053357565b602435906001600160a01b038216820361053357565b6060906003190112610533576001600160a01b0390600435828116810361053357916024359081168103610533579060443590565b6060810190811067ffffffffffffffff82111761150c57604052565b634e487b7160e01b5f52604160045260245ffd5b67ffffffffffffffff811161150c57604052565b6020810190811067ffffffffffffffff82111761150c57604052565b90601f8019910116810190811067ffffffffffffffff82111761150c57604052565b67ffffffffffffffff811161150c57601f01601f191660200190565b906001600160a01b03908116801561171957835f52602091600283528460409282845f2054169433151580611684575b5060029086611653575b825f5260038152855f2060018154019055835f5252835f20816001600160601b0360a01b825416179055847fddf252ad1be2c89b69c2b068fc378daa952ba7f163c4a11628f55a4df523b3ef5f80a4831682036116255750505050565b516364283d7b60e01b81526001600160a01b0392831660048201526024810193909352166044820152606490fd5b5f84815260046020526040812080546001600160a01b03191690558781526003825286902080545f190190556115c8565b91925090806116d8575b1561169c579086915f6115be565b8387866116b9576024915190637e27328960e01b82526004820152fd5b905163177e802f60e01b81523360048201526024810191909152604490fd5b5033851480156116fd575b8061168e5750865f52600481523383855f2054161461168e565b50845f5260058152835f20335f52815260ff845f2054166116e3565b604051633250574960e11b81525f6004820152602490fd5b1561173857565b60405162461bcd60e51b815260206004820152601260248201527127b7363c902932b73a30b626b0b730b3b2b960711b6044820152606490fd5b5f52600a60205260405f20544267ffffffffffffffff8260a01c16101561179857505f90565b6001600160a01b031690565b5f818152600260205260409020546001600160a01b03169081156117c6575090565b60249060405190637e27328960e01b82526004820152fd5b3d15611808573d906117ef82611572565b916117fd6040519384611550565b82523d5f602084013e565b606090565b6006546001600160a01b0316330361182157565b60405163118cdaa760e01b8152336004820152602490fd5b9291803b611849575b5050505050565b604051630a85bd0160e11b8082526001600160a01b0395861660048301529285166024820152604481019390935260806064840152909216926020908290819061189790608483019061146a565b03815f875af15f918161190e575b506118dc57826118b36117de565b80519190826118d557604051633250574960e11b815260048101839052602490fd5b6020915001fd5b6001600160e01b031916036118f657505f80808080611842565b60249060405190633250574960e11b82526004820152fd5b9091506020813d60201161194b575b8161192a60209383611550565b8101031261053357516001600160e01b03198116810361053357905f6118a5565b3d915061191d56fea26469706673582212202cdf669611b765b10ee60a1ba4bc126940b119211b6295452bf2ae52c20e43e964736f6c63430008180033","opcodes":"PUSH1 0xA0 CALLVALUE PUSH3 0x3B8 JUMPI PUSH1 0x1F NOT SWAP1 PUSH1 0x1F SWAP1 PUSH1 0x1 PUSH1 0x1 PUSH1 0x40 SHL SUB SWAP1 PUSH3 0x1D7B CODESIZE DUP2 SWAP1 SUB DUP5 DUP2 ADD DUP7 AND DUP4 ADD SWAP2 SWAP1 DUP5 DUP4 GT DUP5 DUP5 LT OR PUSH3 0x2DA JUMPI DUP1 DUP5 SWAP3 PUSH1 0x40 SWAP5 DUP6 MSTORE DUP4 CODECOPY DUP2 ADD SUB SLT PUSH3 0x3B8 JUMPI PUSH3 0x52 DUP2 PUSH3 0x3DC JUMP JUMPDEST SWAP2 PUSH3 0x62 PUSH1 0x20 DUP1 SWAP4 ADD PUSH3 0x3DC JUMP JUMPDEST SWAP4 PUSH3 0x6D PUSH3 0x3BC JUMP JUMPDEST SWAP3 PUSH1 0x1D DUP5 MSTORE PUSH32 0x466F7274756E61205371756172652052656E74616C2057726170706572000000 DUP2 DUP6 ADD MSTORE PUSH3 0xA1 PUSH3 0x3BC JUMP JUMPDEST SWAP7 PUSH1 0x8 DUP9 MSTORE PUSH8 0x1194D49153951053 PUSH1 0xC2 SHL DUP3 DUP10 ADD MSTORE DUP5 MLOAD DUP5 DUP2 GT PUSH3 0x2DA JUMPI PUSH0 SLOAD PUSH1 0x1 SWAP7 DUP8 DUP3 DUP2 SHR SWAP3 AND DUP1 ISZERO PUSH3 0x3AD JUMPI JUMPDEST DUP6 DUP4 LT EQ PUSH3 0x2BB JUMPI DUP2 DUP7 DUP5 SWAP4 GT PUSH3 0x35A JUMPI JUMPDEST POP DUP5 SWAP1 DUP7 DUP4 GT PUSH1 0x1 EQ PUSH3 0x2FA JUMPI PUSH0 SWAP3 PUSH3 0x2EE JUMPI JUMPDEST POP POP PUSH0 NOT PUSH1 0x3 DUP4 SWAP1 SHL SHR NOT AND SWAP1 DUP7 SHL OR PUSH0 SSTORE JUMPDEST DUP8 MLOAD SWAP4 DUP5 GT PUSH3 0x2DA JUMPI DUP5 SLOAD DUP6 DUP2 DUP2 SHR SWAP2 AND DUP1 ISZERO PUSH3 0x2CF JUMPI JUMPDEST DUP4 DUP3 LT EQ PUSH3 0x2BB JUMPI DUP4 DUP2 GT PUSH3 0x273 JUMPI JUMPDEST POP DUP2 SWAP3 DUP5 GT PUSH1 0x1 EQ PUSH3 0x20F JUMPI POP POP DUP2 SWAP3 SWAP4 SWAP5 SWAP6 PUSH0 SWAP3 PUSH3 0x203 JUMPI JUMPDEST POP POP PUSH0 NOT PUSH1 0x3 DUP4 SWAP1 SHL SHR NOT AND SWAP1 DUP3 SHL OR SWAP1 SSTORE JUMPDEST CALLER ISZERO PUSH3 0x1EB JUMPI PUSH1 0x6 DUP1 SLOAD CALLER PUSH1 0x1 PUSH1 0x1 PUSH1 0xA0 SHL SUB NOT DUP1 DUP4 AND DUP3 OR SWAP1 SWAP4 SSTORE PUSH1 0x40 MLOAD SWAP5 SWAP3 SWAP4 PUSH1 0x1 PUSH1 0x1 PUSH1 0xA0 SHL SUB SWAP4 SWAP3 SWAP1 SWAP2 SWAP1 DUP5 AND PUSH32 0x8BE0079C531659141344CD1FD0A4F28419497F9722A3DAAFE3B4186F6B6457E0 PUSH0 DUP1 LOG3 PUSH1 0x80 MSTORE AND SWAP1 PUSH1 0x7 SLOAD AND OR PUSH1 0x7 SSTORE PUSH2 0x1989 SWAP1 DUP2 PUSH3 0x3F2 DUP3 CODECOPY PUSH1 0x80 MLOAD DUP2 DUP2 DUP2 PUSH2 0xDB2 ADD MSTORE PUSH2 0x11BA ADD MSTORE RETURN JUMPDEST PUSH1 0x40 MLOAD PUSH4 0x1E4FBDF7 PUSH1 0xE0 SHL DUP2 MSTORE PUSH0 PUSH1 0x4 DUP3 ADD MSTORE PUSH1 0x24 SWAP1 REVERT JUMPDEST ADD MLOAD SWAP1 POP PUSH0 DUP1 PUSH3 0x158 JUMP JUMPDEST PUSH0 DUP6 DUP2 MSTORE DUP3 DUP2 KECCAK256 SWAP2 DUP6 AND SWAP9 SWAP2 SWAP4 SWAP3 JUMPDEST DUP10 DUP3 LT PUSH3 0x25B JUMPI POP POP DUP4 DUP6 SWAP7 SWAP8 SWAP9 LT PUSH3 0x242 JUMPI JUMPDEST POP POP POP DUP2 SHL ADD SWAP1 SSTORE PUSH3 0x16B JUMP JUMPDEST ADD MLOAD PUSH0 NOT PUSH1 0xF8 DUP5 PUSH1 0x3 SHL AND SHR NOT AND SWAP1 SSTORE PUSH0 DUP1 DUP1 PUSH3 0x234 JUMP JUMPDEST DUP1 DUP8 DUP6 SWAP7 DUP3 SWAP5 SWAP7 DUP7 ADD MLOAD DUP2 SSTORE ADD SWAP6 ADD SWAP4 ADD SWAP1 PUSH3 0x21E JUMP JUMPDEST DUP6 PUSH0 MSTORE DUP3 PUSH0 KECCAK256 DUP5 DUP1 DUP8 ADD PUSH1 0x5 SHR DUP3 ADD SWAP3 DUP6 DUP9 LT PUSH3 0x2B1 JUMPI JUMPDEST ADD PUSH1 0x5 SHR ADD SWAP1 DUP7 SWAP1 JUMPDEST DUP3 DUP2 LT PUSH3 0x2A5 JUMPI POP POP PUSH3 0x13C JUMP JUMPDEST PUSH0 DUP2 SSTORE ADD DUP7 SWAP1 PUSH3 0x295 JUMP JUMPDEST SWAP3 POP DUP2 SWAP3 PUSH3 0x28C JUMP JUMPDEST PUSH4 0x4E487B71 PUSH1 0xE0 SHL PUSH0 MSTORE PUSH1 0x22 PUSH1 0x4 MSTORE PUSH1 0x24 PUSH0 REVERT JUMPDEST SWAP1 PUSH1 0x7F AND SWAP1 PUSH3 0x12A JUMP JUMPDEST PUSH4 0x4E487B71 PUSH1 0xE0 SHL PUSH0 MSTORE PUSH1 0x41 PUSH1 0x4 MSTORE PUSH1 0x24 PUSH0 REVERT JUMPDEST ADD MLOAD SWAP1 POP PUSH0 DUP1 PUSH3 0xFD JUMP JUMPDEST SWAP1 DUP5 DUP10 SWAP5 AND SWAP2 PUSH0 DUP1 MSTORE DUP7 PUSH0 KECCAK256 SWAP3 PUSH0 JUMPDEST DUP9 DUP3 DUP3 LT PUSH3 0x343 JUMPI POP POP DUP5 GT PUSH3 0x32A JUMPI JUMPDEST POP POP POP DUP2 SHL ADD PUSH0 SSTORE PUSH3 0x110 JUMP JUMPDEST ADD MLOAD PUSH0 NOT PUSH1 0xF8 DUP5 PUSH1 0x3 SHL AND SHR NOT AND SWAP1 SSTORE PUSH0 DUP1 DUP1 PUSH3 0x31C JUMP JUMPDEST DUP4 DUP6 ADD MLOAD DUP7 SSTORE DUP13 SWAP8 SWAP1 SWAP6 ADD SWAP5 SWAP4 DUP5 ADD SWAP4 ADD PUSH3 0x309 JUMP JUMPDEST SWAP1 SWAP2 POP PUSH0 DUP1 MSTORE DUP5 PUSH0 KECCAK256 DUP7 DUP1 DUP6 ADD PUSH1 0x5 SHR DUP3 ADD SWAP3 DUP8 DUP7 LT PUSH3 0x3A3 JUMPI JUMPDEST SWAP2 DUP11 SWAP2 DUP7 SWAP6 SWAP5 SWAP4 ADD PUSH1 0x5 SHR ADD SWAP2 JUMPDEST DUP3 DUP2 LT PUSH3 0x394 JUMPI POP POP PUSH3 0xE7 JUMP JUMPDEST PUSH0 DUP2 SSTORE DUP6 SWAP5 POP DUP11 SWAP2 ADD PUSH3 0x384 JUMP JUMPDEST SWAP3 POP DUP2 SWAP3 PUSH3 0x376 JUMP JUMPDEST SWAP2 PUSH1 0x7F AND SWAP2 PUSH3 0xD3 JUMP JUMPDEST PUSH0 DUP1 REVERT JUMPDEST PUSH1 0x40 DUP1 MLOAD SWAP2 SWAP1 DUP3 ADD PUSH1 0x1 PUSH1 0x1 PUSH1 0x40 SHL SUB DUP2 GT DUP4 DUP3 LT OR PUSH3 0x2DA JUMPI PUSH1 0x40 MSTORE JUMP JUMPDEST MLOAD SWAP1 PUSH1 0x1 PUSH1 0x1 PUSH1 0xA0 SHL SUB DUP3 AND DUP3 SUB PUSH3 0x3B8 JUMPI JUMP INVALID PUSH1 0x80 PUSH1 0x40 DUP2 DUP2 MSTORE PUSH1 0x4 DUP1 CALLDATASIZE LT ISZERO PUSH2 0x14 JUMPI PUSH0 DUP1 REVERT JUMPDEST PUSH0 SWAP3 PUSH0 CALLDATALOAD PUSH1 0xE0 SHR SWAP1 DUP2 PUSH4 0x1FFC9A7 EQ PUSH2 0x13C5 JUMPI POP DUP1 PUSH4 0x6FDDE03 EQ PUSH2 0x12FE JUMPI DUP1 PUSH4 0x81812FC EQ PUSH2 0x12C5 JUMPI DUP1 PUSH4 0x95EA7B3 EQ PUSH2 0x11E9 JUMPI DUP1 PUSH4 0x11464FBE EQ PUSH2 0x11A6 JUMPI DUP1 PUSH4 0x15D9756E EQ PUSH2 0x1173 JUMPI DUP1 PUSH4 0x173FFED4 EQ PUSH2 0x1103 JUMPI DUP1 PUSH4 0x23B872DD EQ PUSH2 0x10EC JUMPI DUP1 PUSH4 0x3447D0F8 EQ PUSH2 0xCAA JUMPI DUP1 PUSH4 0x42842E0E EQ PUSH2 0xC7C JUMPI DUP1 PUSH4 0x577B540B EQ PUSH2 0xC39 JUMPI DUP1 PUSH4 0x6352211E EQ PUSH2 0xC1A JUMPI DUP1 PUSH4 0x70A08231 EQ PUSH2 0xBC5 JUMPI DUP1 PUSH4 0x715018A6 EQ PUSH2 0xB6A JUMPI DUP1 PUSH4 0x8DA5CB5B EQ PUSH2 0xB42 JUMPI DUP1 PUSH4 0x8FC88C48 EQ PUSH2 0xB0D JUMPI DUP1 PUSH4 0x95D89B41 EQ PUSH2 0x9FD JUMPI DUP1 PUSH4 0xA22CB465 EQ PUSH2 0x961 JUMPI DUP1 PUSH4 0xB88D4FDE EQ PUSH2 0x8CE JUMPI DUP1 PUSH4 0xC278CFF6 EQ PUSH2 0x8A6 JUMPI DUP1 PUSH4 0xC2F1F14A EQ PUSH2 0x876 JUMPI DUP1 PUSH4 0xC87B56DD EQ PUSH2 0x827 JUMPI DUP1 PUSH4 0xD5CF5F6F EQ PUSH2 0x573 JUMPI DUP1 PUSH4 0xE030565E EQ PUSH2 0x2B0 JUMPI DUP1 PUSH4 0xE1B251E6 EQ PUSH2 0x25E JUMPI DUP1 PUSH4 0xE985E9C5 EQ PUSH2 0x210 JUMPI DUP1 PUSH4 0xEDC16084 EQ PUSH2 0x1E1 JUMPI PUSH4 0xF2FDE38B EQ PUSH2 0x154 JUMPI PUSH0 DUP1 REVERT JUMPDEST CALLVALUE PUSH2 0x1DD JUMPI PUSH1 0x20 CALLDATASIZE PUSH1 0x3 NOT ADD SLT PUSH2 0x1DD JUMPI PUSH2 0x16D PUSH2 0x148F JUMP JUMPDEST SWAP1 PUSH2 0x176 PUSH2 0x180D JUMP JUMPDEST PUSH1 0x1 PUSH1 0x1 PUSH1 0xA0 SHL SUB SWAP2 DUP3 AND SWAP3 DUP4 ISZERO PUSH2 0x1C7 JUMPI POP POP PUSH1 0x6 SLOAD DUP3 PUSH1 0x1 PUSH1 0x1 PUSH1 0x60 SHL SUB PUSH1 0xA0 SHL DUP3 AND OR PUSH1 0x6 SSTORE AND PUSH32 0x8BE0079C531659141344CD1FD0A4F28419497F9722A3DAAFE3B4186F6B6457E0 DUP4 DUP1 LOG3 DUP1 RETURN JUMPDEST MLOAD PUSH4 0x1E4FBDF7 PUSH1 0xE0 SHL DUP2 MSTORE SWAP1 DUP2 ADD DUP5 SWAP1 MSTORE PUSH1 0x24 SWAP1 REVERT JUMPDEST DUP3 DUP1 REVERT JUMPDEST POP POP CALLVALUE PUSH2 0x20C JUMPI DUP2 PUSH1 0x3 NOT CALLDATASIZE ADD SLT PUSH2 0x20C JUMPI PUSH1 0x20 SWAP1 MLOAD PUSH16 0x6551C19487814612E58FE06813775758 DUP2 MSTORE RETURN JUMPDEST POP DUP1 REVERT JUMPDEST POP POP CALLVALUE PUSH2 0x20C JUMPI DUP1 PUSH1 0x3 NOT CALLDATASIZE ADD SLT PUSH2 0x20C JUMPI PUSH1 0xFF DUP2 PUSH1 0x20 SWAP4 PUSH2 0x230 PUSH2 0x148F JUMP JUMPDEST PUSH2 0x238 PUSH2 0x14A5 JUMP JUMPDEST PUSH1 0x1 PUSH1 0x1 PUSH1 0xA0 SHL SUB SWAP2 DUP3 AND DUP4 MSTORE PUSH1 0x5 DUP8 MSTORE DUP4 DUP4 KECCAK256 SWAP2 AND DUP3 MSTORE DUP6 MSTORE KECCAK256 SLOAD SWAP2 MLOAD SWAP2 AND ISZERO ISZERO DUP2 MSTORE RETURN JUMPDEST POP CALLVALUE PUSH2 0x1DD JUMPI PUSH1 0x20 CALLDATASIZE PUSH1 0x3 NOT ADD SLT PUSH2 0x1DD JUMPI CALLDATALOAD DUP3 MSTORE PUSH1 0x9 PUSH1 0x20 SWAP1 DUP2 MSTORE SWAP2 DUP2 SWAP1 KECCAK256 DUP1 SLOAD PUSH1 0x1 DUP3 ADD SLOAD PUSH1 0x2 SWAP1 SWAP3 ADD SLOAD SWAP3 MLOAD PUSH1 0x1 PUSH1 0x1 PUSH1 0xA0 SHL SUB SWAP2 DUP3 AND DUP2 MSTORE SWAP4 DUP5 ADD SWAP2 SWAP1 SWAP2 MSTORE AND PUSH1 0x40 DUP3 ADD MSTORE PUSH1 0x60 SWAP1 RETURN JUMPDEST SUB SWAP1 RETURN JUMPDEST POP SWAP2 SWAP1 CALLVALUE PUSH2 0x533 JUMPI PUSH1 0x60 CALLDATASIZE PUSH1 0x3 NOT ADD SLT PUSH2 0x533 JUMPI DUP3 CALLDATALOAD PUSH2 0x2CE PUSH2 0x14A5 JUMP JUMPDEST SWAP2 PUSH1 0x44 CALLDATALOAD PUSH8 0xFFFFFFFFFFFFFFFF SWAP2 DUP3 DUP3 AND DUP1 SWAP3 SUB PUSH2 0x533 JUMPI PUSH1 0x7 SLOAD PUSH1 0x1 PUSH1 0x1 PUSH1 0xA0 SHL SUB SWAP4 SWAP1 PUSH2 0x300 SWAP1 DUP6 AND CALLER EQ PUSH2 0x1731 JUMP JUMPDEST TIMESTAMP DUP4 GT ISZERO PUSH2 0x537 JUMPI DUP5 PUSH0 MSTORE PUSH1 0x20 SWAP4 PUSH1 0x9 DUP6 MSTORE DUP3 PUSH0 KECCAK256 SWAP7 DUP4 MLOAD SWAP8 PUSH2 0x322 DUP10 PUSH2 0x14F0 JUMP JUMPDEST DUP1 SLOAD DUP4 AND DUP10 MSTORE PUSH1 0x1 DUP2 ADD SLOAD DUP8 DUP11 ADD SWAP1 DUP2 MSTORE PUSH1 0x2 SWAP1 SWAP2 ADD SLOAD DUP4 AND DUP6 DUP11 ADD SWAP1 DUP2 MSTORE SWAP2 DUP4 AND SWAP9 DUP4 DUP11 ISZERO PUSH2 0x47C JUMPI DUP1 SWAP2 SWAP3 SWAP4 MLOAD AND SWAP2 MLOAD AND SWAP2 MLOAD DUP2 EXTCODESIZE ISZERO PUSH2 0x478 JUMPI PUSH1 0x84 DUP13 DUP13 DUP1 SWAP5 DUP14 SWAP5 DUP11 MLOAD SWAP8 DUP9 SWAP7 DUP8 SWAP6 PUSH4 0x3AF65FF9 PUSH1 0xE0 SHL DUP8 MSTORE DUP7 ADD MSTORE PUSH1 0x24 DUP6 ADD MSTORE PUSH1 0x44 DUP5 ADD MSTORE PUSH1 0x1 PUSH1 0x64 DUP5 ADD MSTORE GAS CALL DUP1 ISZERO PUSH2 0x46E JUMPI SWAP1 DUP10 SWAP2 PUSH2 0x456 JUMPI JUMPDEST POP POP DUP7 DUP7 PUSH32 0x9ABCBA6AC5FB3BFBA6499D4948ADA5BF16095E5954BC56AC59CF2B28CF4A6BDE DUP8 DUP7 MLOAD DUP9 DUP2 MSTORE LOG3 JUMPDEST DUP3 MLOAD SWAP2 DUP3 DUP5 ADD SWAP1 DUP2 GT DUP4 DUP3 LT OR PUSH2 0x443 JUMPI PUSH32 0x4E06B4E7000E659094299B3533B47B6AA8AD048E95E872D23D1F4EE55AF89CFE SWAP7 SWAP8 SWAP9 SWAP10 POP DUP4 MSTORE DUP8 DUP3 MSTORE DUP5 DUP3 ADD SWAP1 DUP5 DUP3 MSTORE DUP8 DUP11 MSTORE PUSH1 0xA DUP7 MSTORE DUP4 DUP11 KECCAK256 SWAP3 MLOAD AND DUP3 SLOAD SWAP2 PUSH8 0xFFFFFFFFFFFFFFFF PUSH1 0xA0 SHL SWAP1 MLOAD PUSH1 0xA0 SHL AND SWAP2 PUSH4 0xFFFFFFFF PUSH1 0xE0 SHL AND OR OR SWAP1 SSTORE MLOAD SWAP1 DUP2 MSTORE LOG3 DUP1 RETURN JUMPDEST PUSH4 0x4E487B71 PUSH1 0xE0 SHL DUP10 MSTORE PUSH1 0x41 DUP11 MSTORE PUSH1 0x24 DUP10 REVERT JUMPDEST PUSH2 0x45F SWAP1 PUSH2 0x1520 JUMP JUMPDEST PUSH2 0x46A JUMPI DUP8 PUSH0 PUSH2 0x39B JUMP JUMPDEST DUP8 DUP1 REVERT JUMPDEST DUP5 MLOAD RETURNDATASIZE DUP12 DUP3 RETURNDATACOPY RETURNDATASIZE SWAP1 REVERT JUMPDEST DUP11 DUP1 REVERT JUMPDEST POP DUP9 PUSH0 MSTORE PUSH1 0xA DUP9 MSTORE DUP4 DUP1 DUP8 PUSH0 KECCAK256 SLOAD AND SWAP4 DUP5 PUSH2 0x49C JUMPI JUMPDEST POP POP POP POP POP PUSH2 0x3C8 JUMP JUMPDEST DUP2 SWAP1 MLOAD AND SWAP2 MLOAD AND SWAP2 MLOAD SWAP1 DUP1 EXTCODESIZE ISZERO PUSH2 0x533 JUMPI PUSH1 0x84 DUP14 PUSH0 DUP7 SWAP4 DUP2 SWAP6 DUP12 MLOAD SWAP8 DUP9 SWAP7 DUP8 SWAP6 PUSH4 0x3AF65FF9 PUSH1 0xE0 SHL DUP8 MSTORE DUP7 ADD MSTORE PUSH1 0x24 DUP6 ADD MSTORE PUSH1 0x44 DUP5 ADD MSTORE DUP2 PUSH1 0x64 DUP5 ADD MSTORE GAS CALL DUP1 ISZERO PUSH2 0x529 JUMPI PUSH2 0x516 JUMPI JUMPDEST POP DUP7 PUSH32 0xF9BBD47D9659083AA5B016FFD346ACA413549AACE523513F610200AEED1E1DD4 DUP11 DUP1 LOG3 PUSH0 DUP1 DUP1 DUP4 DUP2 PUSH2 0x492 JUMP JUMPDEST PUSH2 0x521 SWAP2 SWAP10 POP PUSH2 0x1520 JUMP JUMPDEST PUSH0 SWAP8 PUSH0 PUSH2 0x4E6 JUMP JUMPDEST DUP6 MLOAD RETURNDATASIZE PUSH0 DUP3 RETURNDATACOPY RETURNDATASIZE SWAP1 REVERT JUMPDEST PUSH0 DUP1 REVERT JUMPDEST DUP2 MLOAD PUSH3 0x461BCD PUSH1 0xE5 SHL DUP2 MSTORE PUSH1 0x20 DUP2 DUP11 ADD MSTORE PUSH1 0x16 PUSH1 0x24 DUP3 ADD MSTORE PUSH22 0x45787069726573206D75737420626520667574757265 PUSH1 0x50 SHL PUSH1 0x44 DUP3 ADD MSTORE PUSH1 0x64 SWAP1 REVERT JUMPDEST POP SWAP1 CALLVALUE PUSH2 0x533 JUMPI PUSH1 0x20 DUP1 PUSH1 0x3 NOT CALLDATASIZE ADD SLT PUSH2 0x533 JUMPI DUP3 CALLDATALOAD SWAP1 PUSH2 0x593 DUP3 PUSH2 0x17A4 JUMP JUMPDEST PUSH1 0x1 PUSH1 0x1 PUSH1 0xA0 SHL SUB SWAP1 CALLER SWAP1 DUP3 AND SUB PUSH2 0x7F8 JUMPI DUP1 PUSH2 0x5AF DUP5 PUSH2 0x1772 JUMP JUMPDEST AND PUSH2 0x7C2 JUMPI PUSH1 0x2 SWAP4 SWAP5 DUP4 PUSH0 MSTORE PUSH1 0x9 DUP4 MSTORE DUP6 PUSH0 KECCAK256 SWAP1 PUSH2 0x663 PUSH0 DUP9 MLOAD SWAP4 PUSH2 0x5D3 DUP6 PUSH2 0x14F0 JUMP JUMPDEST DUP1 SLOAD DUP7 AND DUP6 MSTORE PUSH1 0x1 DUP2 ADD SLOAD DUP8 DUP7 ADD DUP2 DUP2 MSTORE SWAP10 SWAP1 SWAP2 ADD SLOAD DUP7 AND DUP11 DUP7 ADD DUP2 DUP2 MSTORE DUP12 MLOAD PUSH4 0x23B872DD PUSH1 0xE0 SHL DUP2 DUP12 ADD MSTORE PUSH1 0x1 PUSH1 0x1 PUSH1 0xA0 SHL SUB SWAP1 SWAP3 AND PUSH1 0x24 DUP4 ADD MSTORE CALLER PUSH1 0x44 DUP4 ADD MSTORE PUSH1 0x64 DUP1 DUP4 ADD SWAP4 SWAP1 SWAP4 MSTORE SWAP2 DUP2 MSTORE SWAP1 DUP7 SWAP1 PUSH2 0x62F PUSH1 0x84 DUP5 PUSH2 0x1550 JUMP JUMPDEST MLOAD AND DUP7 DUP7 MLOAD AND DUP4 DUP13 MLOAD DUP1 SWAP7 DUP2 SWAP6 DUP3 SWAP5 PUSH4 0x9E5D4C49 PUSH1 0xE0 SHL DUP5 MSTORE DUP11 DUP5 ADD MSTORE DUP4 PUSH1 0x24 DUP5 ADD MSTORE PUSH1 0x60 PUSH1 0x44 DUP5 ADD MSTORE PUSH1 0x64 DUP4 ADD SWAP1 PUSH2 0x146A JUMP JUMPDEST SUB SWAP3 GAS CALL DUP1 ISZERO PUSH2 0x7B8 JUMPI PUSH2 0x745 JUMPI JUMPDEST POP DUP5 PUSH0 MSTORE PUSH1 0x2 DUP5 MSTORE DUP3 DUP8 PUSH0 KECCAK256 SLOAD AND DUP6 PUSH0 DUP3 ISZERO SWAP3 DUP4 ISZERO PUSH2 0x714 JUMPI JUMPDEST DUP3 DUP3 MSTORE PUSH1 0x2 DUP9 MSTORE DUP11 DUP3 KECCAK256 DUP1 SLOAD PUSH1 0x1 PUSH1 0x1 PUSH1 0xA0 SHL SUB NOT AND SWAP1 SSTORE PUSH32 0xDDF252AD1BE2C89B69C2B068FC378DAA952BA7F163C4A11628F55A4DF523B3EF DUP3 DUP1 LOG4 PUSH2 0x6FD JUMPI POP SWAP1 PUSH32 0x3304FE3D332ECF1A646BBFBB2C28AFA7C10F9A7026FBF90B2E5B57CBA1DA823E SWAP3 SWAP2 MLOAD AND SWAP4 MLOAD SWAP5 MLOAD CALLER DUP2 MSTORE LOG4 STOP JUMPDEST DUP7 MLOAD PUSH4 0x7E273289 PUSH1 0xE0 SHL DUP2 MSTORE SWAP1 DUP2 ADD DUP6 SWAP1 MSTORE PUSH1 0x24 SWAP1 REVERT JUMPDEST PUSH0 DUP4 DUP2 MSTORE PUSH1 0x4 PUSH1 0x20 MSTORE PUSH1 0x40 SWAP1 KECCAK256 DUP1 SLOAD PUSH1 0x1 PUSH1 0x1 PUSH1 0xA0 SHL SUB NOT AND SWAP1 SSTORE DUP1 DUP3 MSTORE PUSH1 0x3 DUP9 MSTORE DUP11 DUP3 KECCAK256 DUP3 NOT DUP2 SLOAD ADD SWAP1 SSTORE PUSH2 0x68C JUMP JUMPDEST RETURNDATASIZE DUP1 PUSH0 DUP4 RETURNDATACOPY PUSH2 0x754 DUP2 DUP4 PUSH2 0x1550 JUMP JUMPDEST DUP2 ADD SWAP1 DUP6 DUP2 DUP4 SUB SLT PUSH2 0x533 JUMPI DUP1 MLOAD SWAP1 PUSH8 0xFFFFFFFFFFFFFFFF DUP3 GT PUSH2 0x533 JUMPI ADD DUP2 PUSH1 0x1F DUP3 ADD SLT ISZERO PUSH2 0x533 JUMPI DUP1 MLOAD SWAP1 PUSH2 0x78A DUP3 PUSH2 0x1572 JUMP JUMPDEST SWAP3 PUSH2 0x797 DUP12 MLOAD SWAP5 DUP6 PUSH2 0x1550 JUMP JUMPDEST DUP3 DUP5 MSTORE DUP8 DUP4 DUP4 ADD ADD GT PUSH2 0x533 JUMPI DUP7 DUP1 PUSH2 0x7B2 SWAP5 ADD SWAP2 ADD PUSH2 0x1449 JUMP JUMPDEST DUP8 PUSH2 0x672 JUMP JUMPDEST DUP9 MLOAD RETURNDATASIZE PUSH0 DUP3 RETURNDATACOPY RETURNDATASIZE SWAP1 REVERT JUMPDEST DUP4 MLOAD PUSH3 0x461BCD PUSH1 0xE5 SHL DUP2 MSTORE DUP1 DUP7 ADD DUP4 SWAP1 MSTORE PUSH1 0x10 PUSH1 0x24 DUP3 ADD MSTORE PUSH16 0x10DD5C9C995B9D1B1E481C995B9D1959 PUSH1 0x82 SHL PUSH1 0x44 DUP3 ADD MSTORE PUSH1 0x64 SWAP1 REVERT JUMPDEST DUP4 MLOAD PUSH3 0x461BCD PUSH1 0xE5 SHL DUP2 MSTORE DUP1 DUP7 ADD DUP4 SWAP1 MSTORE PUSH1 0x9 PUSH1 0x24 DUP3 ADD MSTORE PUSH9 0x2737BA1037BBB732B9 PUSH1 0xB9 SHL PUSH1 0x44 DUP3 ADD MSTORE PUSH1 0x64 SWAP1 REVERT JUMPDEST POP SWAP1 CALLVALUE PUSH2 0x533 JUMPI PUSH1 0x20 CALLDATASIZE PUSH1 0x3 NOT ADD SLT PUSH2 0x533 JUMPI PUSH2 0x847 PUSH2 0x2AC SWAP3 CALLDATALOAD PUSH2 0x17A4 JUMP JUMPDEST POP PUSH0 DUP2 MLOAD PUSH2 0x854 DUP2 PUSH2 0x1534 JUMP JUMPDEST MSTORE DUP1 MLOAD SWAP1 PUSH2 0x861 DUP3 PUSH2 0x1534 JUMP JUMPDEST PUSH0 DUP3 MSTORE MLOAD SWAP2 DUP3 SWAP2 PUSH1 0x20 DUP4 MSTORE PUSH1 0x20 DUP4 ADD SWAP1 PUSH2 0x146A JUMP JUMPDEST POP SWAP1 CALLVALUE PUSH2 0x533 JUMPI PUSH1 0x20 CALLDATASIZE PUSH1 0x3 NOT ADD SLT PUSH2 0x533 JUMPI PUSH2 0x895 PUSH1 0x20 SWAP3 CALLDATALOAD PUSH2 0x1772 JUMP JUMPDEST SWAP1 MLOAD PUSH1 0x1 PUSH1 0x1 PUSH1 0xA0 SHL SUB SWAP1 SWAP2 AND DUP2 MSTORE RETURN JUMPDEST DUP3 CALLVALUE PUSH2 0x533 JUMPI PUSH0 CALLDATASIZE PUSH1 0x3 NOT ADD SLT PUSH2 0x533 JUMPI PUSH1 0x7 SLOAD SWAP1 MLOAD PUSH1 0x1 PUSH1 0x1 PUSH1 0xA0 SHL SUB SWAP1 SWAP2 AND DUP2 MSTORE PUSH1 0x20 SWAP1 RETURN JUMPDEST POP SWAP1 CALLVALUE PUSH2 0x533 JUMPI PUSH1 0x80 CALLDATASIZE PUSH1 0x3 NOT ADD SLT PUSH2 0x533 JUMPI PUSH2 0x8E9 PUSH2 0x148F JUMP JUMPDEST PUSH2 0x8F1 PUSH2 0x14A5 JUMP JUMPDEST PUSH1 0x44 CALLDATALOAD SWAP2 PUSH1 0x64 CALLDATALOAD SWAP5 PUSH8 0xFFFFFFFFFFFFFFFF DUP7 GT PUSH2 0x533 JUMPI CALLDATASIZE PUSH1 0x23 DUP8 ADD SLT ISZERO PUSH2 0x533 JUMPI DUP6 ADD CALLDATALOAD PUSH2 0x92B PUSH2 0x922 DUP3 PUSH2 0x1572 JUMP JUMPDEST SWAP6 MLOAD SWAP6 DUP7 PUSH2 0x1550 JUMP JUMPDEST DUP1 DUP6 MSTORE CALLDATASIZE PUSH1 0x24 DUP3 DUP9 ADD ADD GT PUSH2 0x533 JUMPI PUSH1 0x20 DUP2 PUSH0 SWAP3 PUSH1 0x24 PUSH2 0x95F SWAP10 ADD DUP4 DUP10 ADD CALLDATACOPY DUP7 ADD ADD MSTORE PUSH2 0x959 DUP4 DUP4 DUP4 PUSH2 0x158E JUMP JUMPDEST CALLER PUSH2 0x1839 JUMP JUMPDEST STOP JUMPDEST POP SWAP1 CALLVALUE PUSH2 0x533 JUMPI DUP1 PUSH1 0x3 NOT CALLDATASIZE ADD SLT PUSH2 0x533 JUMPI PUSH2 0x97B PUSH2 0x148F JUMP JUMPDEST SWAP1 PUSH1 0x24 CALLDATALOAD SWAP2 DUP3 ISZERO ISZERO DUP1 SWAP4 SUB PUSH2 0x533 JUMPI PUSH1 0x1 PUSH1 0x1 PUSH1 0xA0 SHL SUB AND SWAP3 DUP4 ISZERO PUSH2 0x9E8 JUMPI POP CALLER PUSH0 MSTORE PUSH1 0x5 PUSH1 0x20 MSTORE DUP1 PUSH0 KECCAK256 DUP4 PUSH0 MSTORE PUSH1 0x20 MSTORE DUP1 PUSH0 KECCAK256 PUSH1 0xFF NOT DUP2 SLOAD AND PUSH1 0xFF DUP5 AND OR SWAP1 SSTORE MLOAD SWAP1 DUP2 MSTORE PUSH32 0x17307EAB39AB6107E8899845AD3D59BD9653F200F220920489CA2B5937696C31 PUSH1 0x20 CALLER SWAP3 LOG3 STOP JUMPDEST DUP4 PUSH1 0x24 SWAP3 MLOAD SWAP2 PUSH4 0xB611743 PUSH1 0xE3 SHL DUP4 MSTORE DUP3 ADD MSTORE REVERT JUMPDEST POP SWAP1 CALLVALUE PUSH2 0x533 JUMPI PUSH0 CALLDATASIZE PUSH1 0x3 NOT ADD SLT PUSH2 0x533 JUMPI DUP1 MLOAD SWAP1 PUSH0 SWAP1 PUSH1 0x1 SWAP2 PUSH1 0x1 SLOAD SWAP3 DUP4 PUSH1 0x1 SHR SWAP1 PUSH1 0x1 DUP6 AND SWAP5 DUP6 ISZERO PUSH2 0xB03 JUMPI JUMPDEST PUSH1 0x20 SWAP6 DUP7 DUP5 LT DUP2 EQ PUSH2 0xAF0 JUMPI DUP4 DUP9 MSTORE DUP8 SWAP5 SWAP4 SWAP3 SWAP2 DUP8 SWAP1 DUP3 ISZERO PUSH2 0xACE JUMPI POP POP PUSH1 0x1 EQ PUSH2 0xA73 JUMPI JUMPDEST POP POP PUSH2 0x2AC SWAP3 SWAP2 PUSH2 0xA64 SWAP2 SUB DUP6 PUSH2 0x1550 JUMP JUMPDEST MLOAD SWAP3 DUP3 DUP5 SWAP4 DUP5 MSTORE DUP4 ADD SWAP1 PUSH2 0x146A JUMP JUMPDEST SWAP1 DUP6 SWAP3 POP PUSH1 0x1 PUSH0 MSTORE PUSH32 0xB10E2D527612073B26EECDFD717E6A320CF44B4AFAC2B0732D9FCBE2B7FA0CF6 SWAP2 PUSH0 SWAP3 JUMPDEST DUP3 DUP5 LT PUSH2 0xAB6 JUMPI POP POP POP DUP3 ADD ADD DUP2 PUSH2 0xA64 PUSH2 0xA52 JUMP JUMPDEST DUP1 SLOAD DUP5 DUP11 ADD DUP7 ADD MSTORE DUP9 SWAP6 POP DUP8 SWAP5 SWAP1 SWAP4 ADD SWAP3 DUP2 ADD PUSH2 0xAA0 JUMP JUMPDEST PUSH1 0xFF NOT AND DUP7 DUP3 ADD MSTORE SWAP3 ISZERO ISZERO PUSH1 0x5 SHL DUP6 ADD SWAP1 SWAP3 ADD SWAP3 POP DUP4 SWAP2 POP PUSH2 0xA64 SWAP1 POP PUSH2 0xA52 JUMP JUMPDEST PUSH1 0x22 DUP10 PUSH4 0x4E487B71 PUSH1 0xE0 SHL PUSH0 MSTORE MSTORE PUSH1 0x24 PUSH0 REVERT JUMPDEST SWAP2 PUSH1 0x7F AND SWAP2 PUSH2 0xA2C JUMP JUMPDEST POP SWAP1 CALLVALUE PUSH2 0x533 JUMPI PUSH1 0x20 CALLDATASIZE PUSH1 0x3 NOT ADD SLT PUSH2 0x533 JUMPI PUSH1 0x20 SWAP2 CALLDATALOAD PUSH0 MSTORE PUSH1 0xA DUP3 MSTORE PUSH8 0xFFFFFFFFFFFFFFFF DUP2 PUSH0 KECCAK256 SLOAD PUSH1 0xA0 SHR AND SWAP1 MLOAD SWAP1 DUP2 MSTORE RETURN JUMPDEST DUP3 CALLVALUE PUSH2 0x533 JUMPI PUSH0 CALLDATASIZE PUSH1 0x3 NOT ADD SLT PUSH2 0x533 JUMPI PUSH1 0x6 SLOAD SWAP1 MLOAD PUSH1 0x1 PUSH1 0x1 PUSH1 0xA0 SHL SUB SWAP1 SWAP2 AND DUP2 MSTORE PUSH1 0x20 SWAP1 RETURN JUMPDEST CALLVALUE PUSH2 0x533 JUMPI PUSH0 CALLDATASIZE PUSH1 0x3 NOT ADD SLT PUSH2 0x533 JUMPI PUSH2 0xB82 PUSH2 0x180D JUMP JUMPDEST PUSH1 0x6 DUP1 SLOAD PUSH1 0x1 PUSH1 0x1 PUSH1 0xA0 SHL SUB NOT DUP2 AND SWAP1 SWAP2 SSTORE PUSH0 SWAP1 PUSH1 0x1 PUSH1 0x1 PUSH1 0xA0 SHL SUB AND PUSH32 0x8BE0079C531659141344CD1FD0A4F28419497F9722A3DAAFE3B4186F6B6457E0 DUP3 DUP1 LOG3 STOP JUMPDEST POP SWAP1 CALLVALUE PUSH2 0x533 JUMPI PUSH1 0x20 CALLDATASIZE PUSH1 0x3 NOT ADD SLT PUSH2 0x533 JUMPI PUSH1 0x1 PUSH1 0x1 PUSH1 0xA0 SHL SUB PUSH2 0xBE8 PUSH2 0x148F JUMP JUMPDEST AND DUP1 ISZERO PUSH2 0xC04 JUMPI PUSH1 0x20 SWAP3 POP PUSH0 MSTORE PUSH1 0x3 DUP3 MSTORE DUP1 PUSH0 KECCAK256 SLOAD SWAP1 MLOAD SWAP1 DUP2 MSTORE RETURN JUMPDEST DUP2 MLOAD PUSH4 0x22718AD9 PUSH1 0xE2 SHL DUP2 MSTORE PUSH0 DUP2 DUP6 ADD MSTORE PUSH1 0x24 SWAP1 REVERT JUMPDEST POP SWAP1 CALLVALUE PUSH2 0x533 JUMPI PUSH1 0x20 CALLDATASIZE PUSH1 0x3 NOT ADD SLT PUSH2 0x533 JUMPI PUSH2 0x895 PUSH1 0x20 SWAP3 CALLDATALOAD PUSH2 0x17A4 JUMP JUMPDEST CALLVALUE PUSH2 0x533 JUMPI PUSH1 0x20 CALLDATASIZE PUSH1 0x3 NOT ADD SLT PUSH2 0x533 JUMPI PUSH2 0xC52 PUSH2 0x148F JUMP JUMPDEST PUSH2 0xC5A PUSH2 0x180D JUMP JUMPDEST PUSH1 0x7 DUP1 SLOAD PUSH1 0x1 PUSH1 0x1 PUSH1 0xA0 SHL SUB NOT AND PUSH1 0x1 PUSH1 0x1 PUSH1 0xA0 SHL SUB SWAP3 SWAP1 SWAP3 AND SWAP2 SWAP1 SWAP2 OR SWAP1 SSTORE STOP JUMPDEST DUP3 CALLVALUE PUSH2 0x533 JUMPI PUSH2 0x95F SWAP1 PUSH2 0xC8F CALLDATASIZE PUSH2 0x14BB JUMP JUMPDEST SWAP2 SWAP3 MLOAD SWAP3 PUSH2 0xC9C DUP5 PUSH2 0x1534 JUMP JUMPDEST PUSH0 DUP5 MSTORE PUSH2 0x959 DUP4 DUP4 DUP4 PUSH2 0x158E JUMP JUMPDEST POP SWAP1 CALLVALUE PUSH2 0x533 JUMPI PUSH1 0x60 CALLDATASIZE PUSH1 0x3 NOT ADD SLT PUSH2 0x533 JUMPI PUSH2 0xCC5 PUSH2 0x148F JUMP JUMPDEST PUSH1 0x24 SWAP3 PUSH1 0x44 CALLDATALOAD SWAP2 PUSH1 0x1 PUSH1 0x1 PUSH1 0xA0 SHL SUB DUP1 DUP5 AND SWAP3 DUP7 CALLDATALOAD SWAP3 DUP5 DUP7 SUB PUSH2 0x533 JUMPI PUSH2 0xCF1 DUP4 PUSH1 0x7 SLOAD AND CALLER EQ PUSH2 0x1731 JUMP JUMPDEST PUSH1 0x8 SLOAD SWAP6 PUSH0 NOT SWAP1 DUP2 DUP9 EQ PUSH2 0x10DA JUMPI PUSH1 0x1 DUP9 ADD PUSH1 0x8 SSTORE DUP9 MLOAD SWAP2 PUSH2 0xD12 DUP4 PUSH2 0x1534 JUMP JUMPDEST PUSH0 DUP4 MSTORE DUP8 ISZERO PUSH2 0x10C5 JUMPI SWAP2 DUP10 SWAP11 SWAP2 DUP9 SWAP10 SWAP11 SWAP9 SWAP5 SWAP4 DUP12 PUSH0 MSTORE DUP12 DUP7 PUSH1 0x20 DUP1 SWAP13 PUSH1 0x2 DUP3 MSTORE PUSH1 0x2 DUP13 DUP3 PUSH0 KECCAK256 SLOAD AND SWAP3 DUP4 ISZERO ISZERO SWAP7 DUP8 PUSH2 0x1094 JUMPI JUMPDEST POP DUP5 PUSH0 MSTORE PUSH1 0x3 DUP2 MSTORE DUP3 PUSH0 KECCAK256 PUSH1 0x1 DUP2 SLOAD ADD SWAP1 SSTORE DUP6 PUSH0 MSTORE MSTORE PUSH0 KECCAK256 PUSH1 0x1 PUSH1 0x1 PUSH1 0x60 SHL SUB PUSH1 0xA0 SHL SWAP15 DUP16 DUP3 SLOAD AND OR SWAP1 SSTORE PUSH32 0xDDF252AD1BE2C89B69C2B068FC378DAA952BA7F163C4A11628F55A4DF523B3EF PUSH0 DUP1 LOG4 PUSH2 0x107F JUMPI EXTCODESIZE PUSH2 0xF83 JUMPI JUMPDEST POP DUP10 MLOAD DUP8 DUP2 ADD SWAP1 PUSH4 0x8A54C52F PUSH1 0xE0 SHL DUP3 MSTORE DUP7 PUSH32 0x0 AND DUP4 DUP3 ADD MSTORE PUSH0 PUSH1 0x44 DUP3 ADD MSTORE CHAINID PUSH1 0x64 DUP3 ADD MSTORE ADDRESS PUSH1 0x84 DUP3 ADD MSTORE DUP11 PUSH1 0xA4 DUP3 ADD MSTORE PUSH1 0xA4 DUP2 MSTORE PUSH1 0xE0 DUP2 ADD DUP2 DUP2 LT PUSH8 0xFFFFFFFFFFFFFFFF DUP3 GT OR PUSH2 0xF71 JUMPI DUP13 MSTORE MLOAD PUSH0 SWAP2 DUP3 SWAP2 SWAP1 DUP3 PUSH16 0x6551C19487814612E58FE06813775758 GAS CALL SWAP1 PUSH2 0xE2E PUSH2 0x17DE JUMP JUMPDEST SWAP2 ISZERO PUSH2 0xF3A JUMPI POP DUP7 DUP2 DUP1 MLOAD DUP2 ADD SUB SLT PUSH2 0x533 JUMPI DUP7 ADD MLOAD SWAP7 DUP5 DUP9 AND DUP1 SWAP9 SUB PUSH2 0x533 JUMPI DUP5 PUSH1 0x2 DUP10 SWAP4 DUP12 DUP4 DUP15 SWAP10 DUP11 MLOAD SWAP4 PUSH2 0xE64 DUP6 PUSH2 0x14F0 JUMP JUMPDEST AND SWAP10 DUP11 DUP5 MSTORE DUP13 DUP5 ADD SWAP3 DUP13 DUP5 MSTORE DUP2 DUP6 ADD SWAP9 DUP10 MSTORE PUSH0 MSTORE PUSH1 0x9 DUP14 MSTORE PUSH0 KECCAK256 SWAP3 MLOAD AND DUP6 DUP4 SLOAD AND OR DUP3 SSTORE MLOAD PUSH1 0x1 DUP3 ADD SSTORE ADD SWAP3 MLOAD AND SWAP1 DUP3 SLOAD AND OR SWAP1 SSTORE DUP3 EXTCODESIZE ISZERO PUSH2 0x533 JUMPI DUP8 MLOAD PUSH4 0x23B872DD PUSH1 0xE0 SHL DUP2 MSTORE CALLER SWAP3 DUP2 ADD SWAP3 DUP4 MSTORE PUSH1 0x1 PUSH1 0x1 PUSH1 0xA0 SHL SUB DUP8 AND PUSH1 0x20 DUP5 ADD MSTORE PUSH1 0x40 DUP4 ADD DUP6 SWAP1 MSTORE SWAP2 DUP9 SWAP1 PUSH0 SWAP1 DUP5 SWAP1 DUP2 SWAP1 PUSH1 0x60 ADD SUB DUP2 DUP4 DUP9 GAS CALL SWAP2 DUP3 ISZERO PUSH2 0xF30 JUMPI DUP9 SWAP4 PUSH32 0x2D47FF8B88E6A756283870BA883DEEBF2D947FA593ED9E5C500B151434F8A92D SWAP4 PUSH2 0xF21 JUMPI JUMPDEST POP DUP2 MLOAD SWAP1 DUP2 MSTORE DUP8 DUP8 DUP3 ADD MSTORE LOG4 DUP4 MLOAD SWAP3 DUP4 MSTORE DUP3 ADD MSTORE RETURN JUMPDEST PUSH2 0xF2A SWAP1 PUSH2 0x1520 JUMP JUMPDEST DUP11 PUSH2 0xF0B JUMP JUMPDEST POP MLOAD RETURNDATASIZE PUSH0 DUP3 RETURNDATACOPY RETURNDATASIZE SWAP1 REVERT JUMPDEST DUP5 PUSH1 0x13 PUSH1 0x64 SWAP3 DUP11 DUP15 MLOAD SWAP4 PUSH3 0x461BCD PUSH1 0xE5 SHL DUP6 MSTORE DUP5 ADD MSTORE DUP3 ADD MSTORE PUSH19 0x1510904818DC99585D1A5BDB8819985A5B1959 PUSH1 0x6A SHL PUSH1 0x44 DUP3 ADD MSTORE REVERT JUMPDEST DUP4 PUSH1 0x41 DUP9 PUSH4 0x4E487B71 PUSH1 0xE0 SHL PUSH0 MSTORE MSTORE PUSH0 REVERT JUMPDEST SWAP4 DUP4 SWAP9 SWAP5 DUP9 DUP12 DUP14 SWAP11 SWAP10 SWAP7 PUSH0 DUP7 SWAP16 DUP7 SWAP16 SWAP12 SWAP9 SWAP8 PUSH2 0xFCC DUP4 SWAP3 MLOAD SWAP8 DUP9 SWAP7 DUP8 SWAP6 DUP7 SWAP5 PUSH4 0xA85BD01 PUSH1 0xE1 SHL SWAP13 DUP14 DUP8 MSTORE CALLER SWAP1 DUP8 ADD MSTORE DUP6 ADD MSTORE PUSH1 0x44 DUP5 ADD MSTORE PUSH1 0x80 PUSH1 0x64 DUP5 ADD MSTORE PUSH1 0x84 DUP4 ADD SWAP1 PUSH2 0x146A JUMP JUMPDEST SUB SWAP3 GAS CALL PUSH0 SWAP2 DUP2 PUSH2 0x103F JUMPI JUMPDEST POP PUSH2 0x100C JUMPI POP POP POP POP POP POP POP PUSH2 0xFEC PUSH2 0x17DE JUMP JUMPDEST DUP1 MLOAD SWAP2 SWAP1 DUP3 PUSH2 0x1009 JUMPI POP POP POP MLOAD SWAP2 PUSH4 0x32505749 PUSH1 0xE1 SHL DUP4 MSTORE DUP3 ADD MSTORE REVERT JUMPDEST ADD REVERT JUMPDEST PUSH4 0xFFFFFFFF PUSH1 0xE0 SWAP13 SWAP4 SWAP5 SWAP8 SWAP12 SWAP7 SWAP11 SWAP6 SWAP9 SWAP10 SWAP13 SHL AND SUB PUSH2 0x102B JUMPI DUP11 PUSH2 0xD9E JUMP JUMPDEST DUP10 MLOAD PUSH4 0x32505749 PUSH1 0xE1 SHL DUP2 MSTORE DUP1 DUP6 ADD DUP5 SWAP1 MSTORE REVERT JUMPDEST SWAP1 SWAP2 POP DUP9 DUP2 DUP2 RETURNDATASIZE DUP4 GT PUSH2 0x1078 JUMPI JUMPDEST PUSH2 0x1057 DUP2 DUP4 PUSH2 0x1550 JUMP JUMPDEST DUP2 ADD SUB SLT PUSH2 0x533 JUMPI MLOAD PUSH1 0x1 PUSH1 0x1 PUSH1 0xE0 SHL SUB NOT DUP2 AND DUP2 SUB PUSH2 0x533 JUMPI SWAP1 DUP14 PUSH2 0xFD8 JUMP JUMPDEST POP RETURNDATASIZE PUSH2 0x104D JUMP JUMPDEST DUP12 MLOAD PUSH4 0x39E35637 PUSH1 0xE1 SHL DUP2 MSTORE PUSH0 DUP2 DUP9 ADD MSTORE DUP4 SWAP1 REVERT JUMPDEST PUSH0 DUP8 DUP2 MSTORE PUSH1 0x4 PUSH1 0x20 MSTORE PUSH1 0x40 SWAP1 KECCAK256 DUP1 SLOAD PUSH1 0x1 PUSH1 0x1 PUSH1 0xA0 SHL SUB NOT AND SWAP1 SSTORE DUP5 PUSH0 MSTORE PUSH1 0x3 DUP3 MSTORE DUP4 PUSH0 KECCAK256 SWAP1 DUP2 SLOAD ADD SWAP1 SSTORE PUSH0 PUSH2 0xD45 JUMP JUMPDEST DUP10 MLOAD PUSH4 0x32505749 PUSH1 0xE1 SHL DUP2 MSTORE PUSH0 DUP2 DUP8 ADD MSTORE DUP12 SWAP1 REVERT JUMPDEST DUP10 PUSH1 0x11 DUP6 PUSH4 0x4E487B71 PUSH1 0xE0 SHL PUSH0 MSTORE MSTORE PUSH0 REVERT JUMPDEST CALLVALUE PUSH2 0x533 JUMPI PUSH2 0x95F PUSH2 0x10FD CALLDATASIZE PUSH2 0x14BB JUMP JUMPDEST SWAP2 PUSH2 0x158E JUMP JUMPDEST POP CALLVALUE PUSH2 0x533 JUMPI PUSH1 0x20 CALLDATASIZE PUSH1 0x3 NOT ADD SLT PUSH2 0x533 JUMPI CALLDATALOAD PUSH0 MSTORE PUSH1 0x9 PUSH1 0x20 MSTORE DUP1 PUSH0 KECCAK256 SWAP1 PUSH2 0x2AC DUP2 MLOAD SWAP2 PUSH2 0x1130 DUP4 PUSH2 0x14F0 JUMP JUMPDEST DUP4 SLOAD PUSH1 0x1 PUSH1 0x1 PUSH1 0xA0 SHL SUB SWAP1 DUP2 AND DUP1 DUP6 MSTORE PUSH1 0x1 DUP7 ADD SLOAD PUSH1 0x20 DUP1 DUP8 ADD DUP3 SWAP1 MSTORE PUSH1 0x2 SWAP1 SWAP8 ADD SLOAD SWAP1 SWAP3 AND SWAP5 DUP4 ADD SWAP5 SWAP1 SWAP5 MSTORE SWAP1 MLOAD SWAP3 DUP4 MSTORE SWAP3 DUP3 ADD SWAP3 SWAP1 SWAP3 MSTORE SWAP1 DUP2 SWAP1 PUSH1 0x40 DUP3 ADD SWAP1 JUMP JUMPDEST POP SWAP1 CALLVALUE PUSH2 0x533 JUMPI PUSH1 0x20 CALLDATASIZE PUSH1 0x3 NOT ADD SLT PUSH2 0x533 JUMPI PUSH1 0x20 SWAP2 CALLDATALOAD PUSH0 MSTORE PUSH1 0x9 DUP3 MSTORE PUSH1 0x1 DUP1 PUSH1 0xA0 SHL SUB PUSH1 0x2 DUP3 PUSH0 KECCAK256 ADD SLOAD AND SWAP1 MLOAD SWAP1 DUP2 MSTORE RETURN JUMPDEST DUP3 CALLVALUE PUSH2 0x533 JUMPI PUSH0 CALLDATASIZE PUSH1 0x3 NOT ADD SLT PUSH2 0x533 JUMPI MLOAD PUSH32 0x0 PUSH1 0x1 PUSH1 0x1 PUSH1 0xA0 SHL SUB AND DUP2 MSTORE PUSH1 0x20 SWAP1 RETURN JUMPDEST POP SWAP1 CALLVALUE PUSH2 0x533 JUMPI DUP1 PUSH1 0x3 NOT CALLDATASIZE ADD SLT PUSH2 0x533 JUMPI PUSH2 0x1203 PUSH2 0x148F JUMP JUMPDEST SWAP2 PUSH1 0x24 CALLDATALOAD PUSH2 0x1210 DUP2 PUSH2 0x17A4 JUMP JUMPDEST CALLER ISZERO ISZERO DUP1 PUSH2 0x12B2 JUMPI JUMPDEST DUP1 PUSH2 0x128B JUMPI JUMPDEST PUSH2 0x1275 JUMPI PUSH1 0x1 PUSH1 0x1 PUSH1 0xA0 SHL SUB SWAP5 DUP6 AND SWAP5 DUP3 SWAP2 DUP7 SWAP2 AND PUSH32 0x8C5BE1E5EBEC7D5BD14F71427D1E84F3DD0314C0F7B2291E5B200AC8C7C3B925 PUSH0 DUP1 LOG4 PUSH0 MSTORE PUSH1 0x20 MSTORE PUSH0 KECCAK256 SWAP1 PUSH1 0x1 PUSH1 0x1 PUSH1 0x60 SHL SUB PUSH1 0xA0 SHL DUP3 SLOAD AND OR SWAP1 SSTORE PUSH0 DUP1 RETURN JUMPDEST DUP4 MLOAD PUSH4 0xA9FBF51F PUSH1 0xE0 SHL DUP2 MSTORE CALLER DUP2 DUP6 ADD MSTORE PUSH1 0x24 SWAP1 REVERT JUMPDEST POP PUSH1 0x1 DUP1 PUSH1 0xA0 SHL SUB DUP2 AND PUSH0 MSTORE PUSH1 0x5 PUSH1 0x20 MSTORE DUP4 PUSH0 KECCAK256 CALLER PUSH0 MSTORE PUSH1 0x20 MSTORE PUSH1 0xFF DUP5 PUSH0 KECCAK256 SLOAD AND ISZERO PUSH2 0x121F JUMP JUMPDEST POP PUSH1 0x1 PUSH1 0x1 PUSH1 0xA0 SHL SUB DUP2 AND CALLER EQ ISZERO PUSH2 0x1219 JUMP JUMPDEST POP SWAP1 CALLVALUE PUSH2 0x533 JUMPI PUSH1 0x20 CALLDATASIZE PUSH1 0x3 NOT ADD SLT PUSH2 0x533 JUMPI DUP2 PUSH1 0x20 SWAP3 CALLDATALOAD PUSH2 0x12E6 DUP2 PUSH2 0x17A4 JUMP JUMPDEST POP PUSH0 MSTORE DUP3 MSTORE PUSH1 0x1 DUP1 PUSH1 0xA0 SHL SUB DUP2 PUSH0 KECCAK256 SLOAD AND SWAP1 MLOAD SWAP1 DUP2 MSTORE RETURN JUMPDEST POP SWAP1 CALLVALUE PUSH2 0x533 JUMPI PUSH0 CALLDATASIZE PUSH1 0x3 NOT ADD SLT PUSH2 0x533 JUMPI DUP1 MLOAD SWAP1 PUSH0 SWAP1 PUSH0 SLOAD SWAP2 PUSH1 0x1 DUP4 PUSH1 0x1 SHR SWAP1 PUSH1 0x1 DUP6 AND SWAP5 DUP6 ISZERO PUSH2 0x13BB JUMPI JUMPDEST PUSH1 0x20 SWAP6 DUP7 DUP5 LT DUP2 EQ PUSH2 0xAF0 JUMPI DUP4 DUP9 MSTORE DUP8 SWAP5 SWAP4 SWAP3 SWAP2 DUP8 SWAP1 DUP3 ISZERO PUSH2 0xACE JUMPI POP POP PUSH1 0x1 EQ PUSH2 0x1362 JUMPI POP POP PUSH2 0x2AC SWAP3 SWAP2 PUSH2 0xA64 SWAP2 SUB DUP6 PUSH2 0x1550 JUMP JUMPDEST PUSH0 DUP1 DUP1 MSTORE DUP7 SWAP4 POP SWAP2 SWAP1 PUSH32 0x290DECD9548B62A8D60345A988386FC84BA6BC95484008F6362F93160EF3E563 JUMPDEST DUP3 DUP5 LT PUSH2 0x13A3 JUMPI POP POP POP DUP3 ADD ADD DUP2 PUSH2 0xA64 PUSH2 0xA52 JUMP JUMPDEST DUP1 SLOAD DUP5 DUP11 ADD DUP7 ADD MSTORE DUP9 SWAP6 POP DUP8 SWAP5 SWAP1 SWAP4 ADD SWAP3 DUP2 ADD PUSH2 0x138D JUMP JUMPDEST SWAP2 PUSH1 0x7F AND SWAP2 PUSH2 0x132B JUMP JUMPDEST DUP3 CALLVALUE PUSH2 0x533 JUMPI PUSH1 0x20 CALLDATASIZE PUSH1 0x3 NOT ADD SLT PUSH2 0x533 JUMPI CALLDATALOAD SWAP1 PUSH4 0xFFFFFFFF PUSH1 0xE0 SHL DUP3 AND DUP1 SWAP3 SUB PUSH2 0x533 JUMPI PUSH1 0x20 SWAP2 PUSH4 0x2B424AD7 PUSH1 0xE2 SHL DUP2 EQ SWAP1 DUP2 ISZERO PUSH2 0x1406 JUMPI JUMPDEST POP ISZERO ISZERO DUP2 MSTORE RETURN JUMPDEST PUSH4 0x80AC58CD PUSH1 0xE0 SHL DUP2 EQ SWAP2 POP DUP2 ISZERO PUSH2 0x1438 JUMPI JUMPDEST DUP2 ISZERO PUSH2 0x1427 JUMPI JUMPDEST POP DUP4 PUSH2 0x13FF JUMP JUMPDEST PUSH4 0x1FFC9A7 PUSH1 0xE0 SHL EQ SWAP1 POP DUP4 PUSH2 0x1420 JUMP JUMPDEST PUSH4 0x5B5E139F PUSH1 0xE0 SHL DUP2 EQ SWAP2 POP PUSH2 0x1419 JUMP JUMPDEST PUSH0 JUMPDEST DUP4 DUP2 LT PUSH2 0x145A JUMPI POP POP PUSH0 SWAP2 ADD MSTORE JUMP JUMPDEST DUP2 DUP2 ADD MLOAD DUP4 DUP3 ADD MSTORE PUSH1 0x20 ADD PUSH2 0x144B JUMP JUMPDEST SWAP1 PUSH1 0x20 SWAP2 PUSH2 0x1483 DUP2 MLOAD DUP1 SWAP3 DUP2 DUP6 MSTORE DUP6 DUP1 DUP7 ADD SWAP2 ADD PUSH2 0x1449 JUMP JUMPDEST PUSH1 0x1F ADD PUSH1 0x1F NOT AND ADD ADD SWAP1 JUMP JUMPDEST PUSH1 0x4 CALLDATALOAD SWAP1 PUSH1 0x1 PUSH1 0x1 PUSH1 0xA0 SHL SUB DUP3 AND DUP3 SUB PUSH2 0x533 JUMPI JUMP JUMPDEST PUSH1 0x24 CALLDATALOAD SWAP1 PUSH1 0x1 PUSH1 0x1 PUSH1 0xA0 SHL SUB DUP3 AND DUP3 SUB PUSH2 0x533 JUMPI JUMP JUMPDEST PUSH1 0x60 SWAP1 PUSH1 0x3 NOT ADD SLT PUSH2 0x533 JUMPI PUSH1 0x1 PUSH1 0x1 PUSH1 0xA0 SHL SUB SWAP1 PUSH1 0x4 CALLDATALOAD DUP3 DUP2 AND DUP2 SUB PUSH2 0x533 JUMPI SWAP2 PUSH1 0x24 CALLDATALOAD SWAP1 DUP2 AND DUP2 SUB PUSH2 0x533 JUMPI SWAP1 PUSH1 0x44 CALLDATALOAD SWAP1 JUMP JUMPDEST PUSH1 0x60 DUP2 ADD SWAP1 DUP2 LT PUSH8 0xFFFFFFFFFFFFFFFF DUP3 GT OR PUSH2 0x150C JUMPI PUSH1 0x40 MSTORE JUMP JUMPDEST PUSH4 0x4E487B71 PUSH1 0xE0 SHL PUSH0 MSTORE PUSH1 0x41 PUSH1 0x4 MSTORE PUSH1 0x24 PUSH0 REVERT JUMPDEST PUSH8 0xFFFFFFFFFFFFFFFF DUP2 GT PUSH2 0x150C JUMPI PUSH1 0x40 MSTORE JUMP JUMPDEST PUSH1 0x20 DUP2 ADD SWAP1 DUP2 LT PUSH8 0xFFFFFFFFFFFFFFFF DUP3 GT OR PUSH2 0x150C JUMPI PUSH1 0x40 MSTORE JUMP JUMPDEST SWAP1 PUSH1 0x1F DUP1 NOT SWAP2 ADD AND DUP2 ADD SWAP1 DUP2 LT PUSH8 0xFFFFFFFFFFFFFFFF DUP3 GT OR PUSH2 0x150C JUMPI PUSH1 0x40 MSTORE JUMP JUMPDEST PUSH8 0xFFFFFFFFFFFFFFFF DUP2 GT PUSH2 0x150C JUMPI PUSH1 0x1F ADD PUSH1 0x1F NOT AND PUSH1 0x20 ADD SWAP1 JUMP JUMPDEST SWAP1 PUSH1 0x1 PUSH1 0x1 PUSH1 0xA0 SHL SUB SWAP1 DUP2 AND DUP1 ISZERO PUSH2 0x1719 JUMPI DUP4 PUSH0 MSTORE PUSH1 0x20 SWAP2 PUSH1 0x2 DUP4 MSTORE DUP5 PUSH1 0x40 SWAP3 DUP3 DUP5 PUSH0 KECCAK256 SLOAD AND SWAP5 CALLER ISZERO ISZERO DUP1 PUSH2 0x1684 JUMPI JUMPDEST POP PUSH1 0x2 SWAP1 DUP7 PUSH2 0x1653 JUMPI JUMPDEST DUP3 PUSH0 MSTORE PUSH1 0x3 DUP2 MSTORE DUP6 PUSH0 KECCAK256 PUSH1 0x1 DUP2 SLOAD ADD SWAP1 SSTORE DUP4 PUSH0 MSTORE MSTORE DUP4 PUSH0 KECCAK256 DUP2 PUSH1 0x1 PUSH1 0x1 PUSH1 0x60 SHL SUB PUSH1 0xA0 SHL DUP3 SLOAD AND OR SWAP1 SSTORE DUP5 PUSH32 0xDDF252AD1BE2C89B69C2B068FC378DAA952BA7F163C4A11628F55A4DF523B3EF PUSH0 DUP1 LOG4 DUP4 AND DUP3 SUB PUSH2 0x1625 JUMPI POP POP POP POP JUMP JUMPDEST MLOAD PUSH4 0x64283D7B PUSH1 0xE0 SHL DUP2 MSTORE PUSH1 0x1 PUSH1 0x1 PUSH1 0xA0 SHL SUB SWAP3 DUP4 AND PUSH1 0x4 DUP3 ADD MSTORE PUSH1 0x24 DUP2 ADD SWAP4 SWAP1 SWAP4 MSTORE AND PUSH1 0x44 DUP3 ADD MSTORE PUSH1 0x64 SWAP1 REVERT JUMPDEST PUSH0 DUP5 DUP2 MSTORE PUSH1 0x4 PUSH1 0x20 MSTORE PUSH1 0x40 DUP2 KECCAK256 DUP1 SLOAD PUSH1 0x1 PUSH1 0x1 PUSH1 0xA0 SHL SUB NOT AND SWAP1 SSTORE DUP8 DUP2 MSTORE PUSH1 0x3 DUP3 MSTORE DUP7 SWAP1 KECCAK256 DUP1 SLOAD PUSH0 NOT ADD SWAP1 SSTORE PUSH2 0x15C8 JUMP JUMPDEST SWAP2 SWAP3 POP SWAP1 DUP1 PUSH2 0x16D8 JUMPI JUMPDEST ISZERO PUSH2 0x169C JUMPI SWAP1 DUP7 SWAP2 PUSH0 PUSH2 0x15BE JUMP JUMPDEST DUP4 DUP8 DUP7 PUSH2 0x16B9 JUMPI PUSH1 0x24 SWAP2 MLOAD SWAP1 PUSH4 0x7E273289 PUSH1 0xE0 SHL DUP3 MSTORE PUSH1 0x4 DUP3 ADD MSTORE REVERT JUMPDEST SWAP1 MLOAD PUSH4 0x177E802F PUSH1 0xE0 SHL DUP2 MSTORE CALLER PUSH1 0x4 DUP3 ADD MSTORE PUSH1 0x24 DUP2 ADD SWAP2 SWAP1 SWAP2 MSTORE PUSH1 0x44 SWAP1 REVERT JUMPDEST POP CALLER DUP6 EQ DUP1 ISZERO PUSH2 0x16FD JUMPI JUMPDEST DUP1 PUSH2 0x168E JUMPI POP DUP7 PUSH0 MSTORE PUSH1 0x4 DUP2 MSTORE CALLER DUP4 DUP6 PUSH0 KECCAK256 SLOAD AND EQ PUSH2 0x168E JUMP JUMPDEST POP DUP5 PUSH0 MSTORE PUSH1 0x5 DUP2 MSTORE DUP4 PUSH0 KECCAK256 CALLER PUSH0 MSTORE DUP2 MSTORE PUSH1 0xFF DUP5 PUSH0 KECCAK256 SLOAD AND PUSH2 0x16E3 JUMP JUMPDEST PUSH1 0x40 MLOAD PUSH4 0x32505749 PUSH1 0xE1 SHL DUP2 MSTORE PUSH0 PUSH1 0x4 DUP3 ADD MSTORE PUSH1 0x24 SWAP1 REVERT JUMPDEST ISZERO PUSH2 0x1738 JUMPI JUMP JUMPDEST PUSH1 0x40 MLOAD PUSH3 0x461BCD PUSH1 0xE5 SHL DUP2 MSTORE PUSH1 0x20 PUSH1 0x4 DUP3 ADD MSTORE PUSH1 0x12 PUSH1 0x24 DUP3 ADD MSTORE PUSH18 0x27B7363C902932B73A30B626B0B730B3B2B9 PUSH1 0x71 SHL PUSH1 0x44 DUP3 ADD MSTORE PUSH1 0x64 SWAP1 REVERT JUMPDEST PUSH0 MSTORE PUSH1 0xA PUSH1 0x20 MSTORE PUSH1 0x40 PUSH0 KECCAK256 SLOAD TIMESTAMP PUSH8 0xFFFFFFFFFFFFFFFF DUP3 PUSH1 0xA0 SHR AND LT ISZERO PUSH2 0x1798 JUMPI POP PUSH0 SWAP1 JUMP JUMPDEST PUSH1 0x1 PUSH1 0x1 PUSH1 0xA0 SHL SUB AND SWAP1 JUMP JUMPDEST PUSH0 DUP2 DUP2 MSTORE PUSH1 0x2 PUSH1 0x20 MSTORE PUSH1 0x40 SWAP1 KECCAK256 SLOAD PUSH1 0x1 PUSH1 0x1 PUSH1 0xA0 SHL SUB AND SWAP1 DUP2 ISZERO PUSH2 0x17C6 JUMPI POP SWAP1 JUMP JUMPDEST PUSH1 0x24 SWAP1 PUSH1 0x40 MLOAD SWAP1 PUSH4 0x7E273289 PUSH1 0xE0 SHL DUP3 MSTORE PUSH1 0x4 DUP3 ADD MSTORE REVERT JUMPDEST RETURNDATASIZE ISZERO PUSH2 0x1808 JUMPI RETURNDATASIZE SWAP1 PUSH2 0x17EF DUP3 PUSH2 0x1572 JUMP JUMPDEST SWAP2 PUSH2 0x17FD PUSH1 0x40 MLOAD SWAP4 DUP5 PUSH2 0x1550 JUMP JUMPDEST DUP3 MSTORE RETURNDATASIZE PUSH0 PUSH1 0x20 DUP5 ADD RETURNDATACOPY JUMP JUMPDEST PUSH1 0x60 SWAP1 JUMP JUMPDEST PUSH1 0x6 SLOAD PUSH1 0x1 PUSH1 0x1 PUSH1 0xA0 SHL SUB AND CALLER SUB PUSH2 0x1821 JUMPI JUMP JUMPDEST PUSH1 0x40 MLOAD PUSH4 0x118CDAA7 PUSH1 0xE0 SHL DUP2 MSTORE CALLER PUSH1 0x4 DUP3 ADD MSTORE PUSH1 0x24 SWAP1 REVERT JUMPDEST SWAP3 SWAP2 DUP1 EXTCODESIZE PUSH2 0x1849 JUMPI JUMPDEST POP POP POP POP POP JUMP JUMPDEST PUSH1 0x40 MLOAD PUSH4 0xA85BD01 PUSH1 0xE1 SHL DUP1 DUP3 MSTORE PUSH1 0x1 PUSH1 0x1 PUSH1 0xA0 SHL SUB SWAP6 DUP7 AND PUSH1 0x4 DUP4 ADD MSTORE SWAP3 DUP6 AND PUSH1 0x24 DUP3 ADD MSTORE PUSH1 0x44 DUP2 ADD SWAP4 SWAP1 SWAP4 MSTORE PUSH1 0x80 PUSH1 0x64 DUP5 ADD MSTORE SWAP1 SWAP3 AND SWAP3 PUSH1 0x20 SWAP1 DUP3 SWAP1 DUP2 SWAP1 PUSH2 0x1897 SWAP1 PUSH1 0x84 DUP4 ADD SWAP1 PUSH2 0x146A JUMP JUMPDEST SUB DUP2 PUSH0 DUP8 GAS CALL PUSH0 SWAP2 DUP2 PUSH2 0x190E JUMPI JUMPDEST POP PUSH2 0x18DC JUMPI DUP3 PUSH2 0x18B3 PUSH2 0x17DE JUMP JUMPDEST DUP1 MLOAD SWAP2 SWAP1 DUP3 PUSH2 0x18D5 JUMPI PUSH1 0x40 MLOAD PUSH4 0x32505749 PUSH1 0xE1 SHL DUP2 MSTORE PUSH1 0x4 DUP2 ADD DUP4 SWAP1 MSTORE PUSH1 0x24 SWAP1 REVERT JUMPDEST PUSH1 0x20 SWAP2 POP ADD REVERT JUMPDEST PUSH1 0x1 PUSH1 0x1 PUSH1 0xE0 SHL SUB NOT AND SUB PUSH2 0x18F6 JUMPI POP PUSH0 DUP1 DUP1 DUP1 DUP1 PUSH2 0x1842 JUMP JUMPDEST PUSH1 0x24 SWAP1 PUSH1 0x40 MLOAD SWAP1 PUSH4 0x32505749 PUSH1 0xE1 SHL DUP3 MSTORE PUSH1 0x4 DUP3 ADD MSTORE REVERT JUMPDEST SWAP1 SWAP2 POP PUSH1 0x20 DUP2 RETURNDATASIZE PUSH1 0x20 GT PUSH2 0x194B JUMPI JUMPDEST DUP2 PUSH2 0x192A PUSH1 0x20 SWAP4 DUP4 PUSH2 0x1550 JUMP JUMPDEST DUP2 ADD SUB SLT PUSH2 0x533 JUMPI MLOAD PUSH1 0x1 PUSH1 0x1 PUSH1 0xE0 SHL SUB NOT DUP2 AND DUP2 SUB PUSH2 0x533 JUMPI SWAP1 PUSH0 PUSH2 0x18A5 JUMP JUMPDEST RETURNDATASIZE SWAP2 POP PUSH2 0x191D JUMP INVALID LOG2 PUSH5 0x6970667358 0x22 SLT KECCAK256 0x2C 0xDF PUSH7 0x9611B765B10EE6 EXP SHL LOG4 0xBC SLT PUSH10 0x40B119211B6295452BF2 0xAE MSTORE 0xC2 0xE NUMBER 0xE9 PUSH5 0x736F6C6343 STOP ADDMOD XOR STOP CALLER "},"methodIdentifiers":{"ERC6551_REGISTRY()":"edc16084","accountImplementation()":"11464fbe","approve(address,uint256)":"095ea7b3","balanceOf(address)":"70a08231","getApproved(uint256)":"081812fc","getOriginalNFT(uint256)":"173ffed4","getTBA(uint256)":"15d9756e","isApprovedForAll(address,address)":"e985e9c5","name()":"06fdde03","owner()":"8da5cb5b","ownerOf(uint256)":"6352211e","renounceOwnership()":"715018a6","rentalManager()":"c278cff6","safeTransferFrom(address,address,uint256)":"42842e0e","safeTransferFrom(address,address,uint256,bytes)":"b88d4fde","setApprovalForAll(address,bool)":"a22cb465","setRentalManager(address)":"577b540b","setUser(uint256,address,uint64)":"e030565e","supportsInterface(bytes4)":"01ffc9a7","symbol()":"95d89b41","tokenURI(uint256)":"c87b56dd","transferFrom(address,address,uint256)":"23b872dd","transferOwnership(address)":"f2fde38b","unwrapNFT(uint256)":"d5cf5f6f","userExpires(uint256)":"8fc88c48","userOf(uint256)":"c2f1f14a","wrapNFT(address,uint256,address)":"3447d0f8","wrappedNFTs(uint256)":"e1b251e6"}}}}}