{
  "_format": "hh-sol-artifact-1",
  "contractName": "SwapManager",
  "sourceName": "contracts/SwapManager.sol",
  "abi": [
    {
      "inputs": [],
      "stateMutability": "nonpayable",
      "type": "constructor"
    },
    {
      "inputs": [
        {
          "internalType": "address",
          "name": "owner",
          "type": "address"
        }
      ],
      "name": "OwnableInvalidOwner",
      "type": "error"
    },
    {
      "inputs": [
        {
          "internalType": "address",
          "name": "account",
          "type": "address"
        }
      ],
      "name": "OwnableUnauthorizedAccount",
      "type": "error"
    },
    {
      "inputs": [],
      "name": "ReentrancyGuardReentrantCall",
      "type": "error"
    },
    {
      "anonymous": false,
      "inputs": [
        {
          "indexed": true,
          "internalType": "address",
          "name": "previousOwner",
          "type": "address"
        },
        {
          "indexed": true,
          "internalType": "address",
          "name": "newOwner",
          "type": "address"
        }
      ],
      "name": "OwnershipTransferred",
      "type": "event"
    },
    {
      "anonymous": false,
      "inputs": [
        {
          "indexed": true,
          "internalType": "uint256",
          "name": "listingId",
          "type": "uint256"
        },
        {
          "indexed": true,
          "internalType": "address",
          "name": "lister",
          "type": "address"
        },
        {
          "indexed": true,
          "internalType": "address",
          "name": "swapper",
          "type": "address"
        },
        {
          "indexed": false,
          "internalType": "address",
          "name": "nftContract",
          "type": "address"
        },
        {
          "indexed": false,
          "internalType": "uint256",
          "name": "tokenId",
          "type": "uint256"
        },
        {
          "indexed": false,
          "internalType": "address",
          "name": "swappedNftContract",
          "type": "address"
        },
        {
          "indexed": false,
          "internalType": "uint256",
          "name": "swappedTokenId",
          "type": "uint256"
        }
      ],
      "name": "SwapExecuted",
      "type": "event"
    },
    {
      "anonymous": false,
      "inputs": [
        {
          "indexed": true,
          "internalType": "uint256",
          "name": "listingId",
          "type": "uint256"
        },
        {
          "indexed": true,
          "internalType": "address",
          "name": "lister",
          "type": "address"
        }
      ],
      "name": "SwapListingCancelled",
      "type": "event"
    },
    {
      "anonymous": false,
      "inputs": [
        {
          "indexed": true,
          "internalType": "uint256",
          "name": "listingId",
          "type": "uint256"
        },
        {
          "indexed": true,
          "internalType": "address",
          "name": "lister",
          "type": "address"
        },
        {
          "indexed": false,
          "internalType": "address",
          "name": "nftContract",
          "type": "address"
        },
        {
          "indexed": false,
          "internalType": "uint256",
          "name": "tokenId",
          "type": "uint256"
        },
        {
          "indexed": false,
          "internalType": "address",
          "name": "wantedNftContract",
          "type": "address"
        },
        {
          "indexed": false,
          "internalType": "uint256",
          "name": "wantedTokenId",
          "type": "uint256"
        },
        {
          "indexed": false,
          "internalType": "uint256",
          "name": "expiresAt",
          "type": "uint256"
        }
      ],
      "name": "SwapListingCreated",
      "type": "event"
    },
    {
      "inputs": [
        {
          "internalType": "uint256",
          "name": "listingId",
          "type": "uint256"
        }
      ],
      "name": "cancelSwapListing",
      "outputs": [],
      "stateMutability": "nonpayable",
      "type": "function"
    },
    {
      "inputs": [
        {
          "internalType": "address",
          "name": "nftContract",
          "type": "address"
        },
        {
          "internalType": "uint256",
          "name": "tokenId",
          "type": "uint256"
        },
        {
          "internalType": "address",
          "name": "wantedNftContract",
          "type": "address"
        },
        {
          "internalType": "uint256",
          "name": "wantedTokenId",
          "type": "uint256"
        },
        {
          "internalType": "uint256",
          "name": "durationInDays",
          "type": "uint256"
        }
      ],
      "name": "createSwapListing",
      "outputs": [
        {
          "internalType": "uint256",
          "name": "listingId",
          "type": "uint256"
        }
      ],
      "stateMutability": "nonpayable",
      "type": "function"
    },
    {
      "inputs": [
        {
          "internalType": "uint256",
          "name": "listingId",
          "type": "uint256"
        },
        {
          "internalType": "uint256",
          "name": "myTokenId",
          "type": "uint256"
        }
      ],
      "name": "executeSwap",
      "outputs": [],
      "stateMutability": "nonpayable",
      "type": "function"
    },
    {
      "inputs": [
        {
          "internalType": "uint256",
          "name": "listingId",
          "type": "uint256"
        }
      ],
      "name": "getSwapListing",
      "outputs": [
        {
          "components": [
            {
              "internalType": "address",
              "name": "lister",
              "type": "address"
            },
            {
              "internalType": "address",
              "name": "nftContract",
              "type": "address"
            },
            {
              "internalType": "uint256",
              "name": "tokenId",
              "type": "uint256"
            },
            {
              "internalType": "address",
              "name": "wantedNftContract",
              "type": "address"
            },
            {
              "internalType": "uint256",
              "name": "wantedTokenId",
              "type": "uint256"
            },
            {
              "internalType": "bool",
              "name": "isActive",
              "type": "bool"
            },
            {
              "internalType": "uint256",
              "name": "createdAt",
              "type": "uint256"
            },
            {
              "internalType": "uint256",
              "name": "expiresAt",
              "type": "uint256"
            }
          ],
          "internalType": "struct SwapManager.SwapListing",
          "name": "",
          "type": "tuple"
        }
      ],
      "stateMutability": "view",
      "type": "function"
    },
    {
      "inputs": [],
      "name": "getTotalListings",
      "outputs": [
        {
          "internalType": "uint256",
          "name": "",
          "type": "uint256"
        }
      ],
      "stateMutability": "view",
      "type": "function"
    },
    {
      "inputs": [
        {
          "internalType": "uint256",
          "name": "listingId",
          "type": "uint256"
        }
      ],
      "name": "isListingValid",
      "outputs": [
        {
          "internalType": "bool",
          "name": "",
          "type": "bool"
        }
      ],
      "stateMutability": "view",
      "type": "function"
    },
    {
      "inputs": [
        {
          "internalType": "uint256",
          "name": "",
          "type": "uint256"
        }
      ],
      "name": "listings",
      "outputs": [
        {
          "internalType": "address",
          "name": "lister",
          "type": "address"
        },
        {
          "internalType": "address",
          "name": "nftContract",
          "type": "address"
        },
        {
          "internalType": "uint256",
          "name": "tokenId",
          "type": "uint256"
        },
        {
          "internalType": "address",
          "name": "wantedNftContract",
          "type": "address"
        },
        {
          "internalType": "uint256",
          "name": "wantedTokenId",
          "type": "uint256"
        },
        {
          "internalType": "bool",
          "name": "isActive",
          "type": "bool"
        },
        {
          "internalType": "uint256",
          "name": "createdAt",
          "type": "uint256"
        },
        {
          "internalType": "uint256",
          "name": "expiresAt",
          "type": "uint256"
        }
      ],
      "stateMutability": "view",
      "type": "function"
    },
    {
      "inputs": [],
      "name": "owner",
      "outputs": [
        {
          "internalType": "address",
          "name": "",
          "type": "address"
        }
      ],
      "stateMutability": "view",
      "type": "function"
    },
    {
      "inputs": [],
      "name": "renounceOwnership",
      "outputs": [],
      "stateMutability": "nonpayable",
      "type": "function"
    },
    {
      "inputs": [
        {
          "internalType": "address",
          "name": "newOwner",
          "type": "address"
        }
      ],
      "name": "transferOwnership",
      "outputs": [],
      "stateMutability": "nonpayable",
      "type": "function"
    }
  ],
  "bytecode": "0x608080604052346100815760015f55331561006c5760018054336001600160a01b03198216811790925560405191906001600160a01b03167f8be0079c531659141344cd1fd0a4f28419497f9722a3daafe3b4186f6b6457e05f80a36001600255610ff890816100868239f35b631e4fbdf760e01b81525f6004820152602490fd5b5f80fdfe6080806040526004361015610012575f80fd5b5f905f3560e01c9081634492156114610d745750806346a39f5b1461086b5780634be77bfd146107c0578063715018a61461076357806373253387146106b95780638da5cb5b14610690578063de74e57b14610606578063e8131d6f1461015c578063f2fde38b146100cd5763fbf30c351461008c575f80fd5b346100ca57806003193601126100ca576002545f198101919082116100b657602082604051908152f35b634e487b7160e01b81526011600452602490fd5b80fd5b50346100ca5760203660031901126100ca576100e7610e80565b6100ef610f96565b6001600160a01b0390811690811561014357600154826bffffffffffffffffffffffff60a01b821617600155167f8be0079c531659141344cd1fd0a4f28419497f9722a3daafe3b4186f6b6457e05f80a380f35b604051631e4fbdf760e01b815260048101849052602490fd5b50346100ca5760a03660031901126100ca57610176610e80565b604435906001600160a01b038216820361060257610192610f75565b6001600160a01b038116156105c6576001600160a01b0382161561058157608435151580610573575b1561052e576040516331a9108f60e11b81526024803560048301526020908290816001600160a01b0386165afa9081156104a057849161050f575b50336001600160a01b03909116036104da5760405163020604bf60e21b81526024803560048301526020908290816001600160a01b0386165afa9081156104a05784916104ab575b506001600160a01b031630148015610431575b156103f457600254915f1983146103e05760018301600255620151808060843502906084358204146084351517156103cc574201908142116103cc5791602094916001936040516102a181610e96565b338152600787898301888060a01b038716815260408401906024358252606085018a8060a01b03871681526080860190606435825260a08701928c845260c088019442865260e08901968b88528d528f6003905260408d20988e8060a01b03905116916bffffffffffffffffffffffff60a01b92838b5416178a558e8a01908f8060a01b039051168382541617905551600289015560038801918d8060a01b0390511690825416179055516004860155600585019051151560ff801983541691161790555160068401555191015560405192858060a01b0316835260243587840152848060a01b0316604083015260643560608301526080820152837f4273ee6e0827b2a19e38cb061b6f10370b85f5d6defbb17154cf5728ea21cf6360a03393a355604051908152f35b634e487b7160e01b85526011600452602485fd5b634e487b7160e01b84526011600452602484fd5b60405162461bcd60e51b815260206004820152601560248201527410dbdb9d1c9858dd081b9bdd08185c1c1c9bdd9959605a1b6044820152606490fd5b5060405163e985e9c560e01b81523360048201523060248201526020816044816001600160a01b0386165afa9081156104a0578491610471575b50610251565b610493915060203d602011610499575b61048b8183610edb565b810190610f5d565b5f61046b565b503d610481565b6040513d86823e3d90fd5b6104cd915060203d6020116104d3575b6104c58183610edb565b810190610f3e565b5f61023e565b503d6104bb565b60405162461bcd60e51b815260206004820152600d60248201526c2737ba1027232a1037bbb732b960991b6044820152606490fd5b610528915060203d6020116104d3576104c58183610edb565b5f6101f6565b60405162461bcd60e51b815260206004820152601b60248201527f4475726174696f6e206d75737420626520312d333635206461797300000000006044820152606490fd5b5061016d60843511156101bb565b60405162461bcd60e51b815260206004820152601b60248201527f496e76616c69642077616e746564204e465420636f6e747261637400000000006044820152606490fd5b60405162461bcd60e51b8152602060048201526014602482015273125b9d985b1a59081391950818dbdb9d1c9858dd60621b6044820152606490fd5b5f80fd5b50346100ca5760203660031901126100ca57604061010091600435815260036020522060018060a01b038082541691816001820154169160028201549060038301541660048301549060ff6005850154169260076006860154950154956040519788526020880152604087015260608601526080850152151560a084015260c083015260e0820152f35b50346100ca57806003193601126100ca576001546040516001600160a01b039091168152602090f35b50346100ca5760203660031901126100ca5760406020916004358152600383522060e06040516106e881610e96565b82546001600160a01b039081168252600184015481168583015260028401546040830152600384015416606082015260048301546080820152600583015460ff16151560a08201819052600684015460c0830152600790930154910181905281610758575b506040519015158152f35b90504211155f61074d565b50346100ca57806003193601126100ca5761077c610f96565b600180546001600160a01b031981169091555f906001600160a01b03167f8be0079c531659141344cd1fd0a4f28419497f9722a3daafe3b4186f6b6457e08280a380f35b50346100ca5760203660031901126100ca5760043580825260036020526040822080546001600160a01b0316330361083257600501805461080360ff8216610efd565b60ff1916905533907f16422fc3d5084dd2583415585081150ad7ffda6c1ab0c21ee7c43c0e0db2f58b8380a380f35b60405162461bcd60e51b81526020600482015260116024820152702737ba103634b9ba34b7339037bbb732b960791b6044820152606490fd5b50346106025760403660031901126106025760248035610889610f75565b6004355f526020906003825260405f209160058301928354906108ae60ff8316610efd565b60078101544211610d3e5780546001600160a01b0390811692909190338414610cfa57600382019383855416916040516331a9108f60e11b815288600482015287818c81875afa908115610ace575f91610cdd575b508533911603610c9957600484015480610c49575b5060405163020604bf60e21b808252600482018a9052919088818d81885afa908115610ace575f91610c2c575b50861630148015610bd9575b15610b95576001850199868b541691600287019c8d54946040519081528560048201528b818381885afa908115610ace575f91610b78575b50891630148015610b1c575b15610ad9575060ff19169055803b1561060257604051632142170760e11b8082526001600160a01b0394909416600482015233602482015260448101929092525f908290606490829084905af18015610ace57610abb575b5089908484541690833b15610ab7576040519081523360048201526001600160a01b03919091166024820152604481018890529181908390606490829084905af1918215610aaa578492610a8f575b5050809154169554169554915416916040519586528501526040840152606083015233917f34bfe77db65e24317195883c780ac3dfc0aa4643c1172099b4f4b1b90f7c3f77608060043592a46001815580f35b610a9a919250610ec7565b610aa65781885f610a3c565b8780fd5b50604051903d90823e3d90fd5b8280fd5b610ac6919a50610ec7565b5f985f6109ed565b6040513d5f823e3d90fd5b8a60176064926040519262461bcd60e51b845260048401528201527f4c6973746564204e4654206e6f7420617070726f7665640000000000000000006044820152fd5b5060405163e985e9c560e01b81526001600160a01b03871660048201523060248201528b81604481885afa908115610ace575f91610b5b575b50610995565b610b7291508c8d3d106104995761048b8183610edb565b5f610b55565b610b8f91508c8d3d106104d3576104c58183610edb565b5f610989565b60405162461bcd60e51b8152600481018990526018818d01527f4f666665726564204e4654206e6f7420617070726f76656400000000000000006044820152606490fd5b5060405163e985e9c560e01b81523360048201523060248201528881604481885afa908115610ace575f91610c0f575b50610951565b610c269150893d8b116104995761048b8183610edb565b5f610c09565b610c439150893d8b116104d3576104c58183610edb565b5f610945565b8803610c55575f610918565b60405162461bcd60e51b8152600481018890526017818c01527f546f6b656e20494420646f6573206e6f74206d617463680000000000000000006044820152606490fd5b60405162461bcd60e51b8152600481018890526018818c01527f4e6f74206f776e6572206f66206f666665726564204e465400000000000000006044820152606490fd5b610cf49150883d8a116104d3576104c58183610edb565b5f610903565b60405162461bcd60e51b8152600481018690526019818a01527f43616e6e6f742073776170207769746820796f757273656c66000000000000006044820152606490fd5b60405162461bcd60e51b815260048101849052600f818801526e131a5cdd1a5b99c8195e1c1a5c9959608a1b6044820152606490fd5b346106025760203660031901126106025760e081610d925f93610e96565b8281528260208201528260408201528260608201528260808201528260a08201528260c082015201526004355f52600360205261010060405f20604051610dd881610e96565b60018060a01b03918281541692838352806001830154169060208401918252600283015490604085019182528060038501541660608601908152600485015492608087019384528260ff6005880154169560a08901961515875260e0600760068a01549960c08c019a8b5201549901988952604051998a52511660208901525160408801525116606086015251608085015251151560a08401525160c08301525160e0820152f35b600435906001600160a01b038216820361060257565b610100810190811067ffffffffffffffff821117610eb357604052565b634e487b7160e01b5f52604160045260245ffd5b67ffffffffffffffff8111610eb357604052565b90601f8019910116810190811067ffffffffffffffff821117610eb357604052565b15610f0457565b60405162461bcd60e51b81526020600482015260126024820152714c697374696e67206e6f742061637469766560701b6044820152606490fd5b9081602091031261060257516001600160a01b03811681036106025790565b90816020910312610602575180151581036106025790565b60025f5414610f845760025f55565b604051633ee5aeb560e01b8152600490fd5b6001546001600160a01b03163303610faa57565b60405163118cdaa760e01b8152336004820152602490fdfea2646970667358221220fccb9bf7f24ea2232992c3fddc6b35de7830954363627cf30947bdaf5d146fc864736f6c63430008180033",
  "linkReferences": {},
  "deployedLinkReferences": {}
}