{
  "_format": "hh-sol-artifact-1",
  "contractName": "FortunaSquareBundleAccount",
  "sourceName": "contracts/FortunaSquareBundleAccount.sol",
  "abi": [
    {
      "inputs": [],
      "stateMutability": "nonpayable",
      "type": "constructor"
    },
    {
      "inputs": [],
      "name": "AlreadyInitialized",
      "type": "error"
    },
    {
      "inputs": [],
      "name": "InvalidOperation",
      "type": "error"
    },
    {
      "inputs": [],
      "name": "NotAuthorized",
      "type": "error"
    },
    {
      "inputs": [],
      "name": "ReentrancyGuardReentrantCall",
      "type": "error"
    },
    {
      "inputs": [],
      "name": "FACTORY",
      "outputs": [
        {
          "internalType": "address",
          "name": "",
          "type": "address"
        }
      ],
      "stateMutability": "view",
      "type": "function"
    },
    {
      "inputs": [],
      "name": "bundleContract",
      "outputs": [
        {
          "internalType": "address",
          "name": "",
          "type": "address"
        }
      ],
      "stateMutability": "view",
      "type": "function"
    },
    {
      "inputs": [],
      "name": "context",
      "outputs": [
        {
          "internalType": "uint256",
          "name": "",
          "type": "uint256"
        },
        {
          "internalType": "address",
          "name": "",
          "type": "address"
        },
        {
          "internalType": "uint256",
          "name": "",
          "type": "uint256"
        }
      ],
      "stateMutability": "view",
      "type": "function"
    },
    {
      "inputs": [
        {
          "internalType": "address[]",
          "name": "targets",
          "type": "address[]"
        },
        {
          "internalType": "uint256[]",
          "name": "values",
          "type": "uint256[]"
        },
        {
          "internalType": "bytes[]",
          "name": "datas",
          "type": "bytes[]"
        }
      ],
      "name": "executeBatch",
      "outputs": [
        {
          "internalType": "bytes[]",
          "name": "results",
          "type": "bytes[]"
        }
      ],
      "stateMutability": "payable",
      "type": "function"
    },
    {
      "inputs": [
        {
          "internalType": "address",
          "name": "to",
          "type": "address"
        },
        {
          "internalType": "uint256",
          "name": "value",
          "type": "uint256"
        },
        {
          "internalType": "bytes",
          "name": "data",
          "type": "bytes"
        }
      ],
      "name": "executeCall",
      "outputs": [
        {
          "internalType": "bytes",
          "name": "result",
          "type": "bytes"
        }
      ],
      "stateMutability": "payable",
      "type": "function"
    },
    {
      "inputs": [
        {
          "internalType": "address",
          "name": "_bundleContract",
          "type": "address"
        }
      ],
      "name": "initialize",
      "outputs": [],
      "stateMutability": "nonpayable",
      "type": "function"
    },
    {
      "inputs": [],
      "name": "initialized",
      "outputs": [
        {
          "internalType": "bool",
          "name": "",
          "type": "bool"
        }
      ],
      "stateMutability": "view",
      "type": "function"
    },
    {
      "inputs": [
        {
          "internalType": "bytes32",
          "name": "hash",
          "type": "bytes32"
        },
        {
          "internalType": "bytes",
          "name": "signature",
          "type": "bytes"
        }
      ],
      "name": "isValidSignature",
      "outputs": [
        {
          "internalType": "bytes4",
          "name": "",
          "type": "bytes4"
        }
      ],
      "stateMutability": "view",
      "type": "function"
    },
    {
      "inputs": [
        {
          "internalType": "address",
          "name": "",
          "type": "address"
        },
        {
          "internalType": "address",
          "name": "",
          "type": "address"
        },
        {
          "internalType": "uint256[]",
          "name": "",
          "type": "uint256[]"
        },
        {
          "internalType": "uint256[]",
          "name": "",
          "type": "uint256[]"
        },
        {
          "internalType": "bytes",
          "name": "",
          "type": "bytes"
        }
      ],
      "name": "onERC1155BatchReceived",
      "outputs": [
        {
          "internalType": "bytes4",
          "name": "",
          "type": "bytes4"
        }
      ],
      "stateMutability": "pure",
      "type": "function"
    },
    {
      "inputs": [
        {
          "internalType": "address",
          "name": "",
          "type": "address"
        },
        {
          "internalType": "address",
          "name": "",
          "type": "address"
        },
        {
          "internalType": "uint256",
          "name": "",
          "type": "uint256"
        },
        {
          "internalType": "uint256",
          "name": "",
          "type": "uint256"
        },
        {
          "internalType": "bytes",
          "name": "",
          "type": "bytes"
        }
      ],
      "name": "onERC1155Received",
      "outputs": [
        {
          "internalType": "bytes4",
          "name": "",
          "type": "bytes4"
        }
      ],
      "stateMutability": "pure",
      "type": "function"
    },
    {
      "inputs": [
        {
          "internalType": "address",
          "name": "",
          "type": "address"
        },
        {
          "internalType": "address",
          "name": "",
          "type": "address"
        },
        {
          "internalType": "uint256",
          "name": "",
          "type": "uint256"
        },
        {
          "internalType": "bytes",
          "name": "",
          "type": "bytes"
        }
      ],
      "name": "onERC721Received",
      "outputs": [
        {
          "internalType": "bytes4",
          "name": "",
          "type": "bytes4"
        }
      ],
      "stateMutability": "pure",
      "type": "function"
    },
    {
      "inputs": [],
      "name": "owner",
      "outputs": [
        {
          "internalType": "address",
          "name": "",
          "type": "address"
        }
      ],
      "stateMutability": "view",
      "type": "function"
    },
    {
      "inputs": [
        {
          "internalType": "bytes4",
          "name": "interfaceId",
          "type": "bytes4"
        }
      ],
      "name": "supportsInterface",
      "outputs": [
        {
          "internalType": "bool",
          "name": "",
          "type": "bool"
        }
      ],
      "stateMutability": "pure",
      "type": "function"
    },
    {
      "stateMutability": "payable",
      "type": "receive"
    }
  ],
  "bytecode": "0x60a0806040523461004457336080525f80546001600160a81b031916905560018055610f1a90816100498239608051818181610305015281816107aa0152610e000152f35b5f80fdfe6080604052600436101561001a575b3615610018575f80fd5b005b5f3560e01c806301ffc9a7146100e9578063150b7a02146100e4578063158ef93e146100df5780631626ba7e146100da5780632dd31000146100d5578063308cf8d9146100d057806347e1da2a146100cb5780638da5cb5b146100c65780639e5d4c49146100c1578063bc197c81146100bc578063c4d66de8146100b7578063d0496d6a146100b25763f23a6e610361000e5761089a565b610863565b610781565b6106f4565b61060d565b6105cd565b61042d565b610334565b6102f0565b61029f565b61027b565b610221565b3461016f57602036600319011261016f5760043563ffffffff60e01b811680910361016f576020906301ffc9a760e01b811490811561015e575b811561014d575b811561013c575b506040519015158152f35b630271189760e51b1490505f610131565b630a85bd0160e11b8114915061012a565b630b135d3f60e11b81149150610123565b5f80fd5b6001600160a01b0381160361016f57565b634e487b7160e01b5f52604160045260245ffd5b90601f8019910116810190811067ffffffffffffffff8211176101ba57604052565b610184565b67ffffffffffffffff81116101ba57601f01601f191660200190565b81601f8201121561016f578035906101f2826101bf565b926102006040519485610198565b8284526020838301011161016f57815f926020809301838601378301015290565b3461016f57608036600319011261016f5761023d600435610173565b610248602435610173565b60643567ffffffffffffffff811161016f576102689036906004016101db565b50604051630a85bd0160e11b8152602090f35b3461016f575f36600319011261016f57602060ff5f5460a01c166040519015158152f35b3461016f57604036600319011261016f5760243567ffffffffffffffff811161016f576102dd6102d560209236906004016101db565b6004356108f4565b6040516001600160e01b03199091168152f35b3461016f575f36600319011261016f576040517f00000000000000000000000000000000000000000000000000000000000000006001600160a01b03168152602090f35b3461016f575f36600319011261016f575f546040516001600160a01b039091168152602090f35b9181601f8401121561016f5782359167ffffffffffffffff831161016f576020808501948460051b01011161016f57565b91908251928382525f5b8481106103b6575050825f602080949584010152601f8019910116010190565b602081830181015184830182015201610396565b6020808201906020835283518092526040830192602060408460051b8301019501935f915b8483106103ff5750505050505090565b909192939495848061041d600193603f198682030187528a5161038c565b98019301930191949392906103ef565b606036600319011261016f57600467ffffffffffffffff813581811161016f5761045a903690840161035b565b9160243581811161016f57610472903690860161035b565b909160443590811161016f5761048b903690870161035b565b90916001966002600154146105be5760026001556104a833610d95565b156105af5750808614806105a6575b6104c090610919565b6104c986610957565b955f5b8181106104f0576104ec886104e060018055565b604051918291826103ca565b0390f35b61051d3061051661050a61050585878d6109b4565b6109c9565b6001600160a01b031690565b14156109d3565b61053861053161050a61050584868c6109b4565b1515610a12565b5f8061054861050584868c6109b4565b61055384878b6109b4565b3561055f85898b610a4f565b919061057060405180948193610a91565b03925af161057c610a9e565b610586838b610acd565b52156105935788016104cc565b61059d9088610acd565b51602081519101fd5b508082146104b7565b60405163ea8e4eb560e01b8152fd5b604051633ee5aeb560e01b8152fd5b3461016f575f36600319011261016f5760206105e7610aec565b6040516001600160a01b039091168152f35b90602061060a92818152019061038c565b90565b606036600319011261016f5760043561062581610173565b60443567ffffffffffffffff80821161016f573660238301121561016f57816004013590811161016f57366024828401011161016f576104ec92602461067093019060243590610b78565b604051918291826105f9565b67ffffffffffffffff81116101ba5760051b60200190565b9080601f8301121561016f5760209082356106ae8161067c565b936106bc6040519586610198565b81855260208086019260051b82010192831161016f57602001905b8282106106e5575050505090565b813581529083019083016106d7565b3461016f5760a036600319011261016f57610710600435610173565b61071b602435610173565b67ffffffffffffffff60443581811161016f5761073c903690600401610694565b5060643581811161016f57610755903690600401610694565b5060843590811161016f5761076e9036906004016101db565b5060405163bc197c8160e01b8152602090f35b3461016f57602036600319011261016f5760043561079e81610173565b6001600160a01b0390337f000000000000000000000000000000000000000000000000000000000000000083161480610854575b1561081b576107e76108079282161515610c0c565b60018060a01b03166bffffffffffffffffffffffff60a01b5f5416175f55565b5f805460ff60a01b1916600160a01b179055005b60405162461bcd60e51b815260206004820152601160248201527043616e6e6f7420696e697469616c697a6560781b6044820152606490fd5b5060ff5f5460a01c16156107d2565b3461016f575f36600319011261016f57606061087d610c58565b604080519384526001600160a01b03909216602084015290820152f35b3461016f5760a036600319011261016f576108b6600435610173565b6108c1602435610173565b60843567ffffffffffffffff811161016f576108e19036906004016101db565b5060405163f23a6e6160e01b8152602090f35b9061090691610901610aec565b610cd4565b61090e575f90565b630b135d3f60e11b90565b1561092057565b60405162461bcd60e51b815260206004820152600f60248201526e098cadccee8d040dad2e6dac2e8c6d608b1b6044820152606490fd5b906109618261067c565b61096e6040519182610198565b828152809261097f601f199161067c565b01905f5b82811061098f57505050565b806060602080938501015201610983565b634e487b7160e01b5f52603260045260245ffd5b91908110156109c45760051b0190565b6109a0565b3561060a81610173565b156109da57565b60405162461bcd60e51b815260206004820152601060248201526f21b0b73737ba1031b0b6361039b2b63360811b6044820152606490fd5b15610a1957565b60405162461bcd60e51b815260206004820152600e60248201526d125b9d985b1a59081d185c99d95d60921b6044820152606490fd5b91908110156109c45760051b81013590601e198136030182121561016f57019081359167ffffffffffffffff831161016f57602001823603811361016f579190565b908092918237015f815290565b3d15610ac8573d90610aaf826101bf565b91610abd6040519384610198565b82523d5f602084013e565b606090565b80518210156109c45760209160051b010190565b6040513d5f823e3d90fd5b610af4610c58565b90914603610b72576040516331a9108f60e11b8152600481019190915290602090829060249082906001600160a01b03165afa908115610b6d575f91610b38575090565b90506020813d602011610b65575b81610b5360209383610198565b8101031261016f575161060a81610173565b3d9150610b46565b610ae1565b50505f90565b9092600260015414610bfa576002600155610b9233610d95565b15610be8575f938493610bb46001600160a01b038516610531308214156109d3565b826040519384928337810185815203925af1610bce610a9e565b9015610be05790610bde60018055565b565b602081519101fd5b60405163ea8e4eb560e01b8152600490fd5b604051633ee5aeb560e01b8152600490fd5b15610c1357565b60405162461bcd60e51b815260206004820152601760248201527f496e76616c69642062756e646c6520636f6e74726163740000000000000000006044820152606490fd5b604051906080820182811067ffffffffffffffff8211176101ba5760405260608252602082016060604d82303c60608380518101031261016f5751906060604084015193610ca585610173565b015191926001600160a01b03169190565b60041115610cc057565b634e487b7160e01b5f52602160045260245ffd5b9091813b610d0f57610ce69192610e28565b50610cf081610cb6565b159182610cfc57505090565b6001600160a01b03918216911614919050565b5f918291604051610d5281610d446020820194630b135d3f60e11b998a8752602484015260406044840152606483019061038c565b03601f198101835282610198565b51915afa90610d5f610a9e565b82610d87575b82610d6f57505090565b90915060208180518101031261016f57602001511490565b915060208251101591610d65565b5f549060ff8260a01c16801580610df2575b610dea57610db55750505f90565b6001600160a01b039081169181168214610de357610dd1610aec565b1614610dde575f80610b72565b600190565b5050600190565b505050600190565b506001600160a01b038281167f000000000000000000000000000000000000000000000000000000000000000090911614610da7565b8151919060418303610e5857610e519250602082015190606060408401519301515f1a90610e62565b9192909190565b50505f9160029190565b91907f7fffffffffffffffffffffffffffffff5d576e7357a4501ddfe92f46681b20a08411610ed9579160209360809260ff5f9560405194855216868401526040830152606082015282805260015afa15610b6d575f516001600160a01b03811615610ecf57905f905f90565b505f906001905f90565b5050505f916003919056fea26469706673582212206ad216200f3205b69511b5ddfcb6f973eed1814cb43cb672cdef90055f20bc4f64736f6c63430008180033",
  "linkReferences": {},
  "deployedLinkReferences": {}
}