{
  "_format": "hh-sol-artifact-1",
  "contractName": "BundleNFTUnified",
  "sourceName": "contracts/BundleNFTUnified.sol",
  "abi": [
    {
      "inputs": [
        {
          "internalType": "address",
          "name": "_registry",
          "type": "address"
        },
        {
          "internalType": "address",
          "name": "_accountImplementation",
          "type": "address"
        }
      ],
      "stateMutability": "nonpayable",
      "type": "constructor"
    },
    {
      "inputs": [
        {
          "internalType": "address",
          "name": "sender",
          "type": "address"
        },
        {
          "internalType": "uint256",
          "name": "tokenId",
          "type": "uint256"
        },
        {
          "internalType": "address",
          "name": "owner",
          "type": "address"
        }
      ],
      "name": "ERC721IncorrectOwner",
      "type": "error"
    },
    {
      "inputs": [
        {
          "internalType": "address",
          "name": "operator",
          "type": "address"
        },
        {
          "internalType": "uint256",
          "name": "tokenId",
          "type": "uint256"
        }
      ],
      "name": "ERC721InsufficientApproval",
      "type": "error"
    },
    {
      "inputs": [
        {
          "internalType": "address",
          "name": "approver",
          "type": "address"
        }
      ],
      "name": "ERC721InvalidApprover",
      "type": "error"
    },
    {
      "inputs": [
        {
          "internalType": "address",
          "name": "operator",
          "type": "address"
        }
      ],
      "name": "ERC721InvalidOperator",
      "type": "error"
    },
    {
      "inputs": [
        {
          "internalType": "address",
          "name": "owner",
          "type": "address"
        }
      ],
      "name": "ERC721InvalidOwner",
      "type": "error"
    },
    {
      "inputs": [
        {
          "internalType": "address",
          "name": "receiver",
          "type": "address"
        }
      ],
      "name": "ERC721InvalidReceiver",
      "type": "error"
    },
    {
      "inputs": [
        {
          "internalType": "address",
          "name": "sender",
          "type": "address"
        }
      ],
      "name": "ERC721InvalidSender",
      "type": "error"
    },
    {
      "inputs": [
        {
          "internalType": "uint256",
          "name": "tokenId",
          "type": "uint256"
        }
      ],
      "name": "ERC721NonexistentToken",
      "type": "error"
    },
    {
      "inputs": [
        {
          "internalType": "address",
          "name": "owner",
          "type": "address"
        }
      ],
      "name": "OwnableInvalidOwner",
      "type": "error"
    },
    {
      "inputs": [
        {
          "internalType": "address",
          "name": "account",
          "type": "address"
        }
      ],
      "name": "OwnableUnauthorizedAccount",
      "type": "error"
    },
    {
      "inputs": [],
      "name": "ReentrancyGuardReentrantCall",
      "type": "error"
    },
    {
      "anonymous": false,
      "inputs": [
        {
          "indexed": true,
          "internalType": "address",
          "name": "owner",
          "type": "address"
        },
        {
          "indexed": true,
          "internalType": "address",
          "name": "approved",
          "type": "address"
        },
        {
          "indexed": true,
          "internalType": "uint256",
          "name": "tokenId",
          "type": "uint256"
        }
      ],
      "name": "Approval",
      "type": "event"
    },
    {
      "anonymous": false,
      "inputs": [
        {
          "indexed": true,
          "internalType": "address",
          "name": "owner",
          "type": "address"
        },
        {
          "indexed": true,
          "internalType": "address",
          "name": "operator",
          "type": "address"
        },
        {
          "indexed": false,
          "internalType": "bool",
          "name": "approved",
          "type": "bool"
        }
      ],
      "name": "ApprovalForAll",
      "type": "event"
    },
    {
      "anonymous": false,
      "inputs": [
        {
          "indexed": false,
          "internalType": "uint256",
          "name": "_fromTokenId",
          "type": "uint256"
        },
        {
          "indexed": false,
          "internalType": "uint256",
          "name": "_toTokenId",
          "type": "uint256"
        }
      ],
      "name": "BatchMetadataUpdate",
      "type": "event"
    },
    {
      "anonymous": false,
      "inputs": [
        {
          "indexed": true,
          "internalType": "uint256",
          "name": "bundleId",
          "type": "uint256"
        },
        {
          "indexed": true,
          "internalType": "address",
          "name": "creator",
          "type": "address"
        },
        {
          "indexed": false,
          "internalType": "address",
          "name": "accountAddress",
          "type": "address"
        },
        {
          "indexed": false,
          "internalType": "address[]",
          "name": "nftContracts",
          "type": "address[]"
        },
        {
          "indexed": false,
          "internalType": "uint256[]",
          "name": "tokenIds",
          "type": "uint256[]"
        }
      ],
      "name": "BundleCreated",
      "type": "event"
    },
    {
      "anonymous": false,
      "inputs": [
        {
          "indexed": true,
          "internalType": "uint256",
          "name": "bundleId",
          "type": "uint256"
        },
        {
          "indexed": true,
          "internalType": "address",
          "name": "owner",
          "type": "address"
        },
        {
          "indexed": false,
          "internalType": "address[]",
          "name": "nftContracts",
          "type": "address[]"
        },
        {
          "indexed": false,
          "internalType": "uint256[]",
          "name": "tokenIds",
          "type": "uint256[]"
        }
      ],
      "name": "BundleUnwrapped",
      "type": "event"
    },
    {
      "anonymous": false,
      "inputs": [
        {
          "indexed": false,
          "internalType": "uint256",
          "name": "_tokenId",
          "type": "uint256"
        }
      ],
      "name": "MetadataUpdate",
      "type": "event"
    },
    {
      "anonymous": false,
      "inputs": [
        {
          "indexed": true,
          "internalType": "uint256",
          "name": "bundleId",
          "type": "uint256"
        },
        {
          "indexed": true,
          "internalType": "address",
          "name": "nftContract",
          "type": "address"
        },
        {
          "indexed": true,
          "internalType": "uint256",
          "name": "tokenId",
          "type": "uint256"
        }
      ],
      "name": "NFTDeposited",
      "type": "event"
    },
    {
      "anonymous": false,
      "inputs": [
        {
          "indexed": true,
          "internalType": "address",
          "name": "previousOwner",
          "type": "address"
        },
        {
          "indexed": true,
          "internalType": "address",
          "name": "newOwner",
          "type": "address"
        }
      ],
      "name": "OwnershipTransferred",
      "type": "event"
    },
    {
      "anonymous": false,
      "inputs": [
        {
          "indexed": true,
          "internalType": "address",
          "name": "from",
          "type": "address"
        },
        {
          "indexed": true,
          "internalType": "address",
          "name": "to",
          "type": "address"
        },
        {
          "indexed": true,
          "internalType": "uint256",
          "name": "tokenId",
          "type": "uint256"
        }
      ],
      "name": "Transfer",
      "type": "event"
    },
    {
      "inputs": [],
      "name": "ACCOUNT_SALT",
      "outputs": [
        {
          "internalType": "bytes32",
          "name": "",
          "type": "bytes32"
        }
      ],
      "stateMutability": "view",
      "type": "function"
    },
    {
      "inputs": [],
      "name": "accountImplementation",
      "outputs": [
        {
          "internalType": "address",
          "name": "",
          "type": "address"
        }
      ],
      "stateMutability": "view",
      "type": "function"
    },
    {
      "inputs": [
        {
          "internalType": "address",
          "name": "to",
          "type": "address"
        },
        {
          "internalType": "uint256",
          "name": "tokenId",
          "type": "uint256"
        }
      ],
      "name": "approve",
      "outputs": [],
      "stateMutability": "nonpayable",
      "type": "function"
    },
    {
      "inputs": [
        {
          "internalType": "address",
          "name": "owner",
          "type": "address"
        }
      ],
      "name": "balanceOf",
      "outputs": [
        {
          "internalType": "uint256",
          "name": "",
          "type": "uint256"
        }
      ],
      "stateMutability": "view",
      "type": "function"
    },
    {
      "inputs": [
        {
          "internalType": "uint256",
          "name": "bundleId",
          "type": "uint256"
        }
      ],
      "name": "bundleAccountExists",
      "outputs": [
        {
          "internalType": "bool",
          "name": "",
          "type": "bool"
        }
      ],
      "stateMutability": "view",
      "type": "function"
    },
    {
      "inputs": [
        {
          "internalType": "uint256",
          "name": "tokenId",
          "type": "uint256"
        }
      ],
      "name": "bundleExists",
      "outputs": [
        {
          "internalType": "bool",
          "name": "",
          "type": "bool"
        }
      ],
      "stateMutability": "view",
      "type": "function"
    },
    {
      "inputs": [
        {
          "internalType": "uint256",
          "name": "",
          "type": "uint256"
        }
      ],
      "name": "bundles",
      "outputs": [
        {
          "internalType": "string",
          "name": "name",
          "type": "string"
        },
        {
          "internalType": "uint256",
          "name": "itemCount",
          "type": "uint256"
        },
        {
          "internalType": "uint256",
          "name": "createdAt",
          "type": "uint256"
        },
        {
          "internalType": "address",
          "name": "creator",
          "type": "address"
        },
        {
          "internalType": "bool",
          "name": "exists",
          "type": "bool"
        }
      ],
      "stateMutability": "view",
      "type": "function"
    },
    {
      "inputs": [
        {
          "internalType": "address[]",
          "name": "nftContracts",
          "type": "address[]"
        },
        {
          "internalType": "uint256[]",
          "name": "tokenIds",
          "type": "uint256[]"
        },
        {
          "internalType": "string",
          "name": "bundleName",
          "type": "string"
        },
        {
          "internalType": "string",
          "name": "bundleTokenURI",
          "type": "string"
        }
      ],
      "name": "createBundle",
      "outputs": [
        {
          "internalType": "uint256",
          "name": "bundleId",
          "type": "uint256"
        },
        {
          "internalType": "address",
          "name": "accountAddress",
          "type": "address"
        }
      ],
      "stateMutability": "nonpayable",
      "type": "function"
    },
    {
      "inputs": [
        {
          "internalType": "uint256",
          "name": "tokenId",
          "type": "uint256"
        }
      ],
      "name": "getApproved",
      "outputs": [
        {
          "internalType": "address",
          "name": "",
          "type": "address"
        }
      ],
      "stateMutability": "view",
      "type": "function"
    },
    {
      "inputs": [
        {
          "internalType": "uint256",
          "name": "bundleId",
          "type": "uint256"
        }
      ],
      "name": "getBundleAccount",
      "outputs": [
        {
          "internalType": "address",
          "name": "",
          "type": "address"
        }
      ],
      "stateMutability": "view",
      "type": "function"
    },
    {
      "inputs": [
        {
          "internalType": "uint256",
          "name": "tokenId",
          "type": "uint256"
        }
      ],
      "name": "getBundleMetadata",
      "outputs": [
        {
          "components": [
            {
              "internalType": "string",
              "name": "name",
              "type": "string"
            },
            {
              "internalType": "uint256",
              "name": "itemCount",
              "type": "uint256"
            },
            {
              "internalType": "uint256",
              "name": "createdAt",
              "type": "uint256"
            },
            {
              "internalType": "address",
              "name": "creator",
              "type": "address"
            },
            {
              "internalType": "bool",
              "name": "exists",
              "type": "bool"
            }
          ],
          "internalType": "struct BundleNFTUnified.BundleMetadata",
          "name": "",
          "type": "tuple"
        }
      ],
      "stateMutability": "view",
      "type": "function"
    },
    {
      "inputs": [
        {
          "internalType": "address",
          "name": "owner",
          "type": "address"
        },
        {
          "internalType": "address",
          "name": "operator",
          "type": "address"
        }
      ],
      "name": "isApprovedForAll",
      "outputs": [
        {
          "internalType": "bool",
          "name": "",
          "type": "bool"
        }
      ],
      "stateMutability": "view",
      "type": "function"
    },
    {
      "inputs": [],
      "name": "name",
      "outputs": [
        {
          "internalType": "string",
          "name": "",
          "type": "string"
        }
      ],
      "stateMutability": "view",
      "type": "function"
    },
    {
      "inputs": [
        {
          "internalType": "address",
          "name": "",
          "type": "address"
        },
        {
          "internalType": "address",
          "name": "",
          "type": "address"
        },
        {
          "internalType": "uint256",
          "name": "",
          "type": "uint256"
        },
        {
          "internalType": "bytes",
          "name": "",
          "type": "bytes"
        }
      ],
      "name": "onERC721Received",
      "outputs": [
        {
          "internalType": "bytes4",
          "name": "",
          "type": "bytes4"
        }
      ],
      "stateMutability": "pure",
      "type": "function"
    },
    {
      "inputs": [],
      "name": "owner",
      "outputs": [
        {
          "internalType": "address",
          "name": "",
          "type": "address"
        }
      ],
      "stateMutability": "view",
      "type": "function"
    },
    {
      "inputs": [
        {
          "internalType": "uint256",
          "name": "tokenId",
          "type": "uint256"
        }
      ],
      "name": "ownerOf",
      "outputs": [
        {
          "internalType": "address",
          "name": "",
          "type": "address"
        }
      ],
      "stateMutability": "view",
      "type": "function"
    },
    {
      "inputs": [],
      "name": "registry",
      "outputs": [
        {
          "internalType": "contract IERC6551Registry",
          "name": "",
          "type": "address"
        }
      ],
      "stateMutability": "view",
      "type": "function"
    },
    {
      "inputs": [],
      "name": "renounceOwnership",
      "outputs": [],
      "stateMutability": "nonpayable",
      "type": "function"
    },
    {
      "inputs": [
        {
          "internalType": "address",
          "name": "from",
          "type": "address"
        },
        {
          "internalType": "address",
          "name": "to",
          "type": "address"
        },
        {
          "internalType": "uint256",
          "name": "tokenId",
          "type": "uint256"
        }
      ],
      "name": "safeTransferFrom",
      "outputs": [],
      "stateMutability": "nonpayable",
      "type": "function"
    },
    {
      "inputs": [
        {
          "internalType": "address",
          "name": "from",
          "type": "address"
        },
        {
          "internalType": "address",
          "name": "to",
          "type": "address"
        },
        {
          "internalType": "uint256",
          "name": "tokenId",
          "type": "uint256"
        },
        {
          "internalType": "bytes",
          "name": "data",
          "type": "bytes"
        }
      ],
      "name": "safeTransferFrom",
      "outputs": [],
      "stateMutability": "nonpayable",
      "type": "function"
    },
    {
      "inputs": [
        {
          "internalType": "address",
          "name": "operator",
          "type": "address"
        },
        {
          "internalType": "bool",
          "name": "approved",
          "type": "bool"
        }
      ],
      "name": "setApprovalForAll",
      "outputs": [],
      "stateMutability": "nonpayable",
      "type": "function"
    },
    {
      "inputs": [
        {
          "internalType": "bytes4",
          "name": "interfaceId",
          "type": "bytes4"
        }
      ],
      "name": "supportsInterface",
      "outputs": [
        {
          "internalType": "bool",
          "name": "",
          "type": "bool"
        }
      ],
      "stateMutability": "view",
      "type": "function"
    },
    {
      "inputs": [],
      "name": "symbol",
      "outputs": [
        {
          "internalType": "string",
          "name": "",
          "type": "string"
        }
      ],
      "stateMutability": "view",
      "type": "function"
    },
    {
      "inputs": [
        {
          "internalType": "uint256",
          "name": "tokenId",
          "type": "uint256"
        }
      ],
      "name": "tokenURI",
      "outputs": [
        {
          "internalType": "string",
          "name": "",
          "type": "string"
        }
      ],
      "stateMutability": "view",
      "type": "function"
    },
    {
      "inputs": [],
      "name": "totalBundles",
      "outputs": [
        {
          "internalType": "uint256",
          "name": "",
          "type": "uint256"
        }
      ],
      "stateMutability": "view",
      "type": "function"
    },
    {
      "inputs": [
        {
          "internalType": "address",
          "name": "from",
          "type": "address"
        },
        {
          "internalType": "address",
          "name": "to",
          "type": "address"
        },
        {
          "internalType": "uint256",
          "name": "tokenId",
          "type": "uint256"
        }
      ],
      "name": "transferFrom",
      "outputs": [],
      "stateMutability": "nonpayable",
      "type": "function"
    },
    {
      "inputs": [
        {
          "internalType": "address",
          "name": "newOwner",
          "type": "address"
        }
      ],
      "name": "transferOwnership",
      "outputs": [],
      "stateMutability": "nonpayable",
      "type": "function"
    },
    {
      "inputs": [
        {
          "internalType": "uint256",
          "name": "bundleId",
          "type": "uint256"
        },
        {
          "internalType": "address[]",
          "name": "nftContracts",
          "type": "address[]"
        },
        {
          "internalType": "uint256[]",
          "name": "tokenIds",
          "type": "uint256[]"
        }
      ],
      "name": "unwrapBundle",
      "outputs": [],
      "stateMutability": "nonpayable",
      "type": "function"
    },
    {
      "inputs": [
        {
          "internalType": "uint256",
          "name": "bundleId",
          "type": "uint256"
        },
        {
          "internalType": "address[]",
          "name": "nftContracts",
          "type": "address[]"
        },
        {
          "internalType": "uint256[]",
          "name": "tokenIds",
          "type": "uint256[]"
        },
        {
          "internalType": "address",
          "name": "recipient",
          "type": "address"
        }
      ],
      "name": "withdrawFromBundle",
      "outputs": [],
      "stateMutability": "nonpayable",
      "type": "function"
    }
  ],
  "bytecode": "0x60c0346200045d576200278790601f1990601f906001600160401b03388590038381018516830190828211848310176200037f57808491604098899485528339810103126200045d57620000538262000481565b9062000063602080940162000481565b946200006e62000461565b94601586527f466f7274756e61205371756172652042756e646c65000000000000000000000085870152620000a262000461565b60038152622329a160e91b8682015286518481116200037f575f546001988982811c9216801562000452575b8983101462000360578185849311620003ff575b5088908583116001146200039f575f9262000393575b50505f19600383901b1c191690881b175f555b80519384116200037f578654928784811c9416801562000374575b878510146200036057838386951162000309575b5086928411600114620002a857505f926200029c575b50505f19600383901b1c191690841b1783555b3315620002855760078054336001600160a01b0319821681179092558651946001600160a01b03938493909284167f8be0079c531659141344cd1fd0a4f28419497f9722a3daafe3b4186f6b6457e05f80a3600855169283156200025057508316156200020d575060805260a052516122f09081620004978239608051818181610b6e01528181610f2b0152611dfa015260a051818181610ede015281816116f30152611daf0152f35b60649084519062461bcd60e51b82526004820152601660248201527f496e76616c696420696d706c656d656e746174696f6e000000000000000000006044820152fd5b62461bcd60e51b815260048101839052601060248201526f496e76616c696420726567697374727960801b6044820152606490fd5b8451631e4fbdf760e01b81525f6004820152602490fd5b015190505f8062000150565b87949291921691845f52865f20925f5b88828210620002f25750508411620002d9575b505050811b01835562000163565b01515f1960f88460031b161c191690555f8080620002cb565b8385015186558a97909501949384019301620002b8565b9091929350875f52865f208480870160051c82019289881062000356575b9187968b92969594930160051c01915b828110620003475750506200013a565b5f81558796508a910162000337565b9250819262000327565b634e487b7160e01b5f52602260045260245ffd5b93607f169362000126565b634e487b7160e01b5f52604160045260245ffd5b015190505f80620000f8565b90868b9416915f80528a5f20925f5b8c828210620003e85750508411620003cf575b505050811b015f556200010b565b01515f1960f88460031b161c191690555f8080620003c1565b8385015186558e97909501949384019301620003ae565b9091505f8052885f208580850160051c8201928b861062000448575b918c91869594930160051c01915b82811062000439575050620000e2565b5f81558594508c910162000429565b925081926200041b565b91607f1691620000ce565b5f80fd5b60408051919082016001600160401b038111838210176200037f57604052565b51906001600160a01b03821682036200045d5756fe6080806040526004361015610012575f80fd5b5f3560e01c90816301ffc9a7146118e65750806306fdde031461183f578063081812fc14611803578063095ea7b31461172257806311464fbe146116de578063150b7a021461168857806323b872dd1461167157806332a5e3d51461163c57806342842e0e1461160f5780634ff89431146115f157806356352ecb146115c85780636352211e1461159857806363d2db5f1461157b578063701d428a14610c4e57806370a0823114610bf8578063715018a614610b9d5780637b10399914610b5957806382c06a91146108305780638da5cb5b1461080857806395d89b411461072a5780639e7840971461052c578063a22cb4651461048b578063a4b4749014610397578063b88d4fde1461032a578063c87b56dd146102d0578063cf19384b14610252578063d271631214610238578063e985e9c5146101e65763f2fde38b1461015b575f80fd5b346101e25760203660031901126101e2576101746119b1565b61017c612144565b6001600160a01b039081169081156101ca57600754826001600160601b0360a01b821617600755167f8be0079c531659141344cd1fd0a4f28419497f9722a3daafe3b4186f6b6457e05f80a3005b604051631e4fbdf760e01b81525f6004820152602490fd5b5f80fd5b346101e25760403660031901126101e2576101ff6119b1565b6102076119c7565b9060018060a01b038091165f52600560205260405f2091165f52602052602060ff60405f2054166040519015158152f35b346101e2575f3660031901126101e25760206040515f8152f35b346101e25760203660031901126101e2576004355f52600a6020526102a560405f2061027d81611b4f565b9060ff600182015491600360028201549101549060405195869560a0875260a087019061198c565b602086019490945260408501526001600160a01b038116606085015260a01c16151560808301520390f35b346101e25760203660031901126101e2576004356102ed8161202e565b505f52600660205261032661030460405f20611b4f565b5f60405161031181611a8a565b5260405191829160208352602083019061198c565b0390f35b346101e25760803660031901126101e2576103436119b1565b61034b6119c7565b90604435606435926001600160401b0384116101e257366023850112156101e257610383610395943690602481600401359101611ae1565b9261038f838383611bf1565b33612170565b005b346101e2576020806003193601126101e25760a0906004355f60806040516103be81611a6f565b6060815282858201528260408201528260608201520152805f52600a82526103f160ff600360405f200154851c16611f4d565b5f52600a815260405f206040519161040883611a6f565b61041182611b4f565b8352600182015491818401928352600360028201549160408601928352015491600180871b039161046b6060870192848616845260ff60808901968a1c1615158652604051988998828a52519189015260c088019061198c565b945160408701525160608601525116608084015251151560a08301520390f35b346101e25760403660031901126101e2576104a46119b1565b602435908115158092036101e2576001600160a01b031690811561051357335f52600560205260405f20825f5260205260405f2060ff1981541660ff83161790556040519081527f17307eab39ab6107e8899845ad3d59bd9653f200f220920489ca2b5937696c3160203392a3005b604051630b61174360e31b815260048101839052602490fd5b346101e25760803660031901126101e25760246004356001600160401b0382358181116101e257610561903690600401611a3f565b93906044926044359081116101e25761057e903690600401611a3f565b909390916001600160a01b039190606490813584811681036101e2576105a2612121565b885f52602090600a6020526105c360ff600360405f20015460a01c16611f4d565b6105d86105cf8b61202e565b87163314611f91565b6105e3878c14611e51565b6105ec8a611d98565b90868216978c5f5b81811061063357508c5f52600a602052600160405f2001805491820391821161061f57556001600855005b634e487b7160e01b5f52601160045260245ffd5b5f8c8c8f838d8f92858f8f8f8f8f8f9e899f948f926106b8956106a06106b3966106ae93610668886106e19f9c60609d611eab565b35916040519d8e95632142170760e11b90870152850160409194939294606082019560018060a01b0380921683521660208201520152565b03601f1981018a5289611aa5565b611eab565b611ecf565b946040519c8d9a8b998a98639e5d4c4960e01b8a5216600489015287015285015283019061198c565b03925af191821561071f576001926106fd575b50018d906105f4565b610718903d805f833e6107108183611aa5565b810190611fd0565b508f6106f4565b6040513d5f823e3d90fd5b346101e2575f3660031901126101e2576040515f6001826001549261074e84611b17565b92838352602094856001821691825f146107e857505060011461078d575b5061077992500383611aa5565b61032660405192828493845283019061198c565b84915060015f527fb10e2d527612073b26eecdfd717e6a320cf44b4afac2b0732d9fcbe2b7fa0cf6905f915b8583106107d057505061077993508201018561076c565b805483890185015287945086939092019181016107b9565b60ff19168582015261077995151560051b850101925087915061076c9050565b346101e2575f3660031901126101e2576007546040516001600160a01b039091168152602090f35b346101e25760603660031901126101e2576001600160401b036024358181116101e257610861903690600401611a3f565b90916044359081116101e25761087b903690600401611a3f565b929091610886612121565b6004355f52600a6020526108a660ff600360405f20015460a01c16611f4d565b6108b160043561202e565b6108c5336001600160a01b03831614611f91565b6108d0858314611e51565b6108db600435611d98565b5f5b838110610a75575050906109417f69c0defef766b7fbea321d27b255c16379ea894a821a9f53da260ad79eca9f649392610924604051948594604086526040860191611ee3565b83810360208501526001600160a01b039091169660043596611f29565b0390a36004355f52600a6020525f60036040822061095f8154611b17565b80610a38575b5082600182015582600282015501556004355f52600260205260018060a01b0360405f20541680159081156109fd575b6004355f81815260026020526040812080546001600160a01b031916905590917fddf252ad1be2c89b69c2b068fc378daa952ba7f163c4a11628f55a4df523b3ef8280a46109e4576001600855005b6024604051637e27328960e01b81526004356004820152fd5b610a206004355f52600460205260405f206001600160601b0360a01b8154169055565b805f52600360205260405f205f198154019055610995565b601f8111600114610a4e57508281555b83610965565b8390828252610a6c601f60208420920160051c820160018301611e95565b81835555610a48565b805f610ac3610ad1610a8b610b1a958c8c611eab565b604051632142170760e11b60208201526001600160a01b03808916602483015289166044820152903560648201529182906084820190565b03601f198101835282611aa5565b610adf6106b384898b611eab565b604051639e5d4c4960e01b81526001600160a01b0390911660048201526024810183905260606044820152938491829190606483019061198c565b0381836001600160a01b0388165af191821561071f57600192610b3f575b50016108dd565b610b52903d805f833e6107108183611aa5565b5088610b38565b346101e2575f3660031901126101e2576040517f00000000000000000000000000000000000000000000000000000000000000006001600160a01b03168152602090f35b346101e2575f3660031901126101e257610bb5612144565b600780546001600160a01b031981169091555f906001600160a01b03167f8be0079c531659141344cd1fd0a4f28419497f9722a3daafe3b4186f6b6457e08280a3005b346101e25760203660031901126101e2576001600160a01b03610c196119b1565b168015610c36575f526003602052602060405f2054604051908152f35b6040516322718ad960e21b81525f6004820152602490fd5b346101e25760803660031901126101e2576004356001600160401b0381116101e257610c7e903690600401611a3f565b906024356001600160401b0381116101e257610c9e903690600401611a3f565b916044356001600160401b0381116101e257610cbe9036906004016119dd565b6064949194356001600160401b0381116101e257610ce09036906004016119dd565b610ceb969196612121565b871561153657610cfc848914611e51565b603288116114f85782156114bc576009549660018801600955604051610d2181611a8a565b5f81523015611058576001600160a01b03610d3c8a30612068565b166114a457303b611387575b50610d54913691611ae1565b865f52600660205260405f20908051906001600160401b03821161119a57610d7c8354611b17565b601f8111611357575b50602090601f83116001146112ec579180610dbb92610dfc9695945f926112e1575b50508160011b915f199060031b1c19161790565b90555b7ff8e1a15aba9398e019f0b49df1a4fde98ee17ae345cb5f6b5e2c27f5033e8ce76020604051898152a160405192610df584611a6f565b3691611ae1565b815285602082015242604082015233606082015260016080820152845f52600a60205260405f2081518051906001600160401b03821161119a57610e408354611b17565b601f81116112a6575b50602090601f831160011461123e579180610e7c92600395945f926112335750508160011b915f199060031b1c19161790565b81555b6020838101516001830155604080850151600284015560608501519390920180546080909501516001600160a81b03199095166001600160a01b039485161794151560a01b60ff60a01b169490941790935551638a54c52f60e01b81527f000000000000000000000000000000000000000000000000000000000000000090911660048201525f6024820152466044820152306064820152608481018690529190828060a4810103815f7f00000000000000000000000000000000000000000000000000000000000000006001600160a01b03165af191821561071f575f92611212575b50908492915f5b878110611070575090610fcf7ff16aafee70b4d9381e40d72a7c7b5610059947985f22051d5a77283db6ebe4749392610fbf60405194859460018060a01b03169a8b8652606060208701526060860191611ee3565b9083820360408501523397611f29565b0390a3331561105857610fe28133612068565b916001600160a01b0383168061100b57604051637e27328960e01b815260048101849052602490fd5b30036110265760409250600160085582519182526020820152f35b506040516364283d7b60e01b815230600482015260248101919091526001600160a01b03919091166044820152606490fd5b604051633250574960e11b81525f6004820152602490fd5b92935090916001600160a01b0361108b6106b3838a88611eab565b1690611098818488611eab565b6040516331a9108f60e11b815290356004820152602081602481865afa90811561071f575f916111e3575b50336001600160a01b03909116036111ae576110e0818488611eab565b3591803b156101e257604051632142170760e11b81523360048201526001600160a01b038616602482015260448101939093525f908390606490829084905af1801561071f57611181575b6001915061113d6106b3828a88611eab565b611148828589611eab565b3590838060a01b0316887f781e1d43e33afdcbec217b692c5247a3d57fced3f967e711cb5d56b2b37dc6c35f80a4019085939291610f6a565b6001600160401b03821161119a5760019160405261112b565b634e487b7160e01b5f52604160045260245ffd5b60405162461bcd60e51b815260206004820152600d60248201526c2737ba1027232a1037bbb732b960991b6044820152606490fd5b611205915060203d60201161120b575b6111fd8183611aa5565b810190611d79565b896110c3565b503d6111f3565b61122c91925060203d60201161120b576111fd8183611aa5565b9086610f63565b015190508b80610da7565b90835f5260205f20915f5b601f198516811061128e575091839160019360039695601f19811610611277575b505050811b018155610e7f565b01515f1983871b60f8161c191690558a808061126a565b91926020600181928685015181550194019201611249565b6112d190845f5260205f20601f850160051c810191602086106112d7575b601f0160051c0190611e95565b89610e49565b90915081906112c4565b015190508c80610da7565b90835f5260205f20915f5b601f198516811061133f5750918391600193610dfc979695601f19811610611327575b505050811b019055610dbe565b01515f1960f88460031b161c191690558b808061131a565b919260206001819286850151815501940192016112f7565b61138190845f5260205f20601f850160051c810191602086106112d757601f0160051c0190611e95565b8a610d85565b60206113c19160405180938192630a85bd0160e11b83523360048401525f60248401528d604484015260806064840152608483019061198c565b03815f305af15f918161145f575b50611428573d15611421573d6113e481611ac6565b906113f26040519283611aa5565b81523d5f602083013e5b8051908161141c57604051633250574960e11b8152306004820152602490fd5b602001fd5b60606113fc565b6001600160e01b03191663757a42ff60e11b0161144757610d54610d48565b604051633250574960e11b8152306004820152602490fd5b9091506020813d60201161149c575b8161147b60209383611aa5565b810103126101e257516001600160e01b0319811681036101e257908b6113cf565b3d915061146e565b6040516339e3563760e11b81525f6004820152602490fd5b60405162461bcd60e51b8152602060048201526014602482015273109d5b991b19481b985b59481c995c5d5a5c995960621b6044820152606490fd5b60405162461bcd60e51b8152602060048201526016602482015275546f6f206d616e79204e46547320286d61782035302960501b6044820152606490fd5b60405162461bcd60e51b815260206004820152601a60248201527f4d7573742062756e646c65206174206c656173742031204e46540000000000006044820152606490fd5b346101e2575f3660031901126101e2576020600954604051908152f35b346101e25760203660031901126101e25760206115b660043561202e565b6040516001600160a01b039091168152f35b346101e25760203660031901126101e25760206115e6600435611d98565b3b1515604051908152f35b346101e25760203660031901126101e25760206115b6600435611d98565b346101e25761039561162036611a0a565b906040519261162e84611a8a565b5f845261038f838383611bf1565b346101e25760203660031901126101e2576004355f52600a602052602060ff600360405f20015460a01c166040519015158152f35b346101e25761039561168236611a0a565b91611bf1565b346101e25760803660031901126101e2576116a16119b1565b506116aa6119c7565b506064356001600160401b0381116101e2576116ca9036906004016119dd565b5050604051630a85bd0160e11b8152602090f35b346101e2575f3660031901126101e2576040517f00000000000000000000000000000000000000000000000000000000000000006001600160a01b03168152602090f35b346101e25760403660031901126101e25761173b6119b1565b6024356117478161202e565b331515806117f0575b806117c7575b6117af576001600160a01b039283169282918491167f8c5be1e5ebec7d5bd14f71427d1e84f3dd0314c0f7b2291e5b200ac8c7c3b9255f80a45f90815260046020526040902080546001600160a01b0319169091179055005b60405163a9fbf51f60e01b8152336004820152602490fd5b5060018060a01b0381165f52600560205260405f20335f5260205260ff60405f20541615611756565b506001600160a01b038116331415611750565b346101e25760203660031901126101e2576004356118208161202e565b505f526004602052602060018060a01b0360405f205416604051908152f35b346101e2575f3660031901126101e2576040515f8054908261186083611b17565b91828252602093600190856001821691825f146107e857505060011461188d575061077992500383611aa5565b5f808052859250907f290decd9548b62a8d60345a988386fc84ba6bc95484008f6362f93160ef3e5635b8583106118ce57505061077993508201018561076c565b805483890185015287945086939092019181016118b7565b346101e25760203660031901126101e2576004359063ffffffff60e01b82168092036101e257602091632483248360e11b8114908115611928575b5015158152f35b6380ac58cd60e01b81149150811561195a575b8115611949575b5083611921565b6301ffc9a760e01b14905083611942565b635b5e139f60e01b8114915061193b565b5f5b83811061197c5750505f910152565b818101518382015260200161196d565b906020916119a58151809281855285808601910161196b565b601f01601f1916010190565b600435906001600160a01b03821682036101e257565b602435906001600160a01b03821682036101e257565b9181601f840112156101e2578235916001600160401b0383116101e257602083818601950101116101e257565b60609060031901126101e2576001600160a01b039060043582811681036101e2579160243590811681036101e2579060443590565b9181601f840112156101e2578235916001600160401b0383116101e2576020808501948460051b0101116101e257565b60a081019081106001600160401b0382111761119a57604052565b602081019081106001600160401b0382111761119a57604052565b90601f801991011681019081106001600160401b0382111761119a57604052565b6001600160401b03811161119a57601f01601f191660200190565b929192611aed82611ac6565b91611afb6040519384611aa5565b8294818452818301116101e2578281602093845f960137010152565b90600182811c92168015611b45575b6020831014611b3157565b634e487b7160e01b5f52602260045260245ffd5b91607f1691611b26565b9060405191825f8254611b6181611b17565b908184526020946001916001811690815f14611bcf5750600114611b91575b505050611b8f92500383611aa5565b565b5f90815285812095935091905b818310611bb7575050611b8f93508201015f8080611b80565b85548884018501529485019487945091830191611b9e565b92505050611b8f94925060ff191682840152151560051b8201015f8080611b80565b906001600160a01b03908116801561105857835f52602091600283528460409282845f2054169433151580611ce7575b5060029086611cb6575b825f5260038152855f2060018154019055835f5252835f20816001600160601b0360a01b825416179055847fddf252ad1be2c89b69c2b068fc378daa952ba7f163c4a11628f55a4df523b3ef5f80a483168203611c885750505050565b516364283d7b60e01b81526001600160a01b0392831660048201526024810193909352166044820152606490fd5b5f84815260046020526040812080546001600160a01b03191690558781526003825286902080545f19019055611c2b565b9192509080611d38575b15611cff579086915f611c21565b838786611d1c576024915190637e27328960e01b82526004820152fd5b604491519063177e802f60e01b82523360048301526024820152fd5b503385148015611d5d575b80611cf15750865f52600481523383855f20541614611cf1565b50845f5260058152835f20335f52815260ff845f205416611d43565b908160209103126101e257516001600160a01b03811681036101e25790565b60405163246a002160e01b81526001600160a01b037f00000000000000000000000000000000000000000000000000000000000000001660048201525f602482015246604482015230606482015260848101919091526020818060a4810103817f00000000000000000000000000000000000000000000000000000000000000006001600160a01b03165afa90811561071f575f91611e35575090565b611e4e915060203d60201161120b576111fd8183611aa5565b90565b15611e5857565b60405162461bcd60e51b8152602060048201526015602482015274082e4e4c2f240d8cadccee8d040dad2e6dac2e8c6d605b1b6044820152606490fd5b818110611ea0575050565b5f8155600101611e95565b9190811015611ebb5760051b0190565b634e487b7160e01b5f52603260045260245ffd5b356001600160a01b03811681036101e25790565b9190808252602080920192915f5b828110611eff575050505090565b9091929384359060018060a01b0382168092036101e2579081528201938201929190600101611ef1565b81835290916001600160fb1b0383116101e25760209260051b809284830137010190565b15611f5457565b60405162461bcd60e51b8152602060048201526015602482015274109d5b991b1948191bd95cc81b9bdd08195e1a5cdd605a1b6044820152606490fd5b15611f9857565b60405162461bcd60e51b815260206004820152601060248201526f2737ba10313ab73236329037bbb732b960811b6044820152606490fd5b6020818303126101e2578051906001600160401b0382116101e2570181601f820112156101e257805161200281611ac6565b926120106040519485611aa5565b818452602082840101116101e257611e4e916020808501910161196b565b5f818152600260205260409020546001600160a01b0316908115612050575090565b60249060405190637e27328960e01b82526004820152fd5b5f828152600260205260409020546001600160a01b039081169291836120ee575b16806120d6575b815f52600260205260405f20816001600160601b0360a01b825416179055827fddf252ad1be2c89b69c2b068fc378daa952ba7f163c4a11628f55a4df523b3ef5f80a490565b805f52600360205260405f2060018154019055612090565b5f83815260046020526040902080546001600160a01b0319169055835f52600360205260405f205f198154019055612089565b600260085414612132576002600855565b604051633ee5aeb560e01b8152600490fd5b6007546001600160a01b0316330361215857565b60405163118cdaa760e01b8152336004820152602490fd5b9293909193843b612183575b5050505050565b604051630a85bd0160e11b8082526001600160a01b0395861660048301529385166024820152604481019190915260806064820152602095949093169392908590829081906121d690608483019061198c565b03815f885af15f918161227a575b50612243575050503d5f1461223b573d916121fe83611ac6565b9261220c6040519485611aa5565b83523d5f8285013e5b8251928361223657604051633250574960e11b815260048101849052602490fd5b019050fd5b606091612215565b9193506001600160e01b03199091160361226257505f8080808061217c565b60249060405190633250574960e11b82526004820152fd5b9091508581813d83116122b3575b6122928183611aa5565b810103126101e257516001600160e01b0319811681036101e257905f6121e4565b503d61228856fea26469706673582212204632cdb20e7fe7a9459e0241abdc2f1f0951fc89c18b3c36a4567a6961a7f59064736f6c63430008180033",
  "linkReferences": {},
  "deployedLinkReferences": {}
}