{
  "_format": "hh-sol-artifact-1",
  "contractName": "TestERC721",
  "sourceName": "contracts/TestERC721.sol",
  "abi": [
    {
      "inputs": [],
      "stateMutability": "nonpayable",
      "type": "constructor"
    },
    {
      "inputs": [
        {
          "internalType": "address",
          "name": "sender",
          "type": "address"
        },
        {
          "internalType": "uint256",
          "name": "tokenId",
          "type": "uint256"
        },
        {
          "internalType": "address",
          "name": "owner",
          "type": "address"
        }
      ],
      "name": "ERC721IncorrectOwner",
      "type": "error"
    },
    {
      "inputs": [
        {
          "internalType": "address",
          "name": "operator",
          "type": "address"
        },
        {
          "internalType": "uint256",
          "name": "tokenId",
          "type": "uint256"
        }
      ],
      "name": "ERC721InsufficientApproval",
      "type": "error"
    },
    {
      "inputs": [
        {
          "internalType": "address",
          "name": "approver",
          "type": "address"
        }
      ],
      "name": "ERC721InvalidApprover",
      "type": "error"
    },
    {
      "inputs": [
        {
          "internalType": "address",
          "name": "operator",
          "type": "address"
        }
      ],
      "name": "ERC721InvalidOperator",
      "type": "error"
    },
    {
      "inputs": [
        {
          "internalType": "address",
          "name": "owner",
          "type": "address"
        }
      ],
      "name": "ERC721InvalidOwner",
      "type": "error"
    },
    {
      "inputs": [
        {
          "internalType": "address",
          "name": "receiver",
          "type": "address"
        }
      ],
      "name": "ERC721InvalidReceiver",
      "type": "error"
    },
    {
      "inputs": [
        {
          "internalType": "address",
          "name": "sender",
          "type": "address"
        }
      ],
      "name": "ERC721InvalidSender",
      "type": "error"
    },
    {
      "inputs": [
        {
          "internalType": "uint256",
          "name": "tokenId",
          "type": "uint256"
        }
      ],
      "name": "ERC721NonexistentToken",
      "type": "error"
    },
    {
      "inputs": [
        {
          "internalType": "address",
          "name": "owner",
          "type": "address"
        }
      ],
      "name": "OwnableInvalidOwner",
      "type": "error"
    },
    {
      "inputs": [
        {
          "internalType": "address",
          "name": "account",
          "type": "address"
        }
      ],
      "name": "OwnableUnauthorizedAccount",
      "type": "error"
    },
    {
      "anonymous": false,
      "inputs": [
        {
          "indexed": true,
          "internalType": "address",
          "name": "owner",
          "type": "address"
        },
        {
          "indexed": true,
          "internalType": "address",
          "name": "approved",
          "type": "address"
        },
        {
          "indexed": true,
          "internalType": "uint256",
          "name": "tokenId",
          "type": "uint256"
        }
      ],
      "name": "Approval",
      "type": "event"
    },
    {
      "anonymous": false,
      "inputs": [
        {
          "indexed": true,
          "internalType": "address",
          "name": "owner",
          "type": "address"
        },
        {
          "indexed": true,
          "internalType": "address",
          "name": "operator",
          "type": "address"
        },
        {
          "indexed": false,
          "internalType": "bool",
          "name": "approved",
          "type": "bool"
        }
      ],
      "name": "ApprovalForAll",
      "type": "event"
    },
    {
      "anonymous": false,
      "inputs": [
        {
          "indexed": true,
          "internalType": "address",
          "name": "previousOwner",
          "type": "address"
        },
        {
          "indexed": true,
          "internalType": "address",
          "name": "newOwner",
          "type": "address"
        }
      ],
      "name": "OwnershipTransferred",
      "type": "event"
    },
    {
      "anonymous": false,
      "inputs": [
        {
          "indexed": true,
          "internalType": "address",
          "name": "from",
          "type": "address"
        },
        {
          "indexed": true,
          "internalType": "address",
          "name": "to",
          "type": "address"
        },
        {
          "indexed": true,
          "internalType": "uint256",
          "name": "tokenId",
          "type": "uint256"
        }
      ],
      "name": "Transfer",
      "type": "event"
    },
    {
      "inputs": [
        {
          "internalType": "address",
          "name": "to",
          "type": "address"
        },
        {
          "internalType": "uint256",
          "name": "tokenId",
          "type": "uint256"
        }
      ],
      "name": "approve",
      "outputs": [],
      "stateMutability": "nonpayable",
      "type": "function"
    },
    {
      "inputs": [
        {
          "internalType": "address",
          "name": "owner",
          "type": "address"
        }
      ],
      "name": "balanceOf",
      "outputs": [
        {
          "internalType": "uint256",
          "name": "",
          "type": "uint256"
        }
      ],
      "stateMutability": "view",
      "type": "function"
    },
    {
      "inputs": [
        {
          "internalType": "uint256",
          "name": "tokenId",
          "type": "uint256"
        }
      ],
      "name": "getApproved",
      "outputs": [
        {
          "internalType": "address",
          "name": "",
          "type": "address"
        }
      ],
      "stateMutability": "view",
      "type": "function"
    },
    {
      "inputs": [
        {
          "internalType": "address",
          "name": "owner",
          "type": "address"
        },
        {
          "internalType": "address",
          "name": "operator",
          "type": "address"
        }
      ],
      "name": "isApprovedForAll",
      "outputs": [
        {
          "internalType": "bool",
          "name": "",
          "type": "bool"
        }
      ],
      "stateMutability": "view",
      "type": "function"
    },
    {
      "inputs": [
        {
          "internalType": "address",
          "name": "to",
          "type": "address"
        }
      ],
      "name": "mint",
      "outputs": [
        {
          "internalType": "uint256",
          "name": "",
          "type": "uint256"
        }
      ],
      "stateMutability": "nonpayable",
      "type": "function"
    },
    {
      "inputs": [
        {
          "internalType": "address",
          "name": "to",
          "type": "address"
        },
        {
          "internalType": "uint256",
          "name": "tokenId",
          "type": "uint256"
        }
      ],
      "name": "mintWithId",
      "outputs": [],
      "stateMutability": "nonpayable",
      "type": "function"
    },
    {
      "inputs": [],
      "name": "name",
      "outputs": [
        {
          "internalType": "string",
          "name": "",
          "type": "string"
        }
      ],
      "stateMutability": "view",
      "type": "function"
    },
    {
      "inputs": [],
      "name": "owner",
      "outputs": [
        {
          "internalType": "address",
          "name": "",
          "type": "address"
        }
      ],
      "stateMutability": "view",
      "type": "function"
    },
    {
      "inputs": [
        {
          "internalType": "uint256",
          "name": "tokenId",
          "type": "uint256"
        }
      ],
      "name": "ownerOf",
      "outputs": [
        {
          "internalType": "address",
          "name": "",
          "type": "address"
        }
      ],
      "stateMutability": "view",
      "type": "function"
    },
    {
      "inputs": [],
      "name": "renounceOwnership",
      "outputs": [],
      "stateMutability": "nonpayable",
      "type": "function"
    },
    {
      "inputs": [
        {
          "internalType": "address",
          "name": "from",
          "type": "address"
        },
        {
          "internalType": "address",
          "name": "to",
          "type": "address"
        },
        {
          "internalType": "uint256",
          "name": "tokenId",
          "type": "uint256"
        }
      ],
      "name": "safeTransferFrom",
      "outputs": [],
      "stateMutability": "nonpayable",
      "type": "function"
    },
    {
      "inputs": [
        {
          "internalType": "address",
          "name": "from",
          "type": "address"
        },
        {
          "internalType": "address",
          "name": "to",
          "type": "address"
        },
        {
          "internalType": "uint256",
          "name": "tokenId",
          "type": "uint256"
        },
        {
          "internalType": "bytes",
          "name": "data",
          "type": "bytes"
        }
      ],
      "name": "safeTransferFrom",
      "outputs": [],
      "stateMutability": "nonpayable",
      "type": "function"
    },
    {
      "inputs": [
        {
          "internalType": "address",
          "name": "operator",
          "type": "address"
        },
        {
          "internalType": "bool",
          "name": "approved",
          "type": "bool"
        }
      ],
      "name": "setApprovalForAll",
      "outputs": [],
      "stateMutability": "nonpayable",
      "type": "function"
    },
    {
      "inputs": [
        {
          "internalType": "bytes4",
          "name": "interfaceId",
          "type": "bytes4"
        }
      ],
      "name": "supportsInterface",
      "outputs": [
        {
          "internalType": "bool",
          "name": "",
          "type": "bool"
        }
      ],
      "stateMutability": "view",
      "type": "function"
    },
    {
      "inputs": [],
      "name": "symbol",
      "outputs": [
        {
          "internalType": "string",
          "name": "",
          "type": "string"
        }
      ],
      "stateMutability": "view",
      "type": "function"
    },
    {
      "inputs": [
        {
          "internalType": "uint256",
          "name": "tokenId",
          "type": "uint256"
        }
      ],
      "name": "tokenURI",
      "outputs": [
        {
          "internalType": "string",
          "name": "",
          "type": "string"
        }
      ],
      "stateMutability": "view",
      "type": "function"
    },
    {
      "inputs": [
        {
          "internalType": "address",
          "name": "from",
          "type": "address"
        },
        {
          "internalType": "address",
          "name": "to",
          "type": "address"
        },
        {
          "internalType": "uint256",
          "name": "tokenId",
          "type": "uint256"
        }
      ],
      "name": "transferFrom",
      "outputs": [],
      "stateMutability": "nonpayable",
      "type": "function"
    },
    {
      "inputs": [
        {
          "internalType": "address",
          "name": "newOwner",
          "type": "address"
        }
      ],
      "name": "transferOwnership",
      "outputs": [],
      "stateMutability": "nonpayable",
      "type": "function"
    }
  ],
  "bytecode": "0x60803462000369576001600160401b03906040908082018381118282101762000355578252600881526020906715195cdd0813919560c21b82820152825193838501858110828211176200035557845260049283865263151154d560e21b8187015282519082821162000261575f54916001948584811c941680156200034a575b8385101462000337578190601f94858111620002e4575b50839085831160011462000280575f9262000274575b50505f19600383901b1c191690851b175f555b8651928311620002615783548481811c9116801562000256575b828210146200024357828111620001fb575b508091831160011462000195575081929394955f9262000189575b50505f19600383901b1c191690821b1790555b331562000174575060068054336001600160a01b0319821681179092559151916001600160a01b03167f8be0079c531659141344cd1fd0a4f28419497f9722a3daafe3b4186f6b6457e05f80a3610f0490816200036e8239f35b5f6024925191631e4fbdf760e01b8352820152fd5b015190505f8062000107565b90601f19831696845f52825f20925f905b898210620001e3575050838596979810620001ca575b505050811b0190556200011a565b01515f1960f88460031b161c191690555f8080620001bc565b808785968294968601518155019501930190620001a6565b845f52815f208380860160051c82019284871062000239575b0160051c019085905b8281106200022d575050620000ec565b5f81550185906200021d565b9250819262000214565b602286634e487b7160e01b5f525260245ffd5b90607f1690620000da565b604185634e487b7160e01b5f525260245ffd5b015190505f80620000ad565b90879350601f198316915f8052855f20925f5b87828210620002cd5750508411620002b4575b505050811b015f55620000c0565b01515f1960f88460031b161c191690555f8080620002a6565b8385015186558b9790950194938401930162000293565b9091505f8052835f208580850160051c8201928686106200032d575b918991869594930160051c01915b8281106200031e57505062000097565b5f81558594508991016200030e565b9250819262000300565b602287634e487b7160e01b5f525260245ffd5b93607f169362000080565b634e487b7160e01b5f52604160045260245ffd5b5f80fdfe608060409080825260049081361015610016575f80fd5b5f3560e01c90816301ffc9a7146107f35750806306fdde031461072c578063081812fc146106f3578063095ea7b31461061757806323b872dd1461060057806342842e0e146105d25780636352211e146105a25780636a6278421461054e57806370a08231146104f9578063715018a61461049e5780638da5cb5b1461047657806395d89b4114610366578063a22cb465146102ca578063b88d4fde14610239578063c87b56dd146101e6578063cd66439a146101c0578063e985e9c5146101725763f2fde38b146100e6575f80fd5b3461016e57602036600319011261016e576100ff61089b565b90610108610d59565b6001600160a01b03918216928315610158575050600654826001600160601b0360a01b821617600655167f8be0079c531659141344cd1fd0a4f28419497f9722a3daafe3b4186f6b6457e05f80a3005b905f6024925191631e4fbdf760e01b8352820152fd5b5f80fd5b823461016e578060031936011261016e5760209061018e61089b565b6101966108b1565b9060018060a01b038091165f5260058452825f2091165f52825260ff815f20541690519015158152f35b823461016e5736600319011261016e576101e46101db61089b565b60243590610b3a565b005b50903461016e57602036600319011261016e576102066102359235610b00565b505f8151610213816108fc565b52805190610220826108fc565b5f82525191829160208352602083019061085d565b0390f35b50903461016e57608036600319011261016e5761025461089b565b61025c6108b1565b604435916064359467ffffffffffffffff861161016e573660238701121561016e5785013561029661028d8261094e565b9551958661092c565b808552366024828801011161016e576020815f9260246101e4990183890137860101526102c483838361096a565b33610d85565b50903461016e578060031936011261016e576102e461089b565b906024359182151580930361016e576001600160a01b03169283156103515750335f526005602052805f20835f52602052805f2060ff1981541660ff8416179055519081527f17307eab39ab6107e8899845ad3d59bd9653f200f220920489ca2b5937696c3160203392a3005b836024925191630b61174360e31b8352820152fd5b50903461016e575f36600319011261016e578051905f90600191600154928360011c906001851694851561046c575b6020958684108114610459578388528794939291879082156104375750506001146103dc575b505061023592916103cd91038561092c565b5192828493845283019061085d565b9085925060015f527fb10e2d527612073b26eecdfd717e6a320cf44b4afac2b0732d9fcbe2b7fa0cf6915f925b82841061041f57505050820101816103cd6103bb565b8054848a018601528895508794909301928101610409565b60ff19168682015292151560051b850190920192508391506103cd90506103bb565b602289634e487b7160e01b5f525260245ffd5b91607f1691610395565b823461016e575f36600319011261016e5760065490516001600160a01b039091168152602090f35b3461016e575f36600319011261016e576104b6610d59565b600680546001600160a01b031981169091555f906001600160a01b03167f8be0079c531659141344cd1fd0a4f28419497f9722a3daafe3b4186f6b6457e08280a3005b50903461016e57602036600319011261016e576001600160a01b0361051c61089b565b16801561053857602092505f5260038252805f20549051908152f35b81516322718ad960e21b81525f81850152602490fd5b503461016e57602036600319011261016e5761056861089b565b91600754915f19831461058f57506105898260209460018201600755610b3a565b51908152f35b601190634e487b7160e01b5f525260245ffd5b50903461016e57602036600319011261016e576105c160209235610b00565b90516001600160a01b039091168152f35b823461016e576101e4906105e5366108c7565b919251926105f2846108fc565b5f84526102c483838361096a565b3461016e576101e4610611366108c7565b9161096a565b50903461016e578060031936011261016e5761063161089b565b9160243561063e81610b00565b331515806106e0575b806106b9575b6106a3576001600160a01b039485169482918691167f8c5be1e5ebec7d5bd14f71427d1e84f3dd0314c0f7b2291e5b200ac8c7c3b9255f80a45f526020525f20906001600160601b0360a01b8254161790555f80f35b835163a9fbf51f60e01b81523381850152602490fd5b5060018060a01b0381165f526005602052835f20335f5260205260ff845f2054161561064d565b506001600160a01b038116331415610647565b50903461016e57602036600319011261016e57816020923561071481610b00565b505f52825260018060a01b03815f2054169051908152f35b50903461016e575f36600319011261016e578051905f905f549160018360011c90600185169485156107e9575b60209586841081146104595783885287949392918790821561043757505060011461079057505061023592916103cd91038561092c565b5f80805286935091907f290decd9548b62a8d60345a988386fc84ba6bc95484008f6362f93160ef3e5635b8284106107d157505050820101816103cd6103bb565b8054848a0186015288955087949093019281016107bb565b91607f1691610759565b823461016e57602036600319011261016e57359063ffffffff60e01b821680920361016e576020916380ac58cd60e01b811490811561084c575b811561083b575b5015158152f35b6301ffc9a760e01b14905083610834565b635b5e139f60e01b8114915061082d565b91908251928382525f5b848110610887575050825f602080949584010152601f8019910116010190565b602081830181015184830182015201610867565b600435906001600160a01b038216820361016e57565b602435906001600160a01b038216820361016e57565b606090600319011261016e576001600160a01b0390600435828116810361016e5791602435908116810361016e579060443590565b6020810190811067ffffffffffffffff82111761091857604052565b634e487b7160e01b5f52604160045260245ffd5b90601f8019910116810190811067ffffffffffffffff82111761091857604052565b67ffffffffffffffff811161091857601f01601f191660200190565b6001600160a01b039182169290918315610ae857815f52602092600284528260409583875f2054169533151580610a56575b5060029087610a25575b825f5260038152885f2060018154019055835f5252865f20816001600160601b0360a01b825416179055857fddf252ad1be2c89b69c2b068fc378daa952ba7f163c4a11628f55a4df523b3ef5f80a41692838303610a045750505050565b6064945051926364283d7b60e01b8452600484015260248301526044820152fd5b5f84815260046020526040812080546001600160a01b03191690558881526003825289902080545f190190556109a6565b9192509080610aa7575b15610a6e579084915f61099c565b868587610a8b576024915190637e27328960e01b82526004820152fd5b604491519063177e802f60e01b82523360048301526024820152fd5b503386148015610acc575b80610a605750845f52600481523384885f20541614610a60565b50855f5260058152865f20335f52815260ff875f205416610ab2565b604051633250574960e11b81525f6004820152602490fd5b5f818152600260205260409020546001600160a01b0316908115610b22575090565b60249060405190637e27328960e01b82526004820152fd5b6040805192610b48846108fc565b5f84526001600160a01b0393838516938415610d4257825f5260209560028752845f20541683868215159283610d11575b5f82815260038b528881208054600101905583815260028b5288812080546001600160a01b031916841790557fddf252ad1be2c89b69c2b068fc378daa952ba7f163c4a11628f55a4df523b3ef9080a4610cfa573b610bda575b5050505050565b84610c179184959697945180938192630a85bd0160e11b968784523360048501525f6024850152604484015260806064840152608483019061085d565b03815f895af15f9181610cba575b50610c83575050503d5f14610c7b573d92610c3f8461094e565b93610c4c8351958661092c565b84523d5f8286013e5b83519384610c75578251633250574960e11b815260048101859052602490fd5b84925001fd5b606092610c55565b9194506001600160e01b031990911603610ca35750505f80808080610bd3565b602492505190633250574960e11b82526004820152fd5b9091508681813d8311610cf3575b610cd2818361092c565b8101031261016e57516001600160e01b03198116810361016e57905f610c25565b503d610cc8565b83516339e3563760e11b81525f6004820152602490fd5b5f83815260046020526040812080546001600160a01b031916905581815260038b5288902080545f19019055610b79565b8351633250574960e11b81525f6004820152602490fd5b6006546001600160a01b03163303610d6d57565b60405163118cdaa760e01b8152336004820152602490fd5b9293909193843b610d97575050505050565b604051630a85bd0160e11b8082526001600160a01b039586166004830152938516602482015260448101919091526080606482015260209594909316939290859082908190610dea90608483019061085d565b03815f885af15f9181610e8e575b50610e57575050503d5f14610e4f573d91610e128361094e565b92610e20604051948561092c565b83523d5f8285013e5b82519283610e4a57604051633250574960e11b815260048101849052602490fd5b019050fd5b606091610e29565b9193506001600160e01b031990911603610e7657505f80808080610bd3565b60249060405190633250574960e11b82526004820152fd5b9091508581813d8311610ec7575b610ea6818361092c565b8101031261016e57516001600160e01b03198116810361016e57905f610df8565b503d610e9c56fea26469706673582212209958a62a565ff2e6b708ec35e3c1547b1a8132a3ee6a8e87dab5bf62ca80e2ba64736f6c63430008180033",
  "linkReferences": {},
  "deployedLinkReferences": {}
}