{
  "_format": "hh-sol-artifact-1",
  "contractName": "BundleNFT",
  "sourceName": "contracts/BundleNFT.sol",
  "abi": [
    {
      "inputs": [],
      "stateMutability": "nonpayable",
      "type": "constructor"
    },
    {
      "inputs": [
        {
          "internalType": "address",
          "name": "sender",
          "type": "address"
        },
        {
          "internalType": "uint256",
          "name": "tokenId",
          "type": "uint256"
        },
        {
          "internalType": "address",
          "name": "owner",
          "type": "address"
        }
      ],
      "name": "ERC721IncorrectOwner",
      "type": "error"
    },
    {
      "inputs": [
        {
          "internalType": "address",
          "name": "operator",
          "type": "address"
        },
        {
          "internalType": "uint256",
          "name": "tokenId",
          "type": "uint256"
        }
      ],
      "name": "ERC721InsufficientApproval",
      "type": "error"
    },
    {
      "inputs": [
        {
          "internalType": "address",
          "name": "approver",
          "type": "address"
        }
      ],
      "name": "ERC721InvalidApprover",
      "type": "error"
    },
    {
      "inputs": [
        {
          "internalType": "address",
          "name": "operator",
          "type": "address"
        }
      ],
      "name": "ERC721InvalidOperator",
      "type": "error"
    },
    {
      "inputs": [
        {
          "internalType": "address",
          "name": "owner",
          "type": "address"
        }
      ],
      "name": "ERC721InvalidOwner",
      "type": "error"
    },
    {
      "inputs": [
        {
          "internalType": "address",
          "name": "receiver",
          "type": "address"
        }
      ],
      "name": "ERC721InvalidReceiver",
      "type": "error"
    },
    {
      "inputs": [
        {
          "internalType": "address",
          "name": "sender",
          "type": "address"
        }
      ],
      "name": "ERC721InvalidSender",
      "type": "error"
    },
    {
      "inputs": [
        {
          "internalType": "uint256",
          "name": "tokenId",
          "type": "uint256"
        }
      ],
      "name": "ERC721NonexistentToken",
      "type": "error"
    },
    {
      "inputs": [
        {
          "internalType": "address",
          "name": "owner",
          "type": "address"
        }
      ],
      "name": "OwnableInvalidOwner",
      "type": "error"
    },
    {
      "inputs": [
        {
          "internalType": "address",
          "name": "account",
          "type": "address"
        }
      ],
      "name": "OwnableUnauthorizedAccount",
      "type": "error"
    },
    {
      "anonymous": false,
      "inputs": [
        {
          "indexed": true,
          "internalType": "address",
          "name": "owner",
          "type": "address"
        },
        {
          "indexed": true,
          "internalType": "address",
          "name": "approved",
          "type": "address"
        },
        {
          "indexed": true,
          "internalType": "uint256",
          "name": "tokenId",
          "type": "uint256"
        }
      ],
      "name": "Approval",
      "type": "event"
    },
    {
      "anonymous": false,
      "inputs": [
        {
          "indexed": true,
          "internalType": "address",
          "name": "owner",
          "type": "address"
        },
        {
          "indexed": true,
          "internalType": "address",
          "name": "operator",
          "type": "address"
        },
        {
          "indexed": false,
          "internalType": "bool",
          "name": "approved",
          "type": "bool"
        }
      ],
      "name": "ApprovalForAll",
      "type": "event"
    },
    {
      "anonymous": false,
      "inputs": [
        {
          "indexed": false,
          "internalType": "uint256",
          "name": "_fromTokenId",
          "type": "uint256"
        },
        {
          "indexed": false,
          "internalType": "uint256",
          "name": "_toTokenId",
          "type": "uint256"
        }
      ],
      "name": "BatchMetadataUpdate",
      "type": "event"
    },
    {
      "anonymous": false,
      "inputs": [
        {
          "indexed": true,
          "internalType": "uint256",
          "name": "tokenId",
          "type": "uint256"
        },
        {
          "indexed": true,
          "internalType": "address",
          "name": "creator",
          "type": "address"
        },
        {
          "indexed": false,
          "internalType": "string",
          "name": "name",
          "type": "string"
        },
        {
          "indexed": false,
          "internalType": "uint256",
          "name": "itemCount",
          "type": "uint256"
        },
        {
          "indexed": false,
          "internalType": "address",
          "name": "accountAddress",
          "type": "address"
        }
      ],
      "name": "BundleCreated",
      "type": "event"
    },
    {
      "anonymous": false,
      "inputs": [
        {
          "indexed": true,
          "internalType": "uint256",
          "name": "tokenId",
          "type": "uint256"
        },
        {
          "indexed": true,
          "internalType": "address",
          "name": "owner",
          "type": "address"
        }
      ],
      "name": "BundleUnwrapped",
      "type": "event"
    },
    {
      "anonymous": false,
      "inputs": [
        {
          "indexed": false,
          "internalType": "uint256",
          "name": "_tokenId",
          "type": "uint256"
        }
      ],
      "name": "MetadataUpdate",
      "type": "event"
    },
    {
      "anonymous": false,
      "inputs": [
        {
          "indexed": true,
          "internalType": "address",
          "name": "previousOwner",
          "type": "address"
        },
        {
          "indexed": true,
          "internalType": "address",
          "name": "newOwner",
          "type": "address"
        }
      ],
      "name": "OwnershipTransferred",
      "type": "event"
    },
    {
      "anonymous": false,
      "inputs": [
        {
          "indexed": true,
          "internalType": "address",
          "name": "from",
          "type": "address"
        },
        {
          "indexed": true,
          "internalType": "address",
          "name": "to",
          "type": "address"
        },
        {
          "indexed": true,
          "internalType": "uint256",
          "name": "tokenId",
          "type": "uint256"
        }
      ],
      "name": "Transfer",
      "type": "event"
    },
    {
      "inputs": [
        {
          "internalType": "address",
          "name": "to",
          "type": "address"
        },
        {
          "internalType": "uint256",
          "name": "tokenId",
          "type": "uint256"
        }
      ],
      "name": "approve",
      "outputs": [],
      "stateMutability": "nonpayable",
      "type": "function"
    },
    {
      "inputs": [
        {
          "internalType": "address",
          "name": "owner",
          "type": "address"
        }
      ],
      "name": "balanceOf",
      "outputs": [
        {
          "internalType": "uint256",
          "name": "",
          "type": "uint256"
        }
      ],
      "stateMutability": "view",
      "type": "function"
    },
    {
      "inputs": [
        {
          "internalType": "uint256",
          "name": "tokenId",
          "type": "uint256"
        }
      ],
      "name": "bundleExists",
      "outputs": [
        {
          "internalType": "bool",
          "name": "",
          "type": "bool"
        }
      ],
      "stateMutability": "view",
      "type": "function"
    },
    {
      "inputs": [],
      "name": "bundleManager",
      "outputs": [
        {
          "internalType": "address",
          "name": "",
          "type": "address"
        }
      ],
      "stateMutability": "view",
      "type": "function"
    },
    {
      "inputs": [
        {
          "internalType": "uint256",
          "name": "",
          "type": "uint256"
        }
      ],
      "name": "bundles",
      "outputs": [
        {
          "internalType": "string",
          "name": "name",
          "type": "string"
        },
        {
          "internalType": "uint256",
          "name": "itemCount",
          "type": "uint256"
        },
        {
          "internalType": "uint256",
          "name": "createdAt",
          "type": "uint256"
        },
        {
          "internalType": "address",
          "name": "creator",
          "type": "address"
        },
        {
          "internalType": "bool",
          "name": "exists",
          "type": "bool"
        }
      ],
      "stateMutability": "view",
      "type": "function"
    },
    {
      "inputs": [
        {
          "internalType": "uint256",
          "name": "tokenId",
          "type": "uint256"
        }
      ],
      "name": "burnBundle",
      "outputs": [],
      "stateMutability": "nonpayable",
      "type": "function"
    },
    {
      "inputs": [
        {
          "internalType": "uint256",
          "name": "tokenId",
          "type": "uint256"
        }
      ],
      "name": "getApproved",
      "outputs": [
        {
          "internalType": "address",
          "name": "",
          "type": "address"
        }
      ],
      "stateMutability": "view",
      "type": "function"
    },
    {
      "inputs": [
        {
          "internalType": "uint256",
          "name": "tokenId",
          "type": "uint256"
        }
      ],
      "name": "getBundleMetadata",
      "outputs": [
        {
          "components": [
            {
              "internalType": "string",
              "name": "name",
              "type": "string"
            },
            {
              "internalType": "uint256",
              "name": "itemCount",
              "type": "uint256"
            },
            {
              "internalType": "uint256",
              "name": "createdAt",
              "type": "uint256"
            },
            {
              "internalType": "address",
              "name": "creator",
              "type": "address"
            },
            {
              "internalType": "bool",
              "name": "exists",
              "type": "bool"
            }
          ],
          "internalType": "struct BundleNFT.BundleMetadata",
          "name": "",
          "type": "tuple"
        }
      ],
      "stateMutability": "view",
      "type": "function"
    },
    {
      "inputs": [
        {
          "internalType": "address",
          "name": "owner",
          "type": "address"
        },
        {
          "internalType": "address",
          "name": "operator",
          "type": "address"
        }
      ],
      "name": "isApprovedForAll",
      "outputs": [
        {
          "internalType": "bool",
          "name": "",
          "type": "bool"
        }
      ],
      "stateMutability": "view",
      "type": "function"
    },
    {
      "inputs": [
        {
          "internalType": "address",
          "name": "to",
          "type": "address"
        },
        {
          "internalType": "string",
          "name": "bundleName",
          "type": "string"
        },
        {
          "internalType": "uint256",
          "name": "itemCount",
          "type": "uint256"
        },
        {
          "internalType": "string",
          "name": "tokenURI",
          "type": "string"
        }
      ],
      "name": "mintBundle",
      "outputs": [
        {
          "internalType": "uint256",
          "name": "",
          "type": "uint256"
        }
      ],
      "stateMutability": "nonpayable",
      "type": "function"
    },
    {
      "inputs": [],
      "name": "name",
      "outputs": [
        {
          "internalType": "string",
          "name": "",
          "type": "string"
        }
      ],
      "stateMutability": "view",
      "type": "function"
    },
    {
      "inputs": [],
      "name": "owner",
      "outputs": [
        {
          "internalType": "address",
          "name": "",
          "type": "address"
        }
      ],
      "stateMutability": "view",
      "type": "function"
    },
    {
      "inputs": [
        {
          "internalType": "uint256",
          "name": "tokenId",
          "type": "uint256"
        }
      ],
      "name": "ownerOf",
      "outputs": [
        {
          "internalType": "address",
          "name": "",
          "type": "address"
        }
      ],
      "stateMutability": "view",
      "type": "function"
    },
    {
      "inputs": [],
      "name": "renounceOwnership",
      "outputs": [],
      "stateMutability": "nonpayable",
      "type": "function"
    },
    {
      "inputs": [
        {
          "internalType": "address",
          "name": "from",
          "type": "address"
        },
        {
          "internalType": "address",
          "name": "to",
          "type": "address"
        },
        {
          "internalType": "uint256",
          "name": "tokenId",
          "type": "uint256"
        }
      ],
      "name": "safeTransferFrom",
      "outputs": [],
      "stateMutability": "nonpayable",
      "type": "function"
    },
    {
      "inputs": [
        {
          "internalType": "address",
          "name": "from",
          "type": "address"
        },
        {
          "internalType": "address",
          "name": "to",
          "type": "address"
        },
        {
          "internalType": "uint256",
          "name": "tokenId",
          "type": "uint256"
        },
        {
          "internalType": "bytes",
          "name": "data",
          "type": "bytes"
        }
      ],
      "name": "safeTransferFrom",
      "outputs": [],
      "stateMutability": "nonpayable",
      "type": "function"
    },
    {
      "inputs": [
        {
          "internalType": "address",
          "name": "operator",
          "type": "address"
        },
        {
          "internalType": "bool",
          "name": "approved",
          "type": "bool"
        }
      ],
      "name": "setApprovalForAll",
      "outputs": [],
      "stateMutability": "nonpayable",
      "type": "function"
    },
    {
      "inputs": [
        {
          "internalType": "address",
          "name": "_bundleManager",
          "type": "address"
        }
      ],
      "name": "setBundleManager",
      "outputs": [],
      "stateMutability": "nonpayable",
      "type": "function"
    },
    {
      "inputs": [
        {
          "internalType": "bytes4",
          "name": "interfaceId",
          "type": "bytes4"
        }
      ],
      "name": "supportsInterface",
      "outputs": [
        {
          "internalType": "bool",
          "name": "",
          "type": "bool"
        }
      ],
      "stateMutability": "view",
      "type": "function"
    },
    {
      "inputs": [],
      "name": "symbol",
      "outputs": [
        {
          "internalType": "string",
          "name": "",
          "type": "string"
        }
      ],
      "stateMutability": "view",
      "type": "function"
    },
    {
      "inputs": [
        {
          "internalType": "uint256",
          "name": "tokenId",
          "type": "uint256"
        }
      ],
      "name": "tokenURI",
      "outputs": [
        {
          "internalType": "string",
          "name": "",
          "type": "string"
        }
      ],
      "stateMutability": "view",
      "type": "function"
    },
    {
      "inputs": [],
      "name": "totalBundles",
      "outputs": [
        {
          "internalType": "uint256",
          "name": "",
          "type": "uint256"
        }
      ],
      "stateMutability": "view",
      "type": "function"
    },
    {
      "inputs": [
        {
          "internalType": "address",
          "name": "from",
          "type": "address"
        },
        {
          "internalType": "address",
          "name": "to",
          "type": "address"
        },
        {
          "internalType": "uint256",
          "name": "tokenId",
          "type": "uint256"
        }
      ],
      "name": "transferFrom",
      "outputs": [],
      "stateMutability": "nonpayable",
      "type": "function"
    },
    {
      "inputs": [
        {
          "internalType": "address",
          "name": "newOwner",
          "type": "address"
        }
      ],
      "name": "transferOwnership",
      "outputs": [],
      "stateMutability": "nonpayable",
      "type": "function"
    }
  ],
  "bytecode": "0x60803462000354576001600160401b03906040908082018381118282101762000272578252601581526020927f466f7274756e61205371756172652042756e646c65000000000000000000000084830152825193838501858110838211176200027257845260038552622329a160e91b8186015282519082821162000272575f54916001948584811c9416801562000349575b8385101462000253578190601f94858111620002f6575b50839085831160011462000292575f9262000286575b50505f19600383901b1c191690851b175f555b8551928311620002725783548481811c9116801562000267575b8282101462000253578281116200020b575b5080918311600114620001a65750819293945f926200019a575b50505f19600383901b1c191690821b1790555b3315620001845760078054336001600160a01b0319821681179092559151916001600160a01b03167f8be0079c531659141344cd1fd0a4f28419497f9722a3daafe3b4186f6b6457e05f80a36118309081620003598239f35b51631e4fbdf760e01b81525f6004820152602490fd5b015190505f8062000118565b90601f19831695845f52825f20925f905b888210620001f35750508385969710620001da575b505050811b0190556200012b565b01515f1960f88460031b161c191690555f8080620001cc565b808785968294968601518155019501930190620001b7565b845f52815f208380860160051c82019284871062000249575b0160051c019085905b8281106200023d575050620000fe565b5f81550185906200022d565b9250819262000224565b634e487b7160e01b5f52602260045260245ffd5b90607f1690620000ec565b634e487b7160e01b5f52604160045260245ffd5b015190505f80620000bf565b90879350601f198316915f8052855f20925f5b87828210620002df5750508411620002c6575b505050811b015f55620000d2565b01515f1960f88460031b161c191690555f8080620002b8565b8385015186558b97909501949384019301620002a5565b9091505f8052835f208580850160051c8201928686106200033f575b918991869594930160051c01915b82811062000330575050620000a9565b5f815585945089910162000320565b9250819262000312565b93607f169362000092565b5f80fdfe608060409080825260049081361015610016575f80fd5b5f3560e01c90816301ffc9a71461117f5750806306fdde03146110d2578063081812fc14611099578063095ea7b314610fbd57806323b872dd14610fa657806332a5e3d514610f7357806341e0605014610f4b578063422c9d0014610ed057806342842e0e14610ea2578063587e59d014610cdd5780636352211e14610cad57806363d2db5f14610c8f57806370a0823114610c3a578063715018a614610bdf5780637da5c4d7146105d55780638da5cb5b146105ad57806395d89b41146104ca578063a22cb4651461042e578063a4b4749014610342578063b88d4fde146102d5578063c87b56dd1461027d578063cf19384b14610202578063e985e9c5146101b45763f2fde38b14610128575f80fd5b346101b05760203660031901126101b057610141611241565b9061014a611684565b6001600160a01b0391821692831561019a575050600754826001600160601b0360a01b821617600755167f8be0079c531659141344cd1fd0a4f28419497f9722a3daafe3b4186f6b6457e05f80a3005b905f6024925191631e4fbdf760e01b8352820152fd5b5f80fd5b82346101b057806003193601126101b0576020906101d0611241565b6101d8611257565b9060018060a01b038091165f5260058452825f2091165f52825260ff815f20541690519015158152f35b5090346101b05760203660031901126101b05761025491355f526009602052805f2060ff61022f826113b8565b926001830154926003600282015491015491805196879660a0885260a0880190611203565b60208701959095528501526001600160a01b038116606085015260a01c16151560808301520390f35b5090346101b05760203660031901126101b0576102d1913561029e8161164a565b505f5260066020526102b1815f206113b8565b905f81516102be816112d2565b5251918291602083526020830190611203565b0390f35b50346101b05760803660031901126101b0576102ef611241565b6102f7611257565b6044359060643567ffffffffffffffff81116101b057366023820112156101b0576103409481602461032e9336930135910161132c565b9261033a83838361145a565b336116b0565b005b5090346101b0576020806003193601126101b05760a092355f60808451610368816112a2565b60608152828582015282868201528260608201520152805f526009825261039960ff6003855f200154861c166115f0565b5f5260098152815f208251926103ae846112a2565b6103b7826113b8565b84526001820154928085019384526003600284015493838701948552015492600180881b039261040f6060880193858716855260ff60808a01978b1c16151587528251998a99828b5251918a015260c0890190611203565b9551908701525160608601525116608084015251151560a08301520390f35b5090346101b057806003193601126101b057610448611241565b90602435918215158093036101b0576001600160a01b03169283156104b55750335f526005602052805f20835f52602052805f2060ff1981541660ff8416179055519081527f17307eab39ab6107e8899845ad3d59bd9653f200f220920489ca2b5937696c3160203392a3005b836024925191630b61174360e31b8352820152fd5b82346101b0575f3660031901126101b0578051905f9082600192600154936104f185611380565b90818452602095866001821691825f1461058b575050600114610530575b50506102d192916105219103856112ee565b51928284938452830190611203565b9085925060015f527fb10e2d527612073b26eecdfd717e6a320cf44b4afac2b0732d9fcbe2b7fa0cf6915f925b828410610573575050508201018161052161050f565b8054848a01860152889550879490930192810161055d565b60ff19168682015292151560051b85019092019250839150610521905061050f565b82346101b0575f3660031901126101b05760075490516001600160a01b039091168152602090f35b50346101b05760803660031901126101b0576105ef611241565b9167ffffffffffffffff90602480358381116101b0576106129036908601611362565b936064358481116101b05761062a9036908301611362565b600a5490956001600160a01b0392909183163303610b9d57815115610b645760443515610b29576008549560018701600855855197610668896112d2565b5f8952848a16988915610b1457899a895f9b999a9b52898b60209d8e6002815260028b855f205416918215159586610ae3575b845f52600382525f2060018154019055845f52528d5f20826001600160601b0360a01b8254161790557fddf252ad1be2c89b69c2b068fc378daa952ba7f163c4a11628f55a4df523b3ef5f80a4610ace573b6109aa575b50885f5260068a52875f20908051838111610998576107118354611380565b8c601f8211610969575b50508b8c601f83116001146109045750819061074c935f92610844575b50508160011b915f199060031b1c19161790565b90555b7ff8e1a15aba9398e019f0b49df1a4fde98ee17ae345cb5f6b5e2c27f5033e8ce78988518a8152a1865192610783846112a2565b835288830190604435825287840192428452606085019788526080850196600188528a5f5260098c52895f2095519182519384116108f35750506107c78554611380565b8b601f82116108b9575b50508a90601f831160011461084f579180610806926003979695945f926108445750508160011b915f199060031b1c19161790565b83555b5160018301555160028201550192511682549160ff60a01b9051151560a01b16916affffffffffffffffffffff60a81b161717905551908152f35b015190505f80610738565b5f8681528c8120929190601f198516908e5b8282106108a1575050916001939185600399989796941061088a575b505050811b018355610809565b01515f1983891b60f8161c191690555f808061087d565b80600186978294978701518155019601940190610861565b6108e291875f52815f2090601f860160051c82019286106108e9575b601f0160051c0190611634565b5f8b6107d1565b90915081906108d5565b604190634e487b7160e01b5f52525ffd5b9192601f198416855f52835f20935f905b828210610951575050908460019594939210610939575b505050811b01905561074f565b01515f1960f88460031b161c191690555f808061092c565b80600186978294978701518155019601940190610915565b61099191855f52815f2090601f850160051c82019285106108e957601f0160051c0190611634565b5f8c61071b565b87604186634e487b7160e01b5f52525ffd5b92899594938b829b8a5f8b9f9b81908f9e9f6109f2905197889687958694630a85bd0160e11b9c8d875233908701528501526044840152608060648401526084830190611203565b03925af15f9181610a8e575b50610a5957505050505050503d5f14610a51573d90610a1c82611310565b91610a29845193846112ee565b82523d5f8284013e5b81519182610a4e575050505191633250574960e11b8352820152fd5b01fd5b606090610a32565b63ffffffff60e09c989c9b9596979b9a999a1b1603610a78575f6106f2565b8751633250574960e11b81528084018890528690fd5b9091508881813d8311610ac7575b610aa681836112ee565b810103126101b057516001600160e01b0319811681036101b057905f6109fe565b503d610a9c565b89516339e3563760e11b81525f818701528890fd5b5f86815260046020526040812080546001600160a01b03191690558481526003835281902080545f1901905561069b565b8751633250574960e11b81525f818601528790fd5b606490601685602088519362461bcd60e51b85528401528201527504974656d20636f756e74206d757374206265203e20360541b6044820152fd5b606490601485602088519362461bcd60e51b855284015282015273109d5b991b19481b985b59481c995c5d5a5c995960621b6044820152fd5b606490601c85602088519362461bcd60e51b85528401528201527f4f6e6c792062756e646c65206d616e616765722063616e206d696e74000000006044820152fd5b346101b0575f3660031901126101b057610bf7611684565b600780546001600160a01b031981169091555f906001600160a01b03167f8be0079c531659141344cd1fd0a4f28419497f9722a3daafe3b4186f6b6457e08280a3005b5090346101b05760203660031901126101b0576001600160a01b03610c5d611241565b168015610c7957602092505f5260038252805f20549051908152f35b81516322718ad960e21b81525f81850152602490fd5b82346101b0575f3660031901126101b0576020906008549051908152f35b5090346101b05760203660031901126101b057610ccc6020923561164a565b90516001600160a01b039091168152f35b5090346101b0576020806003193601126101b057600a548335936001600160a01b0393909184163303610e6157845f5260098352610d2660ff6003835f20015460a01c166115f0565b610d2f8561164a565b92855f52600981525f6003838220610d478154611380565b80610e25575b508260018201558260028201550155855f5260028152855f86848220541660028115948515610df4575b8484525284822080546001600160a01b03191690557fddf252ad1be2c89b69c2b068fc378daa952ba7f163c4a11628f55a4df523b3ef8280a4610dde57505016907f0f75da8c043969a093c4718bcf8b68b0ae47b61d59351d69c71e9532946c1dcd5f80a3005b51637e27328960e01b8152908101849052602490fd5b5f85815260046020526040902080546001600160a01b03191690558284526003815286842084198154019055610d77565b601f8111600114610e3b57508281555b5f610d4d565b8390828252610e58601f878420920160051c820160018301611634565b81835555610e35565b91606492519162461bcd60e51b8352820152601c60248201527f4f6e6c792062756e646c65206d616e616765722063616e206275726e000000006044820152fd5b82346101b05761034090610eb53661126d565b91925192610ec2846112d2565b5f845261033a83838361145a565b50346101b05760203660031901126101b057610eea611241565b610ef2611684565b6001600160a01b0316918215610f1657600a80546001600160a01b03191684179055005b906020606492519162461bcd60e51b8352820152600f60248201526e496e76616c6964206164647265737360881b6044820152fd5b82346101b0575f3660031901126101b057600a5490516001600160a01b039091168152602090f35b5090346101b05760203660031901126101b057602091355f526009825260ff6003825f20015460a01c1690519015158152f35b346101b057610340610fb73661126d565b9161145a565b5090346101b057806003193601126101b057610fd7611241565b91602435610fe48161164a565b33151580611086575b8061105f575b611049576001600160a01b039485169482918691167f8c5be1e5ebec7d5bd14f71427d1e84f3dd0314c0f7b2291e5b200ac8c7c3b9255f80a45f526020525f20906001600160601b0360a01b8254161790555f80f35b835163a9fbf51f60e01b81523381850152602490fd5b5060018060a01b0381165f526005602052835f20335f5260205260ff845f20541615610ff3565b506001600160a01b038116331415610fed565b5090346101b05760203660031901126101b05781602092356110ba8161164a565b505f52825260018060a01b03815f2054169051908152f35b82346101b0575f3660031901126101b0578051905f90825f54926110f584611380565b808352602094600190866001821691825f1461058b5750506001146111265750506102d192916105219103856112ee565b5f80805286935091907f290decd9548b62a8d60345a988386fc84ba6bc95484008f6362f93160ef3e5635b828410611167575050508201018161052161050f565b8054848a018601528895508794909301928101611151565b82346101b05760203660031901126101b057359063ffffffff60e01b82168092036101b057602091632483248360e11b81149081156111c0575b5015158152f35b6380ac58cd60e01b8114915081156111f2575b81156111e1575b50836111b9565b6301ffc9a760e01b149050836111da565b635b5e139f60e01b811491506111d3565b91908251928382525f5b84811061122d575050825f602080949584010152601f8019910116010190565b60208183018101518483018201520161120d565b600435906001600160a01b03821682036101b057565b602435906001600160a01b03821682036101b057565b60609060031901126101b0576001600160a01b039060043582811681036101b0579160243590811681036101b0579060443590565b60a0810190811067ffffffffffffffff8211176112be57604052565b634e487b7160e01b5f52604160045260245ffd5b6020810190811067ffffffffffffffff8211176112be57604052565b90601f8019910116810190811067ffffffffffffffff8211176112be57604052565b67ffffffffffffffff81116112be57601f01601f191660200190565b92919261133882611310565b9161134660405193846112ee565b8294818452818301116101b0578281602093845f960137010152565b9080601f830112156101b05781602061137d9335910161132c565b90565b90600182811c921680156113ae575b602083101461139a57565b634e487b7160e01b5f52602260045260245ffd5b91607f169161138f565b9060405191825f82546113ca81611380565b908184526020946001916001811690815f1461143857506001146113fa575b5050506113f8925003836112ee565b565b5f90815285812095935091905b8183106114205750506113f893508201015f80806113e9565b85548884018501529485019487945091830191611407565b925050506113f894925060ff191682840152151560051b8201015f80806113e9565b6001600160a01b0391821692909183156115d857815f52602092600284528260409583875f2054169533151580611546575b5060029087611515575b825f5260038152885f2060018154019055835f5252865f20816001600160601b0360a01b825416179055857fddf252ad1be2c89b69c2b068fc378daa952ba7f163c4a11628f55a4df523b3ef5f80a416928383036114f45750505050565b6064945051926364283d7b60e01b8452600484015260248301526044820152fd5b5f84815260046020526040812080546001600160a01b03191690558881526003825289902080545f19019055611496565b9192509080611597575b1561155e579084915f61148c565b86858761157b576024915190637e27328960e01b82526004820152fd5b604491519063177e802f60e01b82523360048301526024820152fd5b5033861480156115bc575b806115505750845f52600481523384885f20541614611550565b50855f5260058152865f20335f52815260ff875f2054166115a2565b604051633250574960e11b81525f6004820152602490fd5b156115f757565b60405162461bcd60e51b8152602060048201526015602482015274109d5b991b1948191bd95cc81b9bdd08195e1a5cdd605a1b6044820152606490fd5b81811061163f575050565b5f8155600101611634565b5f818152600260205260409020546001600160a01b031690811561166c575090565b60249060405190637e27328960e01b82526004820152fd5b6007546001600160a01b0316330361169857565b60405163118cdaa760e01b8152336004820152602490fd5b9293909193843b6116c3575b5050505050565b604051630a85bd0160e11b8082526001600160a01b039586166004830152938516602482015260448101919091526080606482015260209594909316939290859082908190611716906084830190611203565b03815f885af15f91816117ba575b50611783575050503d5f1461177b573d9161173e83611310565b9261174c60405194856112ee565b83523d5f8285013e5b8251928361177657604051633250574960e11b815260048101849052602490fd5b019050fd5b606091611755565b9193506001600160e01b0319909116036117a257505f808080806116bc565b60249060405190633250574960e11b82526004820152fd5b9091508581813d83116117f3575b6117d281836112ee565b810103126101b057516001600160e01b0319811681036101b057905f611724565b503d6117c856fea2646970667358221220f9f104e45ec43ef666d83b263a0795e93e56464fdad02b31f4833625f21fe45c64736f6c63430008180033",
  "linkReferences": {},
  "deployedLinkReferences": {}
}