{
  "_format": "hh-sol-artifact-1",
  "contractName": "RentalWrapper",
  "sourceName": "contracts/RentalWrapper.sol",
  "abi": [
    {
      "inputs": [],
      "stateMutability": "nonpayable",
      "type": "constructor"
    },
    {
      "inputs": [
        {
          "internalType": "address",
          "name": "sender",
          "type": "address"
        },
        {
          "internalType": "uint256",
          "name": "tokenId",
          "type": "uint256"
        },
        {
          "internalType": "address",
          "name": "owner",
          "type": "address"
        }
      ],
      "name": "ERC721IncorrectOwner",
      "type": "error"
    },
    {
      "inputs": [
        {
          "internalType": "address",
          "name": "operator",
          "type": "address"
        },
        {
          "internalType": "uint256",
          "name": "tokenId",
          "type": "uint256"
        }
      ],
      "name": "ERC721InsufficientApproval",
      "type": "error"
    },
    {
      "inputs": [
        {
          "internalType": "address",
          "name": "approver",
          "type": "address"
        }
      ],
      "name": "ERC721InvalidApprover",
      "type": "error"
    },
    {
      "inputs": [
        {
          "internalType": "address",
          "name": "operator",
          "type": "address"
        }
      ],
      "name": "ERC721InvalidOperator",
      "type": "error"
    },
    {
      "inputs": [
        {
          "internalType": "address",
          "name": "owner",
          "type": "address"
        }
      ],
      "name": "ERC721InvalidOwner",
      "type": "error"
    },
    {
      "inputs": [
        {
          "internalType": "address",
          "name": "receiver",
          "type": "address"
        }
      ],
      "name": "ERC721InvalidReceiver",
      "type": "error"
    },
    {
      "inputs": [
        {
          "internalType": "address",
          "name": "sender",
          "type": "address"
        }
      ],
      "name": "ERC721InvalidSender",
      "type": "error"
    },
    {
      "inputs": [
        {
          "internalType": "uint256",
          "name": "tokenId",
          "type": "uint256"
        }
      ],
      "name": "ERC721NonexistentToken",
      "type": "error"
    },
    {
      "inputs": [
        {
          "internalType": "address",
          "name": "owner",
          "type": "address"
        }
      ],
      "name": "OwnableInvalidOwner",
      "type": "error"
    },
    {
      "inputs": [
        {
          "internalType": "address",
          "name": "account",
          "type": "address"
        }
      ],
      "name": "OwnableUnauthorizedAccount",
      "type": "error"
    },
    {
      "anonymous": false,
      "inputs": [
        {
          "indexed": true,
          "internalType": "address",
          "name": "owner",
          "type": "address"
        },
        {
          "indexed": true,
          "internalType": "address",
          "name": "approved",
          "type": "address"
        },
        {
          "indexed": true,
          "internalType": "uint256",
          "name": "tokenId",
          "type": "uint256"
        }
      ],
      "name": "Approval",
      "type": "event"
    },
    {
      "anonymous": false,
      "inputs": [
        {
          "indexed": true,
          "internalType": "address",
          "name": "owner",
          "type": "address"
        },
        {
          "indexed": true,
          "internalType": "address",
          "name": "operator",
          "type": "address"
        },
        {
          "indexed": false,
          "internalType": "bool",
          "name": "approved",
          "type": "bool"
        }
      ],
      "name": "ApprovalForAll",
      "type": "event"
    },
    {
      "anonymous": false,
      "inputs": [
        {
          "indexed": false,
          "internalType": "uint256",
          "name": "_fromTokenId",
          "type": "uint256"
        },
        {
          "indexed": false,
          "internalType": "uint256",
          "name": "_toTokenId",
          "type": "uint256"
        }
      ],
      "name": "BatchMetadataUpdate",
      "type": "event"
    },
    {
      "anonymous": false,
      "inputs": [
        {
          "indexed": false,
          "internalType": "uint256",
          "name": "_tokenId",
          "type": "uint256"
        }
      ],
      "name": "MetadataUpdate",
      "type": "event"
    },
    {
      "anonymous": false,
      "inputs": [
        {
          "indexed": true,
          "internalType": "address",
          "name": "previousOwner",
          "type": "address"
        },
        {
          "indexed": true,
          "internalType": "address",
          "name": "newOwner",
          "type": "address"
        }
      ],
      "name": "OwnershipTransferred",
      "type": "event"
    },
    {
      "anonymous": false,
      "inputs": [
        {
          "indexed": true,
          "internalType": "uint256",
          "name": "wrapperId",
          "type": "uint256"
        },
        {
          "indexed": false,
          "internalType": "uint256",
          "name": "pricePerDay",
          "type": "uint256"
        },
        {
          "indexed": false,
          "internalType": "uint256",
          "name": "minDays",
          "type": "uint256"
        },
        {
          "indexed": false,
          "internalType": "uint256",
          "name": "maxDays",
          "type": "uint256"
        }
      ],
      "name": "RentalTermsUpdated",
      "type": "event"
    },
    {
      "anonymous": false,
      "inputs": [
        {
          "indexed": true,
          "internalType": "address",
          "name": "from",
          "type": "address"
        },
        {
          "indexed": true,
          "internalType": "address",
          "name": "to",
          "type": "address"
        },
        {
          "indexed": true,
          "internalType": "uint256",
          "name": "tokenId",
          "type": "uint256"
        }
      ],
      "name": "Transfer",
      "type": "event"
    },
    {
      "anonymous": false,
      "inputs": [
        {
          "indexed": true,
          "internalType": "uint256",
          "name": "tokenId",
          "type": "uint256"
        },
        {
          "indexed": true,
          "internalType": "address",
          "name": "user",
          "type": "address"
        },
        {
          "indexed": false,
          "internalType": "uint64",
          "name": "expires",
          "type": "uint64"
        }
      ],
      "name": "UpdateUser",
      "type": "event"
    },
    {
      "anonymous": false,
      "inputs": [
        {
          "indexed": true,
          "internalType": "uint256",
          "name": "wrapperId",
          "type": "uint256"
        },
        {
          "indexed": true,
          "internalType": "address",
          "name": "owner",
          "type": "address"
        },
        {
          "indexed": false,
          "internalType": "address",
          "name": "originalContract",
          "type": "address"
        },
        {
          "indexed": false,
          "internalType": "uint256",
          "name": "originalTokenId",
          "type": "uint256"
        },
        {
          "indexed": false,
          "internalType": "address",
          "name": "tbaAccount",
          "type": "address"
        }
      ],
      "name": "WrapperCreated",
      "type": "event"
    },
    {
      "inputs": [
        {
          "internalType": "address",
          "name": "to",
          "type": "address"
        },
        {
          "internalType": "uint256",
          "name": "tokenId",
          "type": "uint256"
        }
      ],
      "name": "approve",
      "outputs": [],
      "stateMutability": "nonpayable",
      "type": "function"
    },
    {
      "inputs": [
        {
          "internalType": "address",
          "name": "owner",
          "type": "address"
        }
      ],
      "name": "balanceOf",
      "outputs": [
        {
          "internalType": "uint256",
          "name": "",
          "type": "uint256"
        }
      ],
      "stateMutability": "view",
      "type": "function"
    },
    {
      "inputs": [
        {
          "internalType": "uint256",
          "name": "tokenId",
          "type": "uint256"
        }
      ],
      "name": "burn",
      "outputs": [],
      "stateMutability": "nonpayable",
      "type": "function"
    },
    {
      "inputs": [
        {
          "internalType": "uint256",
          "name": "tokenId",
          "type": "uint256"
        }
      ],
      "name": "getApproved",
      "outputs": [
        {
          "internalType": "address",
          "name": "",
          "type": "address"
        }
      ],
      "stateMutability": "view",
      "type": "function"
    },
    {
      "inputs": [
        {
          "internalType": "address",
          "name": "owner",
          "type": "address"
        },
        {
          "internalType": "address",
          "name": "operator",
          "type": "address"
        }
      ],
      "name": "isApprovedForAll",
      "outputs": [
        {
          "internalType": "bool",
          "name": "",
          "type": "bool"
        }
      ],
      "stateMutability": "view",
      "type": "function"
    },
    {
      "inputs": [
        {
          "internalType": "uint256",
          "name": "tokenId",
          "type": "uint256"
        }
      ],
      "name": "isRented",
      "outputs": [
        {
          "internalType": "bool",
          "name": "",
          "type": "bool"
        }
      ],
      "stateMutability": "view",
      "type": "function"
    },
    {
      "inputs": [
        {
          "internalType": "address",
          "name": "to",
          "type": "address"
        },
        {
          "internalType": "address",
          "name": "originalContract",
          "type": "address"
        },
        {
          "internalType": "uint256",
          "name": "originalTokenId",
          "type": "uint256"
        },
        {
          "internalType": "address",
          "name": "tbaAccount",
          "type": "address"
        },
        {
          "internalType": "uint256",
          "name": "pricePerDay",
          "type": "uint256"
        },
        {
          "internalType": "uint256",
          "name": "minDays",
          "type": "uint256"
        },
        {
          "internalType": "uint256",
          "name": "maxDays",
          "type": "uint256"
        },
        {
          "internalType": "string",
          "name": "tokenURI_",
          "type": "string"
        }
      ],
      "name": "mint",
      "outputs": [
        {
          "internalType": "uint256",
          "name": "",
          "type": "uint256"
        }
      ],
      "stateMutability": "nonpayable",
      "type": "function"
    },
    {
      "inputs": [],
      "name": "name",
      "outputs": [
        {
          "internalType": "string",
          "name": "",
          "type": "string"
        }
      ],
      "stateMutability": "view",
      "type": "function"
    },
    {
      "inputs": [],
      "name": "owner",
      "outputs": [
        {
          "internalType": "address",
          "name": "",
          "type": "address"
        }
      ],
      "stateMutability": "view",
      "type": "function"
    },
    {
      "inputs": [
        {
          "internalType": "uint256",
          "name": "tokenId",
          "type": "uint256"
        }
      ],
      "name": "ownerOf",
      "outputs": [
        {
          "internalType": "address",
          "name": "",
          "type": "address"
        }
      ],
      "stateMutability": "view",
      "type": "function"
    },
    {
      "inputs": [],
      "name": "renounceOwnership",
      "outputs": [],
      "stateMutability": "nonpayable",
      "type": "function"
    },
    {
      "inputs": [],
      "name": "rentalManager",
      "outputs": [
        {
          "internalType": "address",
          "name": "",
          "type": "address"
        }
      ],
      "stateMutability": "view",
      "type": "function"
    },
    {
      "inputs": [
        {
          "internalType": "address",
          "name": "from",
          "type": "address"
        },
        {
          "internalType": "address",
          "name": "to",
          "type": "address"
        },
        {
          "internalType": "uint256",
          "name": "tokenId",
          "type": "uint256"
        }
      ],
      "name": "safeTransferFrom",
      "outputs": [],
      "stateMutability": "nonpayable",
      "type": "function"
    },
    {
      "inputs": [
        {
          "internalType": "address",
          "name": "from",
          "type": "address"
        },
        {
          "internalType": "address",
          "name": "to",
          "type": "address"
        },
        {
          "internalType": "uint256",
          "name": "tokenId",
          "type": "uint256"
        },
        {
          "internalType": "bytes",
          "name": "data",
          "type": "bytes"
        }
      ],
      "name": "safeTransferFrom",
      "outputs": [],
      "stateMutability": "nonpayable",
      "type": "function"
    },
    {
      "inputs": [
        {
          "internalType": "uint256",
          "name": "tokenId",
          "type": "uint256"
        },
        {
          "internalType": "bool",
          "name": "active",
          "type": "bool"
        }
      ],
      "name": "setActive",
      "outputs": [],
      "stateMutability": "nonpayable",
      "type": "function"
    },
    {
      "inputs": [
        {
          "internalType": "address",
          "name": "operator",
          "type": "address"
        },
        {
          "internalType": "bool",
          "name": "approved",
          "type": "bool"
        }
      ],
      "name": "setApprovalForAll",
      "outputs": [],
      "stateMutability": "nonpayable",
      "type": "function"
    },
    {
      "inputs": [
        {
          "internalType": "address",
          "name": "_rentalManager",
          "type": "address"
        }
      ],
      "name": "setRentalManager",
      "outputs": [],
      "stateMutability": "nonpayable",
      "type": "function"
    },
    {
      "inputs": [
        {
          "internalType": "uint256",
          "name": "tokenId",
          "type": "uint256"
        },
        {
          "internalType": "address",
          "name": "user",
          "type": "address"
        },
        {
          "internalType": "uint64",
          "name": "expires",
          "type": "uint64"
        }
      ],
      "name": "setUser",
      "outputs": [],
      "stateMutability": "nonpayable",
      "type": "function"
    },
    {
      "inputs": [
        {
          "internalType": "bytes4",
          "name": "interfaceId",
          "type": "bytes4"
        }
      ],
      "name": "supportsInterface",
      "outputs": [
        {
          "internalType": "bool",
          "name": "",
          "type": "bool"
        }
      ],
      "stateMutability": "view",
      "type": "function"
    },
    {
      "inputs": [],
      "name": "symbol",
      "outputs": [
        {
          "internalType": "string",
          "name": "",
          "type": "string"
        }
      ],
      "stateMutability": "view",
      "type": "function"
    },
    {
      "inputs": [
        {
          "internalType": "uint256",
          "name": "tokenId",
          "type": "uint256"
        }
      ],
      "name": "tokenURI",
      "outputs": [
        {
          "internalType": "string",
          "name": "",
          "type": "string"
        }
      ],
      "stateMutability": "view",
      "type": "function"
    },
    {
      "inputs": [],
      "name": "totalWrappers",
      "outputs": [
        {
          "internalType": "uint256",
          "name": "",
          "type": "uint256"
        }
      ],
      "stateMutability": "view",
      "type": "function"
    },
    {
      "inputs": [
        {
          "internalType": "address",
          "name": "from",
          "type": "address"
        },
        {
          "internalType": "address",
          "name": "to",
          "type": "address"
        },
        {
          "internalType": "uint256",
          "name": "tokenId",
          "type": "uint256"
        }
      ],
      "name": "transferFrom",
      "outputs": [],
      "stateMutability": "nonpayable",
      "type": "function"
    },
    {
      "inputs": [
        {
          "internalType": "address",
          "name": "newOwner",
          "type": "address"
        }
      ],
      "name": "transferOwnership",
      "outputs": [],
      "stateMutability": "nonpayable",
      "type": "function"
    },
    {
      "inputs": [
        {
          "internalType": "uint256",
          "name": "tokenId",
          "type": "uint256"
        },
        {
          "internalType": "uint256",
          "name": "pricePerDay",
          "type": "uint256"
        },
        {
          "internalType": "uint256",
          "name": "minDays",
          "type": "uint256"
        },
        {
          "internalType": "uint256",
          "name": "maxDays",
          "type": "uint256"
        }
      ],
      "name": "updateRentalTerms",
      "outputs": [],
      "stateMutability": "nonpayable",
      "type": "function"
    },
    {
      "inputs": [
        {
          "internalType": "uint256",
          "name": "tokenId",
          "type": "uint256"
        }
      ],
      "name": "userExpires",
      "outputs": [
        {
          "internalType": "uint64",
          "name": "",
          "type": "uint64"
        }
      ],
      "stateMutability": "view",
      "type": "function"
    },
    {
      "inputs": [
        {
          "internalType": "uint256",
          "name": "tokenId",
          "type": "uint256"
        }
      ],
      "name": "userOf",
      "outputs": [
        {
          "internalType": "address",
          "name": "",
          "type": "address"
        }
      ],
      "stateMutability": "view",
      "type": "function"
    },
    {
      "inputs": [
        {
          "internalType": "uint256",
          "name": "",
          "type": "uint256"
        }
      ],
      "name": "wrapperInfo",
      "outputs": [
        {
          "internalType": "address",
          "name": "originalContract",
          "type": "address"
        },
        {
          "internalType": "uint256",
          "name": "originalTokenId",
          "type": "uint256"
        },
        {
          "internalType": "address",
          "name": "tbaAccount",
          "type": "address"
        },
        {
          "internalType": "uint256",
          "name": "pricePerDay",
          "type": "uint256"
        },
        {
          "internalType": "uint256",
          "name": "minDays",
          "type": "uint256"
        },
        {
          "internalType": "uint256",
          "name": "maxDays",
          "type": "uint256"
        },
        {
          "internalType": "bool",
          "name": "isActive",
          "type": "bool"
        },
        {
          "internalType": "uint256",
          "name": "createdAt",
          "type": "uint256"
        }
      ],
      "stateMutability": "view",
      "type": "function"
    }
  ],
  "bytecode": "0x6080346200035b576001600160401b03906040908082018381118282101762000279578252601d81526020927f466f7274756e61205371756172652052656e74616c205772617070657200000084830152825193838501858110838211176200027957845260068552651194d491539560d21b8186015282519082821162000279575f54916001948584811c9416801562000350575b838510146200025a578190601f94858111620002fd575b50839085831160011462000299575f926200028d575b50505f19600383901b1c191690851b175f555b8551928311620002795783548481811c911680156200026e575b828210146200025a5782811162000212575b5080918311600114620001ad5750819293945f92620001a1575b50505f19600383901b1c191690821b1781555b33156200018a5760078054336001600160a01b0319821681179092559251926001600160a01b03167f8be0079c531659141344cd1fd0a4f28419497f9722a3daafe3b4186f6b6457e05f80a3600855611a509081620003608239f35b8151631e4fbdf760e01b81525f6004820152602490fd5b015190505f806200011b565b90601f19831695845f52825f20925f905b888210620001fa5750508385969710620001e1575b505050811b0181556200012e565b01515f1960f88460031b161c191690555f8080620001d3565b808785968294968601518155019501930190620001be565b845f52815f208380860160051c82019284871062000250575b0160051c019085905b8281106200024457505062000101565b5f815501859062000234565b925081926200022b565b634e487b7160e01b5f52602260045260245ffd5b90607f1690620000ef565b634e487b7160e01b5f52604160045260245ffd5b015190505f80620000c2565b90879350601f198316915f8052855f20925f5b87828210620002e65750508411620002cd575b505050811b015f55620000d5565b01515f1960f88460031b161c191690555f8080620002bf565b8385015186558b97909501949384019301620002ac565b9091505f8052835f208580850160051c82019286861062000346575b918991869594930160051c01915b82811062000337575050620000ac565b5f815585945089910162000327565b9250819262000319565b93607f169362000095565b5f80fdfe6080806040526004361015610012575f80fd5b5f3560e01c90816301ffc9a7146114685750806302b663d514610e3a57806306fdde0314610d93578063081812fc14610d57578063095ea7b314610c7657806323b872dd14610c5f57806342842e0e14610c3257806342966c6814610a7a5780634e12705014610a3d578063524a7fc0146109b7578063577b540b146109395780636352211e1461091b57806370a08231146108c5578063715018a61461086a5780638da5cb5b146108425780638fc88c481461080c57806395d89b411461072e578063a22cb46514610687578063aa15d40f14610656578063b88d4fde146105eb578063c278cff6146105c3578063c2f1f14a14610593578063c87b56dd146104a8578063ca62d2b9146103c5578063e030565e1461028a578063e60a955d1461022d578063e985e9c5146101db5763f2fde38b14610150575f80fd5b346101d75760203660031901126101d757610169611507565b6101716118a4565b6001600160a01b039081169081156101bf57600754826001600160601b0360a01b821617600755167f8be0079c531659141344cd1fd0a4f28419497f9722a3daafe3b4186f6b6457e05f80a3005b604051631e4fbdf760e01b81525f6004820152602490fd5b5f80fd5b346101d75760403660031901126101d7576101f4611507565b6101fc61151d565b9060018060a01b038091165f52600560205260405f2091165f52602052602060ff60405f2054166040519015158152f35b346101d75760403660031901126101d75761028860043561024c611633565b9061026961025982611882565b6001600160a01b03163314611842565b5f52600a602052600660405f20019060ff801983541691151516179055565b005b346101d75760603660031901126101d7576004356102a661151d565b90604435916001600160401b0383168084036101d7576009546001600160a01b0391908216330361038157835f5260026020528160405f20541615610343577f4e06b4e7000e659094299b3533b47b6aa8ad048e95e872d23d1f4ee55af89cfe92602092855f52600b845260405f20911695868254916001600160401b0360a01b9060a01b169163ffffffff60e01b1617179055604051908152a3005b60405162461bcd60e51b815260206004820152601660248201527515dc985c1c195c88191bd95cc81b9bdd08195e1a5cdd60521b6044820152606490fd5b606460405162461bcd60e51b815260206004820152602060248201527f4f6e6c792072656e74616c206d616e616765722063616e2073657420757365726044820152fd5b346101d75760803660031901126101d7576004356064356044356024356103ee61025985611882565b835f52600b6020526001600160401b0360405f205460a01c16421115610463577f3a9d973a3cd27ec2015ed7f1dced98a890b4ac6c76f11182d8232acef7a9c66592606092855f52600a60205281600560405f20856003820155836004820155015560405192835260208301526040820152a2005b60405162461bcd60e51b815260206004820152601a60248201527f43616e6e6f7420757064617465207768696c652072656e7465640000000000006044820152606490fd5b346101d7576020806003193601126101d7576004356104c681611882565b505f526006815260405f209060405191825f82546104e381611642565b93848452600191866001821691825f14610571575050600114610535575b505061050f9250038361154e565b5f60405161051c81611533565b526105316040519282849384528301906115c0565b0390f35b8592505f52815f20905f915b85831061055957505061050f93508201018580610501565b80548389018501528794508693909201918101610541565b925093505061050f94915060ff191682840152151560051b8201018580610501565b346101d75760203660031901126101d75760206105b1600435611811565b6040516001600160a01b039091168152f35b346101d7575f3660031901126101d7576009546040516001600160a01b039091168152602090f35b346101d75760803660031901126101d757610604611507565b61060c61151d565b90604435606435926001600160401b0384116101d757366023850112156101d75761064461028894369060248160040135910161158a565b9261065083838361167a565b336118d0565b346101d75760203660031901126101d75760206001600160a01b0361067c600435611811565b161515604051908152f35b346101d75760403660031901126101d7576106a0611507565b6106a8611633565b6001600160a01b0390911690811561071557335f52600560205260405f20825f526020526106e58160405f209060ff801983541691151516179055565b60405190151581527f17307eab39ab6107e8899845ad3d59bd9653f200f220920489ca2b5937696c3160203392a3005b604051630b61174360e31b815260048101839052602490fd5b346101d7575f3660031901126101d7576040515f6001826001549261075284611642565b92838352602094856001821691825f146107ec575050600114610791575b5061077d9250038361154e565b6105316040519282849384528301906115c0565b84915060015f527fb10e2d527612073b26eecdfd717e6a320cf44b4afac2b0732d9fcbe2b7fa0cf6905f915b8583106107d457505061077d935082010185610770565b805483890185015287945086939092019181016107bd565b60ff19168582015261077d95151560051b85010192508791506107709050565b346101d75760203660031901126101d7576004355f52600b60205260206001600160401b0360405f205460a01c16604051908152f35b346101d7575f3660031901126101d7576007546040516001600160a01b039091168152602090f35b346101d7575f3660031901126101d7576108826118a4565b600780546001600160a01b031981169091555f906001600160a01b03167f8be0079c531659141344cd1fd0a4f28419497f9722a3daafe3b4186f6b6457e08280a3005b346101d75760203660031901126101d7576001600160a01b036108e6611507565b168015610903575f526003602052602060405f2054604051908152f35b6040516322718ad960e21b81525f6004820152602490fd5b346101d75760203660031901126101d75760206105b1600435611882565b346101d75760203660031901126101d757610952611507565b61095a6118a4565b6001600160a01b03168015610980576001600160601b0360a01b60095416176009555f80f35b60405162461bcd60e51b815260206004820152600f60248201526e496e76616c6964206164647265737360881b6044820152606490fd5b346101d75760203660031901126101d7576004355f52600a60205261010060405f2060018060a01b0380825416916001810154916002820154166003820154600483015490600584015492600760ff60068701541695015495604051978852602088015260408701526060860152608085015260a0840152151560c083015260e0820152f35b346101d7575f3660031901126101d7576008545f198101908111610a6657602090604051908152f35b634e487b7160e01b5f52601160045260245ffd5b346101d7576020806003193601126101d75760095460043591906001600160a01b039081163303610bed57825f52600b82526001600160401b0360405f205460a01c16421115610ba8575f8391828252600a8452816007604082208281558260018201558260028201558260038201558260048201558260058201558260068201550155600b84528160408120556002845260408220541660028115948515610b76575b848452526040822080546001600160a01b03191690557fddf252ad1be2c89b69c2b068fc378daa952ba7f163c4a11628f55a4df523b3ef8280a4610b5e57005b60249060405190637e27328960e01b82526004820152fd5b5f85815260046020526040902080546001600160a01b0319169055828452600381526040842084198154019055610b1e565b60405162461bcd60e51b815260048101839052601860248201527f43616e6e6f74206275726e207768696c652072656e74656400000000000000006044820152606490fd5b60405162461bcd60e51b815260048101839052601c60248201527f4f6e6c792072656e74616c206d616e616765722063616e206275726e000000006044820152606490fd5b346101d757610288610c43366115fe565b9060405192610c5184611533565b5f845261065083838361167a565b346101d757610288610c70366115fe565b9161167a565b346101d75760403660031901126101d757610c8f611507565b602435610c9b81611882565b33151580610d44575b80610d1b575b610d03576001600160a01b039283169282918491167f8c5be1e5ebec7d5bd14f71427d1e84f3dd0314c0f7b2291e5b200ac8c7c3b9255f80a45f90815260046020526040902080546001600160a01b0319169091179055005b60405163a9fbf51f60e01b8152336004820152602490fd5b5060018060a01b0381165f52600560205260405f20335f5260205260ff60405f20541615610caa565b506001600160a01b038116331415610ca4565b346101d75760203660031901126101d757600435610d7481611882565b505f526004602052602060018060a01b0360405f205416604051908152f35b346101d7575f3660031901126101d7576040515f80549082610db483611642565b91828252602093600190856001821691825f146107ec575050600114610de1575061077d9250038361154e565b5f808052859250907f290decd9548b62a8d60345a988386fc84ba6bc95484008f6362f93160ef3e5635b858310610e2257505061077d935082010185610770565b80548389018501528794508693909201918101610e0b565b346101d7576101003660031901126101d757610e54611507565b610e5c61151d565b6064356001600160a01b03811690036101d75760e4356001600160401b0381116101d757366023820112156101d757610e9f90369060248160040135910161158a565b6009549091906001600160a01b0316330361142357600854915f198314610a665760018301600855604051610ed381611533565b5f81526001600160a01b0385161561140b576001600160a01b03610ef685611811565b166113c6575f848152600260205260409020546001600160a01b031680151590859082611393575b6001600160a01b0388165f818152600360209081526040808320805460010190558583526002909152812080546001600160a01b031916831790559091907fddf252ad1be2c89b69c2b068fc378daa952ba7f163c4a11628f55a4df523b3ef9080a461137b57843b611240575b50825f52600660205260405f20908051906001600160401b03821161116c578190610fb68454611642565b601f81116111f3575b50602090601f831160011461118b575f92611180575b50508160011b915f199060031b1c19161790555b7ff8e1a15aba9398e019f0b49df1a4fde98ee17ae345cb5f6b5e2c27f5033e8ce76020604051848152a1604051926101008401938085106001600160401b0386111761116c5761116184927fab8f493ca6fb0028623647845b2900429cf270d802ad1874dbba2457775a66939260209760405260018060a01b03861681526007888201604435815261112b6040840160018060a01b036064351681526060850160843581526080860160a435815260a087019160c435835260c08801936001855260e08901964288528d5f526020600a905260405f209960018060a01b039051166001600160601b0360a01b8b5416178a555160018a0155600289019060018060a01b039051166001600160601b0360a01b825416179055516003880155516004870155516005860155511515600685019060ff801983541691151516179055565b51910155604080516001600160a01b03968716815260443560208201526064358716918101919091529416939081906060820190565b0390a3604051908152f35b634e487b7160e01b5f52604160045260245ffd5b015190508680610fd5565b9250835f5260205f20905f935b601f19841685106111d8576001945083601f198116106111c0575b505050811b019055610fe9565b01515f1960f88460031b161c191690558680806111b3565b81810151835560209485019460019093019290910190611198565b909150835f5260205f20601f840160051c810160208510611239575b90849392915b601f830160051c8201811061122b575050610fbf565b5f8155859450600101611215565b508061120f565b602061127a9160405180938192630a85bd0160e11b83523360048401525f60248401528860448401526080606484015260848301906115c0565b03815f6001600160a01b038a165af15f9181611336575b506112f857843d156112f0573d906112a88261156f565b916112b6604051938461154e565b82523d5f602084013e5b815191826112e957604051633250574960e11b81526001600160a01b0383166004820152602490fd5b6020915001fd5b6060906112c0565b6001600160e01b03191663757a42ff60e11b016113155784610f8b565b604051633250574960e11b81526001600160a01b0385166004820152602490fd5b9091506020813d602011611373575b816113526020938361154e565b810103126101d757516001600160e01b0319811681036101d7579086611291565b3d9150611345565b6040516339e3563760e11b81525f6004820152602490fd5b5f82815260046020526040902080546001600160a01b0319169055805f52600360205260405f205f198154019055610f1e565b60405162461bcd60e51b815260206004820152601c60248201527f43616e6e6f74207472616e73666572207768696c652072656e746564000000006044820152606490fd5b604051633250574960e11b81525f6004820152602490fd5b60405162461bcd60e51b815260206004820152601c60248201527f4f6e6c792072656e74616c206d616e616765722063616e206d696e74000000006044820152606490fd5b346101d75760203660031901126101d7576004359063ffffffff60e01b82168092036101d757602091632b424ad760e21b81149081156114aa575b5015158152f35b632483248360e11b8114915081156114c4575b50836114a3565b6380ac58cd60e01b8114915081156114f6575b81156114e5575b50836114bd565b6301ffc9a760e01b149050836114de565b635b5e139f60e01b811491506114d7565b600435906001600160a01b03821682036101d757565b602435906001600160a01b03821682036101d757565b602081019081106001600160401b0382111761116c57604052565b90601f801991011681019081106001600160401b0382111761116c57604052565b6001600160401b03811161116c57601f01601f191660200190565b9291926115968261156f565b916115a4604051938461154e565b8294818452818301116101d7578281602093845f960137010152565b91908251928382525f5b8481106115ea575050825f602080949584010152601f8019910116010190565b6020818301810151848301820152016115ca565b60609060031901126101d7576001600160a01b039060043582811681036101d7579160243590811681036101d7579060443590565b6024359081151582036101d757565b90600182811c92168015611670575b602083101461165c57565b634e487b7160e01b5f52602260045260245ffd5b91607f1691611651565b906001600160a01b03908116801561140b578161169685611811565b166113c657835f52602091600283528460409282845f205416943315158061177f575b506002908661174e575b825f5260038152855f2060018154019055835f5252835f20816001600160601b0360a01b825416179055847fddf252ad1be2c89b69c2b068fc378daa952ba7f163c4a11628f55a4df523b3ef5f80a4831682036117205750505050565b516364283d7b60e01b81526001600160a01b0392831660048201526024810193909352166044820152606490fd5b5f84815260046020526040812080546001600160a01b03191690558781526003825286902080545f190190556116c3565b91925090806117d0575b15611797579086915f6116b9565b8387866117b4576024915190637e27328960e01b82526004820152fd5b604491519063177e802f60e01b82523360048301526024820152fd5b5033851480156117f5575b806117895750865f52600481523383855f20541614611789565b50845f5260058152835f20335f52815260ff845f2054166117db565b5f52600b60205260405f2054426001600160401b038260a01c16101561183657505f90565b6001600160a01b031690565b1561184957565b60405162461bcd60e51b81526020600482015260116024820152702737ba103bb930b83832b91037bbb732b960791b6044820152606490fd5b5f818152600260205260409020546001600160a01b0316908115610b5e575090565b6007546001600160a01b031633036118b857565b60405163118cdaa760e01b8152336004820152602490fd5b9293909193843b6118e3575b5050505050565b604051630a85bd0160e11b8082526001600160a01b0395861660048301529385166024820152604481019190915260806064820152602095949093169392908590829081906119369060848301906115c0565b03815f885af15f91816119da575b506119a3575050503d5f1461199b573d9161195e8361156f565b9261196c604051948561154e565b83523d5f8285013e5b8251928361199657604051633250574960e11b815260048101849052602490fd5b019050fd5b606091611975565b9193506001600160e01b0319909116036119c257505f808080806118dc565b60249060405190633250574960e11b82526004820152fd5b9091508581813d8311611a13575b6119f2818361154e565b810103126101d757516001600160e01b0319811681036101d757905f611944565b503d6119e856fea2646970667358221220fc3b7f5f3221ea6500cacdc53e08d0da66dbcb248f5eef1e29653352ae30abc864736f6c63430008180033",
  "linkReferences": {},
  "deployedLinkReferences": {}
}