{
  "_format": "hh-sol-artifact-1",
  "contractName": "FortunaSquareRentalAccount",
  "sourceName": "contracts/FortunaSquareRentalAccount.sol",
  "abi": [
    {
      "inputs": [],
      "name": "DELEGATE_REGISTRY",
      "outputs": [
        {
          "internalType": "address",
          "name": "",
          "type": "address"
        }
      ],
      "stateMutability": "view",
      "type": "function"
    },
    {
      "inputs": [],
      "name": "context",
      "outputs": [
        {
          "internalType": "uint256",
          "name": "chainId",
          "type": "uint256"
        },
        {
          "internalType": "address",
          "name": "tokenContract",
          "type": "address"
        },
        {
          "internalType": "uint256",
          "name": "tokenId",
          "type": "uint256"
        }
      ],
      "stateMutability": "view",
      "type": "function"
    },
    {
      "inputs": [
        {
          "internalType": "address",
          "name": "delegate",
          "type": "address"
        },
        {
          "internalType": "address",
          "name": "nftContract",
          "type": "address"
        },
        {
          "internalType": "uint256",
          "name": "tokenId",
          "type": "uint256"
        },
        {
          "internalType": "bool",
          "name": "enable",
          "type": "bool"
        }
      ],
      "name": "delegateNFT",
      "outputs": [],
      "stateMutability": "nonpayable",
      "type": "function"
    },
    {
      "inputs": [
        {
          "internalType": "address",
          "name": "to",
          "type": "address"
        },
        {
          "internalType": "uint256",
          "name": "value",
          "type": "uint256"
        },
        {
          "internalType": "bytes",
          "name": "data",
          "type": "bytes"
        }
      ],
      "name": "executeCall",
      "outputs": [
        {
          "internalType": "bytes",
          "name": "result",
          "type": "bytes"
        }
      ],
      "stateMutability": "payable",
      "type": "function"
    },
    {
      "inputs": [
        {
          "internalType": "bytes32",
          "name": "hash",
          "type": "bytes32"
        },
        {
          "internalType": "bytes",
          "name": "signature",
          "type": "bytes"
        }
      ],
      "name": "isValidSignature",
      "outputs": [
        {
          "internalType": "bytes4",
          "name": "magicValue",
          "type": "bytes4"
        }
      ],
      "stateMutability": "view",
      "type": "function"
    },
    {
      "inputs": [
        {
          "internalType": "address",
          "name": "",
          "type": "address"
        },
        {
          "internalType": "address",
          "name": "",
          "type": "address"
        },
        {
          "internalType": "uint256",
          "name": "",
          "type": "uint256"
        },
        {
          "internalType": "bytes",
          "name": "",
          "type": "bytes"
        }
      ],
      "name": "onERC721Received",
      "outputs": [
        {
          "internalType": "bytes4",
          "name": "",
          "type": "bytes4"
        }
      ],
      "stateMutability": "pure",
      "type": "function"
    },
    {
      "inputs": [],
      "name": "owner",
      "outputs": [
        {
          "internalType": "address",
          "name": "",
          "type": "address"
        }
      ],
      "stateMutability": "view",
      "type": "function"
    },
    {
      "inputs": [
        {
          "internalType": "bytes4",
          "name": "interfaceId",
          "type": "bytes4"
        }
      ],
      "name": "supportsInterface",
      "outputs": [
        {
          "internalType": "bool",
          "name": "",
          "type": "bool"
        }
      ],
      "stateMutability": "view",
      "type": "function"
    },
    {
      "stateMutability": "payable",
      "type": "receive"
    }
  ],
  "bytecode": "0x6080806040523461001657610849908161001b8239f35b5f80fdfe6080604052600436101561001a575b3615610018575f80fd5b005b5f3560e01c806301ffc9a714610099578063150b7a02146100945780631626ba7e1461008f5780633af65ff91461008a5780638286eee2146100855780638da5cb5b146100805780639e5d4c491461007b5763d0496d6a0361000e5761047d565b6103f1565b610387565b610360565b610291565b6101fa565b610148565b346101055760203660031901126101055760043563ffffffff60e01b8116809103610105576301ffc9a760e01b81149081156100f4575b81156100e3575b50151560805260206080f35b630a85bd0160e11b149050816100d7565b630b135d3f60e11b811491506100d0565b5f80fd5b6001600160a01b0381160361010557565b9181601f840112156101055782359167ffffffffffffffff8311610105576020838186019501011161010557565b3461010557608036600319011261010557610164600435610109565b61016f602435610109565b60643567ffffffffffffffff81116101055761018f90369060040161011a565b5050604051630a85bd0160e11b8152602090f35b634e487b7160e01b5f52604160045260245ffd5b90601f8019910116810190811067ffffffffffffffff8211176101d957604052565b6101a3565b67ffffffffffffffff81116101d957601f01601f191660200190565b346101055760403660031901126101055760243567ffffffffffffffff8111610105573660238201121561010557806004013590610237826101de565b61024460405191826101b7565b8281523660248484010111610105575f60208461028d956024610272960183860137830101526004356104b4565b6040516001600160e01b031990911681529081906020820190565b0390f35b34610105576080366003190112610105576004356102ae81610109565b602435906102bb82610109565b60643590811515809203610105576102da6102d53361071a565b6104da565b6040519263b18e2bbb60e01b845260018060a01b03809216600485015216602483015260443560448301525f6064830152608482015260208160a4815f6c447e69651d841bd8d104bed4935af1801561035b5761033357005b6100189060203d602011610354575b61034c81836101b7565b810190610516565b503d610342565b610525565b34610105575f3660031901126101055760206040516c447e69651d841bd8d104bed4938152f35b34610105575f3660031901126101055760206103a1610530565b6040516001600160a01b039091168152f35b91908251928382525f5b8481106103dd575050825f602080949584010152601f8019910116010190565b6020818301810151848301820152016103bd565b60603660031901126101055760043561040981610109565b60443567ffffffffffffffff8111610105575f9161042c8392369060040161011a565b906104396102d53361071a565b81604051928392833781018481520391602435905af16104576105ad565b90156104755761028d906040519182916020835260208301906103b3565b602081519101fd5b34610105575f3660031901126101055760606104976105dc565b604080519384526001600160a01b03909216602084015290820152f35b906104c6916104c1610530565b610658565b156104d657630b135d3f60e11b90565b5f90565b156104e157565b60405162461bcd60e51b815260206004820152600d60248201526c139bdd105d5d1a1bdc9a5e9959609a1b6044820152606490fd5b90816020910312610105575190565b6040513d5f823e3d90fd5b602061053a6105dc565b6040516331a9108f60e11b81526004810191909152929150829060249082906001600160a01b03165afa90811561035b575f91610575575090565b90506020813d6020116105a5575b81610590602093836101b7565b8101031261010557516105a281610109565b90565b3d9150610583565b3d156105d7573d906105be826101de565b916105cc60405193846101b7565b82523d5f602084013e565b606090565b604051906080820182811067ffffffffffffffff8211176101d95760405260608252602082016060604d82303c606083805181010312610105575190606060408401519361062985610109565b015191926001600160a01b03169190565b6004111561064457565b634e487b7160e01b5f52602160045260245ffd5b9091813b6106935761066a9192610757565b506106748161063a565b15918261068057505090565b6001600160a01b03918216911614919050565b5f9182916040516106d6816106c86020820194630b135d3f60e11b998a875260248401526040604484015260648301906103b3565b03601f1981018352826101b7565b51915afa906106e36105ad565b8261070c575b826106f357505090565b61070891925060208082518301019101610516565b1490565b9150602082511015916106e9565b6107226105dc565b506001600160a01b039283169291508116821461075057610741610530565b161461074b575f90565b600190565b5050600190565b8151919060418303610787576107809250602082015190606060408401519301515f1a90610791565b9192909190565b50505f9160029190565b91907f7fffffffffffffffffffffffffffffff5d576e7357a4501ddfe92f46681b20a08411610808579160209360809260ff5f9560405194855216868401526040830152606082015282805260015afa1561035b575f516001600160a01b038116156107fe57905f905f90565b505f906001905f90565b5050505f916003919056fea26469706673582212202cf5b0a849e1550f24359b749c0cc06f880e063c79e5354ea3522edffa5faab464736f6c63430008180033",
  "linkReferences": {},
  "deployedLinkReferences": {}
}