{
  "_format": "hh-sol-artifact-1",
  "contractName": "TestERC1155",
  "sourceName": "contracts/TestERC1155.sol",
  "abi": [
    {
      "inputs": [],
      "stateMutability": "nonpayable",
      "type": "constructor"
    },
    {
      "inputs": [
        {
          "internalType": "address",
          "name": "sender",
          "type": "address"
        },
        {
          "internalType": "uint256",
          "name": "balance",
          "type": "uint256"
        },
        {
          "internalType": "uint256",
          "name": "needed",
          "type": "uint256"
        },
        {
          "internalType": "uint256",
          "name": "tokenId",
          "type": "uint256"
        }
      ],
      "name": "ERC1155InsufficientBalance",
      "type": "error"
    },
    {
      "inputs": [
        {
          "internalType": "address",
          "name": "approver",
          "type": "address"
        }
      ],
      "name": "ERC1155InvalidApprover",
      "type": "error"
    },
    {
      "inputs": [
        {
          "internalType": "uint256",
          "name": "idsLength",
          "type": "uint256"
        },
        {
          "internalType": "uint256",
          "name": "valuesLength",
          "type": "uint256"
        }
      ],
      "name": "ERC1155InvalidArrayLength",
      "type": "error"
    },
    {
      "inputs": [
        {
          "internalType": "address",
          "name": "operator",
          "type": "address"
        }
      ],
      "name": "ERC1155InvalidOperator",
      "type": "error"
    },
    {
      "inputs": [
        {
          "internalType": "address",
          "name": "receiver",
          "type": "address"
        }
      ],
      "name": "ERC1155InvalidReceiver",
      "type": "error"
    },
    {
      "inputs": [
        {
          "internalType": "address",
          "name": "sender",
          "type": "address"
        }
      ],
      "name": "ERC1155InvalidSender",
      "type": "error"
    },
    {
      "inputs": [
        {
          "internalType": "address",
          "name": "operator",
          "type": "address"
        },
        {
          "internalType": "address",
          "name": "owner",
          "type": "address"
        }
      ],
      "name": "ERC1155MissingApprovalForAll",
      "type": "error"
    },
    {
      "inputs": [
        {
          "internalType": "address",
          "name": "owner",
          "type": "address"
        }
      ],
      "name": "OwnableInvalidOwner",
      "type": "error"
    },
    {
      "inputs": [
        {
          "internalType": "address",
          "name": "account",
          "type": "address"
        }
      ],
      "name": "OwnableUnauthorizedAccount",
      "type": "error"
    },
    {
      "anonymous": false,
      "inputs": [
        {
          "indexed": true,
          "internalType": "address",
          "name": "account",
          "type": "address"
        },
        {
          "indexed": true,
          "internalType": "address",
          "name": "operator",
          "type": "address"
        },
        {
          "indexed": false,
          "internalType": "bool",
          "name": "approved",
          "type": "bool"
        }
      ],
      "name": "ApprovalForAll",
      "type": "event"
    },
    {
      "anonymous": false,
      "inputs": [
        {
          "indexed": true,
          "internalType": "address",
          "name": "previousOwner",
          "type": "address"
        },
        {
          "indexed": true,
          "internalType": "address",
          "name": "newOwner",
          "type": "address"
        }
      ],
      "name": "OwnershipTransferred",
      "type": "event"
    },
    {
      "anonymous": false,
      "inputs": [
        {
          "indexed": true,
          "internalType": "address",
          "name": "operator",
          "type": "address"
        },
        {
          "indexed": true,
          "internalType": "address",
          "name": "from",
          "type": "address"
        },
        {
          "indexed": true,
          "internalType": "address",
          "name": "to",
          "type": "address"
        },
        {
          "indexed": false,
          "internalType": "uint256[]",
          "name": "ids",
          "type": "uint256[]"
        },
        {
          "indexed": false,
          "internalType": "uint256[]",
          "name": "values",
          "type": "uint256[]"
        }
      ],
      "name": "TransferBatch",
      "type": "event"
    },
    {
      "anonymous": false,
      "inputs": [
        {
          "indexed": true,
          "internalType": "address",
          "name": "operator",
          "type": "address"
        },
        {
          "indexed": true,
          "internalType": "address",
          "name": "from",
          "type": "address"
        },
        {
          "indexed": true,
          "internalType": "address",
          "name": "to",
          "type": "address"
        },
        {
          "indexed": false,
          "internalType": "uint256",
          "name": "id",
          "type": "uint256"
        },
        {
          "indexed": false,
          "internalType": "uint256",
          "name": "value",
          "type": "uint256"
        }
      ],
      "name": "TransferSingle",
      "type": "event"
    },
    {
      "anonymous": false,
      "inputs": [
        {
          "indexed": false,
          "internalType": "string",
          "name": "value",
          "type": "string"
        },
        {
          "indexed": true,
          "internalType": "uint256",
          "name": "id",
          "type": "uint256"
        }
      ],
      "name": "URI",
      "type": "event"
    },
    {
      "inputs": [
        {
          "internalType": "address",
          "name": "account",
          "type": "address"
        },
        {
          "internalType": "uint256",
          "name": "id",
          "type": "uint256"
        }
      ],
      "name": "balanceOf",
      "outputs": [
        {
          "internalType": "uint256",
          "name": "",
          "type": "uint256"
        }
      ],
      "stateMutability": "view",
      "type": "function"
    },
    {
      "inputs": [
        {
          "internalType": "address[]",
          "name": "accounts",
          "type": "address[]"
        },
        {
          "internalType": "uint256[]",
          "name": "ids",
          "type": "uint256[]"
        }
      ],
      "name": "balanceOfBatch",
      "outputs": [
        {
          "internalType": "uint256[]",
          "name": "",
          "type": "uint256[]"
        }
      ],
      "stateMutability": "view",
      "type": "function"
    },
    {
      "inputs": [
        {
          "internalType": "address",
          "name": "account",
          "type": "address"
        },
        {
          "internalType": "address",
          "name": "operator",
          "type": "address"
        }
      ],
      "name": "isApprovedForAll",
      "outputs": [
        {
          "internalType": "bool",
          "name": "",
          "type": "bool"
        }
      ],
      "stateMutability": "view",
      "type": "function"
    },
    {
      "inputs": [
        {
          "internalType": "address",
          "name": "to",
          "type": "address"
        },
        {
          "internalType": "uint256",
          "name": "id",
          "type": "uint256"
        },
        {
          "internalType": "uint256",
          "name": "amount",
          "type": "uint256"
        }
      ],
      "name": "mint",
      "outputs": [],
      "stateMutability": "nonpayable",
      "type": "function"
    },
    {
      "inputs": [
        {
          "internalType": "address",
          "name": "to",
          "type": "address"
        },
        {
          "internalType": "uint256[]",
          "name": "ids",
          "type": "uint256[]"
        },
        {
          "internalType": "uint256[]",
          "name": "amounts",
          "type": "uint256[]"
        }
      ],
      "name": "mintBatch",
      "outputs": [],
      "stateMutability": "nonpayable",
      "type": "function"
    },
    {
      "inputs": [],
      "name": "owner",
      "outputs": [
        {
          "internalType": "address",
          "name": "",
          "type": "address"
        }
      ],
      "stateMutability": "view",
      "type": "function"
    },
    {
      "inputs": [],
      "name": "renounceOwnership",
      "outputs": [],
      "stateMutability": "nonpayable",
      "type": "function"
    },
    {
      "inputs": [
        {
          "internalType": "address",
          "name": "from",
          "type": "address"
        },
        {
          "internalType": "address",
          "name": "to",
          "type": "address"
        },
        {
          "internalType": "uint256[]",
          "name": "ids",
          "type": "uint256[]"
        },
        {
          "internalType": "uint256[]",
          "name": "values",
          "type": "uint256[]"
        },
        {
          "internalType": "bytes",
          "name": "data",
          "type": "bytes"
        }
      ],
      "name": "safeBatchTransferFrom",
      "outputs": [],
      "stateMutability": "nonpayable",
      "type": "function"
    },
    {
      "inputs": [
        {
          "internalType": "address",
          "name": "from",
          "type": "address"
        },
        {
          "internalType": "address",
          "name": "to",
          "type": "address"
        },
        {
          "internalType": "uint256",
          "name": "id",
          "type": "uint256"
        },
        {
          "internalType": "uint256",
          "name": "value",
          "type": "uint256"
        },
        {
          "internalType": "bytes",
          "name": "data",
          "type": "bytes"
        }
      ],
      "name": "safeTransferFrom",
      "outputs": [],
      "stateMutability": "nonpayable",
      "type": "function"
    },
    {
      "inputs": [
        {
          "internalType": "address",
          "name": "operator",
          "type": "address"
        },
        {
          "internalType": "bool",
          "name": "approved",
          "type": "bool"
        }
      ],
      "name": "setApprovalForAll",
      "outputs": [],
      "stateMutability": "nonpayable",
      "type": "function"
    },
    {
      "inputs": [
        {
          "internalType": "bytes4",
          "name": "interfaceId",
          "type": "bytes4"
        }
      ],
      "name": "supportsInterface",
      "outputs": [
        {
          "internalType": "bool",
          "name": "",
          "type": "bool"
        }
      ],
      "stateMutability": "view",
      "type": "function"
    },
    {
      "inputs": [
        {
          "internalType": "address",
          "name": "newOwner",
          "type": "address"
        }
      ],
      "name": "transferOwnership",
      "outputs": [],
      "stateMutability": "nonpayable",
      "type": "function"
    },
    {
      "inputs": [
        {
          "internalType": "uint256",
          "name": "",
          "type": "uint256"
        }
      ],
      "name": "uri",
      "outputs": [
        {
          "internalType": "string",
          "name": "",
          "type": "string"
        }
      ],
      "stateMutability": "view",
      "type": "function"
    }
  ],
  "bytecode": "0x6080346101395760208101906001600160401b03821181831017610125575f9160405252600254600190600181811c9116801561011b575b602082101461010757601f81116100c0575b50505f60025533156100a85760038054336001600160a01b03198216811790925560405191906001600160a01b03167f8be0079c531659141344cd1fd0a4f28419497f9722a3daafe3b4186f6b6457e05f80a36112dd908161013e8239f35b604051631e4fbdf760e01b81525f6004820152602490fd5b60025f52601f0160051c7f405787fa12a823e0f2b7631cc41b3ba8828b3321ca811111fa75cd3aa3bb5ace908101905b8181106100fd5750610049565b5f815582016100f0565b634e487b7160e01b5f52602260045260245ffd5b90607f1690610037565b634e487b7160e01b5f52604160045260245ffd5b5f80fdfe60806040526004361015610011575f80fd5b5f3560e01c8062fdd58e146100e357806301ffc9a7146100de5780630e89341c146100d9578063156e29f6146100d45780632eb2c2d6146100cf5780634e1273f4146100ca578063715018a6146100c55780638da5cb5b146100c0578063a22cb465146100bb578063d81d0a15146100b6578063e985e9c5146100b1578063f242432a146100ac5763f2fde38b146100a7575f80fd5b610a42565b61093f565b6108e3565b610868565b6107ad565b610785565b61072a565b61066f565b610507565b61034d565b610246565b610186565b61012c565b600435906001600160a01b03821682036100fe57565b5f80fd5b602435906001600160a01b03821682036100fe57565b35906001600160a01b03821682036100fe57565b346100fe5760403660031901126100fe57602061016b61014a6100e8565b6024355f525f835260405f209060018060a01b03165f5260205260405f2090565b54604051908152f35b6001600160e01b03198116036100fe57565b346100fe5760203660031901126100fe5760206004356101a581610174565b63ffffffff60e01b16636cdb3d1360e11b81149081156101e3575b81156101d2575b506040519015158152f35b6301ffc9a760e01b1490505f6101c7565b6303a24d0760e21b811491506101c0565b91908251928382525f5b84811061021e575050825f602080949584010152601f8019910116010190565b6020818301810151848301820152016101fe565b9060206102439281815201906101f4565b90565b346100fe576020806003193601126100fe57604051905f906002546001918160011c9260018316928315610343575b60208510841461032f57848752602087019390811561031057506001146102b7575b6102b3866102a78188038261040b565b60405191829182610232565b0390f35b60025f90815294509192917f405787fa12a823e0f2b7631cc41b3ba8828b3321ca811111fa75cd3aa3bb5ace5b8386106102ff57505050910190506102a7826102b35f610297565b8054858701529482019481016102e4565b60ff1916845250505090151560051b0190506102a7826102b35f610297565b634e487b7160e01b5f52602260045260245ffd5b93607f1693610275565b346100fe5760603660031901126100fe576103666100e8565b604051610372816103ea565b5f81526001600160a01b038216156103be576103bc916103b66044356024359160405192600184526020840152604083019160018352606084015260808301604052565b91610bdf565b005b604051632bfa23e760e11b81525f6004820152602490fd5b634e487b7160e01b5f52604160045260245ffd5b6020810190811067ffffffffffffffff82111761040657604052565b6103d6565b90601f8019910116810190811067ffffffffffffffff82111761040657604052565b67ffffffffffffffff81116104065760051b60200190565b9080601f830112156100fe57602090823561045f8161042d565b9361046d604051958661040b565b81855260208086019260051b8201019283116100fe57602001905b828210610496575050505090565b81358152908301908301610488565b67ffffffffffffffff811161040657601f01601f191660200190565b81601f820112156100fe578035906104d8826104a5565b926104e6604051948561040b565b828452602083830101116100fe57815f926020809301838601378301015290565b346100fe5760a03660031901126100fe576105206100e8565b610528610102565b906044359167ffffffffffffffff908184116100fe5761054d60049436908601610445565b906064358381116100fe576105659036908701610445565b926084359081116100fe5761057d90369087016104c1565b936001600160a01b03808216903382141580610608575b6105db578316156105c457156105ae576103bc9550610d52565b604051626a0d4560e21b81525f81880152602490fd5b604051632bfa23e760e11b81525f81890152602490fd5b6040805163711bec9160e11b815233818b019081526001600160a01b038616602082015290918291010390fd5b505f82815260016020908152604080832033845290915290205460ff1615610594565b9081518082526020808093019301915f5b82811061064a575050505090565b83518552938101939281019260010161063c565b90602061024392818152019061062b565b346100fe5760403660031901126100fe5760043567ffffffffffffffff8082116100fe57366023830112156100fe5781600401356106ac8161042d565b926106ba604051948561040b565b8184526020916024602086019160051b830101913683116100fe57602401905b82821061071357856024358681116100fe576102b391610701610707923690600401610445565b90610af6565b6040519182918261065e565b83809161071f84610118565b8152019101906106da565b346100fe575f3660031901126100fe57610742610bb3565b600380546001600160a01b031981169091555f906001600160a01b03167f8be0079c531659141344cd1fd0a4f28419497f9722a3daafe3b4186f6b6457e08280a3005b346100fe575f3660031901126100fe576003546040516001600160a01b039091168152602090f35b346100fe5760403660031901126100fe576107c66100e8565b6024358015158082036100fe576001600160a01b03831692831561085157335f9081526001602090815260408083206001600160a01b039094168352929052209060ff801983541691161790557f17307eab39ab6107e8899845ad3d59bd9653f200f220920489ca2b5937696c316040518061084c339482919091602081019215159052565b0390a3005b60405162ced3e160e81b81525f6004820152602490fd5b346100fe5760603660031901126100fe576108816100e8565b67ffffffffffffffff6024358181116100fe576108a2903690600401610445565b906044359081116100fe576108bb903690600401610445565b604051916108c8836103ea565b5f83526001600160a01b038416156103be576103bc93610bdf565b346100fe5760403660031901126100fe57602060ff6109336109036100e8565b61090b610102565b6001600160a01b039182165f9081526001865260408082209290931681526020919091522090565b54166040519015158152f35b346100fe5760a03660031901126100fe576109586100e8565b610960610102565b60843567ffffffffffffffff81116100fe576109809036906004016104c1565b906001600160a01b03838116903382141580610a1f575b6109f8578216156103be57156109e1576103bc926109d96064356044359160405192600184526020840152604083019160018352606084015260808301604052565b929091610d52565b604051626a0d4560e21b81525f6004820152602490fd5b60405163711bec9160e11b81523360048201526001600160a01b0386166024820152604490fd5b505f82815260016020908152604080832033845290915290205460ff1615610997565b346100fe5760203660031901126100fe57610a5b6100e8565b610a63610bb3565b6001600160a01b03908116908115610ab657600354826bffffffffffffffffffffffff60a01b821617600355167f8be0079c531659141344cd1fd0a4f28419497f9722a3daafe3b4186f6b6457e05f80a3005b604051631e4fbdf760e01b81525f6004820152602490fd5b8051821015610ae25760209160051b010190565b634e487b7160e01b5f52603260045260245ffd5b91909180518351808203610b91575050805190610b2b610b158361042d565b92610b23604051948561040b565b80845261042d565b60209190601f190136848401375f5b8151811015610b8957600581901b8281018401519087018401515f908152602081815260408083206001600160a01b039094168352929052205460019190610b828287610ace565b5201610b3a565b509193505050565b604051635b05999160e01b815260048101919091526024810191909152604490fd5b6003546001600160a01b03163303610bc757565b60405163118cdaa760e01b8152336004820152602490fd5b908051835190818103610b915750505f5b8151811015610c6957600581901b82810160209081015191860101516001929185906001600160a01b038216610c2a575b50505001610bf0565b610c5f91610c42610c57925f525f60205260405f2090565b9060018060a01b03165f5260205260405f2090565b918254610f40565b90555f8481610c21565b50805191939291600103610d0a576020818101518382015160408051928352928201526001600160a01b038616915f9133917fc3d58168c5ae7397731d063d5bbf3d657854427343f4c083240f7aacaa2d0f6291a45b6001600160a01b038416610cd4575b50505050565b8051600103610cfb5790602080610cf295930151910151913361123b565b5f808080610cce565b610d059333611046565b610cf2565b6040516001600160a01b038516905f9033907f4a39dc06d4c0dbc64b70af90fd698a233a518aa5d07e595d983b8c0526c8f7fb9080610d4a888883610f61565b0390a4610cbf565b949190918151845190818103610b915750505f5b8251811015610e4b57600581901b83810160209081015191870101516001600160a01b03929186908a8516610dcb575b6001948216610da9575b50505001610d66565b610dc191610c42610c57925f525f60205260405f2090565b90555f8581610da0565b9192939050610de58a610c42845f525f60205260405f2090565b54838110610e145791879184600196959403610e0c8d610c42855f525f60205260405f2090565b559450610d96565b6040516303dee4c560e01b81526001600160a01b038c16600482015260248101919091526044810184905260648101839052608490fd5b5094919392909360018551145f14610ef5576020858101518382015160408051928352928201526001600160a01b03838116929086169133917fc3d58168c5ae7397731d063d5bbf3d657854427343f4c083240f7aacaa2d0f6291a45b6001600160a01b038116610ebe575b5050505050565b8451600103610ee457602080610eda9601519201519233611270565b5f80808080610eb7565b610ef09491923361113f565b610eda565b6040516001600160a01b03828116919085169033907f4a39dc06d4c0dbc64b70af90fd698a233a518aa5d07e595d983b8c0526c8f7fb9080610f38888c83610f61565b0390a4610ea8565b91908201809211610f4d57565b634e487b7160e01b5f52601160045260245ffd5b9091610f786102439360408452604084019061062b565b91602081840391015261062b565b908160209103126100fe575161024381610174565b92610fc96102439593610fd79360018060a01b031686525f602087015260a0604087015260a086019061062b565b90848203606086015261062b565b9160808184039101526101f4565b93906102439593610fc991610fd79460018060a01b03809216885216602087015260a0604087015260a086019061062b565b3d15611041573d90611028826104a5565b91611036604051938461040b565b82523d5f602084013e565b606090565b9293919093843b611058575050505050565b60209161107b604051948593849363bc197c8160e01b9889865260048601610f9b565b03815f6001600160a01b0388165af15f918161110e575b506110d157826110a0611017565b80519190826110ca57604051632bfa23e760e11b81526001600160a01b0383166004820152602490fd5b6020915001fd5b6001600160e01b031916036110eb57505f80808080610eb7565b604051632bfa23e760e11b81526001600160a01b03919091166004820152602490fd5b61113191925060203d602011611138575b611129818361040b565b810190610f86565b905f611092565b503d61111f565b939290949194853b611154575b505050505050565b611177602093604051958694859463bc197c8160e01b998a875260048701610fe5565b03815f6001600160a01b0388165af15f91816111b7575b5061119c57826110a0611017565b6001600160e01b031916036110eb57505f808080808061114c565b6111d191925060203d60201161113857611129818361040b565b905f61118e565b909260a0926102439594600180861b031683525f60208401526040830152606082015281608082015201906101f4565b919261024395949160a094600180871b0380921685521660208401526040830152606082015281608082015201906101f4565b9293919093843b61124d575050505050565b60209161107b604051948593849363f23a6e6160e01b98898652600486016111d8565b939290949194853b61128457505050505050565b611177602093604051958694859463f23a6e6160e01b998a87526004870161120856fea2646970667358221220100d138890c9a8323d65c8bb6573250558842471b7ef16a7707cba6c2c40391764736f6c63430008180033",
  "linkReferences": {},
  "deployedLinkReferences": {}
}