{
  "_format": "hh-sol-artifact-1",
  "contractName": "FortunaSquareMarketplace",
  "sourceName": "contracts/FortunaSquareMarketplace.sol",
  "abi": [
    {
      "inputs": [
        {
          "internalType": "address",
          "name": "_feeRecipient",
          "type": "address"
        }
      ],
      "stateMutability": "nonpayable",
      "type": "constructor"
    },
    {
      "inputs": [
        {
          "internalType": "address",
          "name": "owner",
          "type": "address"
        }
      ],
      "name": "OwnableInvalidOwner",
      "type": "error"
    },
    {
      "inputs": [
        {
          "internalType": "address",
          "name": "account",
          "type": "address"
        }
      ],
      "name": "OwnableUnauthorizedAccount",
      "type": "error"
    },
    {
      "inputs": [],
      "name": "ReentrancyGuardReentrantCall",
      "type": "error"
    },
    {
      "anonymous": false,
      "inputs": [
        {
          "indexed": true,
          "internalType": "address",
          "name": "newRecipient",
          "type": "address"
        }
      ],
      "name": "FeeRecipientUpdated",
      "type": "event"
    },
    {
      "anonymous": false,
      "inputs": [
        {
          "indexed": false,
          "internalType": "uint256",
          "name": "newFeePercent",
          "type": "uint256"
        }
      ],
      "name": "FeeUpdated",
      "type": "event"
    },
    {
      "anonymous": false,
      "inputs": [
        {
          "indexed": true,
          "internalType": "uint256",
          "name": "listingId",
          "type": "uint256"
        },
        {
          "indexed": true,
          "internalType": "address",
          "name": "seller",
          "type": "address"
        }
      ],
      "name": "ListingCancelled",
      "type": "event"
    },
    {
      "anonymous": false,
      "inputs": [
        {
          "indexed": true,
          "internalType": "uint256",
          "name": "listingId",
          "type": "uint256"
        },
        {
          "indexed": true,
          "internalType": "address",
          "name": "seller",
          "type": "address"
        },
        {
          "indexed": true,
          "internalType": "address",
          "name": "nftContract",
          "type": "address"
        },
        {
          "indexed": false,
          "internalType": "uint256",
          "name": "tokenId",
          "type": "uint256"
        },
        {
          "indexed": false,
          "internalType": "uint256",
          "name": "pricePerToken",
          "type": "uint256"
        },
        {
          "indexed": false,
          "internalType": "enum FortunaSquareMarketplace.TokenType",
          "name": "tokenType",
          "type": "uint8"
        }
      ],
      "name": "ListingCreated",
      "type": "event"
    },
    {
      "anonymous": false,
      "inputs": [
        {
          "indexed": true,
          "internalType": "uint256",
          "name": "listingId",
          "type": "uint256"
        },
        {
          "indexed": false,
          "internalType": "uint256",
          "name": "newPrice",
          "type": "uint256"
        }
      ],
      "name": "ListingUpdated",
      "type": "event"
    },
    {
      "anonymous": false,
      "inputs": [
        {
          "indexed": true,
          "internalType": "address",
          "name": "previousOwner",
          "type": "address"
        },
        {
          "indexed": true,
          "internalType": "address",
          "name": "newOwner",
          "type": "address"
        }
      ],
      "name": "OwnershipTransferred",
      "type": "event"
    },
    {
      "anonymous": false,
      "inputs": [
        {
          "indexed": true,
          "internalType": "uint256",
          "name": "listingId",
          "type": "uint256"
        },
        {
          "indexed": true,
          "internalType": "address",
          "name": "buyer",
          "type": "address"
        },
        {
          "indexed": true,
          "internalType": "address",
          "name": "seller",
          "type": "address"
        },
        {
          "indexed": false,
          "internalType": "address",
          "name": "nftContract",
          "type": "address"
        },
        {
          "indexed": false,
          "internalType": "uint256",
          "name": "tokenId",
          "type": "uint256"
        },
        {
          "indexed": false,
          "internalType": "uint256",
          "name": "quantity",
          "type": "uint256"
        },
        {
          "indexed": false,
          "internalType": "uint256",
          "name": "totalPrice",
          "type": "uint256"
        },
        {
          "indexed": false,
          "internalType": "uint256",
          "name": "platformFee",
          "type": "uint256"
        }
      ],
      "name": "Sale",
      "type": "event"
    },
    {
      "inputs": [
        {
          "internalType": "uint256",
          "name": "listingId",
          "type": "uint256"
        },
        {
          "internalType": "uint256",
          "name": "quantity",
          "type": "uint256"
        }
      ],
      "name": "buyFromListing",
      "outputs": [],
      "stateMutability": "payable",
      "type": "function"
    },
    {
      "inputs": [
        {
          "internalType": "uint256",
          "name": "listingId",
          "type": "uint256"
        }
      ],
      "name": "cancelListing",
      "outputs": [],
      "stateMutability": "nonpayable",
      "type": "function"
    },
    {
      "inputs": [
        {
          "internalType": "address",
          "name": "nftContract",
          "type": "address"
        },
        {
          "internalType": "uint256",
          "name": "tokenId",
          "type": "uint256"
        },
        {
          "internalType": "uint256",
          "name": "quantity",
          "type": "uint256"
        },
        {
          "internalType": "address",
          "name": "currency",
          "type": "address"
        },
        {
          "internalType": "uint256",
          "name": "pricePerToken",
          "type": "uint256"
        },
        {
          "internalType": "uint256",
          "name": "duration",
          "type": "uint256"
        }
      ],
      "name": "createListing",
      "outputs": [
        {
          "internalType": "uint256",
          "name": "",
          "type": "uint256"
        }
      ],
      "stateMutability": "nonpayable",
      "type": "function"
    },
    {
      "inputs": [],
      "name": "feeRecipient",
      "outputs": [
        {
          "internalType": "address",
          "name": "",
          "type": "address"
        }
      ],
      "stateMutability": "view",
      "type": "function"
    },
    {
      "inputs": [
        {
          "internalType": "uint256",
          "name": "listingId",
          "type": "uint256"
        }
      ],
      "name": "getListing",
      "outputs": [
        {
          "components": [
            {
              "internalType": "uint256",
              "name": "listingId",
              "type": "uint256"
            },
            {
              "internalType": "address",
              "name": "seller",
              "type": "address"
            },
            {
              "internalType": "address",
              "name": "nftContract",
              "type": "address"
            },
            {
              "internalType": "uint256",
              "name": "tokenId",
              "type": "uint256"
            },
            {
              "internalType": "uint256",
              "name": "quantity",
              "type": "uint256"
            },
            {
              "internalType": "address",
              "name": "currency",
              "type": "address"
            },
            {
              "internalType": "uint256",
              "name": "pricePerToken",
              "type": "uint256"
            },
            {
              "internalType": "uint256",
              "name": "startTime",
              "type": "uint256"
            },
            {
              "internalType": "uint256",
              "name": "endTime",
              "type": "uint256"
            },
            {
              "internalType": "bool",
              "name": "active",
              "type": "bool"
            },
            {
              "internalType": "enum FortunaSquareMarketplace.TokenType",
              "name": "tokenType",
              "type": "uint8"
            }
          ],
          "internalType": "struct FortunaSquareMarketplace.Listing",
          "name": "",
          "type": "tuple"
        }
      ],
      "stateMutability": "view",
      "type": "function"
    },
    {
      "inputs": [],
      "name": "getTotalListings",
      "outputs": [
        {
          "internalType": "uint256",
          "name": "",
          "type": "uint256"
        }
      ],
      "stateMutability": "view",
      "type": "function"
    },
    {
      "inputs": [
        {
          "internalType": "address",
          "name": "user",
          "type": "address"
        }
      ],
      "name": "getUserListings",
      "outputs": [
        {
          "internalType": "uint256[]",
          "name": "",
          "type": "uint256[]"
        }
      ],
      "stateMutability": "view",
      "type": "function"
    },
    {
      "inputs": [
        {
          "internalType": "address",
          "name": "nftContract",
          "type": "address"
        },
        {
          "internalType": "uint256",
          "name": "tokenId",
          "type": "uint256"
        }
      ],
      "name": "isBundleNFT",
      "outputs": [
        {
          "internalType": "bool",
          "name": "isBundle",
          "type": "bool"
        }
      ],
      "stateMutability": "view",
      "type": "function"
    },
    {
      "inputs": [
        {
          "internalType": "uint256",
          "name": "listingId",
          "type": "uint256"
        }
      ],
      "name": "isListingValid",
      "outputs": [
        {
          "internalType": "bool",
          "name": "",
          "type": "bool"
        }
      ],
      "stateMutability": "view",
      "type": "function"
    },
    {
      "inputs": [
        {
          "internalType": "uint256",
          "name": "",
          "type": "uint256"
        }
      ],
      "name": "listings",
      "outputs": [
        {
          "internalType": "uint256",
          "name": "listingId",
          "type": "uint256"
        },
        {
          "internalType": "address",
          "name": "seller",
          "type": "address"
        },
        {
          "internalType": "address",
          "name": "nftContract",
          "type": "address"
        },
        {
          "internalType": "uint256",
          "name": "tokenId",
          "type": "uint256"
        },
        {
          "internalType": "uint256",
          "name": "quantity",
          "type": "uint256"
        },
        {
          "internalType": "address",
          "name": "currency",
          "type": "address"
        },
        {
          "internalType": "uint256",
          "name": "pricePerToken",
          "type": "uint256"
        },
        {
          "internalType": "uint256",
          "name": "startTime",
          "type": "uint256"
        },
        {
          "internalType": "uint256",
          "name": "endTime",
          "type": "uint256"
        },
        {
          "internalType": "bool",
          "name": "active",
          "type": "bool"
        },
        {
          "internalType": "enum FortunaSquareMarketplace.TokenType",
          "name": "tokenType",
          "type": "uint8"
        }
      ],
      "stateMutability": "view",
      "type": "function"
    },
    {
      "inputs": [],
      "name": "owner",
      "outputs": [
        {
          "internalType": "address",
          "name": "",
          "type": "address"
        }
      ],
      "stateMutability": "view",
      "type": "function"
    },
    {
      "inputs": [],
      "name": "renounceOwnership",
      "outputs": [],
      "stateMutability": "nonpayable",
      "type": "function"
    },
    {
      "inputs": [],
      "name": "rentalManagerAddress",
      "outputs": [
        {
          "internalType": "address",
          "name": "",
          "type": "address"
        }
      ],
      "stateMutability": "view",
      "type": "function"
    },
    {
      "inputs": [],
      "name": "saleFeePercent",
      "outputs": [
        {
          "internalType": "uint256",
          "name": "",
          "type": "uint256"
        }
      ],
      "stateMutability": "view",
      "type": "function"
    },
    {
      "inputs": [
        {
          "internalType": "address",
          "name": "_rentalManager",
          "type": "address"
        }
      ],
      "name": "setRentalManager",
      "outputs": [],
      "stateMutability": "nonpayable",
      "type": "function"
    },
    {
      "inputs": [
        {
          "internalType": "address",
          "name": "_swapManager",
          "type": "address"
        }
      ],
      "name": "setSwapManager",
      "outputs": [],
      "stateMutability": "nonpayable",
      "type": "function"
    },
    {
      "inputs": [],
      "name": "swapManagerAddress",
      "outputs": [
        {
          "internalType": "address",
          "name": "",
          "type": "address"
        }
      ],
      "stateMutability": "view",
      "type": "function"
    },
    {
      "inputs": [
        {
          "internalType": "address",
          "name": "newOwner",
          "type": "address"
        }
      ],
      "name": "transferOwnership",
      "outputs": [],
      "stateMutability": "nonpayable",
      "type": "function"
    },
    {
      "inputs": [
        {
          "internalType": "address",
          "name": "newRecipient",
          "type": "address"
        }
      ],
      "name": "updateFeeRecipient",
      "outputs": [],
      "stateMutability": "nonpayable",
      "type": "function"
    },
    {
      "inputs": [
        {
          "internalType": "uint256",
          "name": "listingId",
          "type": "uint256"
        },
        {
          "internalType": "uint256",
          "name": "newPrice",
          "type": "uint256"
        }
      ],
      "name": "updateListingPrice",
      "outputs": [],
      "stateMutability": "nonpayable",
      "type": "function"
    },
    {
      "inputs": [
        {
          "internalType": "uint256",
          "name": "newFeePercent",
          "type": "uint256"
        }
      ],
      "name": "updateSaleFee",
      "outputs": [],
      "stateMutability": "nonpayable",
      "type": "function"
    },
    {
      "inputs": [
        {
          "internalType": "address",
          "name": "",
          "type": "address"
        },
        {
          "internalType": "uint256",
          "name": "",
          "type": "uint256"
        }
      ],
      "name": "userListings",
      "outputs": [
        {
          "internalType": "uint256",
          "name": "",
          "type": "uint256"
        }
      ],
      "stateMutability": "view",
      "type": "function"
    },
    {
      "stateMutability": "payable",
      "type": "receive"
    }
  ],
  "bytecode": "0x60803461012357601f611c7d38819003918201601f19168301916001600160401b038311848410176101275780849260209460405283398101031261012357516001600160a01b038082169182900361012357331561010b575f549060018060a01b03199133838216175f55604051913391167f8be0079c531659141344cd1fd0a4f28419497f9722a3daafe3b4186f6b6457e05f80a36001805560fa60025582156100bd57506003541617600355604051611b41908161013c8239f35b62461bcd60e51b8152602060048201526024808201527f466f7274756e615371756172653a20496e76616c6964206665652072656369706044820152631a595b9d60e21b6064820152608490fd5b604051631e4fbdf760e01b81525f6004820152602490fd5b5f80fd5b634e487b7160e01b5f52604160045260245ffdfe60808060405260048036101561001e575b5050361561001c575f80fd5b005b5f915f3560e01c908163107a274a146114c95750806330284efc1461147d578063305a67a8146113a857806346904840146113805780634a7edde9146113635780634e8cdd9c14610e64578063577b540b14610e18578063655ac16a146107a7578063715018a61461074e578063732533871461066357806377d235b2146105b85780637d485d8a1461058f57806386cfa7d3146105395780638da5cb5b14610512578063a06bbddf146104e0578063c460494314610400578063c808ce6a146103d7578063de74e57b14610321578063eb18a9d814610270578063f160d369146101c0578063f2fde38b146101385763fbf30c3503610010573461013457816003193601126101345760209054604051908152f35b5080fd5b503461013457602036600319011261013457610152611678565b61015a611a4a565b6001600160a01b039081169182156101a857505f54826001600160601b0360a01b8216175f55167f8be0079c531659141344cd1fd0a4f28419497f9722a3daafe3b4186f6b6457e05f80a380f35b604051631e4fbdf760e01b8152908101849052602490fd5b5034610134576020366003190112610134576101da611678565b6101e2611a4a565b6001600160a01b031690811561022c5750600380546001600160a01b031916821790557f7a7b5a0a132f9e0581eb8527f66eae9ee89c2a3e79d4ac7e41a1f1f4d48a7fc28280a280f35b60649060206040519162461bcd60e51b8352820152602060248201527f466f7274756e615371756172653a20496e76616c696420726563697069656e746044820152fd5b823461031e57602080600319360112610134576001600160a01b03610293611678565b168252600681526040822060405192838383549182815201908193835284832090835b81811061030a57505050846102cc910385611712565b60405193838594850191818652518092526040850193925b8281106102f357505050500390f35b8351855286955093810193928101926001016102e4565b8254845292860192600192830192016102b6565b80fd5b5034610134576020366003190112610134576103d5604061016093833581526005602052209182549260018060a01b0380600183015416928160028401541691600384015491840154906005850154169060068501549260078601549460096008880154970154976040519a8b5260208b015260408a01526060890152608088015260a087015260c086015260e085015261010084015260ff8116151561012084015260ff61014084019160081c16611657565bf35b823461031e578060031936011261031e576007546040516001600160a01b039091168152602090f35b50346101345761040f3661168e565b9091610419611a75565b8284526005602052604084209061043660ff60098401541661178c565b60018201546001600160a01b0316330361048e57508180600660209361047e7f66bcde9f7aec9b81719a4fdec54cbafbf6c834d1f2f989d9cd2134dab8d0c0de9615156118a1565b0155604051908152a26001805580f35b60849060206040519162461bcd60e51b8352820152602560248201527f466f7274756e615371756172653a204f6e6c792073656c6c65722063616e2075604482015264706461746560d81b6064820152fd5b823461031e57604036600319011261031e5760206105086104ff611678565b602435906119a5565b6040519015158152f35b823461031e578060031936011261031e57546040516001600160a01b039091168152602090f35b823461031e57604036600319011261031e57610553611678565b6001600160a01b031681526006602052604081208054602435929083101561031e57602061058184846116a4565b90546040519160031b1c8152f35b823461031e578060031936011261031e576008546040516001600160a01b039091168152602090f35b5034610134576020366003190112610134578035906105d5611a4a565b6103e8821161061157506020817f8c4d35e54a3f2ef1134138fd8ea3daee6a3c89e10d2665996babdf70261e2c7692600255604051908152a180f35b60849060206040519162461bcd60e51b8352820152602560248201527f466f7274756e615371756172653a2046656520746f6f206869676820286d6178604482015264203130252960d81b6064820152fd5b503461013457602036600319011261013457604060209282358152600584522060405191610690836116cd565b8154835260018060a01b0390816001840154168585015281600284015416604085015260038301546060850152820154608084015260058201541660a0830152600681015460c083015260078101549160e0810192835261071a6009600884015493610100840194855201549161014060ff6101208301948181161515865260081c169101611734565b5115159182610742575b5081610736575b506040519015158152f35b9050514211155f61072b565b5142101591505f610724565b823461031e578060031936011261031e57610767611a4a565b5f80546001600160a01b0319811682556001600160a01b03167f8be0079c531659141344cd1fd0a4f28419497f9722a3daafe3b4186f6b6457e08280a380f35b50346101345760c0366003190112610134576107c1611678565b602491823590604480359160649687359660018060a01b038816809803610e14576084359460a435946107f2611a75565b6001600160a01b038916988915610dc75761080e8315156117e2565b6108198815156118a1565b86151580610dba575b15610d795761083090611a98565b9a60028c1015610d67578b610c455760018303610bf3576040516331a9108f60e11b81528681018a905260209290838187818f5afa908115610be8578791610bcb575b50336001600160a01b0390911603610b7d57505060405163020604bf60e21b8152858101899052818185818d5afa908115610b45578591610b50575b506001600160a01b031630148015610ad3575b6108cc9150611904565b8354985f1995868b14610ac15760018b018655420190814211610ac157604051926108f6846116cd565b8b84523360208501528a6040850152896060850152608084015260a08301528660c08301524260e0830152610100820152600161012082015261093d8a6101408301611734565b8883526005602052600960408420825181556001810160018060a01b03602085015116906001600160601b0360a01b91828254161790556002820160018060a01b036040860151168282541617905560608401516003830155608084015187830155600582019060018060a01b0360a0860151169082541617905560c0830151600682015560e083015160078201556101008301516008820155019061012081015115159061014083549101516002811015610aaf5761ff0060ff9160081b1692169061ffff1916171790553382526006602052604082209182549368010000000000000000851015610a9f5750505091610a4582602099946001610a6c97950181556116a4565b819291549060031b9189831b921b1916179055604051938452868401526040830190611657565b827f8cc29aedd4c438083037f38a9e64688219ad0bcbfdb955144ef79a8dd3d435ad60603393a460018055604051908152f35b634e487b7160e01b825260419052fd5b634e487b7160e01b8652602187528486fd5b634e487b7160e01b8552601186528385fd5b506040805163e985e9c560e01b81523387820190815230602082015290918391839182910103818d5afa918215610b4557906108cc92918692610b18575b50506108c2565b610b379250803d10610b3e575b610b2f8183611712565b8101906118ec565b5f80610b11565b503d610b25565b6040513d87823e3d90fd5b610b709150823d8411610b76575b610b688183611712565b810190611986565b5f6108af565b503d610b5e565b86917f466f7274756e615371756172653a20596f7520646f6e2774206f776e20746869641cc813919560da1b926025886084976040519762461bcd60e51b8952880152860152840152820152fd5b610be29150843d8611610b7657610b688183611712565b5f610873565b6040513d89823e3d90fd5b67757374206265203160c01b86917f466f7274756e615371756172653a20455243373231207175616e74697479206d60849460288860206040519762461bcd60e51b8952880152860152840152820152fd5b604051627eeac760e11b815233878201528481018a905260209290838183818f5afa908115610be8579085918891610d32575b5010610ce65750506040805163e985e9c560e01b81523387820190815230602082015290918391839182910103818d5afa918215610b455790610cc492918692610cc9575b5050611904565b6108cc565b610cdf9250803d10610b3e57610b2f8183611712565b5f80610cbd565b86917f466f7274756e615371756172653a20496e73756666696369656e742062616c61626e636560e81b926023886084976040519762461bcd60e51b8952880152860152840152820152fd5b809250858092503d8311610d60575b610d4b8183611712565b81010312610d5c578490515f610c78565b8680fd5b503d610d41565b634e487b7160e01b8552602186528385fd5b60405162461bcd60e51b8152602081880152601f818601527f466f7274756e615371756172653a20496e76616c6964206475726174696f6e00818401528c90fd5b506276a700871115610822565b60405162461bcd60e51b81526020818801526023818601527f466f7274756e615371756172653a20496e76616c6964204e465420636f6e747281840152621858dd60ea1b818e0152608490fd5b5f80fd5b823461031e57602036600319011261031e57610e32611678565b610e3a611a4a565b6001600160a01b0316610e4e811515611740565b6001600160601b0360a01b600854161760085580f35b50610e6e3661168e565b90610e77611a75565b805f526020926005845260405f20926009840190610e9860ff83541661178c565b6007850154421061131457600885015442116112d057801515806112c3575b610ec0906117e2565b6001850180546001600160a01b03979088169490919033861461126c57610eeb8460068a015461182e565b94612710610efb6002548861182e565b0496610f078888611855565b9073eeeeeeeeeeeeeeeeeeeeeeeeeeeeeeeeeeeeeeee8c60058d015416145f14611210578734036111bc575f80809381935af1610f42611862565b501561116c575f8080808a8e600354165af1610f5c611862565b501561111e5760ff815460081c16600281101561110b57611055578a8a60028b015416928b85541660038c015494803b15611051578392836064926040519889958694632142170760e11b865285015233602485015260448401525af1928315611044578b93611027575b5050805460ff191690556003915b541697600288015416960154906040519687528601526040850152606084015260808301527f365a4f1c81462c9065ec92bee824f3b5c72f162266302ae1d8c75a553e30da8060a03393a46001805580f35b611033919293506116fe565b6110405788908a5f610fc7565b8980fd5b50604051903d90823e3d90fd5b8380fd5b908960028a0154168a84541660038b0154823b15610e145760c45f92836040519586948593637921219560e11b85528985015233602485015260448401528b606484015260a060848401528160a48401525af18015611100576110e4575b509189916003938a016110c7878254611855565b809155156110d6575b50610fd5565b805460ff191690555f6110d0565b600393919b50916110f58b936116fe565b5f9b919350916110b3565b6040513d5f823e3d90fd5b602183634e487b7160e01b5f525260245ffd5b60405162461bcd60e51b8152808301859052602160248201527f466f7274756e615371756172653a20466565207061796d656e74206661696c656044820152601960fa1b6064820152608490fd5b60405162461bcd60e51b81528083018590526024808201527f466f7274756e615371756172653a2053656c6c6572207061796d656e742066616044820152631a5b195960e21b6064820152608490fd5b60405162461bcd60e51b8152808501879052602760248201527f466f7274756e615371756172653a20496e636f7272656374207061796d656e7460448201526608185b5bdd5b9d60ca1b6064820152608490fd5b60405162461bcd60e51b8152808501879052602f60248201527f466f7274756e615371756172653a204552433230207061796d656e7473206e6f60448201526e1d081e595d081cdd5c1c1bdc9d1959608a1b6064820152608490fd5b60405162461bcd60e51b8152908101839052602a60248201527f466f7274756e615371756172653a2043616e6e6f742062757920796f7572206f604482015269776e206c697374696e6760b01b6064820152608490fd5b5084830154811115610eb7565b60405162461bcd60e51b8152808401879052601e60248201527f466f7274756e615371756172653a204c697374696e67206578706972656400006044820152606490fd5b60405162461bcd60e51b8152808401879052602260248201527f466f7274756e615371756172653a204c697374696e67206e6f74207374617274604482015261195960f21b6064820152608490fd5b34610e14575f366003190112610e14576020600254604051908152f35b34610e14575f366003190112610e14576003546040516001600160a01b039091168152602090f35b5034610e14576020366003190112610e14578035906113c5611a75565b815f52600560205260405f2060098101918254916113e560ff841661178c565b600101546001600160a01b0316330361142b575060ff1916905533907f8e25282255ab31897df2b0456bb993ac7f84d376861aefd84901d2d63a7428a25f80a360018055005b60849060206040519162461bcd60e51b8352820152602560248201527f466f7274756e615371756172653a204f6e6c792073656c6c65722063616e2063604482015264185b98d95b60da1b6064820152fd5b34610e14576020366003190112610e1457611496611678565b61149e611a4a565b6001600160a01b03166114b2811515611740565b6001600160601b0360a01b60075416176007555f80f35b8234610e14576020366003190112610e14575f610140836114ec610160956116cd565b8281528260208201528260408201528260608201528260808201528260a08201528260c08201528260e08201528261010082015282610120820152015280355f5260056020526115c860ff600960405f206040519461154a866116cd565b8154865260018201546001600160a01b0390811660208801526002830154811660408801526003830154606088015290820154608087015260058201541660a0860152600681015460c0860152600781015460e08601526008808201546101008701529101548281161515610120860152901c166101408301611734565b6103d5610140604051928051845260018060a01b03602082015116602085015260018060a01b036040820151166040850152606081015160608501526080810151608085015260018060a01b0360a08201511660a085015260c081015160c085015260e081015160e0850152610100810151610100850152610120810151151561012085015201516101408301905b9060028210156116645752565b634e487b7160e01b5f52602160045260245ffd5b600435906001600160a01b0382168203610e1457565b6040906003190112610e14576004359060243590565b80548210156116b9575f5260205f2001905f90565b634e487b7160e01b5f52603260045260245ffd5b610160810190811067ffffffffffffffff8211176116ea57604052565b634e487b7160e01b5f52604160045260245ffd5b67ffffffffffffffff81116116ea57604052565b90601f8019910116810190811067ffffffffffffffff8211176116ea57604052565b60028210156116645752565b1561174757565b60405162461bcd60e51b815260206004820152601e60248201527f466f7274756e615371756172653a20496e76616c6964206164647265737300006044820152606490fd5b1561179357565b60405162461bcd60e51b815260206004820152602160248201527f466f7274756e615371756172653a204c697374696e67206e6f742061637469766044820152606560f81b6064820152608490fd5b156117e957565b60405162461bcd60e51b815260206004820152601f60248201527f466f7274756e615371756172653a20496e76616c6964207175616e74697479006044820152606490fd5b8181029291811591840414171561184157565b634e487b7160e01b5f52601160045260245ffd5b9190820391821161184157565b3d1561189c573d9067ffffffffffffffff82116116ea5760405191611891601f8201601f191660200184611712565b82523d5f602084013e565b606090565b156118a857565b606460405162461bcd60e51b815260206004820152602060248201527f466f7274756e615371756172653a205072696365206d757374206265203e20306044820152fd5b90816020910312610e1457518015158103610e145790565b1561190b57565b60405162461bcd60e51b815260206004820152604760248201527f466f7274756e615371756172653a204d61726b6574706c616365206e6f74206160448201527f7070726f766564202d20706c6561736520617070726f76652074686973204e466064820152661508199a5c9cdd60ca1b608482015260a490fd5b90816020910312610e1457516001600160a01b0381168103610e145790565b6040516331a9108f60e11b8152600481018390529091906020816024816001600160a01b0387165afa9081611a2b575b506119e05750505f90565b6040519160208301916305baf8cb60e31b8352602484015260248352606083019183831067ffffffffffffffff8411176116ea575f93849360405251915afa611a27611862565b5090565b611a439060203d602011610b7657610b688183611712565b505f6119d5565b5f546001600160a01b03163303611a5d57565b60405163118cdaa760e01b8152336004820152602490fd5b600260015414611a86576002600155565b604051633ee5aeb560e01b8152600490fd5b6040516301ffc9a760e01b8152636cdb3d1360e11b600482015290602090829060249082906001600160a01b03165afa5f9181611aea575b50611adb575b505f90565b611ae5575f611ad6565b600190565b611b0491925060203d602011610b3e57610b2f8183611712565b905f611ad056fea26469706673582212208a2a2726f94975dca67413c4191f00645d8130d6f597d343ba4d59ec234ae24164736f6c63430008180033",
  "linkReferences": {},
  "deployedLinkReferences": {}
}