{
  "_format": "hh-sol-artifact-1",
  "contractName": "SimpleMarketplace",
  "sourceName": "contracts/SimpleMarketplace.sol",
  "abi": [
    {
      "inputs": [],
      "stateMutability": "nonpayable",
      "type": "constructor"
    },
    {
      "inputs": [
        {
          "internalType": "address",
          "name": "owner",
          "type": "address"
        }
      ],
      "name": "OwnableInvalidOwner",
      "type": "error"
    },
    {
      "inputs": [
        {
          "internalType": "address",
          "name": "account",
          "type": "address"
        }
      ],
      "name": "OwnableUnauthorizedAccount",
      "type": "error"
    },
    {
      "inputs": [],
      "name": "ReentrancyGuardReentrantCall",
      "type": "error"
    },
    {
      "anonymous": false,
      "inputs": [
        {
          "indexed": true,
          "internalType": "uint256",
          "name": "listingId",
          "type": "uint256"
        }
      ],
      "name": "ListingCancelled",
      "type": "event"
    },
    {
      "anonymous": false,
      "inputs": [
        {
          "indexed": true,
          "internalType": "uint256",
          "name": "listingId",
          "type": "uint256"
        },
        {
          "indexed": true,
          "internalType": "address",
          "name": "seller",
          "type": "address"
        },
        {
          "indexed": true,
          "internalType": "address",
          "name": "nftContract",
          "type": "address"
        },
        {
          "indexed": false,
          "internalType": "uint256",
          "name": "tokenId",
          "type": "uint256"
        },
        {
          "indexed": false,
          "internalType": "uint256",
          "name": "price",
          "type": "uint256"
        },
        {
          "indexed": false,
          "internalType": "bool",
          "name": "isERC1155",
          "type": "bool"
        }
      ],
      "name": "ListingCreated",
      "type": "event"
    },
    {
      "anonymous": false,
      "inputs": [
        {
          "indexed": true,
          "internalType": "uint256",
          "name": "listingId",
          "type": "uint256"
        },
        {
          "indexed": true,
          "internalType": "address",
          "name": "buyer",
          "type": "address"
        },
        {
          "indexed": false,
          "internalType": "uint256",
          "name": "price",
          "type": "uint256"
        }
      ],
      "name": "ListingSold",
      "type": "event"
    },
    {
      "anonymous": false,
      "inputs": [
        {
          "indexed": true,
          "internalType": "address",
          "name": "previousOwner",
          "type": "address"
        },
        {
          "indexed": true,
          "internalType": "address",
          "name": "newOwner",
          "type": "address"
        }
      ],
      "name": "OwnershipTransferred",
      "type": "event"
    },
    {
      "inputs": [
        {
          "internalType": "uint256",
          "name": "listingId",
          "type": "uint256"
        }
      ],
      "name": "buyListing",
      "outputs": [],
      "stateMutability": "payable",
      "type": "function"
    },
    {
      "inputs": [
        {
          "internalType": "uint256",
          "name": "listingId",
          "type": "uint256"
        }
      ],
      "name": "cancelListing",
      "outputs": [],
      "stateMutability": "nonpayable",
      "type": "function"
    },
    {
      "inputs": [
        {
          "internalType": "address",
          "name": "nftContract",
          "type": "address"
        },
        {
          "internalType": "uint256",
          "name": "tokenId",
          "type": "uint256"
        },
        {
          "internalType": "uint256",
          "name": "price",
          "type": "uint256"
        },
        {
          "internalType": "bool",
          "name": "isERC1155",
          "type": "bool"
        },
        {
          "internalType": "uint256",
          "name": "quantity",
          "type": "uint256"
        }
      ],
      "name": "createListing",
      "outputs": [
        {
          "internalType": "uint256",
          "name": "",
          "type": "uint256"
        }
      ],
      "stateMutability": "nonpayable",
      "type": "function"
    },
    {
      "inputs": [],
      "name": "listingCounter",
      "outputs": [
        {
          "internalType": "uint256",
          "name": "",
          "type": "uint256"
        }
      ],
      "stateMutability": "view",
      "type": "function"
    },
    {
      "inputs": [
        {
          "internalType": "uint256",
          "name": "",
          "type": "uint256"
        }
      ],
      "name": "listings",
      "outputs": [
        {
          "internalType": "address",
          "name": "seller",
          "type": "address"
        },
        {
          "internalType": "address",
          "name": "nftContract",
          "type": "address"
        },
        {
          "internalType": "uint256",
          "name": "tokenId",
          "type": "uint256"
        },
        {
          "internalType": "uint256",
          "name": "price",
          "type": "uint256"
        },
        {
          "internalType": "bool",
          "name": "isERC1155",
          "type": "bool"
        },
        {
          "internalType": "uint256",
          "name": "quantity",
          "type": "uint256"
        },
        {
          "internalType": "bool",
          "name": "active",
          "type": "bool"
        }
      ],
      "stateMutability": "view",
      "type": "function"
    },
    {
      "inputs": [
        {
          "internalType": "address",
          "name": "",
          "type": "address"
        },
        {
          "internalType": "address",
          "name": "",
          "type": "address"
        },
        {
          "internalType": "uint256[]",
          "name": "",
          "type": "uint256[]"
        },
        {
          "internalType": "uint256[]",
          "name": "",
          "type": "uint256[]"
        },
        {
          "internalType": "bytes",
          "name": "",
          "type": "bytes"
        }
      ],
      "name": "onERC1155BatchReceived",
      "outputs": [
        {
          "internalType": "bytes4",
          "name": "",
          "type": "bytes4"
        }
      ],
      "stateMutability": "pure",
      "type": "function"
    },
    {
      "inputs": [
        {
          "internalType": "address",
          "name": "",
          "type": "address"
        },
        {
          "internalType": "address",
          "name": "",
          "type": "address"
        },
        {
          "internalType": "uint256",
          "name": "",
          "type": "uint256"
        },
        {
          "internalType": "uint256",
          "name": "",
          "type": "uint256"
        },
        {
          "internalType": "bytes",
          "name": "",
          "type": "bytes"
        }
      ],
      "name": "onERC1155Received",
      "outputs": [
        {
          "internalType": "bytes4",
          "name": "",
          "type": "bytes4"
        }
      ],
      "stateMutability": "pure",
      "type": "function"
    },
    {
      "inputs": [],
      "name": "owner",
      "outputs": [
        {
          "internalType": "address",
          "name": "",
          "type": "address"
        }
      ],
      "stateMutability": "view",
      "type": "function"
    },
    {
      "inputs": [],
      "name": "platformFeeBps",
      "outputs": [
        {
          "internalType": "uint256",
          "name": "",
          "type": "uint256"
        }
      ],
      "stateMutability": "view",
      "type": "function"
    },
    {
      "inputs": [],
      "name": "platformFeeRecipient",
      "outputs": [
        {
          "internalType": "address",
          "name": "",
          "type": "address"
        }
      ],
      "stateMutability": "view",
      "type": "function"
    },
    {
      "inputs": [],
      "name": "renounceOwnership",
      "outputs": [],
      "stateMutability": "nonpayable",
      "type": "function"
    },
    {
      "inputs": [
        {
          "internalType": "uint256",
          "name": "_feeBps",
          "type": "uint256"
        }
      ],
      "name": "setPlatformFee",
      "outputs": [],
      "stateMutability": "nonpayable",
      "type": "function"
    },
    {
      "inputs": [
        {
          "internalType": "address",
          "name": "_recipient",
          "type": "address"
        }
      ],
      "name": "setPlatformFeeRecipient",
      "outputs": [],
      "stateMutability": "nonpayable",
      "type": "function"
    },
    {
      "inputs": [
        {
          "internalType": "address",
          "name": "newOwner",
          "type": "address"
        }
      ],
      "name": "transferOwnership",
      "outputs": [],
      "stateMutability": "nonpayable",
      "type": "function"
    }
  ],
  "bytecode": "0x6080806040523461008c5760015f5533156100775760018054336001600160a01b0319808316821790935560405192916001600160a01b03167f8be0079c531659141344cd1fd0a4f28419497f9722a3daafe3b4186f6b6457e05f80a360fa60035533906004541617600455610f7e90816100918239f35b631e4fbdf760e01b81525f6004820152602490fd5b5f80fdfe60406080815260049081361015610014575f80fd5b5f915f3560e01c806312e8e2c314610ca55780631871e24314610c2c57806322dcd13e14610c0e578063305a67a814610b6a5780634884f4591461089e5780636c2c9c7d1461087f578063715018a6146108225780638da5cb5b146107f9578063bc197c811461076e578063d9194bb214610245578063de74e57b146101ca578063eb13554f146101a3578063f23a6e611461014a5763f2fde38b146100b8575f80fd5b34610146576020366003190112610146576100d1610d04565b906100da610f1c565b6001600160a01b03918216928315610130575050600154826bffffffffffffffffffffffff60a01b821617600155167f8be0079c531659141344cd1fd0a4f28419497f9722a3daafe3b4186f6b6457e05f80a380f35b51631e4fbdf760e01b8152908101849052602490fd5b8280fd5b5091346101a05760a03660031901126101a057610165610d04565b5061016e610d1a565b506084359067ffffffffffffffff82116101a0575060209261019291369101610de1565b505163f23a6e6160e01b8152f35b80fd5b50346101465782600319360112610146575490516001600160a01b03909116815260209150f35b5034610146576020366003190112610146578160e0938235815260056020522060018060a01b0392838254169360018301541692600283015460ff600385015492850154169260ff6006600587015496015416958151978852602088015286015260608501521515608084015260a0830152151560c0820152f35b50346101465760a03660031901126101465761025f610d04565b90602480359160648035801515936044803594919386840361076a5760843593861561072b571561055957831561051b578951627eeac760e11b815233848201528581018990526020926001600160a01b038b1692918d9085818481885afa908115610511578892916104dc575b50106104a6575050895163e985e9c560e01b815233848201908152306020820152909183918391908290819060400103915afa90811561049c57610319928c9261046f575b5050610ed0565b600254985f198a1461045e5760018a0160025588519360e085019085821067ffffffffffffffff83111761044c5750908a9392918a52338552896020860199600160a01b600190038091169a8b8152828801918b83528060608a01948b865260808b01968d885260a08c01998a5260c08c019a60018c528152600560205220995116906bffffffffffffffffffffffff60a01b91828b5416178a5560018a0192511690825416179055516002870155516003860155511515908401906103ea919060ff801983541691151516179055565b516005830155511515906006019061040d919060ff801983541691151516179055565b845192835260208301528382015283339160607f52ac1f237eb54827f2c077ce1a53146aa8d5b27546ff026a6252a5ea6b05ccb191a451908152602090f35b634e487b7160e01b5f90815260418552fd5b60118492634e487b7160e01b835252fd5b61048e9250803d10610495575b6104868183610d58565b810190610eb8565b5f80610312565b503d61047c565b8a513d8d823e3d90fd5b73496e73756666696369656e742062616c616e636560601b85916014898f8890519562461bcd60e51b8752860152840152820152fd5b809250868092503d831161050a575b6104f58183610d58565b81010312610506578690515f6102cd565b8d80fd5b503d6104eb565b8e513d84823e3d90fd5b895162461bcd60e51b8152602081850152601f818701527f5175616e74697479206d7573742062652067726561746572207468616e20300081840152fd5b600184036106ed5760018060a01b03808a16918b51936331a9108f60e11b85528a868601528d60209586818b81895afa9182156106e257916106c5575b5083339116036106945750508a5163e985e9c560e01b81523385820190815230602082015290928d92918590859081906040010381845afa93841561068a5788939461066b575b5083156105f7575b5050506105f29150610ed0565b610319565b84919293508c519384809263020604bf60e21b82528d898301525afa918215610661576105f2938d93610632575b5050163014845f806105e5565b610652929350803d1061065a575b61064a8183610d58565b810190610e99565b905f80610625565b503d610640565b8b513d8e823e3d90fd5b610683919450853d8711610495576104868183610d58565b925f6105dd565b8d513d85823e3d90fd5b6e2737ba103a37b5b2b71037bbb732b960891b8691600f8f888c91519562461bcd60e51b8752860152840152820152fd5b6106dc9150863d881161065a5761064a8183610d58565b5f610596565b8f51903d90823e3d90fd5b895162461bcd60e51b81526020818501526019818701527f455243373231207175616e74697479206d75737420626520310000000000000081840152fd5b50895162461bcd60e51b8152602081850152601c818701527f5072696365206d7573742062652067726561746572207468616e20300000000081840152fd5b8a80fd5b5091346101a05760a03660031901126101a057610789610d04565b50610792610d1a565b5067ffffffffffffffff906044358281116107f5576107b49036908601610d7a565b506064358281116107f5576107cc9036908601610d7a565b506084359182116101a057506020926107e791369101610de1565b505163bc197c8160e01b8152f35b5080fd5b5050346107f557816003193601126107f55760015490516001600160a01b039091168152602090f35b83346101a057806003193601126101a05761083b610f1c565b600180546001600160a01b031981169091555f906001600160a01b03167f8be0079c531659141344cd1fd0a4f28419497f9722a3daafe3b4186f6b6457e08280a380f35b5050346107f557816003193601126107f5576020906002549051908152f35b506020366003190112610b0b5780359060025f5414610b5c5760025f55815f526005602052825f2060068101918254916108da60ff8416610e37565b6003810193845493843410610b225760ff19169055600354808402908482041484151715610b0f579061091561271089959493048094610e78565b9260ff83830154165f14610a84576001820154825460028401546005850154926001600160a01b039283169216803b15610a805788928360c4928e519687958694637921219560e11b86528c8601523360248601526044850152606484015260a060848401528160a48401525af1908115610a76578691610a5e575b50808080935b95546001600160a01b0396908716828215610a55575bf115610a4b578392839283925416828215610a42575bf115610a2d57838154803411610a09575b50505491519182527f8e378317cc1b9c64766fd136e5849da5f702d26a8f8b750115b7422909b2309f60203393a36001815580f35b8180610a16819334610e78565b818115610a39575b3390f115610a2d57835f6109d4565b505051903d90823e3d90fd5b506108fc610a1e565b506108fc6109c3565b86513d85823e3d90fd5b506108fc6109ad565b610a6790610d30565b610a7257845f610991565b8480fd5b89513d88823e3d90fd5b8880fd5b909192935060018060a01b0380600184015416908354166002840154823b15610b0b5760645f92838c519586948593632142170760e11b85528b85015233602485015260448401525af18015610b0157610ae8575b50908780808080979695610997565b610af6919493929850610d30565b5f969091925f610ad9565b88513d5f823e3d90fd5b5f80fd5b601183634e487b7160e01b5f525260245ffd5b875162461bcd60e51b81526020818601526014602482015273125b9cdd59999a58da595b9d081c185e5b595b9d60621b6044820152606490fd5b8251633ee5aeb560e01b8152fd5b509034610b0b576020366003190112610b0b57813591825f526005602052815f20906006820192835492610ba060ff8516610e37565b546001600160a01b03163303610bde57505060ff191690557f411aee90354c51b1b04cd563fcab2617142a9d50da19232d888547c8a1b7fd8a5f80a2005b906020606492519162461bcd60e51b8352820152600a6024820152692737ba1039b2b63632b960b11b6044820152fd5b8234610b0b575f366003190112610b0b576020906003549051908152f35b509034610b0b576020366003190112610b0b57610c47610d04565b610c4f610f1c565b6001600160a01b0316908115610c71575081546001600160a01b031916179055005b5162461bcd60e51b8152602081840152600f60248201526e496e76616c6964206164647265737360881b6044820152606490fd5b5034610b0b576020366003190112610b0b57803591610cc2610f1c565b6103e88311610cd2576003839055005b906020606492519162461bcd60e51b8352820152600c60248201526b08ccaca40e8dede40d0d2ced60a31b6044820152fd5b600435906001600160a01b0382168203610b0b57565b602435906001600160a01b0382168203610b0b57565b67ffffffffffffffff8111610d4457604052565b634e487b7160e01b5f52604160045260245ffd5b90601f8019910116810190811067ffffffffffffffff821117610d4457604052565b81601f82011215610b0b5780359160209167ffffffffffffffff8411610d44578360051b9060405194610daf85840187610d58565b85528380860192820101928311610b0b578301905b828210610dd2575050505090565b81358152908301908301610dc4565b81601f82011215610b0b5780359067ffffffffffffffff8211610d445760405192610e16601f8401601f191660200185610d58565b82845260208383010111610b0b57815f926020809301838601378301015290565b15610e3e57565b60405162461bcd60e51b81526020600482015260126024820152714c697374696e67206e6f742061637469766560701b6044820152606490fd5b91908203918211610e8557565b634e487b7160e01b5f52601160045260245ffd5b90816020910312610b0b57516001600160a01b0381168103610b0b5790565b90816020910312610b0b57518015158103610b0b5790565b15610ed757565b60405162461bcd60e51b815260206004820152601860248201527f4d61726b6574706c616365206e6f7420617070726f76656400000000000000006044820152606490fd5b6001546001600160a01b03163303610f3057565b60405163118cdaa760e01b8152336004820152602490fdfea2646970667358221220b8872c4a64de18cdcf778a8b0e7ebe3a078afe3214e928d650afe9f883707dc864736f6c63430008180033",
  "linkReferences": {},
  "deployedLinkReferences": {}
}