{
  "_format": "hh-sol-artifact-1",
  "contractName": "GroupTreasuryNFT",
  "sourceName": "contracts/GroupTreasuryNFT.sol",
  "abi": [
    {
      "inputs": [],
      "stateMutability": "nonpayable",
      "type": "constructor"
    },
    {
      "inputs": [
        {
          "internalType": "address",
          "name": "sender",
          "type": "address"
        },
        {
          "internalType": "uint256",
          "name": "tokenId",
          "type": "uint256"
        },
        {
          "internalType": "address",
          "name": "owner",
          "type": "address"
        }
      ],
      "name": "ERC721IncorrectOwner",
      "type": "error"
    },
    {
      "inputs": [
        {
          "internalType": "address",
          "name": "operator",
          "type": "address"
        },
        {
          "internalType": "uint256",
          "name": "tokenId",
          "type": "uint256"
        }
      ],
      "name": "ERC721InsufficientApproval",
      "type": "error"
    },
    {
      "inputs": [
        {
          "internalType": "address",
          "name": "approver",
          "type": "address"
        }
      ],
      "name": "ERC721InvalidApprover",
      "type": "error"
    },
    {
      "inputs": [
        {
          "internalType": "address",
          "name": "operator",
          "type": "address"
        }
      ],
      "name": "ERC721InvalidOperator",
      "type": "error"
    },
    {
      "inputs": [
        {
          "internalType": "address",
          "name": "owner",
          "type": "address"
        }
      ],
      "name": "ERC721InvalidOwner",
      "type": "error"
    },
    {
      "inputs": [
        {
          "internalType": "address",
          "name": "receiver",
          "type": "address"
        }
      ],
      "name": "ERC721InvalidReceiver",
      "type": "error"
    },
    {
      "inputs": [
        {
          "internalType": "address",
          "name": "sender",
          "type": "address"
        }
      ],
      "name": "ERC721InvalidSender",
      "type": "error"
    },
    {
      "inputs": [
        {
          "internalType": "uint256",
          "name": "tokenId",
          "type": "uint256"
        }
      ],
      "name": "ERC721NonexistentToken",
      "type": "error"
    },
    {
      "inputs": [
        {
          "internalType": "address",
          "name": "owner",
          "type": "address"
        }
      ],
      "name": "OwnableInvalidOwner",
      "type": "error"
    },
    {
      "inputs": [
        {
          "internalType": "address",
          "name": "account",
          "type": "address"
        }
      ],
      "name": "OwnableUnauthorizedAccount",
      "type": "error"
    },
    {
      "anonymous": false,
      "inputs": [
        {
          "indexed": true,
          "internalType": "address",
          "name": "owner",
          "type": "address"
        },
        {
          "indexed": true,
          "internalType": "address",
          "name": "approved",
          "type": "address"
        },
        {
          "indexed": true,
          "internalType": "uint256",
          "name": "tokenId",
          "type": "uint256"
        }
      ],
      "name": "Approval",
      "type": "event"
    },
    {
      "anonymous": false,
      "inputs": [
        {
          "indexed": true,
          "internalType": "address",
          "name": "owner",
          "type": "address"
        },
        {
          "indexed": true,
          "internalType": "address",
          "name": "operator",
          "type": "address"
        },
        {
          "indexed": false,
          "internalType": "bool",
          "name": "approved",
          "type": "bool"
        }
      ],
      "name": "ApprovalForAll",
      "type": "event"
    },
    {
      "anonymous": false,
      "inputs": [
        {
          "indexed": true,
          "internalType": "uint256",
          "name": "tokenId",
          "type": "uint256"
        },
        {
          "indexed": true,
          "internalType": "address",
          "name": "creator",
          "type": "address"
        },
        {
          "indexed": false,
          "internalType": "string",
          "name": "name",
          "type": "string"
        },
        {
          "indexed": false,
          "internalType": "address",
          "name": "tbaAddress",
          "type": "address"
        },
        {
          "indexed": false,
          "internalType": "uint256",
          "name": "requiredDeposit",
          "type": "uint256"
        }
      ],
      "name": "GroupCreated",
      "type": "event"
    },
    {
      "anonymous": false,
      "inputs": [
        {
          "indexed": true,
          "internalType": "address",
          "name": "previousOwner",
          "type": "address"
        },
        {
          "indexed": true,
          "internalType": "address",
          "name": "newOwner",
          "type": "address"
        }
      ],
      "name": "OwnershipTransferred",
      "type": "event"
    },
    {
      "anonymous": false,
      "inputs": [
        {
          "indexed": true,
          "internalType": "address",
          "name": "from",
          "type": "address"
        },
        {
          "indexed": true,
          "internalType": "address",
          "name": "to",
          "type": "address"
        },
        {
          "indexed": true,
          "internalType": "uint256",
          "name": "tokenId",
          "type": "uint256"
        }
      ],
      "name": "Transfer",
      "type": "event"
    },
    {
      "inputs": [
        {
          "internalType": "address",
          "name": "to",
          "type": "address"
        },
        {
          "internalType": "uint256",
          "name": "tokenId",
          "type": "uint256"
        }
      ],
      "name": "approve",
      "outputs": [],
      "stateMutability": "nonpayable",
      "type": "function"
    },
    {
      "inputs": [
        {
          "internalType": "address",
          "name": "owner",
          "type": "address"
        }
      ],
      "name": "balanceOf",
      "outputs": [
        {
          "internalType": "uint256",
          "name": "",
          "type": "uint256"
        }
      ],
      "stateMutability": "view",
      "type": "function"
    },
    {
      "inputs": [
        {
          "internalType": "address",
          "name": "to",
          "type": "address"
        },
        {
          "internalType": "string",
          "name": "name",
          "type": "string"
        },
        {
          "internalType": "string",
          "name": "description",
          "type": "string"
        },
        {
          "internalType": "uint256",
          "name": "requiredDeposit",
          "type": "uint256"
        }
      ],
      "name": "createGroup",
      "outputs": [
        {
          "internalType": "uint256",
          "name": "",
          "type": "uint256"
        }
      ],
      "stateMutability": "nonpayable",
      "type": "function"
    },
    {
      "inputs": [
        {
          "internalType": "uint256",
          "name": "tokenId",
          "type": "uint256"
        }
      ],
      "name": "getApproved",
      "outputs": [
        {
          "internalType": "address",
          "name": "",
          "type": "address"
        }
      ],
      "stateMutability": "view",
      "type": "function"
    },
    {
      "inputs": [
        {
          "internalType": "uint256",
          "name": "tokenId",
          "type": "uint256"
        }
      ],
      "name": "getGroupMetadata",
      "outputs": [
        {
          "components": [
            {
              "internalType": "string",
              "name": "name",
              "type": "string"
            },
            {
              "internalType": "string",
              "name": "description",
              "type": "string"
            },
            {
              "internalType": "address",
              "name": "creator",
              "type": "address"
            },
            {
              "internalType": "uint256",
              "name": "createdAt",
              "type": "uint256"
            },
            {
              "internalType": "bool",
              "name": "isPrivate",
              "type": "bool"
            },
            {
              "internalType": "uint256",
              "name": "memberCount",
              "type": "uint256"
            },
            {
              "internalType": "uint256",
              "name": "requiredDeposit",
              "type": "uint256"
            }
          ],
          "internalType": "struct GroupTreasuryNFT.GroupMetadata",
          "name": "",
          "type": "tuple"
        }
      ],
      "stateMutability": "view",
      "type": "function"
    },
    {
      "inputs": [
        {
          "internalType": "uint256",
          "name": "tokenId",
          "type": "uint256"
        }
      ],
      "name": "getTokenBoundAccount",
      "outputs": [
        {
          "internalType": "address",
          "name": "",
          "type": "address"
        }
      ],
      "stateMutability": "view",
      "type": "function"
    },
    {
      "inputs": [
        {
          "internalType": "uint256",
          "name": "",
          "type": "uint256"
        }
      ],
      "name": "groupMetadata",
      "outputs": [
        {
          "internalType": "string",
          "name": "name",
          "type": "string"
        },
        {
          "internalType": "string",
          "name": "description",
          "type": "string"
        },
        {
          "internalType": "address",
          "name": "creator",
          "type": "address"
        },
        {
          "internalType": "uint256",
          "name": "createdAt",
          "type": "uint256"
        },
        {
          "internalType": "bool",
          "name": "isPrivate",
          "type": "bool"
        },
        {
          "internalType": "uint256",
          "name": "memberCount",
          "type": "uint256"
        },
        {
          "internalType": "uint256",
          "name": "requiredDeposit",
          "type": "uint256"
        }
      ],
      "stateMutability": "view",
      "type": "function"
    },
    {
      "inputs": [
        {
          "internalType": "address",
          "name": "owner",
          "type": "address"
        },
        {
          "internalType": "address",
          "name": "operator",
          "type": "address"
        }
      ],
      "name": "isApprovedForAll",
      "outputs": [
        {
          "internalType": "bool",
          "name": "",
          "type": "bool"
        }
      ],
      "stateMutability": "view",
      "type": "function"
    },
    {
      "inputs": [],
      "name": "name",
      "outputs": [
        {
          "internalType": "string",
          "name": "",
          "type": "string"
        }
      ],
      "stateMutability": "view",
      "type": "function"
    },
    {
      "inputs": [],
      "name": "owner",
      "outputs": [
        {
          "internalType": "address",
          "name": "",
          "type": "address"
        }
      ],
      "stateMutability": "view",
      "type": "function"
    },
    {
      "inputs": [
        {
          "internalType": "uint256",
          "name": "tokenId",
          "type": "uint256"
        }
      ],
      "name": "ownerOf",
      "outputs": [
        {
          "internalType": "address",
          "name": "",
          "type": "address"
        }
      ],
      "stateMutability": "view",
      "type": "function"
    },
    {
      "inputs": [],
      "name": "renounceOwnership",
      "outputs": [],
      "stateMutability": "nonpayable",
      "type": "function"
    },
    {
      "inputs": [
        {
          "internalType": "address",
          "name": "from",
          "type": "address"
        },
        {
          "internalType": "address",
          "name": "to",
          "type": "address"
        },
        {
          "internalType": "uint256",
          "name": "tokenId",
          "type": "uint256"
        }
      ],
      "name": "safeTransferFrom",
      "outputs": [],
      "stateMutability": "nonpayable",
      "type": "function"
    },
    {
      "inputs": [
        {
          "internalType": "address",
          "name": "from",
          "type": "address"
        },
        {
          "internalType": "address",
          "name": "to",
          "type": "address"
        },
        {
          "internalType": "uint256",
          "name": "tokenId",
          "type": "uint256"
        },
        {
          "internalType": "bytes",
          "name": "data",
          "type": "bytes"
        }
      ],
      "name": "safeTransferFrom",
      "outputs": [],
      "stateMutability": "nonpayable",
      "type": "function"
    },
    {
      "inputs": [
        {
          "internalType": "address",
          "name": "operator",
          "type": "address"
        },
        {
          "internalType": "bool",
          "name": "approved",
          "type": "bool"
        }
      ],
      "name": "setApprovalForAll",
      "outputs": [],
      "stateMutability": "nonpayable",
      "type": "function"
    },
    {
      "inputs": [
        {
          "internalType": "uint256",
          "name": "tokenId",
          "type": "uint256"
        },
        {
          "internalType": "address",
          "name": "tbaAddress",
          "type": "address"
        }
      ],
      "name": "setTokenBoundAccount",
      "outputs": [],
      "stateMutability": "nonpayable",
      "type": "function"
    },
    {
      "inputs": [
        {
          "internalType": "bytes4",
          "name": "interfaceId",
          "type": "bytes4"
        }
      ],
      "name": "supportsInterface",
      "outputs": [
        {
          "internalType": "bool",
          "name": "",
          "type": "bool"
        }
      ],
      "stateMutability": "view",
      "type": "function"
    },
    {
      "inputs": [],
      "name": "symbol",
      "outputs": [
        {
          "internalType": "string",
          "name": "",
          "type": "string"
        }
      ],
      "stateMutability": "view",
      "type": "function"
    },
    {
      "inputs": [
        {
          "internalType": "uint256",
          "name": "",
          "type": "uint256"
        }
      ],
      "name": "tokenBoundAccounts",
      "outputs": [
        {
          "internalType": "address",
          "name": "",
          "type": "address"
        }
      ],
      "stateMutability": "view",
      "type": "function"
    },
    {
      "inputs": [
        {
          "internalType": "uint256",
          "name": "tokenId",
          "type": "uint256"
        }
      ],
      "name": "tokenURI",
      "outputs": [
        {
          "internalType": "string",
          "name": "",
          "type": "string"
        }
      ],
      "stateMutability": "view",
      "type": "function"
    },
    {
      "inputs": [
        {
          "internalType": "address",
          "name": "from",
          "type": "address"
        },
        {
          "internalType": "address",
          "name": "to",
          "type": "address"
        },
        {
          "internalType": "uint256",
          "name": "tokenId",
          "type": "uint256"
        }
      ],
      "name": "transferFrom",
      "outputs": [],
      "stateMutability": "nonpayable",
      "type": "function"
    },
    {
      "inputs": [
        {
          "internalType": "address",
          "name": "newOwner",
          "type": "address"
        }
      ],
      "name": "transferOwnership",
      "outputs": [],
      "stateMutability": "nonpayable",
      "type": "function"
    },
    {
      "inputs": [
        {
          "internalType": "uint256",
          "name": "tokenId",
          "type": "uint256"
        },
        {
          "internalType": "uint256",
          "name": "memberCount",
          "type": "uint256"
        }
      ],
      "name": "updateMemberCount",
      "outputs": [],
      "stateMutability": "nonpayable",
      "type": "function"
    }
  ],
  "bytecode": "0x6080346200037e576001600160401b0390604090808201838111828210176200036a578252601d81526020907f466f7274756e61205371756172652047726f757020547265617375727900000082820152825193838501858110828211176200036a578452600492838652631194d1d560e21b8187015282519082821162000276575f54916001948584811c941680156200035f575b838510146200034c578190601f94858111620002f9575b50839085831160011462000295575f9262000289575b50505f19600383901b1c191690851b175f555b8651928311620002765783548481811c911680156200026b575b82821014620002585782811162000210575b5080918311600114620001aa575081929394955f926200019e575b50505f19600383901b1c191690821b1790555b331562000189575060068054336001600160a01b0319821681179092559151916001600160a01b03167f8be0079c531659141344cd1fd0a4f28419497f9722a3daafe3b4186f6b6457e05f80a36118aa9081620003838239f35b5f6024925191631e4fbdf760e01b8352820152fd5b015190505f806200011c565b90601f19831696845f52825f20925f905b898210620001f8575050838596979810620001df575b505050811b0190556200012f565b01515f1960f88460031b161c191690555f8080620001d1565b808785968294968601518155019501930190620001bb565b845f52815f208380860160051c8201928487106200024e575b0160051c019085905b8281106200024257505062000101565b5f815501859062000232565b9250819262000229565b602286634e487b7160e01b5f525260245ffd5b90607f1690620000ef565b604185634e487b7160e01b5f525260245ffd5b015190505f80620000c2565b90879350601f198316915f8052855f20925f5b87828210620002e25750508411620002c9575b505050811b015f55620000d5565b01515f1960f88460031b161c191690555f8080620002bb565b8385015186558b97909501949384019301620002a8565b9091505f8052835f208580850160051c82019286861062000342575b918991869594930160051c01915b82811062000333575050620000ac565b5f815585945089910162000323565b9250819262000315565b602287634e487b7160e01b5f525260245ffd5b93607f169362000095565b634e487b7160e01b5f52604160045260245ffd5b5f80fdfe6080806040526004361015610012575f80fd5b5f3560e01c90816301ffc9a7146111565750806306fdde03146110af578063081812fc14611073578063095ea7b314610f9257806323b872dd14610f7b57806342842e0e14610f4e57806345680a4914610dff5780636352211e14610dcf57806370a0823114610d79578063715018a614610d1e5780637a841eba14610c6c5780638da5cb5b14610c44578063926a19591461068e57806395d89b41146105c4578063a22cb4651461051a578063abb23f5b146104d0578063b88d4fde14610462578063c6a8212f14610430578063c87b56dd1461037d578063cf86068d146102bb578063dace560d146101f6578063e985e9c5146101a45763f2fde38b14610119575f80fd5b346101a05760203660031901126101a057610132611207565b61013a611618565b6001600160a01b0390811690811561018857600654826001600160601b0360a01b821617600655167f8be0079c531659141344cd1fd0a4f28419497f9722a3daafe3b4186f6b6457e05f80a3005b604051631e4fbdf760e01b81525f6004820152602490fd5b5f80fd5b346101a05760403660031901126101a0576101bd611207565b6101c561121d565b9060018060a01b038091165f52600560205260405f2091165f52602052602060ff60405f2054166040519015158152f35b346101a05760403660031901126101a05760043561021261121d565b9061021b611618565b805f5260026020527ff3ce320754af9d33a8619e70d5b640a0e0f3c4c363cba2aa87cea9379d8f70a46102ab60018060a01b0361025f8160405f2054161515611579565b835f5260096020528060405f20951694856001600160601b0360a01b825416179055600860205260405f209060028201541694600682015460405193849360608552606085019061136a565b91602084015260408301520390a3005b346101a05760203660031901126101a0576004355f52600860205261034f60405f20604051906102f6826102ef818461136a565b03836112a0565b6040516103118161030a816001860161136a565b03826112a0565b60018060a01b0360028301541691600381015460ff6004830154169061035d600660058501549401549460405198899860e08a5260e08a01906111e2565b9088820360208a01526111e2565b94604087015260608601521515608085015260a084015260c08301520390f35b346101a0576020806003193601126101a0576103b8600435805f52600283526103b360018060a01b0360405f2054161515611579565b61178d565b90610418604560405180947f68747470733a2f2f666f7274756e612d7371756172652e636f6d2f6170692f678583015264726f75702f60d81b6040830152610408815180928786860191016111c1565b81010360258101855201836112a0565b61042c6040519282849384528301906111e2565b0390f35b346101a05760203660031901126101a0576004355f526009602052602060018060a01b0360405f205416604051908152f35b346101a05760803660031901126101a05761047b611207565b61048361121d565b906044356064359267ffffffffffffffff84116101a057366023850112156101a0576104bc6104ce9436906024816004013591016112de565b926104c88383836113fb565b33611644565b005b346101a05760203660031901126101a0576020600435805f526002825260018060a01b03906105068260405f2054161515611579565b5f526009825260405f205416604051908152f35b346101a05760403660031901126101a057610533611207565b60243590811515908183036101a0576001600160a01b03169182156105ab5761057d90335f52600560205260405f20845f5260205260405f209060ff801983541691151516179055565b6040519081527f17307eab39ab6107e8899845ad3d59bd9653f200f220920489ca2b5937696c3160203392a3005b604051630b61174360e31b815260048101849052602490fd5b346101a0575f3660031901126101a0576040515f600182600154926105e884611332565b92838352602094856001821691825f1461066e575050600114610613575b50610418925003836112a0565b84915060015f527fb10e2d527612073b26eecdfd717e6a320cf44b4afac2b0732d9fcbe2b7fa0cf6905f915b858310610656575050610418935082010185610606565b8054838901850152879450869390920191810161063f565b60ff19168582015261041895151560051b85010192508791506106069050565b346101a05760803660031901126101a0576106a7611207565b60243567ffffffffffffffff81116101a0576106c7903690600401611314565b60443567ffffffffffffffff81116101a0576106e7903690600401611314565b91815115610c0857600754926106fc846115bc565b60075560405161070b81611284565b5f81526001600160a01b038316928315610bf0575f868152600260205260409020546001600160a01b0316801515908790869083610bbd575b815f52600360205260405f2060018154019055825f52600260205260405f20826001600160601b0360a01b8254161790557fddf252ad1be2c89b69c2b068fc378daa952ba7f163c4a11628f55a4df523b3ef5f80a4610ba5573b610a84575b50604051926107b184611268565b83526020830152604082015242606082015260016080820152600160a082015260643560c0820152815f52600860205260405f2091815192835167ffffffffffffffff81116109bf576108048254611332565b601f8111610a43575b506020601f82116001146109de5781929394955f926109d3575b50508160011b915f199060031b1c19161781555b602083015192835167ffffffffffffffff81116109bf5761085f6001840154611332565b94601f861161097b575b602095508590601f831160011461090e5791806006949260c0945f92610903575b50508160011b915f199060031b1c19161760018501555b6002840160018060a01b036040830151166001600160601b0360a01b825416179055606081015160038501556108ec60808201511515600486019060ff801983541691151516179055565b60a081015160058501550151910155604051908152f35b01519050888061088a565b90601f19831691600186015f52875f20925f5b818110610964575092600192859260c096600698961061094c575b505050811b0160018501556108a1565b01515f1960f88460031b161c1916905588808061093c565b929389600181928786015181550195019301610921565b600184015f5260205f20601f830160051c8101602084106109b8575b601f880160051c820181106109ad575050610869565b5f8155600101610997565b5080610997565b634e487b7160e01b5f52604160045260245ffd5b015190508580610827565b825f5260205f20905f5b601f1984168110610a2b575060019394959683601f19811610610a13575b505050811b01815561083b565b01515f1960f88460031b161c19169055858080610a06565b9091602060018192858b0151815501930191016109e8565b825f5260205f20601f830160051c810160208410610a7d575b601f830160051c82018110610a7257505061080d565b5f8155600101610a5c565b5080610a5c565b6040949392945160208180610ac1630a85bd0160e11b958683523360048401525f60248401528960448401526080606484015260848301906111e2565b03815f8a5af15f9181610b60575b50610b2e57853d15610b26573d90610ae6826112c2565b91610af460405193846112a0565b82523d5f602084013e5b81519182610b1f57604051633250574960e11b815260048101839052602490fd5b6020915001fd5b606090610afe565b939492936001600160e01b03191603610b4757846107a3565b604051633250574960e11b815260048101839052602490fd5b9091506020813d602011610b9d575b81610b7c602093836112a0565b810103126101a057516001600160e01b0319811681036101a0579087610acf565b3d9150610b6f565b6040516339e3563760e11b81525f6004820152602490fd5b5f83815260046020526040902080546001600160a01b0319169055805f52600360205260405f205f198154019055610744565b604051633250574960e11b81525f6004820152602490fd5b60405162461bcd60e51b81526020600482015260146024820152734e616d652063616e6e6f7420626520656d70747960601b6044820152606490fd5b346101a0575f3660031901126101a0576006546040516001600160a01b039091168152602090f35b346101a05760403660031901126101a0576004355f818152600260205260409020546001600160a01b0390610ca49082161515611579565b80600654163314908115610d05575b5015610ccf575f526008602052602435600560405f2001555f80f35b60405162461bcd60e51b815260206004820152600e60248201526d139bdd08185d5d1a1bdc9a5e995960921b6044820152606490fd5b9050815f526009602052339060405f2054161482610cb3565b346101a0575f3660031901126101a057610d36611618565b600680546001600160a01b031981169091555f906001600160a01b03167f8be0079c531659141344cd1fd0a4f28419497f9722a3daafe3b4186f6b6457e08280a3005b346101a05760203660031901126101a0576001600160a01b03610d9a611207565b168015610db7575f526003602052602060405f2054604051908152f35b6040516322718ad960e21b81525f6004820152602490fd5b346101a05760203660031901126101a0576020610ded6004356115de565b6040516001600160a01b039091168152f35b346101a0576020806003193601126101a05760e0906004355f60c0604051610e2681611268565b606081526060858201528260408201528260608201528260808201528260a08201520152805f526002825260018060a01b0390610e6a8260405f2054161515611579565b5f526008825260405f209160405192610e8284611268565b604051610e938161030a818561136a565b8452604051610ea98161030a816001860161136a565b82850190815283600283015416936040860194855260038301549060608701918252610f2860ff60048601541693608089019415158552610f15600660058801549760a08c0198895201549760c08b019889526040519b8c9b828d5251918c01526101008b01906111e2565b9051898203601f190160408b01526111e2565b955116606087015251608086015251151560a08501525160c08401525160e08301520390f35b346101a0576104ce610f5f36611233565b9060405192610f6d84611284565b5f84526104c88383836113fb565b346101a0576104ce610f8c36611233565b916113fb565b346101a05760403660031901126101a057610fab611207565b602435610fb7816115de565b33151580611060575b80611037575b61101f576001600160a01b039283169282918491167f8c5be1e5ebec7d5bd14f71427d1e84f3dd0314c0f7b2291e5b200ac8c7c3b9255f80a45f90815260046020526040902080546001600160a01b0319169091179055005b60405163a9fbf51f60e01b8152336004820152602490fd5b5060018060a01b0381165f52600560205260405f20335f5260205260ff60405f20541615610fc6565b506001600160a01b038116331415610fc0565b346101a05760203660031901126101a057600435611090816115de565b505f526004602052602060018060a01b0360405f205416604051908152f35b346101a0575f3660031901126101a0576040515f805490826110d083611332565b91828252602093600190856001821691825f1461066e5750506001146110fd5750610418925003836112a0565b5f808052859250907f290decd9548b62a8d60345a988386fc84ba6bc95484008f6362f93160ef3e5635b85831061113e575050610418935082010185610606565b80548389018501528794508693909201918101611127565b346101a05760203660031901126101a0576004359063ffffffff60e01b82168092036101a0576020916380ac58cd60e01b81149081156111b0575b811561119f575b5015158152f35b6301ffc9a760e01b14905083611198565b635b5e139f60e01b81149150611191565b5f5b8381106111d25750505f910152565b81810151838201526020016111c3565b906020916111fb815180928185528580860191016111c1565b601f01601f1916010190565b600435906001600160a01b03821682036101a057565b602435906001600160a01b03821682036101a057565b60609060031901126101a0576001600160a01b039060043582811681036101a0579160243590811681036101a0579060443590565b60e0810190811067ffffffffffffffff8211176109bf57604052565b6020810190811067ffffffffffffffff8211176109bf57604052565b90601f8019910116810190811067ffffffffffffffff8211176109bf57604052565b67ffffffffffffffff81116109bf57601f01601f191660200190565b9291926112ea826112c2565b916112f860405193846112a0565b8294818452818301116101a0578281602093845f960137010152565b9080601f830112156101a05781602061132f933591016112de565b90565b90600182811c92168015611360575b602083101461134c57565b634e487b7160e01b5f52602260045260245ffd5b91607f1691611341565b80545f939261137882611332565b918282526020936001916001811690815f146113dc575060011461139e575b5050505050565b90939495505f92919252835f2092845f945b8386106113c857505050500101905f80808080611397565b8054858701830152940193859082016113b0565b60ff19168685015250505090151560051b010191505f80808080611397565b6001600160a01b039182169290918315610bf057815f52602092600284528260409583875f20541695331515806114e7575b50600290876114b6575b825f5260038152885f2060018154019055835f5252865f20816001600160601b0360a01b825416179055857fddf252ad1be2c89b69c2b068fc378daa952ba7f163c4a11628f55a4df523b3ef5f80a416928383036114955750505050565b6064945051926364283d7b60e01b8452600484015260248301526044820152fd5b5f84815260046020526040812080546001600160a01b03191690558881526003825289902080545f19019055611437565b9192509080611538575b156114ff579084915f61142d565b86858761151c576024915190637e27328960e01b82526004820152fd5b604491519063177e802f60e01b82523360048301526024820152fd5b50338614801561155d575b806114f15750845f52600481523384885f205416146114f1565b50855f5260058152865f20335f52815260ff875f205416611543565b1561158057565b60405162461bcd60e51b8152602060048201526014602482015273151bdad95b88191bd95cc81b9bdd08195e1a5cdd60621b6044820152606490fd5b5f1981146115ca5760010190565b634e487b7160e01b5f52601160045260245ffd5b5f818152600260205260409020546001600160a01b0316908115611600575090565b60249060405190637e27328960e01b82526004820152fd5b6006546001600160a01b0316330361162c57565b60405163118cdaa760e01b8152336004820152602490fd5b9293909193843b611656575050505050565b604051630a85bd0160e11b8082526001600160a01b0395861660048301529385166024820152604481019190915260806064820152602095949093169392908590829081906116a99060848301906111e2565b03815f885af15f918161174d575b50611716575050503d5f1461170e573d916116d1836112c2565b926116df60405194856112a0565b83523d5f8285013e5b8251928361170957604051633250574960e11b815260048101849052602490fd5b019050fd5b6060916116e8565b9193506001600160e01b03199091160361173557505f80808080611397565b60249060405190633250574960e11b82526004820152fd5b9091508581813d8311611786575b61176581836112a0565b810103126101a057516001600160e01b0319811681036101a057905f6116b7565b503d61175b565b8015611845575f81805b61183157506117a5816112c2565b906117b360405192836112a0565b808252601f196117c2826112c2565b013660208401375b8092801561182a575f1982019182116115ca578193600a9260309084840682018092116115ca57855111156118165760f81b6001600160f81b0319165f1a908401601f015304916117ca565b634e487b7160e01b5f52603260045260245ffd5b5050905090565b9061183d600a916115bc565b910480611797565b506040516040810181811067ffffffffffffffff8211176109bf5760405260018152600360fc1b60208201529056fea2646970667358221220094a119c6ed25ff36cc9be3d2e3b3eb5550b28823e1e65aaff9d56f74850b73064736f6c63430008180033",
  "linkReferences": {},
  "deployedLinkReferences": {}
}