{
  "_format": "hh-sol-artifact-1",
  "contractName": "RentalWrapperDelegated",
  "sourceName": "contracts/RentalWrapperDelegated.sol",
  "abi": [
    {
      "inputs": [
        {
          "internalType": "address",
          "name": "_accountImplementation",
          "type": "address"
        },
        {
          "internalType": "address",
          "name": "_rentalManager",
          "type": "address"
        }
      ],
      "stateMutability": "nonpayable",
      "type": "constructor"
    },
    {
      "inputs": [
        {
          "internalType": "address",
          "name": "sender",
          "type": "address"
        },
        {
          "internalType": "uint256",
          "name": "tokenId",
          "type": "uint256"
        },
        {
          "internalType": "address",
          "name": "owner",
          "type": "address"
        }
      ],
      "name": "ERC721IncorrectOwner",
      "type": "error"
    },
    {
      "inputs": [
        {
          "internalType": "address",
          "name": "operator",
          "type": "address"
        },
        {
          "internalType": "uint256",
          "name": "tokenId",
          "type": "uint256"
        }
      ],
      "name": "ERC721InsufficientApproval",
      "type": "error"
    },
    {
      "inputs": [
        {
          "internalType": "address",
          "name": "approver",
          "type": "address"
        }
      ],
      "name": "ERC721InvalidApprover",
      "type": "error"
    },
    {
      "inputs": [
        {
          "internalType": "address",
          "name": "operator",
          "type": "address"
        }
      ],
      "name": "ERC721InvalidOperator",
      "type": "error"
    },
    {
      "inputs": [
        {
          "internalType": "address",
          "name": "owner",
          "type": "address"
        }
      ],
      "name": "ERC721InvalidOwner",
      "type": "error"
    },
    {
      "inputs": [
        {
          "internalType": "address",
          "name": "receiver",
          "type": "address"
        }
      ],
      "name": "ERC721InvalidReceiver",
      "type": "error"
    },
    {
      "inputs": [
        {
          "internalType": "address",
          "name": "sender",
          "type": "address"
        }
      ],
      "name": "ERC721InvalidSender",
      "type": "error"
    },
    {
      "inputs": [
        {
          "internalType": "uint256",
          "name": "tokenId",
          "type": "uint256"
        }
      ],
      "name": "ERC721NonexistentToken",
      "type": "error"
    },
    {
      "inputs": [
        {
          "internalType": "address",
          "name": "owner",
          "type": "address"
        }
      ],
      "name": "OwnableInvalidOwner",
      "type": "error"
    },
    {
      "inputs": [
        {
          "internalType": "address",
          "name": "account",
          "type": "address"
        }
      ],
      "name": "OwnableUnauthorizedAccount",
      "type": "error"
    },
    {
      "anonymous": false,
      "inputs": [
        {
          "indexed": true,
          "internalType": "address",
          "name": "owner",
          "type": "address"
        },
        {
          "indexed": true,
          "internalType": "address",
          "name": "approved",
          "type": "address"
        },
        {
          "indexed": true,
          "internalType": "uint256",
          "name": "tokenId",
          "type": "uint256"
        }
      ],
      "name": "Approval",
      "type": "event"
    },
    {
      "anonymous": false,
      "inputs": [
        {
          "indexed": true,
          "internalType": "address",
          "name": "owner",
          "type": "address"
        },
        {
          "indexed": true,
          "internalType": "address",
          "name": "operator",
          "type": "address"
        },
        {
          "indexed": false,
          "internalType": "bool",
          "name": "approved",
          "type": "bool"
        }
      ],
      "name": "ApprovalForAll",
      "type": "event"
    },
    {
      "anonymous": false,
      "inputs": [
        {
          "indexed": true,
          "internalType": "uint256",
          "name": "wrapperId",
          "type": "uint256"
        },
        {
          "indexed": true,
          "internalType": "address",
          "name": "originalContract",
          "type": "address"
        },
        {
          "indexed": true,
          "internalType": "uint256",
          "name": "originalTokenId",
          "type": "uint256"
        },
        {
          "indexed": false,
          "internalType": "address",
          "name": "owner",
          "type": "address"
        }
      ],
      "name": "NFTUnwrapped",
      "type": "event"
    },
    {
      "anonymous": false,
      "inputs": [
        {
          "indexed": true,
          "internalType": "uint256",
          "name": "wrapperId",
          "type": "uint256"
        },
        {
          "indexed": true,
          "internalType": "address",
          "name": "originalContract",
          "type": "address"
        },
        {
          "indexed": true,
          "internalType": "uint256",
          "name": "originalTokenId",
          "type": "uint256"
        },
        {
          "indexed": false,
          "internalType": "address",
          "name": "owner",
          "type": "address"
        },
        {
          "indexed": false,
          "internalType": "address",
          "name": "tba",
          "type": "address"
        }
      ],
      "name": "NFTWrapped",
      "type": "event"
    },
    {
      "anonymous": false,
      "inputs": [
        {
          "indexed": true,
          "internalType": "address",
          "name": "previousOwner",
          "type": "address"
        },
        {
          "indexed": true,
          "internalType": "address",
          "name": "newOwner",
          "type": "address"
        }
      ],
      "name": "OwnershipTransferred",
      "type": "event"
    },
    {
      "anonymous": false,
      "inputs": [
        {
          "indexed": true,
          "internalType": "uint256",
          "name": "wrapperId",
          "type": "uint256"
        },
        {
          "indexed": true,
          "internalType": "address",
          "name": "previousRenter",
          "type": "address"
        }
      ],
      "name": "RentalEnded",
      "type": "event"
    },
    {
      "anonymous": false,
      "inputs": [
        {
          "indexed": true,
          "internalType": "uint256",
          "name": "wrapperId",
          "type": "uint256"
        },
        {
          "indexed": true,
          "internalType": "address",
          "name": "renter",
          "type": "address"
        },
        {
          "indexed": false,
          "internalType": "uint64",
          "name": "expires",
          "type": "uint64"
        }
      ],
      "name": "RentalStarted",
      "type": "event"
    },
    {
      "anonymous": false,
      "inputs": [
        {
          "indexed": true,
          "internalType": "address",
          "name": "from",
          "type": "address"
        },
        {
          "indexed": true,
          "internalType": "address",
          "name": "to",
          "type": "address"
        },
        {
          "indexed": true,
          "internalType": "uint256",
          "name": "tokenId",
          "type": "uint256"
        }
      ],
      "name": "Transfer",
      "type": "event"
    },
    {
      "anonymous": false,
      "inputs": [
        {
          "indexed": true,
          "internalType": "uint256",
          "name": "tokenId",
          "type": "uint256"
        },
        {
          "indexed": true,
          "internalType": "address",
          "name": "user",
          "type": "address"
        },
        {
          "indexed": false,
          "internalType": "uint64",
          "name": "expires",
          "type": "uint64"
        }
      ],
      "name": "UpdateUser",
      "type": "event"
    },
    {
      "inputs": [],
      "name": "ERC6551_REGISTRY",
      "outputs": [
        {
          "internalType": "address",
          "name": "",
          "type": "address"
        }
      ],
      "stateMutability": "view",
      "type": "function"
    },
    {
      "inputs": [],
      "name": "accountImplementation",
      "outputs": [
        {
          "internalType": "address",
          "name": "",
          "type": "address"
        }
      ],
      "stateMutability": "view",
      "type": "function"
    },
    {
      "inputs": [
        {
          "internalType": "address",
          "name": "to",
          "type": "address"
        },
        {
          "internalType": "uint256",
          "name": "tokenId",
          "type": "uint256"
        }
      ],
      "name": "approve",
      "outputs": [],
      "stateMutability": "nonpayable",
      "type": "function"
    },
    {
      "inputs": [
        {
          "internalType": "address",
          "name": "owner",
          "type": "address"
        }
      ],
      "name": "balanceOf",
      "outputs": [
        {
          "internalType": "uint256",
          "name": "",
          "type": "uint256"
        }
      ],
      "stateMutability": "view",
      "type": "function"
    },
    {
      "inputs": [
        {
          "internalType": "uint256",
          "name": "tokenId",
          "type": "uint256"
        }
      ],
      "name": "getApproved",
      "outputs": [
        {
          "internalType": "address",
          "name": "",
          "type": "address"
        }
      ],
      "stateMutability": "view",
      "type": "function"
    },
    {
      "inputs": [
        {
          "internalType": "uint256",
          "name": "tokenId",
          "type": "uint256"
        }
      ],
      "name": "getOriginalNFT",
      "outputs": [
        {
          "internalType": "address",
          "name": "originalContract",
          "type": "address"
        },
        {
          "internalType": "uint256",
          "name": "originalTokenId",
          "type": "uint256"
        }
      ],
      "stateMutability": "view",
      "type": "function"
    },
    {
      "inputs": [
        {
          "internalType": "uint256",
          "name": "tokenId",
          "type": "uint256"
        }
      ],
      "name": "getTBA",
      "outputs": [
        {
          "internalType": "address",
          "name": "",
          "type": "address"
        }
      ],
      "stateMutability": "view",
      "type": "function"
    },
    {
      "inputs": [
        {
          "internalType": "address",
          "name": "owner",
          "type": "address"
        },
        {
          "internalType": "address",
          "name": "operator",
          "type": "address"
        }
      ],
      "name": "isApprovedForAll",
      "outputs": [
        {
          "internalType": "bool",
          "name": "",
          "type": "bool"
        }
      ],
      "stateMutability": "view",
      "type": "function"
    },
    {
      "inputs": [],
      "name": "name",
      "outputs": [
        {
          "internalType": "string",
          "name": "",
          "type": "string"
        }
      ],
      "stateMutability": "view",
      "type": "function"
    },
    {
      "inputs": [],
      "name": "owner",
      "outputs": [
        {
          "internalType": "address",
          "name": "",
          "type": "address"
        }
      ],
      "stateMutability": "view",
      "type": "function"
    },
    {
      "inputs": [
        {
          "internalType": "uint256",
          "name": "tokenId",
          "type": "uint256"
        }
      ],
      "name": "ownerOf",
      "outputs": [
        {
          "internalType": "address",
          "name": "",
          "type": "address"
        }
      ],
      "stateMutability": "view",
      "type": "function"
    },
    {
      "inputs": [],
      "name": "renounceOwnership",
      "outputs": [],
      "stateMutability": "nonpayable",
      "type": "function"
    },
    {
      "inputs": [],
      "name": "rentalManager",
      "outputs": [
        {
          "internalType": "address",
          "name": "",
          "type": "address"
        }
      ],
      "stateMutability": "view",
      "type": "function"
    },
    {
      "inputs": [
        {
          "internalType": "address",
          "name": "from",
          "type": "address"
        },
        {
          "internalType": "address",
          "name": "to",
          "type": "address"
        },
        {
          "internalType": "uint256",
          "name": "tokenId",
          "type": "uint256"
        }
      ],
      "name": "safeTransferFrom",
      "outputs": [],
      "stateMutability": "nonpayable",
      "type": "function"
    },
    {
      "inputs": [
        {
          "internalType": "address",
          "name": "from",
          "type": "address"
        },
        {
          "internalType": "address",
          "name": "to",
          "type": "address"
        },
        {
          "internalType": "uint256",
          "name": "tokenId",
          "type": "uint256"
        },
        {
          "internalType": "bytes",
          "name": "data",
          "type": "bytes"
        }
      ],
      "name": "safeTransferFrom",
      "outputs": [],
      "stateMutability": "nonpayable",
      "type": "function"
    },
    {
      "inputs": [
        {
          "internalType": "address",
          "name": "operator",
          "type": "address"
        },
        {
          "internalType": "bool",
          "name": "approved",
          "type": "bool"
        }
      ],
      "name": "setApprovalForAll",
      "outputs": [],
      "stateMutability": "nonpayable",
      "type": "function"
    },
    {
      "inputs": [
        {
          "internalType": "address",
          "name": "_rentalManager",
          "type": "address"
        }
      ],
      "name": "setRentalManager",
      "outputs": [],
      "stateMutability": "nonpayable",
      "type": "function"
    },
    {
      "inputs": [
        {
          "internalType": "uint256",
          "name": "tokenId",
          "type": "uint256"
        },
        {
          "internalType": "address",
          "name": "user",
          "type": "address"
        },
        {
          "internalType": "uint64",
          "name": "expires",
          "type": "uint64"
        }
      ],
      "name": "setUser",
      "outputs": [],
      "stateMutability": "nonpayable",
      "type": "function"
    },
    {
      "inputs": [
        {
          "internalType": "bytes4",
          "name": "interfaceId",
          "type": "bytes4"
        }
      ],
      "name": "supportsInterface",
      "outputs": [
        {
          "internalType": "bool",
          "name": "",
          "type": "bool"
        }
      ],
      "stateMutability": "view",
      "type": "function"
    },
    {
      "inputs": [],
      "name": "symbol",
      "outputs": [
        {
          "internalType": "string",
          "name": "",
          "type": "string"
        }
      ],
      "stateMutability": "view",
      "type": "function"
    },
    {
      "inputs": [
        {
          "internalType": "uint256",
          "name": "tokenId",
          "type": "uint256"
        }
      ],
      "name": "tokenURI",
      "outputs": [
        {
          "internalType": "string",
          "name": "",
          "type": "string"
        }
      ],
      "stateMutability": "view",
      "type": "function"
    },
    {
      "inputs": [
        {
          "internalType": "address",
          "name": "from",
          "type": "address"
        },
        {
          "internalType": "address",
          "name": "to",
          "type": "address"
        },
        {
          "internalType": "uint256",
          "name": "tokenId",
          "type": "uint256"
        }
      ],
      "name": "transferFrom",
      "outputs": [],
      "stateMutability": "nonpayable",
      "type": "function"
    },
    {
      "inputs": [
        {
          "internalType": "address",
          "name": "newOwner",
          "type": "address"
        }
      ],
      "name": "transferOwnership",
      "outputs": [],
      "stateMutability": "nonpayable",
      "type": "function"
    },
    {
      "inputs": [
        {
          "internalType": "uint256",
          "name": "wrapperId",
          "type": "uint256"
        }
      ],
      "name": "unwrapNFT",
      "outputs": [],
      "stateMutability": "nonpayable",
      "type": "function"
    },
    {
      "inputs": [
        {
          "internalType": "uint256",
          "name": "tokenId",
          "type": "uint256"
        }
      ],
      "name": "userExpires",
      "outputs": [
        {
          "internalType": "uint64",
          "name": "",
          "type": "uint64"
        }
      ],
      "stateMutability": "view",
      "type": "function"
    },
    {
      "inputs": [
        {
          "internalType": "uint256",
          "name": "tokenId",
          "type": "uint256"
        }
      ],
      "name": "userOf",
      "outputs": [
        {
          "internalType": "address",
          "name": "",
          "type": "address"
        }
      ],
      "stateMutability": "view",
      "type": "function"
    },
    {
      "inputs": [
        {
          "internalType": "address",
          "name": "originalContract",
          "type": "address"
        },
        {
          "internalType": "uint256",
          "name": "originalTokenId",
          "type": "uint256"
        },
        {
          "internalType": "address",
          "name": "owner",
          "type": "address"
        }
      ],
      "name": "wrapNFT",
      "outputs": [
        {
          "internalType": "uint256",
          "name": "wrapperId",
          "type": "uint256"
        },
        {
          "internalType": "address",
          "name": "tba",
          "type": "address"
        }
      ],
      "stateMutability": "nonpayable",
      "type": "function"
    },
    {
      "inputs": [
        {
          "internalType": "uint256",
          "name": "",
          "type": "uint256"
        }
      ],
      "name": "wrappedNFTs",
      "outputs": [
        {
          "internalType": "address",
          "name": "originalContract",
          "type": "address"
        },
        {
          "internalType": "uint256",
          "name": "originalTokenId",
          "type": "uint256"
        },
        {
          "internalType": "address",
          "name": "tbaAddress",
          "type": "address"
        }
      ],
      "stateMutability": "view",
      "type": "function"
    }
  ],
  "bytecode": "0x60a034620003b857601f1990601f906001600160401b039062001d7b3881900384810186168301919084831184841017620002da578084926040948552833981010312620003b8576200005281620003dc565b91620000626020809301620003dc565b936200006d620003bc565b92601d84527f466f7274756e61205371756172652052656e74616c205772617070657200000081850152620000a1620003bc565b9660088852671194d4915395105360c21b828901528451848111620002da575f546001968782811c92168015620003ad575b85831014620002bb5781868493116200035a575b508490868311600114620002fa575f92620002ee575b50505f19600383901b1c191690861b175f555b8751938411620002da5784548581811c91168015620002cf575b83821014620002bb5783811162000273575b50819284116001146200020f57505081929394955f9262000203575b50505f19600383901b1c191690821b1790555b3315620001eb5760068054336001600160a01b031980831682179093556040519492936001600160a01b03939290919084167f8be0079c531659141344cd1fd0a4f28419497f9722a3daafe3b4186f6b6457e05f80a3608052169060075416176007556119899081620003f28239608051818181610db201526111ba0152f35b604051631e4fbdf760e01b81525f6004820152602490fd5b015190505f8062000158565b5f858152828120918516989193925b8982106200025b57505083859697981062000242575b505050811b0190556200016b565b01515f1960f88460031b161c191690555f808062000234565b8087859682949686015181550195019301906200021e565b855f52825f208480870160051c820192858810620002b1575b0160051c019086905b828110620002a55750506200013c565b5f815501869062000295565b925081926200028c565b634e487b7160e01b5f52602260045260245ffd5b90607f16906200012a565b634e487b7160e01b5f52604160045260245ffd5b015190505f80620000fd565b9084899416915f8052865f20925f5b888282106200034357505084116200032a575b505050811b015f5562000110565b01515f1960f88460031b161c191690555f80806200031c565b8385015186558c9790950194938401930162000309565b9091505f8052845f208680850160051c820192878610620003a3575b918a91869594930160051c01915b82811062000394575050620000e7565b5f81558594508a910162000384565b9250819262000376565b91607f1691620000d3565b5f80fd5b60408051919082016001600160401b03811183821017620002da57604052565b51906001600160a01b0382168203620003b85756fe60806040818152600480361015610014575f80fd5b5f925f3560e01c90816301ffc9a7146113c55750806306fdde03146112fe578063081812fc146112c5578063095ea7b3146111e957806311464fbe146111a657806315d9756e14611173578063173ffed41461110357806323b872dd146110ec5780633447d0f814610caa57806342842e0e14610c7c578063577b540b14610c395780636352211e14610c1a57806370a0823114610bc5578063715018a614610b6a5780638da5cb5b14610b425780638fc88c4814610b0d57806395d89b41146109fd578063a22cb46514610961578063b88d4fde146108ce578063c278cff6146108a6578063c2f1f14a14610876578063c87b56dd14610827578063d5cf5f6f14610573578063e030565e146102b0578063e1b251e61461025e578063e985e9c514610210578063edc16084146101e15763f2fde38b14610154575f80fd5b346101dd5760203660031901126101dd5761016d61148f565b9061017661180d565b6001600160a01b039182169283156101c7575050600654826001600160601b0360a01b821617600655167f8be0079c531659141344cd1fd0a4f28419497f9722a3daafe3b4186f6b6457e08380a380f35b51631e4fbdf760e01b8152908101849052602490fd5b8280fd5b50503461020c578160031936011261020c57602090516f6551c19487814612e58fe068137757588152f35b5080fd5b50503461020c578060031936011261020c5760ff8160209361023061148f565b6102386114a5565b6001600160a01b0391821683526005875283832091168252855220549151911615158152f35b50346101dd5760203660031901126101dd5735825260096020908152918190208054600182015460029092015492516001600160a01b03918216815293840191909152166040820152606090f35b0390f35b509190346105335760603660031901126105335782356102ce6114a5565b9160443567ffffffffffffffff91828216809203610533576007546001600160a01b0393906103009085163314611731565b4283111561053757845f5260209360098552825f2096835197610322896114f0565b8054831689526001810154878a019081526002909101548316858a0190815291831698838a1561047c578091929351169151169151813b156104785760848c8c80948d948a519788968795633af65ff960e01b875286015260248501526044840152600160648401525af1801561046e57908991610456575b505086867f9abcba6ac5fb3bfba6499d4948ada5bf16095e5954bc56ac59cf2b28cf4a6bde878651888152a35b82519182840190811183821017610443577f4e06b4e7000e659094299b3533b47b6aa8ad048e95e872d23d1f4ee55af89cfe9697989950835287825284820190848252878a52600a8652838a2092511682549167ffffffffffffffff60a01b905160a01b169163ffffffff60e01b161717905551908152a380f35b634e487b7160e01b895260418a52602489fd5b61045f90611520565b61046a57875f61039b565b8780fd5b84513d8b823e3d90fd5b8a80fd5b50885f52600a88528380875f205416938461049c575b50505050506103c8565b81905116915116915190803b156105335760848d5f869381958b519788968795633af65ff960e01b8752860152602485015260448401528160648401525af1801561052957610516575b50867ff9bbd47d9659083aa5b016ffd346aca413549aace523513f610200aeed1e1dd48a80a35f80808381610492565b610521919950611520565b5f975f6104e6565b85513d5f823e3d90fd5b5f80fd5b815162461bcd60e51b81526020818a0152601660248201527545787069726573206d7573742062652066757475726560501b6044820152606490fd5b5090346105335760208060031936011261053357823590610593826117a4565b6001600160a01b039033908216036107f857806105af84611772565b166107c25760029394835f5260098352855f20906106635f8851936105d3856114f0565b8054861685526001810154878601818152999091015486168a86018181528b516323b872dd60e01b818b01526001600160a01b03909216602483015233604483015260648083019390935291815290869061062f608484611550565b511686865116838c51809681958294639e5d4c4960e01b84528a84015283602484015260606044840152606483019061146a565b03925af180156107b857610745575b50845f526002845282875f205416855f8215928315610714575b828252600288528a822080546001600160a01b03191690557fddf252ad1be2c89b69c2b068fc378daa952ba7f163c4a11628f55a4df523b3ef8280a46106fd5750907f3304fe3d332ecf1a646bbfbb2c28afa7c10f9a7026fbf90b2e5b57cba1da823e9291511693519451338152a4005b8651637e27328960e01b8152908101859052602490fd5b5f83815260046020526040902080546001600160a01b0319169055808252600388528a82208219815401905561068c565b3d805f833e6107548183611550565b81019085818303126105335780519067ffffffffffffffff8211610533570181601f820112156105335780519061078a82611572565b926107978b519485611550565b8284528783830101116105335786806107b294019101611449565b87610672565b88513d5f823e3d90fd5b835162461bcd60e51b8152808601839052601060248201526f10dd5c9c995b9d1b1e481c995b9d195960821b6044820152606490fd5b835162461bcd60e51b815280860183905260096024820152682737ba1037bbb732b960b91b6044820152606490fd5b509034610533576020366003190112610533576108476102ac92356117a4565b505f815161085481611534565b5280519061086182611534565b5f82525191829160208352602083019061146a565b5090346105335760203660031901126105335761089560209235611772565b90516001600160a01b039091168152f35b8234610533575f3660031901126105335760075490516001600160a01b039091168152602090f35b509034610533576080366003190112610533576108e961148f565b6108f16114a5565b604435916064359467ffffffffffffffff861161053357366023870112156105335785013561092b61092282611572565b95519586611550565b8085523660248288010111610533576020815f92602461095f9901838901378601015261095983838361158e565b33611839565b005b50903461053357806003193601126105335761097b61148f565b9060243591821515809303610533576001600160a01b03169283156109e85750335f526005602052805f20835f52602052805f2060ff1981541660ff8416179055519081527f17307eab39ab6107e8899845ad3d59bd9653f200f220920489ca2b5937696c3160203392a3005b836024925191630b61174360e31b8352820152fd5b509034610533575f366003190112610533578051905f90600191600154928360011c9060018516948515610b03575b6020958684108114610af057838852879493929187908215610ace575050600114610a73575b50506102ac9291610a64910385611550565b5192828493845283019061146a565b9085925060015f527fb10e2d527612073b26eecdfd717e6a320cf44b4afac2b0732d9fcbe2b7fa0cf6915f925b828410610ab65750505082010181610a64610a52565b8054848a018601528895508794909301928101610aa0565b60ff19168682015292151560051b85019092019250839150610a649050610a52565b602289634e487b7160e01b5f525260245ffd5b91607f1691610a2c565b50903461053357602036600319011261053357602091355f52600a825267ffffffffffffffff815f205460a01c169051908152f35b8234610533575f3660031901126105335760065490516001600160a01b039091168152602090f35b34610533575f36600319011261053357610b8261180d565b600680546001600160a01b031981169091555f906001600160a01b03167f8be0079c531659141344cd1fd0a4f28419497f9722a3daafe3b4186f6b6457e08280a3005b509034610533576020366003190112610533576001600160a01b03610be861148f565b168015610c0457602092505f5260038252805f20549051908152f35b81516322718ad960e21b81525f81850152602490fd5b50903461053357602036600319011261053357610895602092356117a4565b3461053357602036600319011261053357610c5261148f565b610c5a61180d565b600780546001600160a01b0319166001600160a01b0392909216919091179055005b82346105335761095f90610c8f366114bb565b91925192610c9c84611534565b5f845261095983838361158e565b50903461053357606036600319011261053357610cc561148f565b602492604435916001600160a01b038084169286359284860361053357610cf183600754163314611731565b600854955f19908188146110da5760018801600855885191610d1283611534565b5f835287156110c55791899a9188999a9894938b5f528b866020809c6002825260028c825f205416928315159687611094575b50845f5260038152825f2060018154019055855f52525f206001600160601b0360a01b9e8f8254161790557fddf252ad1be2c89b69c2b068fc378daa952ba7f163c4a11628f55a4df523b3ef5f80a461107f573b610f83575b50895187810190638a54c52f60e01b8252867f000000000000000000000000000000000000000000000000000000000000000016838201525f60448201524660648201523060848201528a60a482015260a4815260e0810181811067ffffffffffffffff821117610f71578c52515f91829190826f6551c19487814612e58fe068137757585af190610e2e6117de565b9115610f3a5750868180518101031261053357860151968488168098036105335784600289938b838e998a5193610e64856114f0565b16998a84528c8401928c84528185019889525f5260098d525f20925116858354161782555160018201550192511690825416179055823b156105335787516323b872dd60e01b8152339281019283526001600160a01b0387166020840152604083018590529188905f9084908190606001038183885af1918215610f305788937f2d47ff8b88e6a756283870ba883deebf2d947fa593ed9e5c500b151434f8a92d93610f21575b5081519081528787820152a48351928352820152f35b610f2a90611520565b8a610f0b565b50513d5f823e3d90fd5b8460136064928a8e519362461bcd60e51b8552840152820152721510904818dc99585d1a5bdb8819985a5b1959606a1b6044820152fd5b83604188634e487b7160e01b5f52525ffd5b93839894888b8d9a99965f869f869f9b9897610fcc83925197889687958694630a85bd0160e11b9c8d87523390870152850152604484015260806064840152608483019061146a565b03925af15f918161103f575b5061100c5750505050505050610fec6117de565b8051919082611009575050505191633250574960e11b8352820152fd5b01fd5b63ffffffff60e09c9394979b969a9598999c1b160361102b578a610d9e565b8951633250574960e11b8152808501849052fd5b9091508881813d8311611078575b6110578183611550565b8101031261053357516001600160e01b03198116810361053357908d610fd8565b503d61104d565b8b516339e3563760e11b81525f818801528390fd5b5f87815260046020526040902080546001600160a01b0319169055845f5260038252835f209081540190555f610d45565b8951633250574960e11b81525f818701528b90fd5b89601185634e487b7160e01b5f52525ffd5b346105335761095f6110fd366114bb565b9161158e565b503461053357602036600319011261053357355f526009602052805f20906102ac815191611130836114f0565b83546001600160a01b0390811680855260018601546020808701829052600290970154909216948301949094529051928352928201929092529081906040820190565b50903461053357602036600319011261053357602091355f526009825260018060a01b036002825f200154169051908152f35b8234610533575f36600319011261053357517f00000000000000000000000000000000000000000000000000000000000000006001600160a01b03168152602090f35b50903461053357806003193601126105335761120361148f565b91602435611210816117a4565b331515806112b2575b8061128b575b611275576001600160a01b039485169482918691167f8c5be1e5ebec7d5bd14f71427d1e84f3dd0314c0f7b2291e5b200ac8c7c3b9255f80a45f526020525f20906001600160601b0360a01b8254161790555f80f35b835163a9fbf51f60e01b81523381850152602490fd5b5060018060a01b0381165f526005602052835f20335f5260205260ff845f2054161561121f565b506001600160a01b038116331415611219565b5090346105335760203660031901126105335781602092356112e6816117a4565b505f52825260018060a01b03815f2054169051908152f35b509034610533575f366003190112610533578051905f905f549160018360011c90600185169485156113bb575b6020958684108114610af057838852879493929187908215610ace5750506001146113625750506102ac9291610a64910385611550565b5f80805286935091907f290decd9548b62a8d60345a988386fc84ba6bc95484008f6362f93160ef3e5635b8284106113a35750505082010181610a64610a52565b8054848a01860152889550879490930192810161138d565b91607f169161132b565b823461053357602036600319011261053357359063ffffffff60e01b821680920361053357602091632b424ad760e21b8114908115611406575b5015158152f35b6380ac58cd60e01b811491508115611438575b8115611427575b50836113ff565b6301ffc9a760e01b14905083611420565b635b5e139f60e01b81149150611419565b5f5b83811061145a5750505f910152565b818101518382015260200161144b565b9060209161148381518092818552858086019101611449565b601f01601f1916010190565b600435906001600160a01b038216820361053357565b602435906001600160a01b038216820361053357565b6060906003190112610533576001600160a01b0390600435828116810361053357916024359081168103610533579060443590565b6060810190811067ffffffffffffffff82111761150c57604052565b634e487b7160e01b5f52604160045260245ffd5b67ffffffffffffffff811161150c57604052565b6020810190811067ffffffffffffffff82111761150c57604052565b90601f8019910116810190811067ffffffffffffffff82111761150c57604052565b67ffffffffffffffff811161150c57601f01601f191660200190565b906001600160a01b03908116801561171957835f52602091600283528460409282845f2054169433151580611684575b5060029086611653575b825f5260038152855f2060018154019055835f5252835f20816001600160601b0360a01b825416179055847fddf252ad1be2c89b69c2b068fc378daa952ba7f163c4a11628f55a4df523b3ef5f80a4831682036116255750505050565b516364283d7b60e01b81526001600160a01b0392831660048201526024810193909352166044820152606490fd5b5f84815260046020526040812080546001600160a01b03191690558781526003825286902080545f190190556115c8565b91925090806116d8575b1561169c579086915f6115be565b8387866116b9576024915190637e27328960e01b82526004820152fd5b905163177e802f60e01b81523360048201526024810191909152604490fd5b5033851480156116fd575b8061168e5750865f52600481523383855f2054161461168e565b50845f5260058152835f20335f52815260ff845f2054166116e3565b604051633250574960e11b81525f6004820152602490fd5b1561173857565b60405162461bcd60e51b815260206004820152601260248201527127b7363c902932b73a30b626b0b730b3b2b960711b6044820152606490fd5b5f52600a60205260405f20544267ffffffffffffffff8260a01c16101561179857505f90565b6001600160a01b031690565b5f818152600260205260409020546001600160a01b03169081156117c6575090565b60249060405190637e27328960e01b82526004820152fd5b3d15611808573d906117ef82611572565b916117fd6040519384611550565b82523d5f602084013e565b606090565b6006546001600160a01b0316330361182157565b60405163118cdaa760e01b8152336004820152602490fd5b9291803b611849575b5050505050565b604051630a85bd0160e11b8082526001600160a01b0395861660048301529285166024820152604481019390935260806064840152909216926020908290819061189790608483019061146a565b03815f875af15f918161190e575b506118dc57826118b36117de565b80519190826118d557604051633250574960e11b815260048101839052602490fd5b6020915001fd5b6001600160e01b031916036118f657505f80808080611842565b60249060405190633250574960e11b82526004820152fd5b9091506020813d60201161194b575b8161192a60209383611550565b8101031261053357516001600160e01b03198116810361053357905f6118a5565b3d915061191d56fea26469706673582212202cdf669611b765b10ee60a1ba4bc126940b119211b6295452bf2ae52c20e43e964736f6c63430008180033",
  "linkReferences": {},
  "deployedLinkReferences": {}
}