{
  "_format": "hh-sol-artifact-1",
  "contractName": "BundleManager",
  "sourceName": "contracts/BundleManager.sol",
  "abi": [
    {
      "inputs": [
        {
          "internalType": "address",
          "name": "_registry",
          "type": "address"
        },
        {
          "internalType": "address",
          "name": "_accountImplementation",
          "type": "address"
        }
      ],
      "stateMutability": "nonpayable",
      "type": "constructor"
    },
    {
      "inputs": [
        {
          "internalType": "address",
          "name": "owner",
          "type": "address"
        }
      ],
      "name": "OwnableInvalidOwner",
      "type": "error"
    },
    {
      "inputs": [
        {
          "internalType": "address",
          "name": "account",
          "type": "address"
        }
      ],
      "name": "OwnableUnauthorizedAccount",
      "type": "error"
    },
    {
      "inputs": [],
      "name": "ReentrancyGuardReentrantCall",
      "type": "error"
    },
    {
      "anonymous": false,
      "inputs": [
        {
          "indexed": true,
          "internalType": "uint256",
          "name": "bundleId",
          "type": "uint256"
        },
        {
          "indexed": true,
          "internalType": "address",
          "name": "creator",
          "type": "address"
        },
        {
          "indexed": false,
          "internalType": "address",
          "name": "accountAddress",
          "type": "address"
        },
        {
          "indexed": false,
          "internalType": "address[]",
          "name": "nftContracts",
          "type": "address[]"
        },
        {
          "indexed": false,
          "internalType": "uint256[]",
          "name": "tokenIds",
          "type": "uint256[]"
        }
      ],
      "name": "BundleCreated",
      "type": "event"
    },
    {
      "anonymous": false,
      "inputs": [
        {
          "indexed": true,
          "internalType": "uint256",
          "name": "bundleId",
          "type": "uint256"
        },
        {
          "indexed": true,
          "internalType": "address",
          "name": "owner",
          "type": "address"
        },
        {
          "indexed": false,
          "internalType": "address[]",
          "name": "nftContracts",
          "type": "address[]"
        },
        {
          "indexed": false,
          "internalType": "uint256[]",
          "name": "tokenIds",
          "type": "uint256[]"
        }
      ],
      "name": "BundleUnwrapped",
      "type": "event"
    },
    {
      "anonymous": false,
      "inputs": [
        {
          "indexed": true,
          "internalType": "uint256",
          "name": "bundleId",
          "type": "uint256"
        },
        {
          "indexed": true,
          "internalType": "address",
          "name": "nftContract",
          "type": "address"
        },
        {
          "indexed": true,
          "internalType": "uint256",
          "name": "tokenId",
          "type": "uint256"
        }
      ],
      "name": "NFTDeposited",
      "type": "event"
    },
    {
      "anonymous": false,
      "inputs": [
        {
          "indexed": true,
          "internalType": "address",
          "name": "previousOwner",
          "type": "address"
        },
        {
          "indexed": true,
          "internalType": "address",
          "name": "newOwner",
          "type": "address"
        }
      ],
      "name": "OwnershipTransferred",
      "type": "event"
    },
    {
      "inputs": [],
      "name": "ACCOUNT_SALT",
      "outputs": [
        {
          "internalType": "bytes32",
          "name": "",
          "type": "bytes32"
        }
      ],
      "stateMutability": "view",
      "type": "function"
    },
    {
      "inputs": [],
      "name": "accountImplementation",
      "outputs": [
        {
          "internalType": "address",
          "name": "",
          "type": "address"
        }
      ],
      "stateMutability": "view",
      "type": "function"
    },
    {
      "inputs": [
        {
          "internalType": "uint256",
          "name": "bundleId",
          "type": "uint256"
        },
        {
          "internalType": "address[]",
          "name": "nftContracts",
          "type": "address[]"
        }
      ],
      "name": "approveBundleManagerForUnwrap",
      "outputs": [],
      "stateMutability": "nonpayable",
      "type": "function"
    },
    {
      "inputs": [
        {
          "internalType": "address[]",
          "name": "nftContracts",
          "type": "address[]"
        }
      ],
      "name": "batchApproveNFTs",
      "outputs": [],
      "stateMutability": "nonpayable",
      "type": "function"
    },
    {
      "inputs": [
        {
          "internalType": "uint256",
          "name": "bundleId",
          "type": "uint256"
        }
      ],
      "name": "bundleAccountExists",
      "outputs": [
        {
          "internalType": "bool",
          "name": "",
          "type": "bool"
        }
      ],
      "stateMutability": "view",
      "type": "function"
    },
    {
      "inputs": [],
      "name": "bundleNFT",
      "outputs": [
        {
          "internalType": "contract IBundleNFT",
          "name": "",
          "type": "address"
        }
      ],
      "stateMutability": "view",
      "type": "function"
    },
    {
      "inputs": [
        {
          "internalType": "address[]",
          "name": "nftContracts",
          "type": "address[]"
        },
        {
          "internalType": "uint256[]",
          "name": "tokenIds",
          "type": "uint256[]"
        },
        {
          "internalType": "string",
          "name": "bundleName",
          "type": "string"
        },
        {
          "internalType": "string",
          "name": "bundleTokenURI",
          "type": "string"
        }
      ],
      "name": "createBundle",
      "outputs": [
        {
          "internalType": "uint256",
          "name": "bundleId",
          "type": "uint256"
        },
        {
          "internalType": "address",
          "name": "accountAddress",
          "type": "address"
        }
      ],
      "stateMutability": "nonpayable",
      "type": "function"
    },
    {
      "inputs": [
        {
          "internalType": "uint256",
          "name": "bundleId",
          "type": "uint256"
        }
      ],
      "name": "getBundleAccount",
      "outputs": [
        {
          "internalType": "address",
          "name": "",
          "type": "address"
        }
      ],
      "stateMutability": "view",
      "type": "function"
    },
    {
      "inputs": [
        {
          "internalType": "address",
          "name": "",
          "type": "address"
        },
        {
          "internalType": "address",
          "name": "",
          "type": "address"
        },
        {
          "internalType": "uint256",
          "name": "",
          "type": "uint256"
        },
        {
          "internalType": "bytes",
          "name": "",
          "type": "bytes"
        }
      ],
      "name": "onERC721Received",
      "outputs": [
        {
          "internalType": "bytes4",
          "name": "",
          "type": "bytes4"
        }
      ],
      "stateMutability": "pure",
      "type": "function"
    },
    {
      "inputs": [],
      "name": "owner",
      "outputs": [
        {
          "internalType": "address",
          "name": "",
          "type": "address"
        }
      ],
      "stateMutability": "view",
      "type": "function"
    },
    {
      "inputs": [],
      "name": "registry",
      "outputs": [
        {
          "internalType": "contract IERC6551Registry",
          "name": "",
          "type": "address"
        }
      ],
      "stateMutability": "view",
      "type": "function"
    },
    {
      "inputs": [],
      "name": "renounceOwnership",
      "outputs": [],
      "stateMutability": "nonpayable",
      "type": "function"
    },
    {
      "inputs": [
        {
          "internalType": "address",
          "name": "_bundleNFT",
          "type": "address"
        }
      ],
      "name": "setBundleNFT",
      "outputs": [],
      "stateMutability": "nonpayable",
      "type": "function"
    },
    {
      "inputs": [
        {
          "internalType": "address",
          "name": "newOwner",
          "type": "address"
        }
      ],
      "name": "transferOwnership",
      "outputs": [],
      "stateMutability": "nonpayable",
      "type": "function"
    },
    {
      "inputs": [
        {
          "internalType": "uint256",
          "name": "bundleId",
          "type": "uint256"
        },
        {
          "internalType": "address[]",
          "name": "nftContracts",
          "type": "address[]"
        },
        {
          "internalType": "uint256[]",
          "name": "tokenIds",
          "type": "uint256[]"
        }
      ],
      "name": "unwrapBundle",
      "outputs": [],
      "stateMutability": "nonpayable",
      "type": "function"
    }
  ],
  "bytecode": "0x60c03461018c5761109290601f38839003908101601f19168201906001600160401b03821183831017610190578083916040958694855283398101031261018c57610055602061004e836101a4565b92016101a4565b903315610175575f8054336001600160a01b03198216811783558551936001600160a01b039384939192918416907f8be0079c531659141344cd1fd0a4f28419497f9722a3daafe3b4186f6b6457e09080a3600180551691821561014057508216156100fc5760805260a05251610ed990816101b982396080518181816105710152818161079d0152610d44015260a05181818161074e01528181610bcf0152610cf60152f35b825162461bcd60e51b815260206004820152601660248201527f496e76616c696420696d706c656d656e746174696f6e000000000000000000006044820152606490fd5b62461bcd60e51b815260206004820152601060248201526f496e76616c696420726567697374727960801b6044820152606490fd5b8251631e4fbdf760e01b81525f6004820152602490fd5b5f80fd5b634e487b7160e01b5f52604160045260245ffd5b51906001600160a01b038216820361018c5756fe6080806040526004361015610012575f80fd5b5f3560e01c90816311464fbe14610bbd57508063150b7a0214610b5d5780634ff8943114610b2d57806356352ecb14610b04578063701d428a1461061f578063715018a6146105c85780637a95144a146105a05780637b1039991461055c57806382c06a91146103c25780638da5cb5b1461039b5780638e1c84cc146102f5578063a0eeeefc146101ec578063ca9a498414610169578063d27163121461014f5763f2fde38b146100c1575f80fd5b3461014b57602036600319011261014b576100da610bfe565b6100e2610e78565b6001600160a01b03908116908115610133575f54826bffffffffffffffffffffffff60a01b8216175f55167f8be0079c531659141344cd1fd0a4f28419497f9722a3daafe3b4186f6b6457e05f80a3005b604051631e4fbdf760e01b81525f6004820152602490fd5b5f80fd5b3461014b575f36600319011261014b5760206040515f8152f35b3461014b57602036600319011261014b57610182610bfe565b61018a610e78565b6001600160a01b031680156101b5576bffffffffffffffffffffffff60a01b60025416176002555f80f35b60405162461bcd60e51b815260206004820152600f60248201526e496e76616c6964206164647265737360881b6044820152606490fd5b3461014b57604036600319011261014b576024803567ffffffffffffffff811161014b5761021e903690600401610c42565b9061022a600435610cdc565b6001600160a01b039190821633036102b8575f5b83811061024757005b8261025b610256838786610db3565b610dd7565b1690813b1561014b575f809260446040518095819363a22cb46560e01b835230600484015260018c8401525af19182156102ad5760019261029e575b500161023e565b6102a790610c73565b86610297565b6040513d5f823e3d90fd5b60405162461bcd60e51b81526020600482015260156024820152744d7573742062652063616c6c65642062792054424160581b6044820152606490fd5b3461014b57602036600319011261014b5760043567ffffffffffffffff811161014b57610326903690600401610c42565b905f5b82811061033257005b6001600160a01b03610348610256838686610db3565b1690813b1561014b575f809260446040518095819363a22cb46560e01b8352306004840152600160248401525af19182156102ad5760019261038c575b5001610329565b61039590610c73565b84610385565b3461014b575f36600319011261014b575f546040516001600160a01b039091168152602090f35b3461014b57606036600319011261014b5767ffffffffffffffff60043560243582811161014b576103f7903690600401610c42565b909260443590811161014b57610411903690600401610c42565b9061041a610e55565b6002546040516331a9108f60e11b8152600481018690526001600160a01b039182169691906020816024818b5afa9081156102ad575f9161052d575b5016938433036104f5576104ac7f69c0defef766b7fbea321d27b255c16379ea894a821a9f53da260ad79eca9f6493879561049e604051958695604087526040870191610deb565b918483036020860152610e31565b0390a3813b1561014b575f91602483926040519485938492630587e59d60e41b845260048401525af180156102ad576104e6575b60018055005b6104ef90610c73565b806104e0565b60405162461bcd60e51b815260206004820152601060248201526f2737ba10313ab73236329037bbb732b960811b6044820152606490fd5b61054f915060203d602011610555575b6105478183610c9b565b810190610cbd565b88610456565b503d61053d565b3461014b575f36600319011261014b576040517f00000000000000000000000000000000000000000000000000000000000000006001600160a01b03168152602090f35b3461014b575f36600319011261014b576002546040516001600160a01b039091168152602090f35b3461014b575f36600319011261014b576105e0610e78565b5f80546001600160a01b0319811682556001600160a01b03167f8be0079c531659141344cd1fd0a4f28419497f9722a3daafe3b4186f6b6457e08280a3005b3461014b57608036600319011261014b5767ffffffffffffffff60043581811161014b57610651903690600401610c42565b60243583811161014b57610669903690600401610c42565b9260443585811161014b57610682903690600401610c14565b94909560643590811161014b5761069d903690600401610c14565b966106a6610e55565b8515610abf57828603610a825760328611610a44578615610a0857600254604051637da5c4d760e01b8152336004820152608060248201529788926001600160a01b039092169183915f91839161072191610705916084850191610d93565b8b604484015260031983820301606484015260209d8e98610d93565b03925af19485156102ad575f956109d7575b50600254604051638a54c52f60e01b81526001600160a01b037f0000000000000000000000000000000000000000000000000000000000000000811660048301525f60248301524660448301529091166064820152608481018690529086828060a481015b03815f7f00000000000000000000000000000000000000000000000000000000000000006001600160a01b03165af19182156102ad575f926109b8575b505f5b85811061085057506040969392869261083f7ff16aafee70b4d9381e40d72a7c7b5610059947985f22051d5a77283db6ebe474936108308b5194859460018060a01b03169a8b865260608b8701526060860191610deb565b908382038c8501523397610e31565b0390a3600180558351928352820152f35b6001600160a01b03610866610256838988610db3565b1690610873818488610db3565b6040516331a9108f60e11b8152903560048201528981602481865afa9081156102ad575f9161099b575b50336001600160a01b0390911603610966576108ba818488610db3565b35823b1561014b57604051632142170760e11b81523360048201526001600160a01b03861660248201526044810191909152915f908390606490829084905af19182156102ad57600192610957575b50610918610256828988610db3565b610923828589610db3565b3590838060a01b0316897f781e1d43e33afdcbec217b692c5247a3d57fced3f967e711cb5d56b2b37dc6c35f80a4016107d8565b61096090610c73565b89610909565b60405162461bcd60e51b8152600481018a9052600d60248201526c2737ba1027232a1037bbb732b960991b6044820152606490fd5b6109b291508a3d8c11610555576105478183610c9b565b8a61089d565b6109d0919250873d8911610555576105478183610c9b565b90876107d5565b9094508581813d8311610a01575b6109ef8183610c9b565b8101031261014b575193610798610733565b503d6109e5565b60405162461bcd60e51b8152602060048201526014602482015273109d5b991b19481b985b59481c995c5d5a5c995960621b6044820152606490fd5b60405162461bcd60e51b8152602060048201526016602482015275546f6f206d616e79204e46547320286d61782035302960501b6044820152606490fd5b60405162461bcd60e51b8152602060048201526015602482015274082e4e4c2f240d8cadccee8d040dad2e6dac2e8c6d605b1b6044820152606490fd5b60405162461bcd60e51b815260206004820152601a60248201527f4d7573742062756e646c65206174206c656173742031204e46540000000000006044820152606490fd5b3461014b57602036600319011261014b576020610b22600435610cdc565b3b1515604051908152f35b3461014b57602036600319011261014b576020610b4b600435610cdc565b6040516001600160a01b039091168152f35b3461014b57608036600319011261014b57610b76610bfe565b506024356001600160a01b0381160361014b5760643567ffffffffffffffff811161014b57610ba9903690600401610c14565b5050604051630a85bd0160e11b8152602090f35b3461014b575f36600319011261014b577f00000000000000000000000000000000000000000000000000000000000000006001600160a01b03168152602090f35b600435906001600160a01b038216820361014b57565b9181601f8401121561014b5782359167ffffffffffffffff831161014b576020838186019501011161014b57565b9181601f8401121561014b5782359167ffffffffffffffff831161014b576020808501948460051b01011161014b57565b67ffffffffffffffff8111610c8757604052565b634e487b7160e01b5f52604160045260245ffd5b90601f8019910116810190811067ffffffffffffffff821117610c8757604052565b9081602091031261014b57516001600160a01b038116810361014b5790565b60025460405163246a002160e01b81526001600160a01b037f0000000000000000000000000000000000000000000000000000000000000000811660048301525f602483015246604483015291821660648201526084810192909252602090829060a49082907f0000000000000000000000000000000000000000000000000000000000000000165afa9081156102ad575f91610d77575090565b610d90915060203d602011610555576105478183610c9b565b90565b908060209392818452848401375f828201840152601f01601f1916010190565b9190811015610dc35760051b0190565b634e487b7160e01b5f52603260045260245ffd5b356001600160a01b038116810361014b5790565b9190808252602080920192915f5b828110610e07575050505090565b9091929384359060018060a01b03821680920361014b579081528201938201929190600101610df9565b81835290916001600160fb1b03831161014b5760209260051b809284830137010190565b600260015414610e66576002600155565b604051633ee5aeb560e01b8152600490fd5b5f546001600160a01b03163303610e8b57565b60405163118cdaa760e01b8152336004820152602490fdfea264697066735822122058c5c14bec9109e6623dbb1f0438ed1cb55c6860be7775a45ec3de7e9c24b33364736f6c63430008180033",
  "linkReferences": {},
  "deployedLinkReferences": {}
}