{
  "_format": "hh-sol-artifact-1",
  "contractName": "NFTSwap",
  "sourceName": "contracts/NFTSwap.sol",
  "abi": [
    {
      "inputs": [],
      "stateMutability": "nonpayable",
      "type": "constructor"
    },
    {
      "inputs": [
        {
          "internalType": "address",
          "name": "owner",
          "type": "address"
        }
      ],
      "name": "OwnableInvalidOwner",
      "type": "error"
    },
    {
      "inputs": [
        {
          "internalType": "address",
          "name": "account",
          "type": "address"
        }
      ],
      "name": "OwnableUnauthorizedAccount",
      "type": "error"
    },
    {
      "inputs": [],
      "name": "ReentrancyGuardReentrantCall",
      "type": "error"
    },
    {
      "anonymous": false,
      "inputs": [
        {
          "indexed": true,
          "internalType": "address",
          "name": "previousOwner",
          "type": "address"
        },
        {
          "indexed": true,
          "internalType": "address",
          "name": "newOwner",
          "type": "address"
        }
      ],
      "name": "OwnershipTransferred",
      "type": "event"
    },
    {
      "anonymous": false,
      "inputs": [
        {
          "indexed": true,
          "internalType": "uint256",
          "name": "listingId",
          "type": "uint256"
        },
        {
          "indexed": true,
          "internalType": "address",
          "name": "lister",
          "type": "address"
        },
        {
          "indexed": true,
          "internalType": "address",
          "name": "swapper",
          "type": "address"
        },
        {
          "indexed": false,
          "internalType": "address",
          "name": "listerNftContract",
          "type": "address"
        },
        {
          "indexed": false,
          "internalType": "uint256",
          "name": "listerTokenId",
          "type": "uint256"
        },
        {
          "indexed": false,
          "internalType": "address",
          "name": "swapperNftContract",
          "type": "address"
        },
        {
          "indexed": false,
          "internalType": "uint256",
          "name": "swapperTokenId",
          "type": "uint256"
        }
      ],
      "name": "SwapExecuted",
      "type": "event"
    },
    {
      "anonymous": false,
      "inputs": [
        {
          "indexed": true,
          "internalType": "uint256",
          "name": "listingId",
          "type": "uint256"
        },
        {
          "indexed": true,
          "internalType": "address",
          "name": "lister",
          "type": "address"
        }
      ],
      "name": "SwapListingCancelled",
      "type": "event"
    },
    {
      "anonymous": false,
      "inputs": [
        {
          "indexed": true,
          "internalType": "uint256",
          "name": "listingId",
          "type": "uint256"
        },
        {
          "indexed": true,
          "internalType": "address",
          "name": "lister",
          "type": "address"
        },
        {
          "indexed": false,
          "internalType": "address",
          "name": "nftContract",
          "type": "address"
        },
        {
          "indexed": false,
          "internalType": "uint256",
          "name": "tokenId",
          "type": "uint256"
        },
        {
          "indexed": false,
          "internalType": "address",
          "name": "wantedNftContract",
          "type": "address"
        },
        {
          "indexed": false,
          "internalType": "uint256",
          "name": "wantedTokenId",
          "type": "uint256"
        },
        {
          "indexed": false,
          "internalType": "uint256",
          "name": "expiresAt",
          "type": "uint256"
        }
      ],
      "name": "SwapListingCreated",
      "type": "event"
    },
    {
      "inputs": [
        {
          "internalType": "uint256",
          "name": "listingId",
          "type": "uint256"
        }
      ],
      "name": "cancelSwapListing",
      "outputs": [],
      "stateMutability": "nonpayable",
      "type": "function"
    },
    {
      "inputs": [
        {
          "internalType": "address",
          "name": "nftContract",
          "type": "address"
        },
        {
          "internalType": "uint256",
          "name": "tokenId",
          "type": "uint256"
        },
        {
          "internalType": "address",
          "name": "wantedNftContract",
          "type": "address"
        },
        {
          "internalType": "uint256",
          "name": "wantedTokenId",
          "type": "uint256"
        },
        {
          "internalType": "uint256",
          "name": "durationInDays",
          "type": "uint256"
        }
      ],
      "name": "createSwapListing",
      "outputs": [
        {
          "internalType": "uint256",
          "name": "",
          "type": "uint256"
        }
      ],
      "stateMutability": "nonpayable",
      "type": "function"
    },
    {
      "inputs": [
        {
          "internalType": "uint256",
          "name": "listingId",
          "type": "uint256"
        },
        {
          "internalType": "uint256",
          "name": "myTokenId",
          "type": "uint256"
        }
      ],
      "name": "executeSwap",
      "outputs": [],
      "stateMutability": "nonpayable",
      "type": "function"
    },
    {
      "inputs": [],
      "name": "getCurrentListingId",
      "outputs": [
        {
          "internalType": "uint256",
          "name": "",
          "type": "uint256"
        }
      ],
      "stateMutability": "view",
      "type": "function"
    },
    {
      "inputs": [
        {
          "internalType": "uint256",
          "name": "listingId",
          "type": "uint256"
        }
      ],
      "name": "getSwapListing",
      "outputs": [
        {
          "components": [
            {
              "internalType": "address",
              "name": "lister",
              "type": "address"
            },
            {
              "internalType": "address",
              "name": "nftContract",
              "type": "address"
            },
            {
              "internalType": "uint256",
              "name": "tokenId",
              "type": "uint256"
            },
            {
              "internalType": "address",
              "name": "wantedNftContract",
              "type": "address"
            },
            {
              "internalType": "uint256",
              "name": "wantedTokenId",
              "type": "uint256"
            },
            {
              "internalType": "bool",
              "name": "isActive",
              "type": "bool"
            },
            {
              "internalType": "uint256",
              "name": "createdAt",
              "type": "uint256"
            },
            {
              "internalType": "uint256",
              "name": "expiresAt",
              "type": "uint256"
            }
          ],
          "internalType": "struct NFTSwap.SwapListing",
          "name": "",
          "type": "tuple"
        }
      ],
      "stateMutability": "view",
      "type": "function"
    },
    {
      "inputs": [
        {
          "internalType": "uint256",
          "name": "listingId",
          "type": "uint256"
        }
      ],
      "name": "isListingValid",
      "outputs": [
        {
          "internalType": "bool",
          "name": "",
          "type": "bool"
        }
      ],
      "stateMutability": "view",
      "type": "function"
    },
    {
      "inputs": [
        {
          "internalType": "address",
          "name": "",
          "type": "address"
        },
        {
          "internalType": "uint256",
          "name": "",
          "type": "uint256"
        }
      ],
      "name": "nftToListingId",
      "outputs": [
        {
          "internalType": "uint256",
          "name": "",
          "type": "uint256"
        }
      ],
      "stateMutability": "view",
      "type": "function"
    },
    {
      "inputs": [
        {
          "internalType": "address",
          "name": "",
          "type": "address"
        },
        {
          "internalType": "address",
          "name": "",
          "type": "address"
        },
        {
          "internalType": "uint256",
          "name": "",
          "type": "uint256"
        },
        {
          "internalType": "bytes",
          "name": "",
          "type": "bytes"
        }
      ],
      "name": "onERC721Received",
      "outputs": [
        {
          "internalType": "bytes4",
          "name": "",
          "type": "bytes4"
        }
      ],
      "stateMutability": "pure",
      "type": "function"
    },
    {
      "inputs": [],
      "name": "owner",
      "outputs": [
        {
          "internalType": "address",
          "name": "",
          "type": "address"
        }
      ],
      "stateMutability": "view",
      "type": "function"
    },
    {
      "inputs": [],
      "name": "renounceOwnership",
      "outputs": [],
      "stateMutability": "nonpayable",
      "type": "function"
    },
    {
      "inputs": [
        {
          "internalType": "uint256",
          "name": "",
          "type": "uint256"
        }
      ],
      "name": "swapListings",
      "outputs": [
        {
          "internalType": "address",
          "name": "lister",
          "type": "address"
        },
        {
          "internalType": "address",
          "name": "nftContract",
          "type": "address"
        },
        {
          "internalType": "uint256",
          "name": "tokenId",
          "type": "uint256"
        },
        {
          "internalType": "address",
          "name": "wantedNftContract",
          "type": "address"
        },
        {
          "internalType": "uint256",
          "name": "wantedTokenId",
          "type": "uint256"
        },
        {
          "internalType": "bool",
          "name": "isActive",
          "type": "bool"
        },
        {
          "internalType": "uint256",
          "name": "createdAt",
          "type": "uint256"
        },
        {
          "internalType": "uint256",
          "name": "expiresAt",
          "type": "uint256"
        }
      ],
      "stateMutability": "view",
      "type": "function"
    },
    {
      "inputs": [
        {
          "internalType": "address",
          "name": "newOwner",
          "type": "address"
        }
      ],
      "name": "transferOwnership",
      "outputs": [],
      "stateMutability": "nonpayable",
      "type": "function"
    }
  ],
  "bytecode": "0x6080806040523461007c5760015f5533156100675760018054336001600160a01b03198216811790925560405191906001600160a01b03167f8be0079c531659141344cd1fd0a4f28419497f9722a3daafe3b4186f6b6457e05f80a36111ab90816100818239f35b631e4fbdf760e01b81525f6004820152602490fd5b5f80fdfe6080806040526004361015610012575f80fd5b5f905f3560e01c908163150b7a0214610f98575080634492156114610e8a57806346a39f5b146109745780634be77bfd1461089a578063715018a61461083d57806373253387146107935780638da5cb5b1461076a578063b5ce569a146106e0578063be9ad61e146106c2578063bf8c106a1461067f578063e8131d6f146101335763f2fde38b146100a2575f80fd5b34610130576020366003190112610130576100bb611047565b6100c3611149565b6001600160a01b0390811690811561011757600154826bffffffffffffffffffffffff60a01b821617600155167f8be0079c531659141344cd1fd0a4f28419497f9722a3daafe3b4186f6b6457e05f80a380f35b604051631e4fbdf760e01b815260048101849052602490fd5b80fd5b50346101305760a03660031901126101305761014d611047565b604435906001600160a01b038216820361067b57610169611128565b6001600160a01b0381161561063f576001600160a01b038216156105fa576084351515806105ec575b156105b4576040516331a9108f60e11b81526024803560048301526020908290816001600160a01b0386165afa908115610526578491610595575b50336001600160a01b03909116036105605760405163020604bf60e21b81526024803560048301526020908290816001600160a01b0386165afa908115610526578491610531575b506001600160a01b0316301480156104b7575b1561047a576001600160a01b038116835260046020908152604080852060243586529091528320548015159081610461575b5061041c576002545f198114610408576001019182600255620151808060843502906084358204146084351517156103f4574201908142116103f45791602094916001936040516102aa8161105d565b338152600787898301888060a01b038716815260408401906024358252606085018a8060a01b03871681526080860190606435825260a08701928c845260c088019442865260e08901968b88528d528f6003905260408d20988e8060a01b03905116916bffffffffffffffffffffffff60a01b92838b5416178a558e8a01908f8060a01b039051168382541617905551600289015560038801918d8060a01b0390511690825416179055516004860155600585019051151560ff8019835416911617905551600684015551910155848060a01b038316845260048752604084206024358552875285604085205560405192858060a01b0316835260243587840152848060a01b0316604083015260643560608301526080820152837f4273ee6e0827b2a19e38cb061b6f10370b85f5d6defbb17154cf5728ea21cf6360a03393a355604051908152f35b634e487b7160e01b85526011600452602485fd5b634e487b7160e01b84526011600452602484fd5b60405162461bcd60e51b815260206004820152601b60248201527f4e465420616c7265616479206c697374656420666f72207377617000000000006044820152606490fd5b8452506003602052604083206005015460ff165f61025a565b60405162461bcd60e51b815260206004820152601560248201527410dbdb9d1c9858dd081b9bdd08185c1c1c9bdd9959605a1b6044820152606490fd5b5060405163e985e9c560e01b81523360048201523060248201526020816044816001600160a01b0386165afa9081156105265784916104f7575b50610228565b610519915060203d60201161051f575b610511818361108e565b810190611110565b5f6104f1565b503d610507565b6040513d86823e3d90fd5b610553915060203d602011610559575b61054b818361108e565b8101906110f1565b5f610215565b503d610541565b60405162461bcd60e51b815260206004820152600d60248201526c2737ba103a34329037bbb732b960991b6044820152606490fd5b6105ae915060203d6020116105595761054b818361108e565b5f6101cd565b60405162461bcd60e51b815260206004820152601060248201526f24b73b30b634b210323ab930ba34b7b760811b6044820152606490fd5b5061016d6084351115610192565b60405162461bcd60e51b815260206004820152601b60248201527f496e76616c69642077616e746564204e465420636f6e747261637400000000006044820152606490fd5b60405162461bcd60e51b8152602060048201526014602482015273125b9d985b1a59081391950818dbdb9d1c9858dd60621b6044820152606490fd5b5f80fd5b5034610130576040366003190112610130576020906040906001600160a01b036106a7611047565b16815260048352818120602435825283522054604051908152f35b50346101305780600319360112610130576020600254604051908152f35b503461013057602036600319011261013057604061010091600435815260036020522060018060a01b038082541691816001820154169160028201549060038301541660048301549060ff6005850154169260076006860154950154956040519788526020880152604087015260608601526080850152151560a084015260c083015260e0820152f35b50346101305780600319360112610130576001546040516001600160a01b039091168152602090f35b50346101305760203660031901126101305760406020916004358152600383522060e06040516107c28161105d565b82546001600160a01b039081168252600184015481168583015260028401546040830152600384015416606082015260048301546080820152600583015460ff16151560a08201819052600684015460c0830152600790930154910181905281610832575b506040519015158152f35b90504211155f610827565b5034610130578060031936011261013057610856611149565b600180546001600160a01b031981169091555f906001600160a01b03167f8be0079c531659141344cd1fd0a4f28419497f9722a3daafe3b4186f6b6457e08280a380f35b5034610130576020366003190112610130576004356108b7611128565b808252600360205260408220600581018054906108d660ff83166110b0565b82546001600160a01b0392908316330361093e5760ff1916905560018201541683526004602052600260408420910154835260205281604081205533907f16422fc3d5084dd2583415585081150ad7ffda6c1ab0c21ee7c43c0e0db2f58b8380a36001815580f35b60405162461bcd60e51b815260206004820152600e60248201526d2737ba103a3432903634b9ba32b960911b6044820152606490fd5b503461067b57604036600319011261067b5760248035600435610995611128565b805f526020916003835260405f2092600584016109b560ff8254166110b0565b60078501544211610e545784546001600160a01b0390811695338714610e1057600381019282845416906040516331a9108f60e11b815287600482015286818c81865afa908115610bec575f91610df3575b508433911603610daf57600483015480610d5f575b5060405163020604bf60e21b80825260048201899052999087818d81875afa908115610bec575f91610d42575b50851630148015610cef575b15610cb3576001840199858b5416600286019c8d54926040519081528360048201528a818381865afa908115610bec575f91610c96575b50881630148015610c3a575b15610bf75750803b1561067b57604051632142170760e11b8082526001600160a01b0394909416600482015233602482015260448101929092525f908290606490829084905af18015610bec57610bd9575b508b908585541690843b15610bd5576040519081523360048201526001600160a01b03919091166024820152604481018990529281908490606490829084905af1928315610bc8578593610bab575b505091819260ff198154169055818954168b526004865260408b208a548c5286528a60408120555416965416965491541691604051968752860152604085015260608401527f34bfe77db65e24317195883c780ac3dfc0aa4643c1172099b4f4b1b90f7c3f7760803394a46001815580f35b610bb79192935061107a565b610bc45782908a5f610b39565b8980fd5b50604051903d90823e3d90fd5b8280fd5b610be4919c5061107a565b5f9a5f610aea565b6040513d5f823e3d90fd5b8960176064926040519262461bcd60e51b845260048401528201527f4c6973746564204e4654206e6f7420617070726f7665640000000000000000006044820152fd5b5060405163e985e9c560e01b81526001600160a01b03851660048201523060248201528a81604481865afa908115610bec575f91610c79575b50610a98565b610c9091508b3d8d1161051f57610511818361108e565b5f610c73565b610cad91508b3d8d116105595761054b818361108e565b5f610a8c565b60405162461bcd60e51b8152600481018890526015818d015274165bdd5c88139195081b9bdd08185c1c1c9bdd9959605a1b6044820152606490fd5b5060405163e985e9c560e01b81523360048201523060248201528781604481875afa908115610bec575f91610d25575b50610a55565b610d3c9150883d8a1161051f57610511818361108e565b5f610d1f565b610d599150883d8a116105595761054b818361108e565b5f610a49565b8703610d6b575f610a1c565b60405162461bcd60e51b8152600481018790526017818c01527f546f6b656e20494420646f6573206e6f74206d617463680000000000000000006044820152606490fd5b60405162461bcd60e51b815260048101879052601c818c01527f4e6f7420746865206f776e6572206f66206f666665726564204e4654000000006044820152606490fd5b610e0a9150873d89116105595761054b818361108e565b5f610a07565b60405162461bcd60e51b8152600481018590526019818a01527f43616e6e6f742073776170207769746820796f757273656c66000000000000006044820152606490fd5b60405162461bcd60e51b815260048101839052600f818801526e131a5cdd1a5b99c8195e1c1a5c9959608a1b6044820152606490fd5b3461067b57602036600319011261067b575f60e0604051610eaa8161105d565b8281528260208201528260408201528260608201528260808201528260a08201528260c082015201526004355f52600360205261010060405f20604051610ef08161105d565b60018060a01b03918281541692838352806001830154169060208401918252600283015490604085019182528060038501541660608601908152600485015492608087019384528260ff6005880154169560a08901961515875260e0600760068a01549960c08c019a8b5201549901988952604051998a52511660208901525160408801525116606086015251608085015251151560a08401525160c08301525160e0820152f35b3461067b57608036600319011261067b57610fb1611047565b506024356001600160a01b0381160361067b5760643567ffffffffffffffff80821161067b573660238301121561067b57816004013590811161103357611002601f8201601f19166020018461108e565b808352366024828401011161067b575f928160246020940184830137010152604051630a85bd0160e11b8152602090f35b634e487b7160e01b5f52604160045260245ffd5b600435906001600160a01b038216820361067b57565b610100810190811067ffffffffffffffff82111761103357604052565b67ffffffffffffffff811161103357604052565b90601f8019910116810190811067ffffffffffffffff82111761103357604052565b156110b757565b60405162461bcd60e51b81526020600482015260126024820152714c697374696e67206e6f742061637469766560701b6044820152606490fd5b9081602091031261067b57516001600160a01b038116810361067b5790565b9081602091031261067b5751801515810361067b5790565b60025f54146111375760025f55565b604051633ee5aeb560e01b8152600490fd5b6001546001600160a01b0316330361115d57565b60405163118cdaa760e01b8152336004820152602490fdfea2646970667358221220283aa8d3d3b083b1d46cdb09dcef30ca8aefe5d0376e9060002932305121485164736f6c63430008180033",
  "linkReferences": {},
  "deployedLinkReferences": {}
}