{
  "_format": "hh-sol-artifact-1",
  "contractName": "RentalManagerDelegated",
  "sourceName": "contracts/RentalManagerDelegated.sol",
  "abi": [
    {
      "inputs": [
        {
          "internalType": "address",
          "name": "_rentalWrapper",
          "type": "address"
        },
        {
          "internalType": "address",
          "name": "_feeRecipient",
          "type": "address"
        }
      ],
      "stateMutability": "nonpayable",
      "type": "constructor"
    },
    {
      "inputs": [
        {
          "internalType": "address",
          "name": "owner",
          "type": "address"
        }
      ],
      "name": "OwnableInvalidOwner",
      "type": "error"
    },
    {
      "inputs": [
        {
          "internalType": "address",
          "name": "account",
          "type": "address"
        }
      ],
      "name": "OwnableUnauthorizedAccount",
      "type": "error"
    },
    {
      "anonymous": false,
      "inputs": [
        {
          "indexed": false,
          "internalType": "address",
          "name": "newRecipient",
          "type": "address"
        }
      ],
      "name": "FeeRecipientUpdated",
      "type": "event"
    },
    {
      "anonymous": false,
      "inputs": [
        {
          "indexed": true,
          "internalType": "uint256",
          "name": "wrapperId",
          "type": "uint256"
        },
        {
          "indexed": true,
          "internalType": "address",
          "name": "renter",
          "type": "address"
        },
        {
          "indexed": false,
          "internalType": "uint256",
          "name": "rentalDays",
          "type": "uint256"
        },
        {
          "indexed": false,
          "internalType": "uint256",
          "name": "totalCost",
          "type": "uint256"
        },
        {
          "indexed": false,
          "internalType": "uint64",
          "name": "expiresAt",
          "type": "uint64"
        }
      ],
      "name": "NFTRented",
      "type": "event"
    },
    {
      "anonymous": false,
      "inputs": [
        {
          "indexed": true,
          "internalType": "uint256",
          "name": "wrapperId",
          "type": "uint256"
        },
        {
          "indexed": true,
          "internalType": "address",
          "name": "owner",
          "type": "address"
        }
      ],
      "name": "NFTUnwrapped",
      "type": "event"
    },
    {
      "anonymous": false,
      "inputs": [
        {
          "indexed": true,
          "internalType": "uint256",
          "name": "wrapperId",
          "type": "uint256"
        },
        {
          "indexed": true,
          "internalType": "address",
          "name": "owner",
          "type": "address"
        },
        {
          "indexed": false,
          "internalType": "address",
          "name": "originalContract",
          "type": "address"
        },
        {
          "indexed": false,
          "internalType": "uint256",
          "name": "originalTokenId",
          "type": "uint256"
        }
      ],
      "name": "NFTWrappedForRental",
      "type": "event"
    },
    {
      "anonymous": false,
      "inputs": [
        {
          "indexed": true,
          "internalType": "address",
          "name": "previousOwner",
          "type": "address"
        },
        {
          "indexed": true,
          "internalType": "address",
          "name": "newOwner",
          "type": "address"
        }
      ],
      "name": "OwnershipTransferred",
      "type": "event"
    },
    {
      "anonymous": false,
      "inputs": [
        {
          "indexed": false,
          "internalType": "uint256",
          "name": "newFeeBps",
          "type": "uint256"
        }
      ],
      "name": "PlatformFeeUpdated",
      "type": "event"
    },
    {
      "anonymous": false,
      "inputs": [
        {
          "indexed": true,
          "internalType": "uint256",
          "name": "wrapperId",
          "type": "uint256"
        },
        {
          "indexed": true,
          "internalType": "address",
          "name": "owner",
          "type": "address"
        }
      ],
      "name": "RentalListingCancelled",
      "type": "event"
    },
    {
      "anonymous": false,
      "inputs": [
        {
          "indexed": true,
          "internalType": "uint256",
          "name": "wrapperId",
          "type": "uint256"
        },
        {
          "indexed": true,
          "internalType": "address",
          "name": "owner",
          "type": "address"
        },
        {
          "indexed": false,
          "internalType": "uint256",
          "name": "pricePerDay",
          "type": "uint256"
        },
        {
          "indexed": false,
          "internalType": "uint256",
          "name": "minDays",
          "type": "uint256"
        },
        {
          "indexed": false,
          "internalType": "uint256",
          "name": "maxDays",
          "type": "uint256"
        }
      ],
      "name": "RentalListingCreated",
      "type": "event"
    },
    {
      "anonymous": false,
      "inputs": [
        {
          "indexed": true,
          "internalType": "uint256",
          "name": "wrapperId",
          "type": "uint256"
        },
        {
          "indexed": false,
          "internalType": "uint256",
          "name": "newPricePerDay",
          "type": "uint256"
        },
        {
          "indexed": false,
          "internalType": "uint256",
          "name": "newMinDays",
          "type": "uint256"
        },
        {
          "indexed": false,
          "internalType": "uint256",
          "name": "newMaxDays",
          "type": "uint256"
        }
      ],
      "name": "RentalListingUpdated",
      "type": "event"
    },
    {
      "inputs": [
        {
          "internalType": "uint256",
          "name": "",
          "type": "uint256"
        }
      ],
      "name": "allListingIds",
      "outputs": [
        {
          "internalType": "uint256",
          "name": "",
          "type": "uint256"
        }
      ],
      "stateMutability": "view",
      "type": "function"
    },
    {
      "inputs": [
        {
          "internalType": "uint256",
          "name": "wrapperId",
          "type": "uint256"
        }
      ],
      "name": "cancelRentalListing",
      "outputs": [],
      "stateMutability": "nonpayable",
      "type": "function"
    },
    {
      "inputs": [
        {
          "internalType": "uint256",
          "name": "wrapperId",
          "type": "uint256"
        },
        {
          "internalType": "uint256",
          "name": "pricePerDay",
          "type": "uint256"
        },
        {
          "internalType": "uint256",
          "name": "minRentalDays",
          "type": "uint256"
        },
        {
          "internalType": "uint256",
          "name": "maxRentalDays",
          "type": "uint256"
        }
      ],
      "name": "createRentalListing",
      "outputs": [],
      "stateMutability": "nonpayable",
      "type": "function"
    },
    {
      "inputs": [],
      "name": "feeRecipient",
      "outputs": [
        {
          "internalType": "address",
          "name": "",
          "type": "address"
        }
      ],
      "stateMutability": "view",
      "type": "function"
    },
    {
      "inputs": [],
      "name": "getActiveListings",
      "outputs": [
        {
          "components": [
            {
              "internalType": "uint256",
              "name": "wrapperId",
              "type": "uint256"
            },
            {
              "internalType": "address",
              "name": "owner",
              "type": "address"
            },
            {
              "internalType": "uint256",
              "name": "pricePerDay",
              "type": "uint256"
            },
            {
              "internalType": "uint256",
              "name": "minRentalDays",
              "type": "uint256"
            },
            {
              "internalType": "uint256",
              "name": "maxRentalDays",
              "type": "uint256"
            },
            {
              "internalType": "bool",
              "name": "isActive",
              "type": "bool"
            },
            {
              "internalType": "uint256",
              "name": "createdAt",
              "type": "uint256"
            }
          ],
          "internalType": "struct RentalManagerDelegated.RentalListing[]",
          "name": "activeListings",
          "type": "tuple[]"
        }
      ],
      "stateMutability": "view",
      "type": "function"
    },
    {
      "inputs": [
        {
          "internalType": "uint256",
          "name": "wrapperId",
          "type": "uint256"
        }
      ],
      "name": "getRentalInfo",
      "outputs": [
        {
          "components": [
            {
              "internalType": "uint256",
              "name": "wrapperId",
              "type": "uint256"
            },
            {
              "internalType": "address",
              "name": "owner",
              "type": "address"
            },
            {
              "internalType": "uint256",
              "name": "pricePerDay",
              "type": "uint256"
            },
            {
              "internalType": "uint256",
              "name": "minRentalDays",
              "type": "uint256"
            },
            {
              "internalType": "uint256",
              "name": "maxRentalDays",
              "type": "uint256"
            },
            {
              "internalType": "bool",
              "name": "isActive",
              "type": "bool"
            },
            {
              "internalType": "uint256",
              "name": "createdAt",
              "type": "uint256"
            }
          ],
          "internalType": "struct RentalManagerDelegated.RentalListing",
          "name": "listing",
          "type": "tuple"
        },
        {
          "internalType": "address",
          "name": "currentRenter",
          "type": "address"
        },
        {
          "internalType": "uint64",
          "name": "expiresAt",
          "type": "uint64"
        }
      ],
      "stateMutability": "view",
      "type": "function"
    },
    {
      "inputs": [
        {
          "internalType": "uint256",
          "name": "",
          "type": "uint256"
        }
      ],
      "name": "listings",
      "outputs": [
        {
          "internalType": "uint256",
          "name": "wrapperId",
          "type": "uint256"
        },
        {
          "internalType": "address",
          "name": "owner",
          "type": "address"
        },
        {
          "internalType": "uint256",
          "name": "pricePerDay",
          "type": "uint256"
        },
        {
          "internalType": "uint256",
          "name": "minRentalDays",
          "type": "uint256"
        },
        {
          "internalType": "uint256",
          "name": "maxRentalDays",
          "type": "uint256"
        },
        {
          "internalType": "bool",
          "name": "isActive",
          "type": "bool"
        },
        {
          "internalType": "uint256",
          "name": "createdAt",
          "type": "uint256"
        }
      ],
      "stateMutability": "view",
      "type": "function"
    },
    {
      "inputs": [],
      "name": "owner",
      "outputs": [
        {
          "internalType": "address",
          "name": "",
          "type": "address"
        }
      ],
      "stateMutability": "view",
      "type": "function"
    },
    {
      "inputs": [],
      "name": "platformFeeBps",
      "outputs": [
        {
          "internalType": "uint256",
          "name": "",
          "type": "uint256"
        }
      ],
      "stateMutability": "view",
      "type": "function"
    },
    {
      "inputs": [],
      "name": "renounceOwnership",
      "outputs": [],
      "stateMutability": "nonpayable",
      "type": "function"
    },
    {
      "inputs": [
        {
          "internalType": "uint256",
          "name": "wrapperId",
          "type": "uint256"
        },
        {
          "internalType": "uint256",
          "name": "rentalDays",
          "type": "uint256"
        }
      ],
      "name": "rentNFT",
      "outputs": [],
      "stateMutability": "payable",
      "type": "function"
    },
    {
      "inputs": [],
      "name": "rentalWrapper",
      "outputs": [
        {
          "internalType": "contract RentalWrapperDelegated",
          "name": "",
          "type": "address"
        }
      ],
      "stateMutability": "view",
      "type": "function"
    },
    {
      "inputs": [
        {
          "internalType": "address",
          "name": "newOwner",
          "type": "address"
        }
      ],
      "name": "transferOwnership",
      "outputs": [],
      "stateMutability": "nonpayable",
      "type": "function"
    },
    {
      "inputs": [
        {
          "internalType": "uint256",
          "name": "wrapperId",
          "type": "uint256"
        }
      ],
      "name": "unwrapNFT",
      "outputs": [],
      "stateMutability": "nonpayable",
      "type": "function"
    },
    {
      "inputs": [
        {
          "internalType": "address",
          "name": "newRecipient",
          "type": "address"
        }
      ],
      "name": "updateFeeRecipient",
      "outputs": [],
      "stateMutability": "nonpayable",
      "type": "function"
    },
    {
      "inputs": [
        {
          "internalType": "uint256",
          "name": "newFeeBps",
          "type": "uint256"
        }
      ],
      "name": "updatePlatformFee",
      "outputs": [],
      "stateMutability": "nonpayable",
      "type": "function"
    },
    {
      "inputs": [
        {
          "internalType": "uint256",
          "name": "wrapperId",
          "type": "uint256"
        },
        {
          "internalType": "uint256",
          "name": "newPricePerDay",
          "type": "uint256"
        },
        {
          "internalType": "uint256",
          "name": "newMinDays",
          "type": "uint256"
        },
        {
          "internalType": "uint256",
          "name": "newMaxDays",
          "type": "uint256"
        }
      ],
      "name": "updateRentalListing",
      "outputs": [],
      "stateMutability": "nonpayable",
      "type": "function"
    },
    {
      "inputs": [
        {
          "internalType": "address",
          "name": "originalContract",
          "type": "address"
        },
        {
          "internalType": "uint256",
          "name": "originalTokenId",
          "type": "uint256"
        }
      ],
      "name": "wrapNFT",
      "outputs": [
        {
          "internalType": "uint256",
          "name": "wrapperId",
          "type": "uint256"
        }
      ],
      "stateMutability": "nonpayable",
      "type": "function"
    }
  ],
  "bytecode": "0x60a03461011457601f6200197038819003918201601f19168301916001600160401b0383118484101761011857808492604094855283398101031261011457610053602061004c8361012c565b920161012c565b9033156100fc575f549160018060a01b03908160018060a01b03199333858716175f5560405195823391167f8be0079c531659141344cd1fd0a4f28419497f9722a3daafe3b4186f6b6457e05f80a360fa600155166080521690600254161760025561182f908162000141823960805181818161033001528181610531015281816106390152818161097e01528181610d9201528181610ecb01528181611070015261132a0152f35b604051631e4fbdf760e01b81525f6004820152602490fd5b5f80fd5b634e487b7160e01b5f52604160045260245ffd5b51906001600160a01b03821682036101145756fe60806040818152600480361015610014575f80fd5b5f9260e05f3560e01c91826322dcd13e1461144f5750816327dc3fbd1461128f5781634690484014611267578163715018a6146112105781637499cd2f1461100a5781637d3fa7b714610f4657816387c35bc014610bde575080638a9a4cfb146109495780638da5cb5b1461092157806393b2d6a0146105ea578063aa0b598814610560578063b81e230c1461051c578063b8ff383d146104e157838163d5cf5f6f1461030d57508063de74e57b1461029a578063f160d369146101f1578063f2fde38b146101645763f65a56da146100eb575f80fd5b346101605760203660031901126101605760059035918284526003602052832061012260018060a01b0360018301541633146115e1565b01805461013160ff8216611621565b60ff1916905533907f23d338a67b21c5dc2b70d113e1c247454ecede863df07905d82542d09a8584fb8380a380f35b8280fd5b50346101605760203660031901126101605761017e6114b4565b906101876117ce565b6001600160a01b039182169283156101db5750505f54826bffffffffffffffffffffffff60a01b8216175f55167f8be0079c531659141344cd1fd0a4f28419497f9722a3daafe3b4186f6b6457e05f80a380f35b51631e4fbdf760e01b8152908101849052602490fd5b5090346101605760203660031901126101605761020c6114b4565b6102146117ce565b6001600160a01b03169182156102645750600280546001600160a01b03191683179055519081527f7a7b5a0a132f9e0581eb8527f66eae9ee89c2a3e79d4ac7e41a1f1f4d48a7fc290602090a180f35b6020606492519162461bcd60e51b83528201526011602482015270125b9d985b1a59081c9958da5c1a595b9d607a1b6044820152fd5b5034610160576020366003190112610160578160e0938235815260036020522080549260018060a01b0360018301541692600283015460038401549184015492600660ff600587015416950154958151978852602088015286015260608501526080840152151560a083015260c0820152f35b8281853461044257602090816003193601126101605783359360018060a01b03807f0000000000000000000000000000000000000000000000000000000000000000169383516331a9108f60e11b815287848201528181602481895afa80156104a15787906104ab575b61038591508316331461172f565b8351636178f8a560e11b81528381018890528181602481895afa9081156104a1578791610460575b506003926103bc91161561176f565b86865252600582852001805460ff8116610453575b5050823b1561044f578460248592838551968794859363d5cf5f6f60e01b85528401525af1908115610446575061042e575b505033907fc4c9bf77c0411d906a84f605dd07cc13109daca98a8e0c81871f00f0ad0631838380a380f35b61043790611561565b610442578183610403565b5080fd5b513d84823e3d90fd5b8380fd5b60ff1916905586806103d1565b90508181813d831161049a575b6104778183611575565b810103126104965760039261048e6103bc926115cd565b9150926103ad565b8680fd5b503d61046d565b85513d89823e3d90fd5b508181813d83116104da575b6104c18183611575565b81010312610496576104d5610385916115cd565b610377565b503d6104b7565b5091346105195760203660031901126105195782359254831015610519575061050b6020926114e8565b91905490519160031b1c8152f35b80fd5b505034610442578160031936011261044257517f00000000000000000000000000000000000000000000000000000000000000006001600160a01b03168152602090f35b5090346101605760203660031901126101605781359161057e6117ce565b6103e883116105b95750816020917f45610d581145924dd7090a5017e5f2b1d6f42213bb2e95707ff86846bbfcb1ca9360015551908152a180f35b6020606492519162461bcd60e51b8352820152600c60248201526b08ccaca40e8dede40d0d2ced60a31b6044820152fd5b509080600319360112610160578135906024908135938386526020600381528287209161061d60ff600585015416611621565b8351636178f8a560e11b81528181018790526001600160a01b037f000000000000000000000000000000000000000000000000000000000000000081169691848184818b5afa80156109175782908c906108db575b61067e9250161561176f565b6003850154891015806108ce575b1561088d5761069f8960028701546117ae565b906127106106af600154846117ae565b04916106bb83826117c1565b968734106108545762015180808d02908d8204148d151715610842579067ffffffffffffffff6106ef8f96959493426117c1565b169a803b1561083e578a516370182b2f60e11b81528089018e90523388820152604481018d90529086908290606490829084905af18015610834579184918793610817575b50829383926001849301541682821561080e575bf115610804578280928192600254168282156107fb575bf1156107f1578334116107a3575b505082519586528501528301527f0500b841cf5b98eff984c5e3baba9e3699eb7e8e67ff07fcf1e2a46e5203723460603393a380f35b833403913483116107e05750508780808093818734146107d7575b3390f1156107cd575f8061076d565b82513d88823e3d90fd5b506108fc6107be565b634e487b7160e01b8a526011905288fd5b84513d8a823e3d90fd5b506108fc61075f565b87513d84823e3d90fd5b506108fc610748565b61082391939250611561565b610830578285915f610734565b8480fd5b8b513d88823e3d90fd5b8580fd5b634e487b7160e01b8e5260118752858efd5b885162461bcd60e51b815280870188905260148187015273125b9cdd59999a58da595b9d081c185e5b595b9d60621b6044820152606490fd5b5060179060649386519362461bcd60e51b85528401528201527f496e76616c69642072656e74616c206475726174696f6e0000000000000000006044820152fd5b508285015489111561068c565b50508481813d8311610910575b6108f28183611575565b8101031261090c578161090761067e926115cd565b610672565b8a80fd5b503d6108e8565b87513d8d823e3d90fd5b505034610442578160031936011261044257905490516001600160a01b039091168152602090f35b509190346104425761095a366114ca565b84516331a9108f60e11b8152878101859052929490926001600160a01b03906020907f00000000000000000000000000000000000000000000000000000000000000008316908281602481855afa8015610bd4578a90610b9a575b6109c391508416331461172f565b818760248c87519485938492636178f8a560e11b84528301525afa908115610b9057879184918b91610b4a575b5060069391610a0091161561176f565b610a0b891515611662565b85151580610b40575b610a1d906116a2565b89855194610a2a86611531565b838652828601338152878701908c825260608801928a84528960808a01958d8752600360a08c019860018a5260c08d019a428c528352522098518955600189019151166bffffffffffffffffffffffff60a01b825416179055516002870155516003860155518b850155600584019051151560ff8019835416911617905551910155865468010000000000000000811015610b2d577f5d9ffa96ad78cd06885a79bf8973197743dbe52e3a8e8bc6bff5ce03b260d317939291610af6828a6001610b27950190556114e8565b81549060031b9088821b915f19901b1916179055519283923397846040919493926060820195825260208201520152565b0390a380f35b634e487b7160e01b875260418852602487fd5b5086861115610a14565b925050508181813d8311610b89575b610b638183611575565b81010312610b8557600691610a0084610b7c8a946115cd565b915091936109f0565b8880fd5b503d610b59565b84513d8b823e3d90fd5b508281813d8311610bcd575b610bb08183611575565b81010312610bc957610bc46109c3916115cd565b6109b5565b8980fd5b503d610ba6565b85513d8c823e3d90fd5b8484843461016057826003193601126101605792918091818554905b818110610e405750610c23610c0e85611703565b94610c1b84519687611575565b808652611703565b60209690601f1901845b818110610e1f57505083845b838110610c9057505050508051948594818087019381885286518095528701950193905b838210610c6a5786860387f35b918496508286610c806001949698849851611469565b0196019201869594929391610c5d565b8885610ca1839b9897999a9b6114e8565b9054600391821b1c80895281845260ff916005918383868d2001541680610d68575b610cdc575b505050505050600101979695939497610c39565b92600692600197989592610d5a97958d52808652838d2093805196610d0088611531565b855488528a8060a01b038b8701541690880152600285015490870152830154606086015289830154608086015282015416151560a0840152015460c0820152610d49828c61171b565b52610d54818b61171b565b506116e1565b91905085878b808080610cc8565b508c51636178f8a560e11b8152898101829052939550919350916001600160a01b03908b816024817f000000000000000000000000000000000000000000000000000000000000000086165afa908115610e1557918d9593918d9795938d91610dd4575b501615610cc3565b929496505091939581813d8311610e0e575b610df08183611575565b8101031261090c57918b959391610e088e96946115cd565b5f610dcc565b503d610de6565b8d513d8d823e3d90fd5b97809594969798610e2e611597565b82828b01015201979695939497610c2d565b610e4f819794939596976114e8565b9054600391821b1c845260209080825260ff60058887200154169182610e99575b5050610e85575b600101959493919295610bfa565b94610e916001916116e1565b959050610e77565b6001600160a01b03925090610ead846114e8565b9054911b1c875190636178f8a560e11b8252878201528181602481867f0000000000000000000000000000000000000000000000000000000000000000165afa918215610f3c578692610f06575b505016158880610e70565b90809250813d8311610f35575b610f1d8183611575565b8101031261083057610f2e906115cd565b8980610efb565b503d610f13565b88513d88823e3d90fd5b505034610160577f23e36ecf1a4b365492f7dd38a0f7a4278a3c3474cd41ced9b1c410e09e10759c90610ffa610f7b366114ca565b83979195819395948a526003602052828a20610fa460018060a01b0360018301541633146115e1565b610fb460ff600583015416611621565b610fbf871515611662565b87151580611000575b610fd1906116a2565b866002820155876003820155015551938493846040919493926060820195825260208201520152565b0390a280f35b5082881115610fc8565b5050903461120c578060031936011261120c576110256114b4565b6024356001600160a01b0382811690813b1561120c5784516323b872dd60e01b81523387820152306024820152604481018490525f8160648183875af18015611202576111ef575b507f00000000000000000000000000000000000000000000000000000000000000001694813b1561049657845163095ea7b360e01b81526001600160a01b03871682820190815260208101859052889190829082908190604001038183885af18015610804579087949392916111d6575b509060649184519889948593630688fa1f60e31b85528401528660248401523360448401525af19384156111cc578594611163575b5082516001600160a01b0390921682526020828101919091529350339083907fb453eefebc226fc2192f1723c6da5303ee239b0b4ead4d7519c1af9fbb36cb099080604081015b0390a351908152f35b91935091938482813d83116111c5575b61117d8183611575565b81010312610519575091602093917fb453eefebc226fc2192f1723c6da5303ee239b0b4ead4d7519c1af9fbb36cb09846111bd8761115a975192016115cd565b509450611113565b503d611173565b83513d87823e3d90fd5b6111e291929450611561565b610496578491875f6110de565b6111fa919750611561565b5f955f61106d565b86513d5f823e3d90fd5b5f80fd5b3461120c575f36600319011261120c576112286117ce565b5f80546001600160a01b0319811682556001600160a01b03167f8be0079c531659141344cd1fd0a4f28419497f9722a3daafe3b4186f6b6457e08280a3005b833461120c575f36600319011261120c5760025490516001600160a01b039091168152602090f35b50503461120c576020918260031936011261120c578135916112af611597565b50825f5260038452815f20918051936112c785611531565b8354855260018401546001600160a01b039081168787015260028501548387015260038501546060870152838501546080870152600585015460ff16151560a087015260069094015460c08601528151636178f8a560e11b8152808401829052927f0000000000000000000000000000000000000000000000000000000000000000851691908785602481865afa94851561144557908892915f9661140b575b50602490855194859384926311f9118960e31b84528301525afa958615611401575f966113ba575b6101208667ffffffffffffffff8988886113ab89518096611469565b1660e084015216610100820152f35b908092939650813d83116113fa575b6113d38183611575565b8101031261120c57519167ffffffffffffffff8316830361120c57919390816113ab61138f565b503d6113c9565b82513d5f823e3d90fd5b8381949297503d831161143e575b6114238183611575565b8101031261120c57602461143789936115cd565b9590611367565b503d611419565b84513d5f823e3d90fd5b3461120c575f36600319011261120c576020906001548152f35b60c080918051845260018060a01b03602082015116602085015260408101516040850152606081015160608501526080810151608085015260a0810151151560a08501520151910152565b600435906001600160a01b038216820361120c57565b608090600319011261120c5760043590602435906044359060643590565b60045481101561151d5760045f527f8a35acfbc15ff81a39ae7d344fd709f28e8600b4aa8c65c6b64bfe7fe36bd19b01905f90565b634e487b7160e01b5f52603260045260245ffd5b60e0810190811067ffffffffffffffff82111761154d57604052565b634e487b7160e01b5f52604160045260245ffd5b67ffffffffffffffff811161154d57604052565b90601f8019910116810190811067ffffffffffffffff82111761154d57604052565b604051906115a482611531565b5f60c0838281528260208201528260408201528260608201528260808201528260a08201520152565b51906001600160a01b038216820361120c57565b156115e857565b60405162461bcd60e51b81526020600482015260116024820152702737ba103634b9ba34b7339037bbb732b960791b6044820152606490fd5b1561162857565b60405162461bcd60e51b81526020600482015260126024820152714c697374696e67206e6f742061637469766560701b6044820152606490fd5b1561166957565b60405162461bcd60e51b815260206004820152601160248201527005072696365206d757374206265203e203607c1b6044820152606490fd5b156116a957565b60405162461bcd60e51b815260206004820152601060248201526f24b73b30b634b210323ab930ba34b7b760811b6044820152606490fd5b5f1981146116ef5760010190565b634e487b7160e01b5f52601160045260245ffd5b67ffffffffffffffff811161154d5760051b60200190565b805182101561151d5760209160051b010190565b1561173657565b60405162461bcd60e51b81526020600482015260116024820152702737ba103bb930b83832b91037bbb732b960791b6044820152606490fd5b1561177657565b60405162461bcd60e51b815260206004820152601060248201526f10dd5c9c995b9d1b1e481c995b9d195960821b6044820152606490fd5b818102929181159184041417156116ef57565b919082018092116116ef57565b5f546001600160a01b031633036117e157565b60405163118cdaa760e01b8152336004820152602490fdfea2646970667358221220ec63afcce19cf0bf5c4126e83602c8ff2a0cdc40742383105c7e4ed1a3549c8964736f6c63430008180033",
  "linkReferences": {},
  "deployedLinkReferences": {}
}